{
  "contractName": "AutenticaERC721CompatibleMock",
  "abi": [
    {
      "inputs": [
        {
          "internalType": "string",
          "name": "_name",
          "type": "string"
        },
        {
          "internalType": "string",
          "name": "_symbol",
          "type": "string"
        }
      ],
      "stateMutability": "nonpayable",
      "type": "constructor"
    },
    {
      "anonymous": false,
      "inputs": [
        {
          "indexed": true,
          "internalType": "address",
          "name": "owner",
          "type": "address"
        },
        {
          "indexed": true,
          "internalType": "address",
          "name": "approved",
          "type": "address"
        },
        {
          "indexed": true,
          "internalType": "uint256",
          "name": "tokenId",
          "type": "uint256"
        }
      ],
      "name": "Approval",
      "type": "event"
    },
    {
      "anonymous": false,
      "inputs": [
        {
          "indexed": true,
          "internalType": "address",
          "name": "owner",
          "type": "address"
        },
        {
          "indexed": true,
          "internalType": "address",
          "name": "operator",
          "type": "address"
        },
        {
          "indexed": false,
          "internalType": "bool",
          "name": "approved",
          "type": "bool"
        }
      ],
      "name": "ApprovalForAll",
      "type": "event"
    },
    {
      "anonymous": false,
      "inputs": [
        {
          "indexed": true,
          "internalType": "address",
          "name": "from",
          "type": "address"
        },
        {
          "indexed": true,
          "internalType": "address",
          "name": "to",
          "type": "address"
        },
        {
          "indexed": true,
          "internalType": "uint256",
          "name": "tokenId",
          "type": "uint256"
        }
      ],
      "name": "Transfer",
      "type": "event"
    },
    {
      "inputs": [
        {
          "internalType": "address",
          "name": "to",
          "type": "address"
        },
        {
          "internalType": "uint256",
          "name": "tokenId",
          "type": "uint256"
        }
      ],
      "name": "approve",
      "outputs": [],
      "stateMutability": "nonpayable",
      "type": "function"
    },
    {
      "inputs": [
        {
          "internalType": "address",
          "name": "owner",
          "type": "address"
        }
      ],
      "name": "balanceOf",
      "outputs": [
        {
          "internalType": "uint256",
          "name": "",
          "type": "uint256"
        }
      ],
      "stateMutability": "view",
      "type": "function"
    },
    {
      "inputs": [],
      "name": "currentSupply",
      "outputs": [
        {
          "internalType": "uint256",
          "name": "",
          "type": "uint256"
        }
      ],
      "stateMutability": "view",
      "type": "function"
    },
    {
      "inputs": [
        {
          "internalType": "uint256",
          "name": "tokenId",
          "type": "uint256"
        }
      ],
      "name": "getApproved",
      "outputs": [
        {
          "internalType": "address",
          "name": "",
          "type": "address"
        }
      ],
      "stateMutability": "view",
      "type": "function"
    },
    {
      "inputs": [
        {
          "internalType": "address",
          "name": "owner",
          "type": "address"
        },
        {
          "internalType": "address",
          "name": "operator",
          "type": "address"
        }
      ],
      "name": "isApprovedForAll",
      "outputs": [
        {
          "internalType": "bool",
          "name": "",
          "type": "bool"
        }
      ],
      "stateMutability": "view",
      "type": "function"
    },
    {
      "inputs": [],
      "name": "name",
      "outputs": [
        {
          "internalType": "string",
          "name": "",
          "type": "string"
        }
      ],
      "stateMutability": "view",
      "type": "function"
    },
    {
      "inputs": [
        {
          "internalType": "uint256",
          "name": "tokenId",
          "type": "uint256"
        }
      ],
      "name": "ownerOf",
      "outputs": [
        {
          "internalType": "address",
          "name": "",
          "type": "address"
        }
      ],
      "stateMutability": "view",
      "type": "function"
    },
    {
      "inputs": [
        {
          "internalType": "address",
          "name": "from",
          "type": "address"
        },
        {
          "internalType": "address",
          "name": "to",
          "type": "address"
        },
        {
          "internalType": "uint256",
          "name": "tokenId",
          "type": "uint256"
        }
      ],
      "name": "safeTransferFrom",
      "outputs": [],
      "stateMutability": "nonpayable",
      "type": "function"
    },
    {
      "inputs": [
        {
          "internalType": "address",
          "name": "from",
          "type": "address"
        },
        {
          "internalType": "address",
          "name": "to",
          "type": "address"
        },
        {
          "internalType": "uint256",
          "name": "tokenId",
          "type": "uint256"
        },
        {
          "internalType": "bytes",
          "name": "_data",
          "type": "bytes"
        }
      ],
      "name": "safeTransferFrom",
      "outputs": [],
      "stateMutability": "nonpayable",
      "type": "function"
    },
    {
      "inputs": [
        {
          "internalType": "address",
          "name": "operator",
          "type": "address"
        },
        {
          "internalType": "bool",
          "name": "approved",
          "type": "bool"
        }
      ],
      "name": "setApprovalForAll",
      "outputs": [],
      "stateMutability": "nonpayable",
      "type": "function"
    },
    {
      "inputs": [],
      "name": "symbol",
      "outputs": [
        {
          "internalType": "string",
          "name": "",
          "type": "string"
        }
      ],
      "stateMutability": "view",
      "type": "function"
    },
    {
      "inputs": [
        {
          "internalType": "uint256",
          "name": "tokenId",
          "type": "uint256"
        }
      ],
      "name": "tokenURI",
      "outputs": [
        {
          "internalType": "string",
          "name": "",
          "type": "string"
        }
      ],
      "stateMutability": "view",
      "type": "function"
    },
    {
      "inputs": [
        {
          "internalType": "address",
          "name": "from",
          "type": "address"
        },
        {
          "internalType": "address",
          "name": "to",
          "type": "address"
        },
        {
          "internalType": "uint256",
          "name": "tokenId",
          "type": "uint256"
        }
      ],
      "name": "transferFrom",
      "outputs": [],
      "stateMutability": "nonpayable",
      "type": "function"
    },
    {
      "inputs": [
        {
          "internalType": "address",
          "name": "_to",
          "type": "address"
        },
        {
          "internalType": "uint256",
          "name": "royaltyFee",
          "type": "uint256"
        },
        {
          "internalType": "uint256",
          "name": "investorFee",
          "type": "uint256"
        }
      ],
      "name": "mint",
      "outputs": [],
      "stateMutability": "nonpayable",
      "type": "function"
    },
    {
      "inputs": [],
      "name": "decimals",
      "outputs": [
        {
          "internalType": "uint8",
          "name": "",
          "type": "uint8"
        }
      ],
      "stateMutability": "pure",
      "type": "function"
    },
    {
      "inputs": [
        {
          "internalType": "uint256",
          "name": "tokenId",
          "type": "uint256"
        }
      ],
      "name": "getRoyaltyFee",
      "outputs": [
        {
          "internalType": "uint256",
          "name": "",
          "type": "uint256"
        }
      ],
      "stateMutability": "view",
      "type": "function"
    },
    {
      "inputs": [
        {
          "internalType": "uint256",
          "name": "tokenId",
          "type": "uint256"
        }
      ],
      "name": "getInvestorFee",
      "outputs": [
        {
          "internalType": "uint256",
          "name": "",
          "type": "uint256"
        }
      ],
      "stateMutability": "view",
      "type": "function"
    },
    {
      "inputs": [
        {
          "internalType": "uint256",
          "name": "tokenId",
          "type": "uint256"
        }
      ],
      "name": "getCreator",
      "outputs": [
        {
          "internalType": "address",
          "name": "",
          "type": "address"
        }
      ],
      "stateMutability": "view",
      "type": "function"
    },
    {
      "inputs": [
        {
          "internalType": "uint256",
          "name": "tokenId",
          "type": "uint256"
        }
      ],
      "name": "getInvestor",
      "outputs": [
        {
          "internalType": "address",
          "name": "",
          "type": "address"
        }
      ],
      "stateMutability": "view",
      "type": "function"
    },
    {
      "inputs": [
        {
          "internalType": "bytes4",
          "name": "interfaceId",
          "type": "bytes4"
        }
      ],
      "name": "supportsInterface",
      "outputs": [
        {
          "internalType": "bool",
          "name": "",
          "type": "bool"
        }
      ],
      "stateMutability": "view",
      "type": "function"
    }
  ],
  "bytecode": "0x608060405260006006553480156200001657600080fd5b5060405162002eb838038062002eb883398181016040528101906200003c9190620002c7565b81818160009080519060200190620000569291906200007a565b5080600190805190602001906200006f9291906200007a565b5050505050620003b1565b82805462000088906200037b565b90600052602060002090601f016020900481019282620000ac5760008555620000f8565b82601f10620000c757805160ff1916838001178555620000f8565b82800160010185558215620000f8579182015b82811115620000f7578251825591602001919060010190620000da565b5b5090506200010791906200010b565b5090565b5b80821115620001265760008160009055506001016200010c565b5090565b6000604051905090565b600080fd5b600080fd5b600080fd5b600080fd5b6000601f19601f8301169050919050565b7f4e487b7100000000000000000000000000000000000000000000000000000000600052604160045260246000fd5b620001938262000148565b810181811067ffffffffffffffff82111715620001b557620001b462000159565b5b80604052505050565b6000620001ca6200012a565b9050620001d8828262000188565b919050565b600067ffffffffffffffff821115620001fb57620001fa62000159565b5b620002068262000148565b9050602081019050919050565b60005b838110156200023357808201518184015260208101905062000216565b8381111562000243576000848401525b50505050565b6000620002606200025a84620001dd565b620001be565b9050828152602081018484840111156200027f576200027e62000143565b5b6200028c84828562000213565b509392505050565b600082601f830112620002ac57620002ab6200013e565b5b8151620002be84826020860162000249565b91505092915050565b60008060408385031215620002e157620002e062000134565b5b600083015167ffffffffffffffff81111562000302576200030162000139565b5b620003108582860162000294565b925050602083015167ffffffffffffffff81111562000334576200033362000139565b5b620003428582860162000294565b9150509250929050565b7f4e487b7100000000000000000000000000000000000000000000000000000000600052602260045260246000fd5b600060028204905060018216806200039457607f821691505b60208210811415620003ab57620003aa6200034c565b5b50919050565b612af780620003c16000396000f3fe608060405234801561001057600080fd5b506004361061012c5760003560e01c8063771282f6116100ad578063c87b56dd11610071578063c87b56dd14610341578063c99dccf914610371578063d48e638a146103a1578063e985e9c5146103d1578063f915765b146104015761012c565b8063771282f61461029d57806395d89b41146102bb5780639e4c0141146102d9578063a22cb46514610309578063b88d4fde146103255761012c565b806323b872dd116100f457806323b872dd146101e7578063313ce5671461020357806342842e0e146102215780636352211e1461023d57806370a082311461026d5761012c565b806301ffc9a71461013157806306fdde0314610161578063081812fc1461017f578063095ea7b3146101af578063156e29f6146101cb575b600080fd5b61014b600480360381019061014691906119f0565b610431565b6040516101589190611a38565b60405180910390f35b6101696104ab565b6040516101769190611aec565b60405180910390f35b61019960048036038101906101949190611b44565b61053d565b6040516101a69190611bb2565b60405180910390f35b6101c960048036038101906101c49190611bf9565b6105c2565b005b6101e560048036038101906101e09190611c39565b6106da565b005b61020160048036038101906101fc9190611c8c565b610824565b005b61020b610884565b6040516102189190611cfb565b60405180910390f35b61023b60048036038101906102369190611c8c565b61088d565b005b61025760048036038101906102529190611b44565b6108ad565b6040516102649190611bb2565b60405180910390f35b61028760048036038101906102829190611d16565b61095f565b6040516102949190611d52565b60405180910390f35b6102a5610a17565b6040516102b29190611d52565b60405180910390f35b6102c3610a1d565b6040516102d09190611aec565b60405180910390f35b6102f360048036038101906102ee9190611b44565b610aaf565b6040516103009190611d52565b60405180910390f35b610323600480360381019061031e9190611d99565b610acf565b005b61033f600480360381019061033a9190611f0e565b610ae5565b005b61035b60048036038101906103569190611b44565b610b47565b6040516103689190611aec565b60405180910390f35b61038b60048036038101906103869190611b44565b610bee565b6040516103989190611bb2565b60405180910390f35b6103bb60048036038101906103b69190611b44565b610c2e565b6040516103c89190611bb2565b60405180910390f35b6103eb60048036038101906103e69190611f91565b610c6e565b6040516103f89190611a38565b60405180910390f35b61041b60048036038101906104169190611b44565b610d02565b6040516104289190611d52565b60405180910390f35b60007f4b763d0e000000000000000000000000000000000000000000000000000000007bffffffffffffffffffffffffffffffffffffffffffffffffffffffff1916827bffffffffffffffffffffffffffffffffffffffffffffffffffffffff191614806104a457506104a382610d22565b5b9050919050565b6060600080546104ba90612000565b80601f01602080910402602001604051908101604052809291908181526020018280546104e690612000565b80156105335780601f1061050857610100808354040283529160200191610533565b820191906000526020600020905b81548152906001019060200180831161051657829003601f168201915b5050505050905090565b600061054882610e04565b610587576040517f08c379a000000000000000000000000000000000000000000000000000000000815260040161057e906120a4565b60405180910390fd5b6004600083815260200190815260200160002060009054906101000a900473ffffffffffffffffffffffffffffffffffffffff169050919050565b60006105cd826108ad565b90508073ffffffffffffffffffffffffffffffffffffffff168373ffffffffffffffffffffffffffffffffffffffff16141561063e576040517f08c379a000000000000000000000000000000000000000000000000000000000815260040161063590612136565b60405180910390fd5b8073ffffffffffffffffffffffffffffffffffffffff1661065d610e70565b73ffffffffffffffffffffffffffffffffffffffff16148061068c575061068b81610686610e70565b610c6e565b5b6106cb576040517f08c379a00000000000000000000000000000000000000000000000000000000081526004016106c2906121c8565b60405180910390fd5b6106d58383610e78565b505050565b6106f28360016006546106ed9190612217565b610f31565b60405180608001604052808473ffffffffffffffffffffffffffffffffffffffff1681526020013373ffffffffffffffffffffffffffffffffffffffff168152602001838152602001828152506007600060016006546107529190612217565b815260200190815260200160002060008201518160000160006101000a81548173ffffffffffffffffffffffffffffffffffffffff021916908373ffffffffffffffffffffffffffffffffffffffff16021790555060208201518160010160006101000a81548173ffffffffffffffffffffffffffffffffffffffff021916908373ffffffffffffffffffffffffffffffffffffffff16021790555060408201518160020155606082015181600301559050506001600660008282546108189190612217565b92505081905550505050565b61083561082f610e70565b826110ff565b610874576040517f08c379a000000000000000000000000000000000000000000000000000000000815260040161086b906122df565b60405180910390fd5b61087f8383836111dd565b505050565b60006004905090565b6108a883838360405180602001604052806000815250610ae5565b505050565b6000806002600084815260200190815260200160002060009054906101000a900473ffffffffffffffffffffffffffffffffffffffff169050600073ffffffffffffffffffffffffffffffffffffffff168173ffffffffffffffffffffffffffffffffffffffff161415610956576040517f08c379a000000000000000000000000000000000000000000000000000000000815260040161094d90612371565b60405180910390fd5b80915050919050565b60008073ffffffffffffffffffffffffffffffffffffffff168273ffffffffffffffffffffffffffffffffffffffff1614156109d0576040517f08c379a00000000000000000000000000000000000000000000000000000000081526004016109c790612403565b60405180910390fd5b600360008373ffffffffffffffffffffffffffffffffffffffff1673ffffffffffffffffffffffffffffffffffffffff168152602001908152602001600020549050919050565b60065481565b606060018054610a2c90612000565b80601f0160208091040260200160405190810160405280929190818152602001828054610a5890612000565b8015610aa55780601f10610a7a57610100808354040283529160200191610aa5565b820191906000526020600020905b815481529060010190602001808311610a8857829003601f168201915b5050505050905090565b600060076000838152602001908152602001600020600201549050919050565b610ae1610ada610e70565b8383611439565b5050565b610af6610af0610e70565b836110ff565b610b35576040517f08c379a0000000000000000000000000000000000000000000000000000000008152600401610b2c906122df565b60405180910390fd5b610b41848484846115a6565b50505050565b6060610b5282610e04565b610b91576040517f08c379a0000000000000000000000000000000000000000000000000000000008152600401610b8890612495565b60405180910390fd5b6000610b9b611602565b90506000815111610bbb5760405180602001604052806000815250610be6565b80610bc584611619565b604051602001610bd69291906124f1565b6040516020818303038152906040525b915050919050565b60006007600083815260200190815260200160002060010160009054906101000a900473ffffffffffffffffffffffffffffffffffffffff169050919050565b60006007600083815260200190815260200160002060000160009054906101000a900473ffffffffffffffffffffffffffffffffffffffff169050919050565b6000600560008473ffffffffffffffffffffffffffffffffffffffff1673ffffffffffffffffffffffffffffffffffffffff16815260200190815260200160002060008373ffffffffffffffffffffffffffffffffffffffff1673ffffffffffffffffffffffffffffffffffffffff16815260200190815260200160002060009054906101000a900460ff16905092915050565b600060076000838152602001908152602001600020600301549050919050565b60007f80ac58cd000000000000000000000000000000000000000000000000000000007bffffffffffffffffffffffffffffffffffffffffffffffffffffffff1916827bffffffffffffffffffffffffffffffffffffffffffffffffffffffff19161480610ded57507f5b5e139f000000000000000000000000000000000000000000000000000000007bffffffffffffffffffffffffffffffffffffffffffffffffffffffff1916827bffffffffffffffffffffffffffffffffffffffffffffffffffffffff1916145b80610dfd5750610dfc8261177a565b5b9050919050565b60008073ffffffffffffffffffffffffffffffffffffffff166002600084815260200190815260200160002060009054906101000a900473ffffffffffffffffffffffffffffffffffffffff1673ffffffffffffffffffffffffffffffffffffffff1614159050919050565b600033905090565b816004600083815260200190815260200160002060006101000a81548173ffffffffffffffffffffffffffffffffffffffff021916908373ffffffffffffffffffffffffffffffffffffffff160217905550808273ffffffffffffffffffffffffffffffffffffffff16610eeb836108ad565b73ffffffffffffffffffffffffffffffffffffffff167f8c5be1e5ebec7d5bd14f71427d1e84f3dd0314c0f7b2291e5b200ac8c7c3b92560405160405180910390a45050565b600073ffffffffffffffffffffffffffffffffffffffff168273ffffffffffffffffffffffffffffffffffffffff161415610fa1576040517f08c379a0000000000000000000000000000000000000000000000000000000008152600401610f9890612561565b60405180910390fd5b610faa81610e04565b15610fea576040517f08c379a0000000000000000000000000000000000000000000000000000000008152600401610fe1906125cd565b60405180910390fd5b610ff6600083836117e4565b6001600360008473ffffffffffffffffffffffffffffffffffffffff1673ffffffffffffffffffffffffffffffffffffffff16815260200190815260200160002060008282546110469190612217565b92505081905550816002600083815260200190815260200160002060006101000a81548173ffffffffffffffffffffffffffffffffffffffff021916908373ffffffffffffffffffffffffffffffffffffffff160217905550808273ffffffffffffffffffffffffffffffffffffffff16600073ffffffffffffffffffffffffffffffffffffffff167fddf252ad1be2c89b69c2b068fc378daa952ba7f163c4a11628f55a4df523b3ef60405160405180910390a45050565b600061110a82610e04565b611149576040517f08c379a00000000000000000000000000000000000000000000000000000000081526004016111409061265f565b60405180910390fd5b6000611154836108ad565b90508073ffffffffffffffffffffffffffffffffffffffff168473ffffffffffffffffffffffffffffffffffffffff1614806111c357508373ffffffffffffffffffffffffffffffffffffffff166111ab8461053d565b73ffffffffffffffffffffffffffffffffffffffff16145b806111d457506111d38185610c6e565b5b91505092915050565b8273ffffffffffffffffffffffffffffffffffffffff166111fd826108ad565b73ffffffffffffffffffffffffffffffffffffffff1614611253576040517f08c379a000000000000000000000000000000000000000000000000000000000815260040161124a906126f1565b60405180910390fd5b600073ffffffffffffffffffffffffffffffffffffffff168273ffffffffffffffffffffffffffffffffffffffff1614156112c3576040517f08c379a00000000000000000000000000000000000000000000000000000000081526004016112ba90612783565b60405180910390fd5b6112ce8383836117e4565b6112d9600082610e78565b6001600360008573ffffffffffffffffffffffffffffffffffffffff1673ffffffffffffffffffffffffffffffffffffffff168152602001908152602001600020600082825461132991906127a3565b925050819055506001600360008473ffffffffffffffffffffffffffffffffffffffff1673ffffffffffffffffffffffffffffffffffffffff16815260200190815260200160002060008282546113809190612217565b92505081905550816002600083815260200190815260200160002060006101000a81548173ffffffffffffffffffffffffffffffffffffffff021916908373ffffffffffffffffffffffffffffffffffffffff160217905550808273ffffffffffffffffffffffffffffffffffffffff168473ffffffffffffffffffffffffffffffffffffffff167fddf252ad1be2c89b69c2b068fc378daa952ba7f163c4a11628f55a4df523b3ef60405160405180910390a4505050565b8173ffffffffffffffffffffffffffffffffffffffff168373ffffffffffffffffffffffffffffffffffffffff1614156114a8576040517f08c379a000000000000000000000000000000000000000000000000000000000815260040161149f90612823565b60405180910390fd5b80600560008573ffffffffffffffffffffffffffffffffffffffff1673ffffffffffffffffffffffffffffffffffffffff16815260200190815260200160002060008473ffffffffffffffffffffffffffffffffffffffff1673ffffffffffffffffffffffffffffffffffffffff16815260200190815260200160002060006101000a81548160ff0219169083151502179055508173ffffffffffffffffffffffffffffffffffffffff168373ffffffffffffffffffffffffffffffffffffffff167f17307eab39ab6107e8899845ad3d59bd9653f200f220920489ca2b5937696c31836040516115999190611a38565b60405180910390a3505050565b6115b18484846111dd565b6115bd848484846117e9565b6115fc576040517f08c379a00000000000000000000000000000000000000000000000000000000081526004016115f3906128b5565b60405180910390fd5b50505050565b606060405180602001604052806000815250905090565b60606000821415611661576040518060400160405280600181526020017f30000000000000000000000000000000000000000000000000000000000000008152509050611775565b600082905060005b6000821461169357808061167c906128d5565b915050600a8261168c919061294d565b9150611669565b60008167ffffffffffffffff8111156116af576116ae611de3565b5b6040519080825280601f01601f1916602001820160405280156116e15781602001600182028036833780820191505090505b5090505b6000851461176e576001826116fa91906127a3565b9150600a85611709919061297e565b60306117159190612217565b60f81b81838151811061172b5761172a6129af565b5b60200101907effffffffffffffffffffffffffffffffffffffffffffffffffffffffffffff1916908160001a905350600a85611767919061294d565b94506116e5565b8093505050505b919050565b60007f01ffc9a7000000000000000000000000000000000000000000000000000000007bffffffffffffffffffffffffffffffffffffffffffffffffffffffff1916827bffffffffffffffffffffffffffffffffffffffffffffffffffffffff1916149050919050565b505050565b600061180a8473ffffffffffffffffffffffffffffffffffffffff16611971565b15611964578373ffffffffffffffffffffffffffffffffffffffff1663150b7a02611833610e70565b8786866040518563ffffffff1660e01b81526004016118559493929190612a33565b6020604051808303816000875af192505050801561189157506040513d601f19601f8201168201806040525081019061188e9190612a94565b60015b611914573d80600081146118c1576040519150601f19603f3d011682016040523d82523d6000602084013e6118c6565b606091505b5060008151141561190c576040517f08c379a0000000000000000000000000000000000000000000000000000000008152600401611903906128b5565b60405180910390fd5b805181602001fd5b63150b7a0260e01b7bffffffffffffffffffffffffffffffffffffffffffffffffffffffff1916817bffffffffffffffffffffffffffffffffffffffffffffffffffffffff191614915050611969565b600190505b949350505050565b600080823b905060008111915050919050565b6000604051905090565b600080fd5b600080fd5b60007fffffffff0000000000000000000000000000000000000000000000000000000082169050919050565b6119cd81611998565b81146119d857600080fd5b50565b6000813590506119ea816119c4565b92915050565b600060208284031215611a0657611a0561198e565b5b6000611a14848285016119db565b91505092915050565b60008115159050919050565b611a3281611a1d565b82525050565b6000602082019050611a4d6000830184611a29565b92915050565b600081519050919050565b600082825260208201905092915050565b60005b83811015611a8d578082015181840152602081019050611a72565b83811115611a9c576000848401525b50505050565b6000601f19601f8301169050919050565b6000611abe82611a53565b611ac88185611a5e565b9350611ad8818560208601611a6f565b611ae181611aa2565b840191505092915050565b60006020820190508181036000830152611b068184611ab3565b905092915050565b6000819050919050565b611b2181611b0e565b8114611b2c57600080fd5b50565b600081359050611b3e81611b18565b92915050565b600060208284031215611b5a57611b5961198e565b5b6000611b6884828501611b2f565b91505092915050565b600073ffffffffffffffffffffffffffffffffffffffff82169050919050565b6000611b9c82611b71565b9050919050565b611bac81611b91565b82525050565b6000602082019050611bc76000830184611ba3565b92915050565b611bd681611b91565b8114611be157600080fd5b50565b600081359050611bf381611bcd565b92915050565b60008060408385031215611c1057611c0f61198e565b5b6000611c1e85828601611be4565b9250506020611c2f85828601611b2f565b9150509250929050565b600080600060608486031215611c5257611c5161198e565b5b6000611c6086828701611be4565b9350506020611c7186828701611b2f565b9250506040611c8286828701611b2f565b9150509250925092565b600080600060608486031215611ca557611ca461198e565b5b6000611cb386828701611be4565b9350506020611cc486828701611be4565b9250506040611cd586828701611b2f565b9150509250925092565b600060ff82169050919050565b611cf581611cdf565b82525050565b6000602082019050611d106000830184611cec565b92915050565b600060208284031215611d2c57611d2b61198e565b5b6000611d3a84828501611be4565b91505092915050565b611d4c81611b0e565b82525050565b6000602082019050611d676000830184611d43565b92915050565b611d7681611a1d565b8114611d8157600080fd5b50565b600081359050611d9381611d6d565b92915050565b60008060408385031215611db057611daf61198e565b5b6000611dbe85828601611be4565b9250506020611dcf85828601611d84565b9150509250929050565b600080fd5b600080fd5b7f4e487b7100000000000000000000000000000000000000000000000000000000600052604160045260246000fd5b611e1b82611aa2565b810181811067ffffffffffffffff82111715611e3a57611e39611de3565b5b80604052505050565b6000611e4d611984565b9050611e598282611e12565b919050565b600067ffffffffffffffff821115611e7957611e78611de3565b5b611e8282611aa2565b9050602081019050919050565b82818337600083830152505050565b6000611eb1611eac84611e5e565b611e43565b905082815260208101848484011115611ecd57611ecc611dde565b5b611ed8848285611e8f565b509392505050565b600082601f830112611ef557611ef4611dd9565b5b8135611f05848260208601611e9e565b91505092915050565b60008060008060808587031215611f2857611f2761198e565b5b6000611f3687828801611be4565b9450506020611f4787828801611be4565b9350506040611f5887828801611b2f565b925050606085013567ffffffffffffffff811115611f7957611f78611993565b5b611f8587828801611ee0565b91505092959194509250565b60008060408385031215611fa857611fa761198e565b5b6000611fb685828601611be4565b9250506020611fc785828601611be4565b9150509250929050565b7f4e487b7100000000000000000000000000000000000000000000000000000000600052602260045260246000fd5b6000600282049050600182168061201857607f821691505b6020821081141561202c5761202b611fd1565b5b50919050565b7f4552433732313a20617070726f76656420717565727920666f72206e6f6e657860008201527f697374656e7420746f6b656e0000000000000000000000000000000000000000602082015250565b600061208e602c83611a5e565b915061209982612032565b604082019050919050565b600060208201905081810360008301526120bd81612081565b9050919050565b7f4552433732313a20617070726f76616c20746f2063757272656e74206f776e6560008201527f7200000000000000000000000000000000000000000000000000000000000000602082015250565b6000612120602183611a5e565b915061212b826120c4565b604082019050919050565b6000602082019050818103600083015261214f81612113565b9050919050565b7f4552433732313a20617070726f76652063616c6c6572206973206e6f74206f7760008201527f6e6572206e6f7220617070726f76656420666f7220616c6c0000000000000000602082015250565b60006121b2603883611a5e565b91506121bd82612156565b604082019050919050565b600060208201905081810360008301526121e1816121a5565b9050919050565b7f4e487b7100000000000000000000000000000000000000000000000000000000600052601160045260246000fd5b600061222282611b0e565b915061222d83611b0e565b9250827fffffffffffffffffffffffffffffffffffffffffffffffffffffffffffffffff03821115612262576122616121e8565b5b828201905092915050565b7f4552433732313a207472616e736665722063616c6c6572206973206e6f74206f60008201527f776e6572206e6f7220617070726f766564000000000000000000000000000000602082015250565b60006122c9603183611a5e565b91506122d48261226d565b604082019050919050565b600060208201905081810360008301526122f8816122bc565b9050919050565b7f4552433732313a206f776e657220717565727920666f72206e6f6e657869737460008201527f656e7420746f6b656e0000000000000000000000000000000000000000000000602082015250565b600061235b602983611a5e565b9150612366826122ff565b604082019050919050565b6000602082019050818103600083015261238a8161234e565b9050919050565b7f4552433732313a2062616c616e636520717565727920666f7220746865207a6560008201527f726f206164647265737300000000000000000000000000000000000000000000602082015250565b60006123ed602a83611a5e565b91506123f882612391565b604082019050919050565b6000602082019050818103600083015261241c816123e0565b9050919050565b7f4552433732314d657461646174613a2055524920717565727920666f72206e6f60008201527f6e6578697374656e7420746f6b656e0000000000000000000000000000000000602082015250565b600061247f602f83611a5e565b915061248a82612423565b604082019050919050565b600060208201905081810360008301526124ae81612472565b9050919050565b600081905092915050565b60006124cb82611a53565b6124d581856124b5565b93506124e5818560208601611a6f565b80840191505092915050565b60006124fd82856124c0565b915061250982846124c0565b91508190509392505050565b7f4552433732313a206d696e7420746f20746865207a65726f2061646472657373600082015250565b600061254b602083611a5e565b915061255682612515565b602082019050919050565b6000602082019050818103600083015261257a8161253e565b9050919050565b7f4552433732313a20746f6b656e20616c7265616479206d696e74656400000000600082015250565b60006125b7601c83611a5e565b91506125c282612581565b602082019050919050565b600060208201905081810360008301526125e6816125aa565b9050919050565b7f4552433732313a206f70657261746f7220717565727920666f72206e6f6e657860008201527f697374656e7420746f6b656e0000000000000000000000000000000000000000602082015250565b6000612649602c83611a5e565b9150612654826125ed565b604082019050919050565b600060208201905081810360008301526126788161263c565b9050919050565b7f4552433732313a207472616e73666572206f6620746f6b656e2074686174206960008201527f73206e6f74206f776e0000000000000000000000000000000000000000000000602082015250565b60006126db602983611a5e565b91506126e68261267f565b604082019050919050565b6000602082019050818103600083015261270a816126ce565b9050919050565b7f4552433732313a207472616e7366657220746f20746865207a65726f2061646460008201527f7265737300000000000000000000000000000000000000000000000000000000602082015250565b600061276d602483611a5e565b915061277882612711565b604082019050919050565b6000602082019050818103600083015261279c81612760565b9050919050565b60006127ae82611b0e565b91506127b983611b0e565b9250828210156127cc576127cb6121e8565b5b828203905092915050565b7f4552433732313a20617070726f766520746f2063616c6c657200000000000000600082015250565b600061280d601983611a5e565b9150612818826127d7565b602082019050919050565b6000602082019050818103600083015261283c81612800565b9050919050565b7f4552433732313a207472616e7366657220746f206e6f6e20455243373231526560008201527f63656976657220696d706c656d656e7465720000000000000000000000000000602082015250565b600061289f603283611a5e565b91506128aa82612843565b604082019050919050565b600060208201905081810360008301526128ce81612892565b9050919050565b60006128e082611b0e565b91507fffffffffffffffffffffffffffffffffffffffffffffffffffffffffffffffff821415612913576129126121e8565b5b600182019050919050565b7f4e487b7100000000000000000000000000000000000000000000000000000000600052601260045260246000fd5b600061295882611b0e565b915061296383611b0e565b9250826129735761297261291e565b5b828204905092915050565b600061298982611b0e565b915061299483611b0e565b9250826129a4576129a361291e565b5b828206905092915050565b7f4e487b7100000000000000000000000000000000000000000000000000000000600052603260045260246000fd5b600081519050919050565b600082825260208201905092915050565b6000612a05826129de565b612a0f81856129e9565b9350612a1f818560208601611a6f565b612a2881611aa2565b840191505092915050565b6000608082019050612a486000830187611ba3565b612a556020830186611ba3565b612a626040830185611d43565b8181036060830152612a7481846129fa565b905095945050505050565b600081519050612a8e816119c4565b92915050565b600060208284031215612aaa57612aa961198e565b5b6000612ab884828501612a7f565b9150509291505056fea26469706673582212206dd92dc293c36b90a15aae7727981bd67526ff9a6c285b3f02b6f005f4b517fe64736f6c634300080b0033",
  "immutableReferences": {},
  "source": "// SPDX-License-Identifier: MIT\npragma solidity 0.8.11;\n\nimport \"@openzeppelin/contracts/token/ERC721/ERC721.sol\";\nimport \"../IERC721Autentica.sol\";\n\n/// @title Dummy Autentica ERC-721 compatible smart contract used for testing purposes.\ncontract AutenticaERC721CompatibleMock is ERC721, IERC721Autentica {\n    uint256 public currentSupply = 0;\n\n    /// @dev See `AutenticaERC721.sol` for details.\n    struct Details {\n        address creator;\n        address investor;\n        uint256 royaltyFee;\n        uint256 investorFee;\n    }\n\n    /// @dev See `AutenticaERC721.sol` for details.\n    mapping(uint256 => Details) private _details;\n\n    constructor(string memory _name, string memory _symbol) ERC721(_name, _symbol) {}\n\n    function mint(address _to, uint256 royaltyFee, uint256 investorFee) public {\n        _mint(_to, currentSupply + 1);\n        _details[currentSupply + 1] = Details({\n            creator: _to,\n            investor: msg.sender,\n            royaltyFee: royaltyFee,\n            investorFee: investorFee\n        });\n\n        currentSupply += 1;\n    }\n\n    /**\n     * @dev Number of decimals used for fees.\n     */\n    function decimals() external pure returns (uint8) {\n        return 4;\n    }\n\n    /**\n     * @dev Returns the Royalty fee of the `tokenId` token.\n     * @param tokenId NFT ID.\n     */\n    function getRoyaltyFee(uint256 tokenId) external view returns (uint256) {\n        return _details[tokenId].royaltyFee;\n    }\n\n    /**\n     * @dev Returns the Investor fee of the `tokenId` token.\n     * @param tokenId NFT ID.\n     */\n    function getInvestorFee(uint256 tokenId) external view returns (uint256) {\n        return _details[tokenId].investorFee;\n    }\n\n    /**\n     * @dev Returns the creator of the `tokenId` token.\n     * @param tokenId NFT ID.\n     *\n     * NOTE: The Autentica Marketplace smart contract supports royalties, so in order for the\n     * creator to be paid, we need to know who created the token and that information must\n     * stay the same even if the person who owns the token changes.\n     */\n    function getCreator(uint256 tokenId) external view returns (address) {\n        return _details[tokenId].creator;\n    }\n\n    /**\n     * @dev Returns the investor of the `tokenId` token.\n     * @param tokenId NFT ID.\n     *\n     * NOTE: Autentica lets other people to pay for the gas fees of the token minting so\n     * in that case the minter is not the creator and owner of the token.\n     */\n    function getInvestor(uint256 tokenId) external view returns (address) {\n        return _details[tokenId].investor;\n    }\n\n    /**\n     * @dev See {IERC165-supportsInterface}.\n     */\n    function supportsInterface(bytes4 interfaceId)\n        public\n        view\n        virtual\n        override(ERC721, IERC165)\n        returns (bool)\n    {\n        return\n            interfaceId == type(IERC721Autentica).interfaceId ||\n            super.supportsInterface(interfaceId);\n    }\n}",
  "sourcePath": "/Volumes/Storage/Workspace/Projects/Autentica/smart-contracts-playground/contracts/mock/AutenticaERC721CompatibleMock.sol",
  "compiler": {
    "name": "solc",
    "version": "0.8.11+commit.d7f03943.Emscripten.clang"
  },
  "schemaVersion": "3.4.4",
  "updatedAt": "2022-02-07T11:45:30.317Z",
  "devdoc": {
    "kind": "dev",
    "methods": {
      "approve(address,uint256)": {
        "details": "See {IERC721-approve}."
      },
      "balanceOf(address)": {
        "details": "See {IERC721-balanceOf}."
      },
      "decimals()": {
        "details": "Number of decimals used for fees."
      },
      "getApproved(uint256)": {
        "details": "See {IERC721-getApproved}."
      },
      "getCreator(uint256)": {
        "details": "Returns the creator of the `tokenId` token.",
        "params": {
          "tokenId": "NFT ID. NOTE: The Autentica Marketplace smart contract supports royalties, so in order for the creator to be paid, we need to know who created the token and that information must stay the same even if the person who owns the token changes."
        }
      },
      "getInvestor(uint256)": {
        "details": "Returns the investor of the `tokenId` token.",
        "params": {
          "tokenId": "NFT ID. NOTE: Autentica lets other people to pay for the gas fees of the token minting so in that case the minter is not the creator and owner of the token."
        }
      },
      "getInvestorFee(uint256)": {
        "details": "Returns the Investor fee of the `tokenId` token.",
        "params": {
          "tokenId": "NFT ID."
        }
      },
      "getRoyaltyFee(uint256)": {
        "details": "Returns the Royalty fee of the `tokenId` token.",
        "params": {
          "tokenId": "NFT ID."
        }
      },
      "isApprovedForAll(address,address)": {
        "details": "See {IERC721-isApprovedForAll}."
      },
      "name()": {
        "details": "See {IERC721Metadata-name}."
      },
      "ownerOf(uint256)": {
        "details": "See {IERC721-ownerOf}."
      },
      "safeTransferFrom(address,address,uint256)": {
        "details": "See {IERC721-safeTransferFrom}."
      },
      "safeTransferFrom(address,address,uint256,bytes)": {
        "details": "See {IERC721-safeTransferFrom}."
      },
      "setApprovalForAll(address,bool)": {
        "details": "See {IERC721-setApprovalForAll}."
      },
      "supportsInterface(bytes4)": {
        "details": "See {IERC165-supportsInterface}."
      },
      "symbol()": {
        "details": "See {IERC721Metadata-symbol}."
      },
      "tokenURI(uint256)": {
        "details": "See {IERC721Metadata-tokenURI}."
      },
      "transferFrom(address,address,uint256)": {
        "details": "See {IERC721-transferFrom}."
      }
    },
    "stateVariables": {
      "_details": {
        "details": "See `AutenticaERC721.sol` for details."
      }
    },
    "title": "Dummy Autentica ERC-721 compatible smart contract used for testing purposes.",
    "version": 1
  },
  "userdoc": {
    "kind": "user",
    "methods": {},
    "version": 1
  }
}