{
  "contractName": "AutenticaERC721CompatibleMock",
  "abi": [
    {
      "inputs": [
        {
          "internalType": "string",
          "name": "_name",
          "type": "string"
        },
        {
          "internalType": "string",
          "name": "_symbol",
          "type": "string"
        }
      ],
      "stateMutability": "nonpayable",
      "type": "constructor"
    },
    {
      "anonymous": false,
      "inputs": [
        {
          "indexed": true,
          "internalType": "address",
          "name": "owner",
          "type": "address"
        },
        {
          "indexed": true,
          "internalType": "address",
          "name": "approved",
          "type": "address"
        },
        {
          "indexed": true,
          "internalType": "uint256",
          "name": "tokenId",
          "type": "uint256"
        }
      ],
      "name": "Approval",
      "type": "event"
    },
    {
      "anonymous": false,
      "inputs": [
        {
          "indexed": true,
          "internalType": "address",
          "name": "owner",
          "type": "address"
        },
        {
          "indexed": true,
          "internalType": "address",
          "name": "operator",
          "type": "address"
        },
        {
          "indexed": false,
          "internalType": "bool",
          "name": "approved",
          "type": "bool"
        }
      ],
      "name": "ApprovalForAll",
      "type": "event"
    },
    {
      "anonymous": false,
      "inputs": [
        {
          "indexed": true,
          "internalType": "address",
          "name": "from",
          "type": "address"
        },
        {
          "indexed": true,
          "internalType": "address",
          "name": "to",
          "type": "address"
        },
        {
          "indexed": true,
          "internalType": "uint256",
          "name": "tokenId",
          "type": "uint256"
        }
      ],
      "name": "Transfer",
      "type": "event"
    },
    {
      "inputs": [
        {
          "internalType": "address",
          "name": "to",
          "type": "address"
        },
        {
          "internalType": "uint256",
          "name": "tokenId",
          "type": "uint256"
        }
      ],
      "name": "approve",
      "outputs": [],
      "stateMutability": "nonpayable",
      "type": "function"
    },
    {
      "inputs": [
        {
          "internalType": "address",
          "name": "owner",
          "type": "address"
        }
      ],
      "name": "balanceOf",
      "outputs": [
        {
          "internalType": "uint256",
          "name": "",
          "type": "uint256"
        }
      ],
      "stateMutability": "view",
      "type": "function"
    },
    {
      "inputs": [],
      "name": "currentSupply",
      "outputs": [
        {
          "internalType": "uint256",
          "name": "",
          "type": "uint256"
        }
      ],
      "stateMutability": "view",
      "type": "function"
    },
    {
      "inputs": [
        {
          "internalType": "uint256",
          "name": "tokenId",
          "type": "uint256"
        }
      ],
      "name": "getApproved",
      "outputs": [
        {
          "internalType": "address",
          "name": "",
          "type": "address"
        }
      ],
      "stateMutability": "view",
      "type": "function"
    },
    {
      "inputs": [
        {
          "internalType": "address",
          "name": "owner",
          "type": "address"
        },
        {
          "internalType": "address",
          "name": "operator",
          "type": "address"
        }
      ],
      "name": "isApprovedForAll",
      "outputs": [
        {
          "internalType": "bool",
          "name": "",
          "type": "bool"
        }
      ],
      "stateMutability": "view",
      "type": "function"
    },
    {
      "inputs": [],
      "name": "name",
      "outputs": [
        {
          "internalType": "string",
          "name": "",
          "type": "string"
        }
      ],
      "stateMutability": "view",
      "type": "function"
    },
    {
      "inputs": [
        {
          "internalType": "uint256",
          "name": "tokenId",
          "type": "uint256"
        }
      ],
      "name": "ownerOf",
      "outputs": [
        {
          "internalType": "address",
          "name": "",
          "type": "address"
        }
      ],
      "stateMutability": "view",
      "type": "function"
    },
    {
      "inputs": [
        {
          "internalType": "address",
          "name": "from",
          "type": "address"
        },
        {
          "internalType": "address",
          "name": "to",
          "type": "address"
        },
        {
          "internalType": "uint256",
          "name": "tokenId",
          "type": "uint256"
        }
      ],
      "name": "safeTransferFrom",
      "outputs": [],
      "stateMutability": "nonpayable",
      "type": "function"
    },
    {
      "inputs": [
        {
          "internalType": "address",
          "name": "from",
          "type": "address"
        },
        {
          "internalType": "address",
          "name": "to",
          "type": "address"
        },
        {
          "internalType": "uint256",
          "name": "tokenId",
          "type": "uint256"
        },
        {
          "internalType": "bytes",
          "name": "_data",
          "type": "bytes"
        }
      ],
      "name": "safeTransferFrom",
      "outputs": [],
      "stateMutability": "nonpayable",
      "type": "function"
    },
    {
      "inputs": [
        {
          "internalType": "address",
          "name": "operator",
          "type": "address"
        },
        {
          "internalType": "bool",
          "name": "approved",
          "type": "bool"
        }
      ],
      "name": "setApprovalForAll",
      "outputs": [],
      "stateMutability": "nonpayable",
      "type": "function"
    },
    {
      "inputs": [],
      "name": "symbol",
      "outputs": [
        {
          "internalType": "string",
          "name": "",
          "type": "string"
        }
      ],
      "stateMutability": "view",
      "type": "function"
    },
    {
      "inputs": [
        {
          "internalType": "uint256",
          "name": "tokenId",
          "type": "uint256"
        }
      ],
      "name": "tokenURI",
      "outputs": [
        {
          "internalType": "string",
          "name": "",
          "type": "string"
        }
      ],
      "stateMutability": "view",
      "type": "function"
    },
    {
      "inputs": [
        {
          "internalType": "address",
          "name": "from",
          "type": "address"
        },
        {
          "internalType": "address",
          "name": "to",
          "type": "address"
        },
        {
          "internalType": "uint256",
          "name": "tokenId",
          "type": "uint256"
        }
      ],
      "name": "transferFrom",
      "outputs": [],
      "stateMutability": "nonpayable",
      "type": "function"
    },
    {
      "inputs": [
        {
          "internalType": "address",
          "name": "_to",
          "type": "address"
        },
        {
          "internalType": "uint256",
          "name": "royaltyFee",
          "type": "uint256"
        },
        {
          "internalType": "uint256",
          "name": "investorFee",
          "type": "uint256"
        }
      ],
      "name": "mint",
      "outputs": [],
      "stateMutability": "nonpayable",
      "type": "function"
    },
    {
      "inputs": [],
      "name": "decimals",
      "outputs": [
        {
          "internalType": "uint8",
          "name": "",
          "type": "uint8"
        }
      ],
      "stateMutability": "pure",
      "type": "function"
    },
    {
      "inputs": [
        {
          "internalType": "uint256",
          "name": "tokenId",
          "type": "uint256"
        }
      ],
      "name": "getRoyaltyFee",
      "outputs": [
        {
          "internalType": "uint256",
          "name": "",
          "type": "uint256"
        }
      ],
      "stateMutability": "view",
      "type": "function"
    },
    {
      "inputs": [
        {
          "internalType": "uint256",
          "name": "tokenId",
          "type": "uint256"
        }
      ],
      "name": "getInvestorFee",
      "outputs": [
        {
          "internalType": "uint256",
          "name": "",
          "type": "uint256"
        }
      ],
      "stateMutability": "view",
      "type": "function"
    },
    {
      "inputs": [
        {
          "internalType": "uint256",
          "name": "tokenId",
          "type": "uint256"
        }
      ],
      "name": "getCreator",
      "outputs": [
        {
          "internalType": "address",
          "name": "",
          "type": "address"
        }
      ],
      "stateMutability": "view",
      "type": "function"
    },
    {
      "inputs": [
        {
          "internalType": "uint256",
          "name": "tokenId",
          "type": "uint256"
        }
      ],
      "name": "getInvestor",
      "outputs": [
        {
          "internalType": "address",
          "name": "",
          "type": "address"
        }
      ],
      "stateMutability": "view",
      "type": "function"
    },
    {
      "inputs": [
        {
          "internalType": "bytes4",
          "name": "interfaceId",
          "type": "bytes4"
        }
      ],
      "name": "supportsInterface",
      "outputs": [
        {
          "internalType": "bool",
          "name": "",
          "type": "bool"
        }
      ],
      "stateMutability": "view",
      "type": "function"
    }
  ],
  "bytecode": "0x608060405260006006553480156200001657600080fd5b5060405162002ee438038062002ee483398181016040528101906200003c9190620002c7565b81818160009080519060200190620000569291906200007a565b5080600190805190602001906200006f9291906200007a565b5050505050620003b1565b82805462000088906200037b565b90600052602060002090601f016020900481019282620000ac5760008555620000f8565b82601f10620000c757805160ff1916838001178555620000f8565b82800160010185558215620000f8579182015b82811115620000f7578251825591602001919060010190620000da565b5b5090506200010791906200010b565b5090565b5b80821115620001265760008160009055506001016200010c565b5090565b6000604051905090565b600080fd5b600080fd5b600080fd5b600080fd5b6000601f19601f8301169050919050565b7f4e487b7100000000000000000000000000000000000000000000000000000000600052604160045260246000fd5b620001938262000148565b810181811067ffffffffffffffff82111715620001b557620001b462000159565b5b80604052505050565b6000620001ca6200012a565b9050620001d8828262000188565b919050565b600067ffffffffffffffff821115620001fb57620001fa62000159565b5b620002068262000148565b9050602081019050919050565b60005b838110156200023357808201518184015260208101905062000216565b8381111562000243576000848401525b50505050565b6000620002606200025a84620001dd565b620001be565b9050828152602081018484840111156200027f576200027e62000143565b5b6200028c84828562000213565b509392505050565b600082601f830112620002ac57620002ab6200013e565b5b8151620002be84826020860162000249565b91505092915050565b60008060408385031215620002e157620002e062000134565b5b600083015167ffffffffffffffff81111562000302576200030162000139565b5b620003108582860162000294565b925050602083015167ffffffffffffffff81111562000334576200033362000139565b5b620003428582860162000294565b9150509250929050565b7f4e487b7100000000000000000000000000000000000000000000000000000000600052602260045260246000fd5b600060028204905060018216806200039457607f821691505b60208210811415620003ab57620003aa6200034c565b5b50919050565b612b2380620003c16000396000f3fe608060405234801561001057600080fd5b506004361061012c5760003560e01c8063771282f6116100ad578063c87b56dd11610071578063c87b56dd14610341578063c99dccf914610371578063d48e638a146103a1578063e985e9c5146103d1578063f915765b146104015761012c565b8063771282f61461029d57806395d89b41146102bb5780639e4c0141146102d9578063a22cb46514610309578063b88d4fde146103255761012c565b806323b872dd116100f457806323b872dd146101e7578063313ce5671461020357806342842e0e146102215780636352211e1461023d57806370a082311461026d5761012c565b806301ffc9a71461013157806306fdde0314610161578063081812fc1461017f578063095ea7b3146101af578063156e29f6146101cb575b600080fd5b61014b60048036038101906101469190611a1c565b610431565b6040516101589190611a64565b60405180910390f35b6101696104ab565b6040516101769190611b18565b60405180910390f35b61019960048036038101906101949190611b70565b61053d565b6040516101a69190611bde565b60405180910390f35b6101c960048036038101906101c49190611c25565b6105c2565b005b6101e560048036038101906101e09190611c65565b6106da565b005b61020160048036038101906101fc9190611cb8565b610824565b005b61020b610884565b6040516102189190611d27565b60405180910390f35b61023b60048036038101906102369190611cb8565b61088d565b005b61025760048036038101906102529190611b70565b6108ad565b6040516102649190611bde565b60405180910390f35b61028760048036038101906102829190611d42565b61095f565b6040516102949190611d7e565b60405180910390f35b6102a5610a17565b6040516102b29190611d7e565b60405180910390f35b6102c3610a1d565b6040516102d09190611b18565b60405180910390f35b6102f360048036038101906102ee9190611b70565b610aaf565b6040516103009190611d7e565b60405180910390f35b610323600480360381019061031e9190611dc5565b610acf565b005b61033f600480360381019061033a9190611f3a565b610ae5565b005b61035b60048036038101906103569190611b70565b610b47565b6040516103689190611b18565b60405180910390f35b61038b60048036038101906103869190611b70565b610bee565b6040516103989190611bde565b60405180910390f35b6103bb60048036038101906103b69190611b70565b610c2e565b6040516103c89190611bde565b60405180910390f35b6103eb60048036038101906103e69190611fbd565b610c6e565b6040516103f89190611a64565b60405180910390f35b61041b60048036038101906104169190611b70565b610d02565b6040516104289190611d7e565b60405180910390f35b60007f4b763d0e000000000000000000000000000000000000000000000000000000007bffffffffffffffffffffffffffffffffffffffffffffffffffffffff1916827bffffffffffffffffffffffffffffffffffffffffffffffffffffffff191614806104a457506104a382610d22565b5b9050919050565b6060600080546104ba9061202c565b80601f01602080910402602001604051908101604052809291908181526020018280546104e69061202c565b80156105335780601f1061050857610100808354040283529160200191610533565b820191906000526020600020905b81548152906001019060200180831161051657829003601f168201915b5050505050905090565b600061054882610e04565b610587576040517f08c379a000000000000000000000000000000000000000000000000000000000815260040161057e906120d0565b60405180910390fd5b6004600083815260200190815260200160002060009054906101000a900473ffffffffffffffffffffffffffffffffffffffff169050919050565b60006105cd826108ad565b90508073ffffffffffffffffffffffffffffffffffffffff168373ffffffffffffffffffffffffffffffffffffffff16141561063e576040517f08c379a000000000000000000000000000000000000000000000000000000000815260040161063590612162565b60405180910390fd5b8073ffffffffffffffffffffffffffffffffffffffff1661065d610e70565b73ffffffffffffffffffffffffffffffffffffffff16148061068c575061068b81610686610e70565b610c6e565b5b6106cb576040517f08c379a00000000000000000000000000000000000000000000000000000000081526004016106c2906121f4565b60405180910390fd5b6106d58383610e78565b505050565b6106f28360016006546106ed9190612243565b610f31565b60405180608001604052808473ffffffffffffffffffffffffffffffffffffffff1681526020013373ffffffffffffffffffffffffffffffffffffffff168152602001838152602001828152506007600060016006546107529190612243565b815260200190815260200160002060008201518160000160006101000a81548173ffffffffffffffffffffffffffffffffffffffff021916908373ffffffffffffffffffffffffffffffffffffffff16021790555060208201518160010160006101000a81548173ffffffffffffffffffffffffffffffffffffffff021916908373ffffffffffffffffffffffffffffffffffffffff16021790555060408201518160020155606082015181600301559050506001600660008282546108189190612243565b92505081905550505050565b61083561082f610e70565b8261110b565b610874576040517f08c379a000000000000000000000000000000000000000000000000000000000815260040161086b9061230b565b60405180910390fd5b61087f8383836111e9565b505050565b60006004905090565b6108a883838360405180602001604052806000815250610ae5565b505050565b6000806002600084815260200190815260200160002060009054906101000a900473ffffffffffffffffffffffffffffffffffffffff169050600073ffffffffffffffffffffffffffffffffffffffff168173ffffffffffffffffffffffffffffffffffffffff161415610956576040517f08c379a000000000000000000000000000000000000000000000000000000000815260040161094d9061239d565b60405180910390fd5b80915050919050565b60008073ffffffffffffffffffffffffffffffffffffffff168273ffffffffffffffffffffffffffffffffffffffff1614156109d0576040517f08c379a00000000000000000000000000000000000000000000000000000000081526004016109c79061242f565b60405180910390fd5b600360008373ffffffffffffffffffffffffffffffffffffffff1673ffffffffffffffffffffffffffffffffffffffff168152602001908152602001600020549050919050565b60065481565b606060018054610a2c9061202c565b80601f0160208091040260200160405190810160405280929190818152602001828054610a589061202c565b8015610aa55780601f10610a7a57610100808354040283529160200191610aa5565b820191906000526020600020905b815481529060010190602001808311610a8857829003601f168201915b5050505050905090565b600060076000838152602001908152602001600020600201549050919050565b610ae1610ada610e70565b8383611450565b5050565b610af6610af0610e70565b8361110b565b610b35576040517f08c379a0000000000000000000000000000000000000000000000000000000008152600401610b2c9061230b565b60405180910390fd5b610b41848484846115bd565b50505050565b6060610b5282610e04565b610b91576040517f08c379a0000000000000000000000000000000000000000000000000000000008152600401610b88906124c1565b60405180910390fd5b6000610b9b611619565b90506000815111610bbb5760405180602001604052806000815250610be6565b80610bc584611630565b604051602001610bd692919061251d565b6040516020818303038152906040525b915050919050565b60006007600083815260200190815260200160002060010160009054906101000a900473ffffffffffffffffffffffffffffffffffffffff169050919050565b60006007600083815260200190815260200160002060000160009054906101000a900473ffffffffffffffffffffffffffffffffffffffff169050919050565b6000600560008473ffffffffffffffffffffffffffffffffffffffff1673ffffffffffffffffffffffffffffffffffffffff16815260200190815260200160002060008373ffffffffffffffffffffffffffffffffffffffff1673ffffffffffffffffffffffffffffffffffffffff16815260200190815260200160002060009054906101000a900460ff16905092915050565b600060076000838152602001908152602001600020600301549050919050565b60007f80ac58cd000000000000000000000000000000000000000000000000000000007bffffffffffffffffffffffffffffffffffffffffffffffffffffffff1916827bffffffffffffffffffffffffffffffffffffffffffffffffffffffff19161480610ded57507f5b5e139f000000000000000000000000000000000000000000000000000000007bffffffffffffffffffffffffffffffffffffffffffffffffffffffff1916827bffffffffffffffffffffffffffffffffffffffffffffffffffffffff1916145b80610dfd5750610dfc82611791565b5b9050919050565b60008073ffffffffffffffffffffffffffffffffffffffff166002600084815260200190815260200160002060009054906101000a900473ffffffffffffffffffffffffffffffffffffffff1673ffffffffffffffffffffffffffffffffffffffff1614159050919050565b600033905090565b816004600083815260200190815260200160002060006101000a81548173ffffffffffffffffffffffffffffffffffffffff021916908373ffffffffffffffffffffffffffffffffffffffff160217905550808273ffffffffffffffffffffffffffffffffffffffff16610eeb836108ad565b73ffffffffffffffffffffffffffffffffffffffff167f8c5be1e5ebec7d5bd14f71427d1e84f3dd0314c0f7b2291e5b200ac8c7c3b92560405160405180910390a45050565b600073ffffffffffffffffffffffffffffffffffffffff168273ffffffffffffffffffffffffffffffffffffffff161415610fa1576040517f08c379a0000000000000000000000000000000000000000000000000000000008152600401610f989061258d565b60405180910390fd5b610faa81610e04565b15610fea576040517f08c379a0000000000000000000000000000000000000000000000000000000008152600401610fe1906125f9565b60405180910390fd5b610ff6600083836117fb565b6001600360008473ffffffffffffffffffffffffffffffffffffffff1673ffffffffffffffffffffffffffffffffffffffff16815260200190815260200160002060008282546110469190612243565b92505081905550816002600083815260200190815260200160002060006101000a81548173ffffffffffffffffffffffffffffffffffffffff021916908373ffffffffffffffffffffffffffffffffffffffff160217905550808273ffffffffffffffffffffffffffffffffffffffff16600073ffffffffffffffffffffffffffffffffffffffff167fddf252ad1be2c89b69c2b068fc378daa952ba7f163c4a11628f55a4df523b3ef60405160405180910390a461110760008383611800565b5050565b600061111682610e04565b611155576040517f08c379a000000000000000000000000000000000000000000000000000000000815260040161114c9061268b565b60405180910390fd5b6000611160836108ad565b90508073ffffffffffffffffffffffffffffffffffffffff168473ffffffffffffffffffffffffffffffffffffffff1614806111cf57508373ffffffffffffffffffffffffffffffffffffffff166111b78461053d565b73ffffffffffffffffffffffffffffffffffffffff16145b806111e057506111df8185610c6e565b5b91505092915050565b8273ffffffffffffffffffffffffffffffffffffffff16611209826108ad565b73ffffffffffffffffffffffffffffffffffffffff161461125f576040517f08c379a00000000000000000000000000000000000000000000000000000000081526004016112569061271d565b60405180910390fd5b600073ffffffffffffffffffffffffffffffffffffffff168273ffffffffffffffffffffffffffffffffffffffff1614156112cf576040517f08c379a00000000000000000000000000000000000000000000000000000000081526004016112c6906127af565b60405180910390fd5b6112da8383836117fb565b6112e5600082610e78565b6001600360008573ffffffffffffffffffffffffffffffffffffffff1673ffffffffffffffffffffffffffffffffffffffff168152602001908152602001600020600082825461133591906127cf565b925050819055506001600360008473ffffffffffffffffffffffffffffffffffffffff1673ffffffffffffffffffffffffffffffffffffffff168152602001908152602001600020600082825461138c9190612243565b92505081905550816002600083815260200190815260200160002060006101000a81548173ffffffffffffffffffffffffffffffffffffffff021916908373ffffffffffffffffffffffffffffffffffffffff160217905550808273ffffffffffffffffffffffffffffffffffffffff168473ffffffffffffffffffffffffffffffffffffffff167fddf252ad1be2c89b69c2b068fc378daa952ba7f163c4a11628f55a4df523b3ef60405160405180910390a461144b838383611800565b505050565b8173ffffffffffffffffffffffffffffffffffffffff168373ffffffffffffffffffffffffffffffffffffffff1614156114bf576040517f08c379a00000000000000000000000000000000000000000000000000000000081526004016114b69061284f565b60405180910390fd5b80600560008573ffffffffffffffffffffffffffffffffffffffff1673ffffffffffffffffffffffffffffffffffffffff16815260200190815260200160002060008473ffffffffffffffffffffffffffffffffffffffff1673ffffffffffffffffffffffffffffffffffffffff16815260200190815260200160002060006101000a81548160ff0219169083151502179055508173ffffffffffffffffffffffffffffffffffffffff168373ffffffffffffffffffffffffffffffffffffffff167f17307eab39ab6107e8899845ad3d59bd9653f200f220920489ca2b5937696c31836040516115b09190611a64565b60405180910390a3505050565b6115c88484846111e9565b6115d484848484611805565b611613576040517f08c379a000000000000000000000000000000000000000000000000000000000815260040161160a906128e1565b60405180910390fd5b50505050565b606060405180602001604052806000815250905090565b60606000821415611678576040518060400160405280600181526020017f3000000000000000000000000000000000000000000000000000000000000000815250905061178c565b600082905060005b600082146116aa57808061169390612901565b915050600a826116a39190612979565b9150611680565b60008167ffffffffffffffff8111156116c6576116c5611e0f565b5b6040519080825280601f01601f1916602001820160405280156116f85781602001600182028036833780820191505090505b5090505b600085146117855760018261171191906127cf565b9150600a8561172091906129aa565b603061172c9190612243565b60f81b818381518110611742576117416129db565b5b60200101907effffffffffffffffffffffffffffffffffffffffffffffffffffffffffffff1916908160001a905350600a8561177e9190612979565b94506116fc565b8093505050505b919050565b60007f01ffc9a7000000000000000000000000000000000000000000000000000000007bffffffffffffffffffffffffffffffffffffffffffffffffffffffff1916827bffffffffffffffffffffffffffffffffffffffffffffffffffffffff1916149050919050565b505050565b505050565b60006118268473ffffffffffffffffffffffffffffffffffffffff1661198d565b15611980578373ffffffffffffffffffffffffffffffffffffffff1663150b7a0261184f610e70565b8786866040518563ffffffff1660e01b81526004016118719493929190612a5f565b6020604051808303816000875af19250505080156118ad57506040513d601f19601f820116820180604052508101906118aa9190612ac0565b60015b611930573d80600081146118dd576040519150601f19603f3d011682016040523d82523d6000602084013e6118e2565b606091505b50600081511415611928576040517f08c379a000000000000000000000000000000000000000000000000000000000815260040161191f906128e1565b60405180910390fd5b805181602001fd5b63150b7a0260e01b7bffffffffffffffffffffffffffffffffffffffffffffffffffffffff1916817bffffffffffffffffffffffffffffffffffffffffffffffffffffffff191614915050611985565b600190505b949350505050565b6000808273ffffffffffffffffffffffffffffffffffffffff163b119050919050565b6000604051905090565b600080fd5b600080fd5b60007fffffffff0000000000000000000000000000000000000000000000000000000082169050919050565b6119f9816119c4565b8114611a0457600080fd5b50565b600081359050611a16816119f0565b92915050565b600060208284031215611a3257611a316119ba565b5b6000611a4084828501611a07565b91505092915050565b60008115159050919050565b611a5e81611a49565b82525050565b6000602082019050611a796000830184611a55565b92915050565b600081519050919050565b600082825260208201905092915050565b60005b83811015611ab9578082015181840152602081019050611a9e565b83811115611ac8576000848401525b50505050565b6000601f19601f8301169050919050565b6000611aea82611a7f565b611af48185611a8a565b9350611b04818560208601611a9b565b611b0d81611ace565b840191505092915050565b60006020820190508181036000830152611b328184611adf565b905092915050565b6000819050919050565b611b4d81611b3a565b8114611b5857600080fd5b50565b600081359050611b6a81611b44565b92915050565b600060208284031215611b8657611b856119ba565b5b6000611b9484828501611b5b565b91505092915050565b600073ffffffffffffffffffffffffffffffffffffffff82169050919050565b6000611bc882611b9d565b9050919050565b611bd881611bbd565b82525050565b6000602082019050611bf36000830184611bcf565b92915050565b611c0281611bbd565b8114611c0d57600080fd5b50565b600081359050611c1f81611bf9565b92915050565b60008060408385031215611c3c57611c3b6119ba565b5b6000611c4a85828601611c10565b9250506020611c5b85828601611b5b565b9150509250929050565b600080600060608486031215611c7e57611c7d6119ba565b5b6000611c8c86828701611c10565b9350506020611c9d86828701611b5b565b9250506040611cae86828701611b5b565b9150509250925092565b600080600060608486031215611cd157611cd06119ba565b5b6000611cdf86828701611c10565b9350506020611cf086828701611c10565b9250506040611d0186828701611b5b565b9150509250925092565b600060ff82169050919050565b611d2181611d0b565b82525050565b6000602082019050611d3c6000830184611d18565b92915050565b600060208284031215611d5857611d576119ba565b5b6000611d6684828501611c10565b91505092915050565b611d7881611b3a565b82525050565b6000602082019050611d936000830184611d6f565b92915050565b611da281611a49565b8114611dad57600080fd5b50565b600081359050611dbf81611d99565b92915050565b60008060408385031215611ddc57611ddb6119ba565b5b6000611dea85828601611c10565b9250506020611dfb85828601611db0565b9150509250929050565b600080fd5b600080fd5b7f4e487b7100000000000000000000000000000000000000000000000000000000600052604160045260246000fd5b611e4782611ace565b810181811067ffffffffffffffff82111715611e6657611e65611e0f565b5b80604052505050565b6000611e796119b0565b9050611e858282611e3e565b919050565b600067ffffffffffffffff821115611ea557611ea4611e0f565b5b611eae82611ace565b9050602081019050919050565b82818337600083830152505050565b6000611edd611ed884611e8a565b611e6f565b905082815260208101848484011115611ef957611ef8611e0a565b5b611f04848285611ebb565b509392505050565b600082601f830112611f2157611f20611e05565b5b8135611f31848260208601611eca565b91505092915050565b60008060008060808587031215611f5457611f536119ba565b5b6000611f6287828801611c10565b9450506020611f7387828801611c10565b9350506040611f8487828801611b5b565b925050606085013567ffffffffffffffff811115611fa557611fa46119bf565b5b611fb187828801611f0c565b91505092959194509250565b60008060408385031215611fd457611fd36119ba565b5b6000611fe285828601611c10565b9250506020611ff385828601611c10565b9150509250929050565b7f4e487b7100000000000000000000000000000000000000000000000000000000600052602260045260246000fd5b6000600282049050600182168061204457607f821691505b6020821081141561205857612057611ffd565b5b50919050565b7f4552433732313a20617070726f76656420717565727920666f72206e6f6e657860008201527f697374656e7420746f6b656e0000000000000000000000000000000000000000602082015250565b60006120ba602c83611a8a565b91506120c58261205e565b604082019050919050565b600060208201905081810360008301526120e9816120ad565b9050919050565b7f4552433732313a20617070726f76616c20746f2063757272656e74206f776e6560008201527f7200000000000000000000000000000000000000000000000000000000000000602082015250565b600061214c602183611a8a565b9150612157826120f0565b604082019050919050565b6000602082019050818103600083015261217b8161213f565b9050919050565b7f4552433732313a20617070726f76652063616c6c6572206973206e6f74206f7760008201527f6e6572206e6f7220617070726f76656420666f7220616c6c0000000000000000602082015250565b60006121de603883611a8a565b91506121e982612182565b604082019050919050565b6000602082019050818103600083015261220d816121d1565b9050919050565b7f4e487b7100000000000000000000000000000000000000000000000000000000600052601160045260246000fd5b600061224e82611b3a565b915061225983611b3a565b9250827fffffffffffffffffffffffffffffffffffffffffffffffffffffffffffffffff0382111561228e5761228d612214565b5b828201905092915050565b7f4552433732313a207472616e736665722063616c6c6572206973206e6f74206f60008201527f776e6572206e6f7220617070726f766564000000000000000000000000000000602082015250565b60006122f5603183611a8a565b915061230082612299565b604082019050919050565b60006020820190508181036000830152612324816122e8565b9050919050565b7f4552433732313a206f776e657220717565727920666f72206e6f6e657869737460008201527f656e7420746f6b656e0000000000000000000000000000000000000000000000602082015250565b6000612387602983611a8a565b91506123928261232b565b604082019050919050565b600060208201905081810360008301526123b68161237a565b9050919050565b7f4552433732313a2062616c616e636520717565727920666f7220746865207a6560008201527f726f206164647265737300000000000000000000000000000000000000000000602082015250565b6000612419602a83611a8a565b9150612424826123bd565b604082019050919050565b600060208201905081810360008301526124488161240c565b9050919050565b7f4552433732314d657461646174613a2055524920717565727920666f72206e6f60008201527f6e6578697374656e7420746f6b656e0000000000000000000000000000000000602082015250565b60006124ab602f83611a8a565b91506124b68261244f565b604082019050919050565b600060208201905081810360008301526124da8161249e565b9050919050565b600081905092915050565b60006124f782611a7f565b61250181856124e1565b9350612511818560208601611a9b565b80840191505092915050565b600061252982856124ec565b915061253582846124ec565b91508190509392505050565b7f4552433732313a206d696e7420746f20746865207a65726f2061646472657373600082015250565b6000612577602083611a8a565b915061258282612541565b602082019050919050565b600060208201905081810360008301526125a68161256a565b9050919050565b7f4552433732313a20746f6b656e20616c7265616479206d696e74656400000000600082015250565b60006125e3601c83611a8a565b91506125ee826125ad565b602082019050919050565b60006020820190508181036000830152612612816125d6565b9050919050565b7f4552433732313a206f70657261746f7220717565727920666f72206e6f6e657860008201527f697374656e7420746f6b656e0000000000000000000000000000000000000000602082015250565b6000612675602c83611a8a565b915061268082612619565b604082019050919050565b600060208201905081810360008301526126a481612668565b9050919050565b7f4552433732313a207472616e736665722066726f6d20696e636f72726563742060008201527f6f776e6572000000000000000000000000000000000000000000000000000000602082015250565b6000612707602583611a8a565b9150612712826126ab565b604082019050919050565b60006020820190508181036000830152612736816126fa565b9050919050565b7f4552433732313a207472616e7366657220746f20746865207a65726f2061646460008201527f7265737300000000000000000000000000000000000000000000000000000000602082015250565b6000612799602483611a8a565b91506127a48261273d565b604082019050919050565b600060208201905081810360008301526127c88161278c565b9050919050565b60006127da82611b3a565b91506127e583611b3a565b9250828210156127f8576127f7612214565b5b828203905092915050565b7f4552433732313a20617070726f766520746f2063616c6c657200000000000000600082015250565b6000612839601983611a8a565b915061284482612803565b602082019050919050565b600060208201905081810360008301526128688161282c565b9050919050565b7f4552433732313a207472616e7366657220746f206e6f6e20455243373231526560008201527f63656976657220696d706c656d656e7465720000000000000000000000000000602082015250565b60006128cb603283611a8a565b91506128d68261286f565b604082019050919050565b600060208201905081810360008301526128fa816128be565b9050919050565b600061290c82611b3a565b91507fffffffffffffffffffffffffffffffffffffffffffffffffffffffffffffffff82141561293f5761293e612214565b5b600182019050919050565b7f4e487b7100000000000000000000000000000000000000000000000000000000600052601260045260246000fd5b600061298482611b3a565b915061298f83611b3a565b92508261299f5761299e61294a565b5b828204905092915050565b60006129b582611b3a565b91506129c083611b3a565b9250826129d0576129cf61294a565b5b828206905092915050565b7f4e487b7100000000000000000000000000000000000000000000000000000000600052603260045260246000fd5b600081519050919050565b600082825260208201905092915050565b6000612a3182612a0a565b612a3b8185612a15565b9350612a4b818560208601611a9b565b612a5481611ace565b840191505092915050565b6000608082019050612a746000830187611bcf565b612a816020830186611bcf565b612a8e6040830185611d6f565b8181036060830152612aa08184612a26565b905095945050505050565b600081519050612aba816119f0565b92915050565b600060208284031215612ad657612ad56119ba565b5b6000612ae484828501612aab565b9150509291505056fea26469706673582212203dedb1e44a725d76aebd33c20dafa2246e7b5ad2415297423ad4e808746bf2bd64736f6c634300080c0033",
  "immutableReferences": {},
  "source": "// SPDX-License-Identifier: MIT\npragma solidity 0.8.12;\n\nimport \"@openzeppelin/contracts/token/ERC721/ERC721.sol\";\nimport \"../IERC721Autentica.sol\";\n\n/// @title Dummy Autentica ERC-721 compatible smart contract used for testing purposes.\ncontract AutenticaERC721CompatibleMock is ERC721, IERC721Autentica {\n    uint256 public currentSupply = 0;\n\n    /// @dev See `AutenticaERC721.sol` for details.\n    struct Details {\n        address creator;\n        address investor;\n        uint256 royaltyFee;\n        uint256 investorFee;\n    }\n\n    /// @dev See `AutenticaERC721.sol` for details.\n    mapping(uint256 => Details) private _details;\n\n    constructor(string memory _name, string memory _symbol) ERC721(_name, _symbol) {}\n\n    function mint(address _to, uint256 royaltyFee, uint256 investorFee) public {\n        _mint(_to, currentSupply + 1);\n        _details[currentSupply + 1] = Details({\n            creator: _to,\n            investor: msg.sender,\n            royaltyFee: royaltyFee,\n            investorFee: investorFee\n        });\n\n        currentSupply += 1;\n    }\n\n    /**\n     * @dev Number of decimals used for fees.\n     */\n    function decimals() external pure returns (uint8) {\n        return 4;\n    }\n\n    /**\n     * @dev Returns the Royalty fee of the `tokenId` token.\n     * @param tokenId NFT ID.\n     */\n    function getRoyaltyFee(uint256 tokenId) external view returns (uint256) {\n        return _details[tokenId].royaltyFee;\n    }\n\n    /**\n     * @dev Returns the Investor fee of the `tokenId` token.\n     * @param tokenId NFT ID.\n     */\n    function getInvestorFee(uint256 tokenId) external view returns (uint256) {\n        return _details[tokenId].investorFee;\n    }\n\n    /**\n     * @dev Returns the creator of the `tokenId` token.\n     * @param tokenId NFT ID.\n     *\n     * NOTE: The Autentica Marketplace smart contract supports royalties, so in order for the\n     * creator to be paid, we need to know who created the token and that information must\n     * stay the same even if the person who owns the token changes.\n     */\n    function getCreator(uint256 tokenId) external view returns (address) {\n        return _details[tokenId].creator;\n    }\n\n    /**\n     * @dev Returns the investor of the `tokenId` token.\n     * @param tokenId NFT ID.\n     *\n     * NOTE: Autentica lets other people to pay for the gas fees of the token minting so\n     * in that case the minter is not the creator and owner of the token.\n     */\n    function getInvestor(uint256 tokenId) external view returns (address) {\n        return _details[tokenId].investor;\n    }\n\n    /**\n     * @dev See {IERC165-supportsInterface}.\n     */\n    function supportsInterface(bytes4 interfaceId)\n        public\n        view\n        virtual\n        override(ERC721, IERC165)\n        returns (bool)\n    {\n        return\n            interfaceId == type(IERC721Autentica).interfaceId ||\n            super.supportsInterface(interfaceId);\n    }\n}",
  "sourcePath": "/Volumes/Storage/Workspace/Projects/Autentica/smart-contracts/contracts/mock/AutenticaERC721CompatibleMock.sol",
  "compiler": {
    "name": "solc",
    "version": "0.8.12+commit.f00d7308.Emscripten.clang"
  },
  "schemaVersion": "3.4.5",
  "updatedAt": "2022-02-21T13:10:29.029Z",
  "devdoc": {
    "kind": "dev",
    "methods": {
      "approve(address,uint256)": {
        "details": "See {IERC721-approve}."
      },
      "balanceOf(address)": {
        "details": "See {IERC721-balanceOf}."
      },
      "decimals()": {
        "details": "Number of decimals used for fees."
      },
      "getApproved(uint256)": {
        "details": "See {IERC721-getApproved}."
      },
      "getCreator(uint256)": {
        "details": "Returns the creator of the `tokenId` token.",
        "params": {
          "tokenId": "NFT ID. NOTE: The Autentica Marketplace smart contract supports royalties, so in order for the creator to be paid, we need to know who created the token and that information must stay the same even if the person who owns the token changes."
        }
      },
      "getInvestor(uint256)": {
        "details": "Returns the investor of the `tokenId` token.",
        "params": {
          "tokenId": "NFT ID. NOTE: Autentica lets other people to pay for the gas fees of the token minting so in that case the minter is not the creator and owner of the token."
        }
      },
      "getInvestorFee(uint256)": {
        "details": "Returns the Investor fee of the `tokenId` token.",
        "params": {
          "tokenId": "NFT ID."
        }
      },
      "getRoyaltyFee(uint256)": {
        "details": "Returns the Royalty fee of the `tokenId` token.",
        "params": {
          "tokenId": "NFT ID."
        }
      },
      "isApprovedForAll(address,address)": {
        "details": "See {IERC721-isApprovedForAll}."
      },
      "name()": {
        "details": "See {IERC721Metadata-name}."
      },
      "ownerOf(uint256)": {
        "details": "See {IERC721-ownerOf}."
      },
      "safeTransferFrom(address,address,uint256)": {
        "details": "See {IERC721-safeTransferFrom}."
      },
      "safeTransferFrom(address,address,uint256,bytes)": {
        "details": "See {IERC721-safeTransferFrom}."
      },
      "setApprovalForAll(address,bool)": {
        "details": "See {IERC721-setApprovalForAll}."
      },
      "supportsInterface(bytes4)": {
        "details": "See {IERC165-supportsInterface}."
      },
      "symbol()": {
        "details": "See {IERC721Metadata-symbol}."
      },
      "tokenURI(uint256)": {
        "details": "See {IERC721Metadata-tokenURI}."
      },
      "transferFrom(address,address,uint256)": {
        "details": "See {IERC721-transferFrom}."
      }
    },
    "stateVariables": {
      "_details": {
        "details": "See `AutenticaERC721.sol` for details."
      }
    },
    "title": "Dummy Autentica ERC-721 compatible smart contract used for testing purposes.",
    "version": 1
  },
  "userdoc": {
    "kind": "user",
    "methods": {},
    "version": 1
  }
}