{
  "contractName": "AutenticaERC721",
  "abi": [
    {
      "inputs": [],
      "stateMutability": "nonpayable",
      "type": "constructor"
    },
    {
      "anonymous": false,
      "inputs": [
        {
          "indexed": true,
          "internalType": "address",
          "name": "owner",
          "type": "address"
        },
        {
          "indexed": true,
          "internalType": "address",
          "name": "approved",
          "type": "address"
        },
        {
          "indexed": true,
          "internalType": "uint256",
          "name": "tokenId",
          "type": "uint256"
        }
      ],
      "name": "Approval",
      "type": "event"
    },
    {
      "anonymous": false,
      "inputs": [
        {
          "indexed": true,
          "internalType": "address",
          "name": "owner",
          "type": "address"
        },
        {
          "indexed": true,
          "internalType": "address",
          "name": "operator",
          "type": "address"
        },
        {
          "indexed": false,
          "internalType": "bool",
          "name": "approved",
          "type": "bool"
        }
      ],
      "name": "ApprovalForAll",
      "type": "event"
    },
    {
      "anonymous": false,
      "inputs": [
        {
          "indexed": true,
          "internalType": "address",
          "name": "oldAddress",
          "type": "address"
        },
        {
          "indexed": true,
          "internalType": "address",
          "name": "newAddress",
          "type": "address"
        }
      ],
      "name": "ChangedMarketplace",
      "type": "event"
    },
    {
      "anonymous": false,
      "inputs": [
        {
          "indexed": true,
          "internalType": "bytes32",
          "name": "role",
          "type": "bytes32"
        },
        {
          "indexed": true,
          "internalType": "bytes32",
          "name": "previousAdminRole",
          "type": "bytes32"
        },
        {
          "indexed": true,
          "internalType": "bytes32",
          "name": "newAdminRole",
          "type": "bytes32"
        }
      ],
      "name": "RoleAdminChanged",
      "type": "event"
    },
    {
      "anonymous": false,
      "inputs": [
        {
          "indexed": true,
          "internalType": "bytes32",
          "name": "role",
          "type": "bytes32"
        },
        {
          "indexed": true,
          "internalType": "address",
          "name": "account",
          "type": "address"
        },
        {
          "indexed": true,
          "internalType": "address",
          "name": "sender",
          "type": "address"
        }
      ],
      "name": "RoleGranted",
      "type": "event"
    },
    {
      "anonymous": false,
      "inputs": [
        {
          "indexed": true,
          "internalType": "bytes32",
          "name": "role",
          "type": "bytes32"
        },
        {
          "indexed": true,
          "internalType": "address",
          "name": "account",
          "type": "address"
        },
        {
          "indexed": true,
          "internalType": "address",
          "name": "sender",
          "type": "address"
        }
      ],
      "name": "RoleRevoked",
      "type": "event"
    },
    {
      "anonymous": false,
      "inputs": [
        {
          "indexed": true,
          "internalType": "address",
          "name": "from",
          "type": "address"
        },
        {
          "indexed": true,
          "internalType": "address",
          "name": "to",
          "type": "address"
        },
        {
          "indexed": true,
          "internalType": "uint256",
          "name": "tokenId",
          "type": "uint256"
        }
      ],
      "name": "Transfer",
      "type": "event"
    },
    {
      "inputs": [],
      "name": "DECIMALS",
      "outputs": [
        {
          "internalType": "uint8",
          "name": "",
          "type": "uint8"
        }
      ],
      "stateMutability": "view",
      "type": "function"
    },
    {
      "inputs": [],
      "name": "DEFAULT_ADMIN_ROLE",
      "outputs": [
        {
          "internalType": "bytes32",
          "name": "",
          "type": "bytes32"
        }
      ],
      "stateMutability": "view",
      "type": "function"
    },
    {
      "inputs": [],
      "name": "OPERATOR_ROLE",
      "outputs": [
        {
          "internalType": "bytes32",
          "name": "",
          "type": "bytes32"
        }
      ],
      "stateMutability": "view",
      "type": "function"
    },
    {
      "inputs": [
        {
          "internalType": "address",
          "name": "to",
          "type": "address"
        },
        {
          "internalType": "uint256",
          "name": "tokenId",
          "type": "uint256"
        }
      ],
      "name": "approve",
      "outputs": [],
      "stateMutability": "nonpayable",
      "type": "function"
    },
    {
      "inputs": [
        {
          "internalType": "address",
          "name": "owner",
          "type": "address"
        }
      ],
      "name": "balanceOf",
      "outputs": [
        {
          "internalType": "uint256",
          "name": "",
          "type": "uint256"
        }
      ],
      "stateMutability": "view",
      "type": "function"
    },
    {
      "inputs": [
        {
          "internalType": "uint256",
          "name": "tokenId",
          "type": "uint256"
        }
      ],
      "name": "getApproved",
      "outputs": [
        {
          "internalType": "address",
          "name": "",
          "type": "address"
        }
      ],
      "stateMutability": "view",
      "type": "function"
    },
    {
      "inputs": [
        {
          "internalType": "bytes32",
          "name": "role",
          "type": "bytes32"
        }
      ],
      "name": "getRoleAdmin",
      "outputs": [
        {
          "internalType": "bytes32",
          "name": "",
          "type": "bytes32"
        }
      ],
      "stateMutability": "view",
      "type": "function"
    },
    {
      "inputs": [
        {
          "internalType": "bytes32",
          "name": "role",
          "type": "bytes32"
        },
        {
          "internalType": "address",
          "name": "account",
          "type": "address"
        }
      ],
      "name": "grantRole",
      "outputs": [],
      "stateMutability": "nonpayable",
      "type": "function"
    },
    {
      "inputs": [
        {
          "internalType": "bytes32",
          "name": "role",
          "type": "bytes32"
        },
        {
          "internalType": "address",
          "name": "account",
          "type": "address"
        }
      ],
      "name": "hasRole",
      "outputs": [
        {
          "internalType": "bool",
          "name": "",
          "type": "bool"
        }
      ],
      "stateMutability": "view",
      "type": "function"
    },
    {
      "inputs": [
        {
          "internalType": "address",
          "name": "owner",
          "type": "address"
        },
        {
          "internalType": "address",
          "name": "operator",
          "type": "address"
        }
      ],
      "name": "isApprovedForAll",
      "outputs": [
        {
          "internalType": "bool",
          "name": "",
          "type": "bool"
        }
      ],
      "stateMutability": "view",
      "type": "function"
    },
    {
      "inputs": [],
      "name": "name",
      "outputs": [
        {
          "internalType": "string",
          "name": "",
          "type": "string"
        }
      ],
      "stateMutability": "view",
      "type": "function"
    },
    {
      "inputs": [
        {
          "internalType": "uint256",
          "name": "tokenId",
          "type": "uint256"
        }
      ],
      "name": "ownerOf",
      "outputs": [
        {
          "internalType": "address",
          "name": "",
          "type": "address"
        }
      ],
      "stateMutability": "view",
      "type": "function"
    },
    {
      "inputs": [
        {
          "internalType": "bytes32",
          "name": "role",
          "type": "bytes32"
        },
        {
          "internalType": "address",
          "name": "account",
          "type": "address"
        }
      ],
      "name": "renounceRole",
      "outputs": [],
      "stateMutability": "nonpayable",
      "type": "function"
    },
    {
      "inputs": [
        {
          "internalType": "bytes32",
          "name": "role",
          "type": "bytes32"
        },
        {
          "internalType": "address",
          "name": "account",
          "type": "address"
        }
      ],
      "name": "revokeRole",
      "outputs": [],
      "stateMutability": "nonpayable",
      "type": "function"
    },
    {
      "inputs": [
        {
          "internalType": "address",
          "name": "from",
          "type": "address"
        },
        {
          "internalType": "address",
          "name": "to",
          "type": "address"
        },
        {
          "internalType": "uint256",
          "name": "tokenId",
          "type": "uint256"
        }
      ],
      "name": "safeTransferFrom",
      "outputs": [],
      "stateMutability": "nonpayable",
      "type": "function"
    },
    {
      "inputs": [
        {
          "internalType": "address",
          "name": "from",
          "type": "address"
        },
        {
          "internalType": "address",
          "name": "to",
          "type": "address"
        },
        {
          "internalType": "uint256",
          "name": "tokenId",
          "type": "uint256"
        },
        {
          "internalType": "bytes",
          "name": "_data",
          "type": "bytes"
        }
      ],
      "name": "safeTransferFrom",
      "outputs": [],
      "stateMutability": "nonpayable",
      "type": "function"
    },
    {
      "inputs": [
        {
          "internalType": "address",
          "name": "operator",
          "type": "address"
        },
        {
          "internalType": "bool",
          "name": "approved",
          "type": "bool"
        }
      ],
      "name": "setApprovalForAll",
      "outputs": [],
      "stateMutability": "nonpayable",
      "type": "function"
    },
    {
      "inputs": [],
      "name": "symbol",
      "outputs": [
        {
          "internalType": "string",
          "name": "",
          "type": "string"
        }
      ],
      "stateMutability": "view",
      "type": "function"
    },
    {
      "inputs": [
        {
          "internalType": "uint256",
          "name": "index",
          "type": "uint256"
        }
      ],
      "name": "tokenByIndex",
      "outputs": [
        {
          "internalType": "uint256",
          "name": "",
          "type": "uint256"
        }
      ],
      "stateMutability": "view",
      "type": "function"
    },
    {
      "inputs": [
        {
          "internalType": "address",
          "name": "owner",
          "type": "address"
        },
        {
          "internalType": "uint256",
          "name": "index",
          "type": "uint256"
        }
      ],
      "name": "tokenOfOwnerByIndex",
      "outputs": [
        {
          "internalType": "uint256",
          "name": "",
          "type": "uint256"
        }
      ],
      "stateMutability": "view",
      "type": "function"
    },
    {
      "inputs": [],
      "name": "totalSupply",
      "outputs": [
        {
          "internalType": "uint256",
          "name": "",
          "type": "uint256"
        }
      ],
      "stateMutability": "view",
      "type": "function"
    },
    {
      "inputs": [
        {
          "internalType": "address",
          "name": "from",
          "type": "address"
        },
        {
          "internalType": "address",
          "name": "to",
          "type": "address"
        },
        {
          "internalType": "uint256",
          "name": "tokenId",
          "type": "uint256"
        }
      ],
      "name": "transferFrom",
      "outputs": [],
      "stateMutability": "nonpayable",
      "type": "function"
    },
    {
      "inputs": [],
      "name": "marketplace",
      "outputs": [
        {
          "internalType": "address",
          "name": "",
          "type": "address"
        }
      ],
      "stateMutability": "view",
      "type": "function"
    },
    {
      "inputs": [
        {
          "internalType": "address",
          "name": "marketplaceAddress",
          "type": "address"
        }
      ],
      "name": "setMarketplace",
      "outputs": [
        {
          "internalType": "address",
          "name": "",
          "type": "address"
        }
      ],
      "stateMutability": "nonpayable",
      "type": "function"
    },
    {
      "inputs": [],
      "name": "decimals",
      "outputs": [
        {
          "internalType": "uint8",
          "name": "",
          "type": "uint8"
        }
      ],
      "stateMutability": "pure",
      "type": "function"
    },
    {
      "inputs": [
        {
          "internalType": "uint256",
          "name": "tokenId",
          "type": "uint256"
        }
      ],
      "name": "getRoyaltyFee",
      "outputs": [
        {
          "internalType": "uint256",
          "name": "",
          "type": "uint256"
        }
      ],
      "stateMutability": "view",
      "type": "function"
    },
    {
      "inputs": [
        {
          "internalType": "uint256",
          "name": "tokenId",
          "type": "uint256"
        }
      ],
      "name": "getInvestorFee",
      "outputs": [
        {
          "internalType": "uint256",
          "name": "",
          "type": "uint256"
        }
      ],
      "stateMutability": "view",
      "type": "function"
    },
    {
      "inputs": [
        {
          "internalType": "uint256",
          "name": "tokenId",
          "type": "uint256"
        }
      ],
      "name": "getCreator",
      "outputs": [
        {
          "internalType": "address",
          "name": "",
          "type": "address"
        }
      ],
      "stateMutability": "view",
      "type": "function"
    },
    {
      "inputs": [
        {
          "internalType": "uint256",
          "name": "tokenId",
          "type": "uint256"
        }
      ],
      "name": "getInvestor",
      "outputs": [
        {
          "internalType": "address",
          "name": "",
          "type": "address"
        }
      ],
      "stateMutability": "view",
      "type": "function"
    },
    {
      "inputs": [
        {
          "internalType": "uint256",
          "name": "tokenId",
          "type": "uint256"
        }
      ],
      "name": "getTokenDetails",
      "outputs": [
        {
          "components": [
            {
              "internalType": "address",
              "name": "creator",
              "type": "address"
            },
            {
              "internalType": "address",
              "name": "investor",
              "type": "address"
            },
            {
              "internalType": "uint256",
              "name": "royaltyFee",
              "type": "uint256"
            },
            {
              "internalType": "uint256",
              "name": "investorFee",
              "type": "uint256"
            }
          ],
          "internalType": "struct AutenticaERC721.TokenDetails",
          "name": "",
          "type": "tuple"
        }
      ],
      "stateMutability": "view",
      "type": "function"
    },
    {
      "inputs": [
        {
          "internalType": "uint256",
          "name": "tokenId",
          "type": "uint256"
        },
        {
          "internalType": "string",
          "name": "uri",
          "type": "string"
        },
        {
          "internalType": "uint256",
          "name": "royaltyFee",
          "type": "uint256"
        }
      ],
      "name": "mint",
      "outputs": [],
      "stateMutability": "nonpayable",
      "type": "function"
    },
    {
      "inputs": [
        {
          "internalType": "address",
          "name": "creator",
          "type": "address"
        },
        {
          "internalType": "uint256",
          "name": "tokenId",
          "type": "uint256"
        },
        {
          "internalType": "string",
          "name": "uri",
          "type": "string"
        },
        {
          "internalType": "uint256",
          "name": "royaltyFee",
          "type": "uint256"
        },
        {
          "internalType": "uint256",
          "name": "investorFee",
          "type": "uint256"
        },
        {
          "internalType": "uint8",
          "name": "v",
          "type": "uint8"
        },
        {
          "internalType": "bytes32",
          "name": "r",
          "type": "bytes32"
        },
        {
          "internalType": "bytes32",
          "name": "s",
          "type": "bytes32"
        }
      ],
      "name": "investorMintingAndApproveMarketplace",
      "outputs": [],
      "stateMutability": "nonpayable",
      "type": "function"
    },
    {
      "inputs": [
        {
          "internalType": "uint256",
          "name": "tokenId",
          "type": "uint256"
        },
        {
          "internalType": "uint256",
          "name": "royaltyFee",
          "type": "uint256"
        }
      ],
      "name": "canPerformMint",
      "outputs": [
        {
          "internalType": "bool",
          "name": "",
          "type": "bool"
        }
      ],
      "stateMutability": "view",
      "type": "function"
    },
    {
      "inputs": [
        {
          "internalType": "address",
          "name": "creator",
          "type": "address"
        },
        {
          "internalType": "uint256",
          "name": "tokenId",
          "type": "uint256"
        },
        {
          "internalType": "uint256",
          "name": "royaltyFee",
          "type": "uint256"
        },
        {
          "internalType": "uint256",
          "name": "investorFee",
          "type": "uint256"
        },
        {
          "internalType": "uint8",
          "name": "v",
          "type": "uint8"
        },
        {
          "internalType": "bytes32",
          "name": "r",
          "type": "bytes32"
        },
        {
          "internalType": "bytes32",
          "name": "s",
          "type": "bytes32"
        }
      ],
      "name": "canPerformInvestorMinting",
      "outputs": [
        {
          "internalType": "bool",
          "name": "",
          "type": "bool"
        }
      ],
      "stateMutability": "view",
      "type": "function"
    },
    {
      "inputs": [
        {
          "internalType": "uint256",
          "name": "tokenId",
          "type": "uint256"
        }
      ],
      "name": "exists",
      "outputs": [
        {
          "internalType": "bool",
          "name": "",
          "type": "bool"
        }
      ],
      "stateMutability": "view",
      "type": "function"
    },
    {
      "inputs": [
        {
          "internalType": "uint256",
          "name": "tokenId",
          "type": "uint256"
        }
      ],
      "name": "tokenURI",
      "outputs": [
        {
          "internalType": "string",
          "name": "",
          "type": "string"
        }
      ],
      "stateMutability": "view",
      "type": "function"
    },
    {
      "inputs": [
        {
          "internalType": "uint256",
          "name": "tokenId",
          "type": "uint256"
        },
        {
          "internalType": "uint256",
          "name": "salePrice",
          "type": "uint256"
        }
      ],
      "name": "royaltyInfo",
      "outputs": [
        {
          "internalType": "address",
          "name": "receiver",
          "type": "address"
        },
        {
          "internalType": "uint256",
          "name": "royaltyAmount",
          "type": "uint256"
        }
      ],
      "stateMutability": "view",
      "type": "function"
    },
    {
      "inputs": [
        {
          "internalType": "bytes4",
          "name": "interfaceId",
          "type": "bytes4"
        }
      ],
      "name": "supportsInterface",
      "outputs": [
        {
          "internalType": "bool",
          "name": "",
          "type": "bool"
        }
      ],
      "stateMutability": "view",
      "type": "function"
    }
  ],
  "bytecode": "0x60806040523480156200001157600080fd5b506040518060400160405280601081526020017f417574656e74696361204d61726b6574000000000000000000000000000000008152506040518060400160405280600681526020017f4155544d4b54000000000000000000000000000000000000000000000000000081525081600090805190602001906200009692919062000298565b508060019080519060200190620000af92919062000298565b505050620000d66000801b620000ca6200011d60201b60201c565b6200012560201b60201c565b620001177f97667070c54ef182b0f5858b034beac1b6f3089aa2d3188bb1e8929f4fa9b9296200010b6200011d60201b60201c565b6200012560201b60201c565b620003ad565b600033905090565b6200013782826200013b60201b60201c565b5050565b6200014d82826200022d60201b60201c565b62000229576001600b600084815260200190815260200160002060000160008373ffffffffffffffffffffffffffffffffffffffff1673ffffffffffffffffffffffffffffffffffffffff16815260200190815260200160002060006101000a81548160ff021916908315150217905550620001ce6200011d60201b60201c565b73ffffffffffffffffffffffffffffffffffffffff168173ffffffffffffffffffffffffffffffffffffffff16837f2f8788117e7eff1d82e926ec794901d17c78024a50270940304540a733656f0d60405160405180910390a45b5050565b6000600b600084815260200190815260200160002060000160008373ffffffffffffffffffffffffffffffffffffffff1673ffffffffffffffffffffffffffffffffffffffff16815260200190815260200160002060009054906101000a900460ff16905092915050565b828054620002a69062000377565b90600052602060002090601f016020900481019282620002ca576000855562000316565b82601f10620002e557805160ff191683800117855562000316565b8280016001018555821562000316579182015b8281111562000315578251825591602001919060010190620002f8565b5b50905062000325919062000329565b5090565b5b80821115620003445760008160009055506001016200032a565b5090565b7f4e487b7100000000000000000000000000000000000000000000000000000000600052602260045260246000fd5b600060028204905060018216806200039057607f821691505b60208210811415620003a757620003a662000348565b5b50919050565b61589880620003bd6000396000f3fe608060405234801561001057600080fd5b50600436106102325760003560e01c806370a0823111610130578063acca6b31116100b8578063d48e638a1161007c578063d48e638a14610736578063d547741f14610766578063e985e9c514610782578063f5b541a6146107b2578063f915765b146107d057610232565b8063acca6b311461066e578063b88d4fde1461068a578063c1e03728146106a6578063c87b56dd146106d6578063c99dccf91461070657610232565b806395d89b41116100ff57806395d89b41146105c85780639e4c0141146105e6578063a217fddf14610616578063a22cb46514610634578063abc8c7af1461065057610232565b806370a082311461050857806373ad6c2d146105385780637a3e0a261461056857806391d148541461059857610232565b80632f2ff15d116101be57806342842e0e1161018257806342842e0e14610440578063453ac2aa1461045c5780634f558e79146104785780634f6ccce7146104a85780636352211e146104d857610232565b80632f2ff15d1461038a5780632f745c59146103a6578063313ce567146103d657806336568abe146103f457806340ed7b4c1461041057610232565b806318160ddd1161020557806318160ddd146102d157806323b872dd146102ef578063248a9ca31461030b5780632a55205a1461033b5780632e0f26251461036c57610232565b806301ffc9a71461023757806306fdde0314610267578063081812fc14610285578063095ea7b3146102b5575b600080fd5b610251600480360381019061024c91906137fe565b610800565b60405161025e9190613846565b60405180910390f35b61026f6108e2565b60405161027c91906138fa565b60405180910390f35b61029f600480360381019061029a9190613952565b610974565b6040516102ac91906139c0565b60405180910390f35b6102cf60048036038101906102ca9190613a07565b6109f9565b005b6102d9610b11565b6040516102e69190613a56565b60405180910390f35b61030960048036038101906103049190613a71565b610b1e565b005b61032560048036038101906103209190613afa565b610b7e565b6040516103329190613b36565b60405180910390f35b61035560048036038101906103509190613b51565b610b9e565b604051610363929190613b91565b60405180910390f35b610374610cd9565b6040516103819190613bd6565b60405180910390f35b6103a4600480360381019061039f9190613bf1565b610cde565b005b6103c060048036038101906103bb9190613a07565b610d07565b6040516103cd9190613a56565b60405180910390f35b6103de610dac565b6040516103eb9190613bd6565b60405180910390f35b61040e60048036038101906104099190613bf1565b610db5565b005b61042a60048036038101906104259190613b51565b610e38565b6040516104379190613846565b60405180910390f35b61045a60048036038101906104559190613a71565b610e96565b005b61047660048036038101906104719190613d92565b610eb6565b005b610492600480360381019061048d9190613952565b61101c565b60405161049f9190613846565b60405180910390f35b6104c260048036038101906104bd9190613952565b61102e565b6040516104cf9190613a56565b60405180910390f35b6104f260048036038101906104ed9190613952565b61109f565b6040516104ff91906139c0565b60405180910390f35b610522600480360381019061051d9190613e64565b611151565b60405161052f9190613a56565b60405180910390f35b610552600480360381019061054d9190613e64565b611209565b60405161055f91906139c0565b60405180910390f35b610582600480360381019061057d9190613e91565b61136c565b60405161058f9190613846565b60405180910390f35b6105b260048036038101906105ad9190613bf1565b61152e565b6040516105bf9190613846565b60405180910390f35b6105d0611599565b6040516105dd91906138fa565b60405180910390f35b61060060048036038101906105fb9190613952565b61162b565b60405161060d9190613a56565b60405180910390f35b61061e611693565b60405161062b9190613b36565b60405180910390f35b61064e60048036038101906106499190613f5f565b61169a565b005b6106586116b0565b60405161066591906139c0565b60405180910390f35b61068860048036038101906106839190613f9f565b6116da565b005b6106a4600480360381019061069f91906140af565b611812565b005b6106c060048036038101906106bb9190613952565b611874565b6040516106cd91906141a5565b60405180910390f35b6106f060048036038101906106eb9190613952565b6119a9565b6040516106fd91906138fa565b60405180910390f35b610720600480360381019061071b9190613952565b6119bb565b60405161072d91906139c0565b60405180910390f35b610750600480360381019061074b9190613952565b611a43565b60405161075d91906139c0565b60405180910390f35b610780600480360381019061077b9190613bf1565b611acb565b005b61079c600480360381019061079791906141c0565b611af4565b6040516107a99190613846565b60405180910390f35b6107ba611b88565b6040516107c79190613b36565b60405180910390f35b6107ea60048036038101906107e59190613952565b611bac565b6040516107f79190613a56565b60405180910390f35b60007f4b763d0e000000000000000000000000000000000000000000000000000000007bffffffffffffffffffffffffffffffffffffffffffffffffffffffff1916827bffffffffffffffffffffffffffffffffffffffffffffffffffffffff191614806108cb57507f2a55205a000000000000000000000000000000000000000000000000000000007bffffffffffffffffffffffffffffffffffffffffffffffffffffffff1916827bffffffffffffffffffffffffffffffffffffffffffffffffffffffff1916145b806108db57506108da82611c14565b5b9050919050565b6060600080546108f19061422f565b80601f016020809104026020016040519081016040528092919081815260200182805461091d9061422f565b801561096a5780601f1061093f5761010080835404028352916020019161096a565b820191906000526020600020905b81548152906001019060200180831161094d57829003601f168201915b5050505050905090565b600061097f82611c8e565b6109be576040517f08c379a00000000000000000000000000000000000000000000000000000000081526004016109b5906142d3565b60405180910390fd5b6004600083815260200190815260200160002060009054906101000a900473ffffffffffffffffffffffffffffffffffffffff169050919050565b6000610a048261109f565b90508073ffffffffffffffffffffffffffffffffffffffff168373ffffffffffffffffffffffffffffffffffffffff161415610a75576040517f08c379a0000000000000000000000000000000000000000000000000000000008152600401610a6c90614365565b60405180910390fd5b8073ffffffffffffffffffffffffffffffffffffffff16610a94611cfa565b73ffffffffffffffffffffffffffffffffffffffff161480610ac35750610ac281610abd611cfa565b611af4565b5b610b02576040517f08c379a0000000000000000000000000000000000000000000000000000000008152600401610af9906143f7565b60405180910390fd5b610b0c8383611d02565b505050565b6000600980549050905090565b610b2f610b29611cfa565b82611dbb565b610b6e576040517f08c379a0000000000000000000000000000000000000000000000000000000008152600401610b6590614489565b60405180910390fd5b610b79838383611e99565b505050565b6000600b6000838152602001908152602001600020600101549050919050565b60008060001515610bae85611c8e565b15151480610c1e5750600073ffffffffffffffffffffffffffffffffffffffff16600d600086815260200190815260200160002060000160009054906101000a900473ffffffffffffffffffffffffffffffffffffffff1673ffffffffffffffffffffffffffffffffffffffff16145b80610c3f57506000600d600086815260200190815260200160002060020154145b15610c505760008091509150610cd2565b600d600085815260200190815260200160002060000160009054906101000a900473ffffffffffffffffffffffffffffffffffffffff166002600a610c95919061460b565b6064610ca19190614656565b600d60008781526020019081526020016000206002015485610cc39190614656565b610ccd91906146df565b915091505b9250929050565b600281565b610ce782610b7e565b610cf881610cf3611cfa565b612100565b610d02838361219d565b505050565b6000610d1283611151565b8210610d53576040517f08c379a0000000000000000000000000000000000000000000000000000000008152600401610d4a90614782565b60405180910390fd5b600760008473ffffffffffffffffffffffffffffffffffffffff1673ffffffffffffffffffffffffffffffffffffffff168152602001908152602001600020600083815260200190815260200160002054905092915050565b60006002905090565b610dbd611cfa565b73ffffffffffffffffffffffffffffffffffffffff168173ffffffffffffffffffffffffffffffffffffffff1614610e2a576040517f08c379a0000000000000000000000000000000000000000000000000000000008152600401610e2190614814565b60405180910390fd5b610e34828261227e565b5050565b6000610e4383611c8e565b15610e83576040517f08c379a0000000000000000000000000000000000000000000000000000000008152600401610e7a906148a6565b60405180910390fd5b610e8c82612360565b6001905092915050565b610eb183838360405180602001604052806000815250611812565b505050565b610ec58888878787878761136c565b50610ed088886123bf565b610eda87876123dd565b60405180608001604052808973ffffffffffffffffffffffffffffffffffffffff168152602001610f09611cfa565b73ffffffffffffffffffffffffffffffffffffffff16815260200186815260200185815250600d600089815260200190815260200160002060008201518160000160006101000a81548173ffffffffffffffffffffffffffffffffffffffff021916908373ffffffffffffffffffffffffffffffffffffffff16021790555060208201518160010160006101000a81548173ffffffffffffffffffffffffffffffffffffffff021916908373ffffffffffffffffffffffffffffffffffffffff1602179055506040820151816002015560608201518160030155905050611012600c60009054906101000a900473ffffffffffffffffffffffffffffffffffffffff1688611d02565b5050505050505050565b600061102782611c8e565b9050919050565b6000611038610b11565b8210611079576040517f08c379a000000000000000000000000000000000000000000000000000000000815260040161107090614938565b60405180910390fd5b6009828154811061108d5761108c614958565b5b90600052602060002001549050919050565b6000806002600084815260200190815260200160002060009054906101000a900473ffffffffffffffffffffffffffffffffffffffff169050600073ffffffffffffffffffffffffffffffffffffffff168173ffffffffffffffffffffffffffffffffffffffff161415611148576040517f08c379a000000000000000000000000000000000000000000000000000000000815260040161113f906149f9565b60405180910390fd5b80915050919050565b60008073ffffffffffffffffffffffffffffffffffffffff168273ffffffffffffffffffffffffffffffffffffffff1614156111c2576040517f08c379a00000000000000000000000000000000000000000000000000000000081526004016111b990614a8b565b60405180910390fd5b600360008373ffffffffffffffffffffffffffffffffffffffff1673ffffffffffffffffffffffffffffffffffffffff168152602001908152602001600020549050919050565b600061121f6000801b61121a611cfa565b61152e565b61125e576040517f08c379a000000000000000000000000000000000000000000000000000000000815260040161125590614b1d565b60405180910390fd5b6000600c60009054906101000a900473ffffffffffffffffffffffffffffffffffffffff16905082600c60006101000a81548173ffffffffffffffffffffffffffffffffffffffff021916908373ffffffffffffffffffffffffffffffffffffffff160217905550600c60009054906101000a900473ffffffffffffffffffffffffffffffffffffffff1673ffffffffffffffffffffffffffffffffffffffff168173ffffffffffffffffffffffffffffffffffffffff167ea65b4099f660d62e650fc92aa9c593d212d37b69d763939568ef02d7b78b5160405160405180910390a3600c60009054906101000a900473ffffffffffffffffffffffffffffffffffffffff16915050919050565b600061137787611c8e565b156113b7576040517f08c379a00000000000000000000000000000000000000000000000000000000081526004016113ae906148a6565b60405180910390fd5b6113c086612360565b6113c985612360565b8773ffffffffffffffffffffffffffffffffffffffff166113e8611cfa565b73ffffffffffffffffffffffffffffffffffffffff16141561143f576040517f08c379a000000000000000000000000000000000000000000000000000000000815260040161143690614baf565b60405180910390fd5b61144e88888888888888612451565b61148d576040517f08c379a000000000000000000000000000000000000000000000000000000000815260040161148490614c41565b60405180910390fd5b600073ffffffffffffffffffffffffffffffffffffffff16600c60009054906101000a900473ffffffffffffffffffffffffffffffffffffffff1673ffffffffffffffffffffffffffffffffffffffff16141561151f576040517f08c379a000000000000000000000000000000000000000000000000000000000815260040161151690614cd3565b60405180910390fd5b60019050979650505050505050565b6000600b600084815260200190815260200160002060000160008373ffffffffffffffffffffffffffffffffffffffff1673ffffffffffffffffffffffffffffffffffffffff16815260200190815260200160002060009054906101000a900460ff16905092915050565b6060600180546115a89061422f565b80601f01602080910402602001604051908101604052809291908181526020018280546115d49061422f565b80156116215780601f106115f657610100808354040283529160200191611621565b820191906000526020600020905b81548152906001019060200180831161160457829003601f168201915b5050505050905090565b600061163682611c8e565b611675576040517f08c379a000000000000000000000000000000000000000000000000000000000815260040161166c90614d65565b60405180910390fd5b600d6000838152602001908152602001600020600201549050919050565b6000801b81565b6116ac6116a5611cfa565b838361254b565b5050565b6000600c60009054906101000a900473ffffffffffffffffffffffffffffffffffffffff16905090565b6116e48382610e38565b5060006116ef611cfa565b90506116fb81856123bf565b61170584846123dd565b60405180608001604052808273ffffffffffffffffffffffffffffffffffffffff168152602001600073ffffffffffffffffffffffffffffffffffffffff1681526020018381526020016000815250600d600086815260200190815260200160002060008201518160000160006101000a81548173ffffffffffffffffffffffffffffffffffffffff021916908373ffffffffffffffffffffffffffffffffffffffff16021790555060208201518160010160006101000a81548173ffffffffffffffffffffffffffffffffffffffff021916908373ffffffffffffffffffffffffffffffffffffffff160217905550604082015181600201556060820151816003015590505050505050565b61182361181d611cfa565b83611dbb565b611862576040517f08c379a000000000000000000000000000000000000000000000000000000000815260040161185990614489565b60405180910390fd5b61186e848484846126b8565b50505050565b61187c61369b565b61188582611c8e565b6118c4576040517f08c379a00000000000000000000000000000000000000000000000000000000081526004016118bb90614d65565b60405180910390fd5b600d60008381526020019081526020016000206040518060800160405290816000820160009054906101000a900473ffffffffffffffffffffffffffffffffffffffff1673ffffffffffffffffffffffffffffffffffffffff1673ffffffffffffffffffffffffffffffffffffffff1681526020016001820160009054906101000a900473ffffffffffffffffffffffffffffffffffffffff1673ffffffffffffffffffffffffffffffffffffffff1673ffffffffffffffffffffffffffffffffffffffff168152602001600282015481526020016003820154815250509050919050565b60606119b482612714565b9050919050565b60006119c682611c8e565b611a05576040517f08c379a00000000000000000000000000000000000000000000000000000000081526004016119fc90614d65565b60405180910390fd5b600d600083815260200190815260200160002060010160009054906101000a900473ffffffffffffffffffffffffffffffffffffffff169050919050565b6000611a4e82611c8e565b611a8d576040517f08c379a0000000000000000000000000000000000000000000000000000000008152600401611a8490614d65565b60405180910390fd5b600d600083815260200190815260200160002060000160009054906101000a900473ffffffffffffffffffffffffffffffffffffffff169050919050565b611ad482610b7e565b611ae581611ae0611cfa565b612100565b611aef838361227e565b505050565b6000600560008473ffffffffffffffffffffffffffffffffffffffff1673ffffffffffffffffffffffffffffffffffffffff16815260200190815260200160002060008373ffffffffffffffffffffffffffffffffffffffff1673ffffffffffffffffffffffffffffffffffffffff16815260200190815260200160002060009054906101000a900460ff16905092915050565b7f97667070c54ef182b0f5858b034beac1b6f3089aa2d3188bb1e8929f4fa9b92981565b6000611bb782611c8e565b611bf6576040517f08c379a0000000000000000000000000000000000000000000000000000000008152600401611bed90614d65565b60405180910390fd5b600d6000838152602001908152602001600020600301549050919050565b60007f7965db0b000000000000000000000000000000000000000000000000000000007bffffffffffffffffffffffffffffffffffffffffffffffffffffffff1916827bffffffffffffffffffffffffffffffffffffffffffffffffffffffff19161480611c875750611c8682612866565b5b9050919050565b60008073ffffffffffffffffffffffffffffffffffffffff166002600084815260200190815260200160002060009054906101000a900473ffffffffffffffffffffffffffffffffffffffff1673ffffffffffffffffffffffffffffffffffffffff1614159050919050565b600033905090565b816004600083815260200190815260200160002060006101000a81548173ffffffffffffffffffffffffffffffffffffffff021916908373ffffffffffffffffffffffffffffffffffffffff160217905550808273ffffffffffffffffffffffffffffffffffffffff16611d758361109f565b73ffffffffffffffffffffffffffffffffffffffff167f8c5be1e5ebec7d5bd14f71427d1e84f3dd0314c0f7b2291e5b200ac8c7c3b92560405160405180910390a45050565b6000611dc682611c8e565b611e05576040517f08c379a0000000000000000000000000000000000000000000000000000000008152600401611dfc90614df7565b60405180910390fd5b6000611e108361109f565b90508073ffffffffffffffffffffffffffffffffffffffff168473ffffffffffffffffffffffffffffffffffffffff161480611e7f57508373ffffffffffffffffffffffffffffffffffffffff16611e6784610974565b73ffffffffffffffffffffffffffffffffffffffff16145b80611e905750611e8f8185611af4565b5b91505092915050565b8273ffffffffffffffffffffffffffffffffffffffff16611eb98261109f565b73ffffffffffffffffffffffffffffffffffffffff1614611f0f576040517f08c379a0000000000000000000000000000000000000000000000000000000008152600401611f0690614e89565b60405180910390fd5b600073ffffffffffffffffffffffffffffffffffffffff168273ffffffffffffffffffffffffffffffffffffffff161415611f7f576040517f08c379a0000000000000000000000000000000000000000000000000000000008152600401611f7690614f1b565b60405180910390fd5b611f8a8383836128e0565b611f95600082611d02565b6001600360008573ffffffffffffffffffffffffffffffffffffffff1673ffffffffffffffffffffffffffffffffffffffff1681526020019081526020016000206000828254611fe59190614f3b565b925050819055506001600360008473ffffffffffffffffffffffffffffffffffffffff1673ffffffffffffffffffffffffffffffffffffffff168152602001908152602001600020600082825461203c9190614f6f565b92505081905550816002600083815260200190815260200160002060006101000a81548173ffffffffffffffffffffffffffffffffffffffff021916908373ffffffffffffffffffffffffffffffffffffffff160217905550808273ffffffffffffffffffffffffffffffffffffffff168473ffffffffffffffffffffffffffffffffffffffff167fddf252ad1be2c89b69c2b068fc378daa952ba7f163c4a11628f55a4df523b3ef60405160405180910390a46120fb8383836128f0565b505050565b61210a828261152e565b6121995761212f8173ffffffffffffffffffffffffffffffffffffffff1660146128f5565b61213d8360001c60206128f5565b60405160200161214e929190615099565b6040516020818303038152906040526040517f08c379a000000000000000000000000000000000000000000000000000000000815260040161219091906138fa565b60405180910390fd5b5050565b6121a7828261152e565b61227a576001600b600084815260200190815260200160002060000160008373ffffffffffffffffffffffffffffffffffffffff1673ffffffffffffffffffffffffffffffffffffffff16815260200190815260200160002060006101000a81548160ff02191690831515021790555061221f611cfa565b73ffffffffffffffffffffffffffffffffffffffff168173ffffffffffffffffffffffffffffffffffffffff16837f2f8788117e7eff1d82e926ec794901d17c78024a50270940304540a733656f0d60405160405180910390a45b5050565b612288828261152e565b1561235c576000600b600084815260200190815260200160002060000160008373ffffffffffffffffffffffffffffffffffffffff1673ffffffffffffffffffffffffffffffffffffffff16815260200190815260200160002060006101000a81548160ff021916908315150217905550612301611cfa565b73ffffffffffffffffffffffffffffffffffffffff168173ffffffffffffffffffffffffffffffffffffffff16837ff6391f5c32d9c69d2a47ea670b442974b53935d1edc7fd64eb21e047a839171b60405160405180910390a45b5050565b6002600a61236e919061460b565b606461237a9190614656565b8111156123bc576040517f08c379a00000000000000000000000000000000000000000000000000000000081526004016123b390615145565b60405180910390fd5b50565b6123d9828260405180602001604052806000815250612b31565b5050565b6123e682611c8e565b612425576040517f08c379a000000000000000000000000000000000000000000000000000000000815260040161241c906151d7565b60405180910390fd5b8060066000848152602001908152602001600020908051906020019061244c9291906136ef565b505050565b600080308989898960405160200161246d9594939291906151f7565b604051602081830303815290604052805190602001209050600060018260405160200161249a91906152b7565b60405160208183030381529060405280519060200120878787604051600081526020016040526040516124d094939291906152dd565b6020604051602081039080840390855afa1580156124f2573d6000803e3d6000fd5b50505060206040510351905061250b6000801b8261152e565b8061253c575061253b7f97667070c54ef182b0f5858b034beac1b6f3089aa2d3188bb1e8929f4fa9b9298261152e565b5b92505050979650505050505050565b8173ffffffffffffffffffffffffffffffffffffffff168373ffffffffffffffffffffffffffffffffffffffff1614156125ba576040517f08c379a00000000000000000000000000000000000000000000000000000000081526004016125b19061536e565b60405180910390fd5b80600560008573ffffffffffffffffffffffffffffffffffffffff1673ffffffffffffffffffffffffffffffffffffffff16815260200190815260200160002060008473ffffffffffffffffffffffffffffffffffffffff1673ffffffffffffffffffffffffffffffffffffffff16815260200190815260200160002060006101000a81548160ff0219169083151502179055508173ffffffffffffffffffffffffffffffffffffffff168373ffffffffffffffffffffffffffffffffffffffff167f17307eab39ab6107e8899845ad3d59bd9653f200f220920489ca2b5937696c31836040516126ab9190613846565b60405180910390a3505050565b6126c3848484611e99565b6126cf84848484612b8c565b61270e576040517f08c379a000000000000000000000000000000000000000000000000000000000815260040161270590615400565b60405180910390fd5b50505050565b606061271f82611c8e565b61275e576040517f08c379a000000000000000000000000000000000000000000000000000000000815260040161275590615492565b60405180910390fd5b600060066000848152602001908152602001600020805461277e9061422f565b80601f01602080910402602001604051908101604052809291908181526020018280546127aa9061422f565b80156127f75780601f106127cc576101008083540402835291602001916127f7565b820191906000526020600020905b8154815290600101906020018083116127da57829003601f168201915b505050505090506000612808612d14565b905060008151141561281e578192505050612861565b60008251111561285357808260405160200161283b9291906154b2565b60405160208183030381529060405292505050612861565b61285c84612d2b565b925050505b919050565b60007f780e9d63000000000000000000000000000000000000000000000000000000007bffffffffffffffffffffffffffffffffffffffffffffffffffffffff1916827bffffffffffffffffffffffffffffffffffffffffffffffffffffffff191614806128d957506128d882612dd2565b5b9050919050565b6128eb838383612eb4565b505050565b505050565b6060600060028360026129089190614656565b6129129190614f6f565b67ffffffffffffffff81111561292b5761292a613c3b565b5b6040519080825280601f01601f19166020018201604052801561295d5781602001600182028036833780820191505090505b5090507f30000000000000000000000000000000000000000000000000000000000000008160008151811061299557612994614958565b5b60200101907effffffffffffffffffffffffffffffffffffffffffffffffffffffffffffff1916908160001a9053507f7800000000000000000000000000000000000000000000000000000000000000816001815181106129f9576129f8614958565b5b60200101907effffffffffffffffffffffffffffffffffffffffffffffffffffffffffffff1916908160001a90535060006001846002612a399190614656565b612a439190614f6f565b90505b6001811115612ae3577f3031323334353637383961626364656600000000000000000000000000000000600f861660108110612a8557612a84614958565b5b1a60f81b828281518110612a9c57612a9b614958565b5b60200101907effffffffffffffffffffffffffffffffffffffffffffffffffffffffffffff1916908160001a905350600485901c945080612adc906154d6565b9050612a46565b5060008414612b27576040517f08c379a0000000000000000000000000000000000000000000000000000000008152600401612b1e9061554c565b60405180910390fd5b8091505092915050565b612b3b8383612fc8565b612b486000848484612b8c565b612b87576040517f08c379a0000000000000000000000000000000000000000000000000000000008152600401612b7e90615400565b60405180910390fd5b505050565b6000612bad8473ffffffffffffffffffffffffffffffffffffffff166131a2565b15612d07578373ffffffffffffffffffffffffffffffffffffffff1663150b7a02612bd6611cfa565b8786866040518563ffffffff1660e01b8152600401612bf894939291906155c1565b6020604051808303816000875af1925050508015612c3457506040513d601f19601f82011682018060405250810190612c319190615622565b60015b612cb7573d8060008114612c64576040519150601f19603f3d011682016040523d82523d6000602084013e612c69565b606091505b50600081511415612caf576040517f08c379a0000000000000000000000000000000000000000000000000000000008152600401612ca690615400565b60405180910390fd5b805181602001fd5b63150b7a0260e01b7bffffffffffffffffffffffffffffffffffffffffffffffffffffffff1916817bffffffffffffffffffffffffffffffffffffffffffffffffffffffff191614915050612d0c565b600190505b949350505050565b606060405180602001604052806000815250905090565b6060612d3682611c8e565b612d75576040517f08c379a0000000000000000000000000000000000000000000000000000000008152600401612d6c906156c1565b60405180910390fd5b6000612d7f612d14565b90506000815111612d9f5760405180602001604052806000815250612dca565b80612da9846131c5565b604051602001612dba9291906154b2565b6040516020818303038152906040525b915050919050565b60007f80ac58cd000000000000000000000000000000000000000000000000000000007bffffffffffffffffffffffffffffffffffffffffffffffffffffffff1916827bffffffffffffffffffffffffffffffffffffffffffffffffffffffff19161480612e9d57507f5b5e139f000000000000000000000000000000000000000000000000000000007bffffffffffffffffffffffffffffffffffffffffffffffffffffffff1916827bffffffffffffffffffffffffffffffffffffffffffffffffffffffff1916145b80612ead5750612eac82613326565b5b9050919050565b612ebf838383613390565b600073ffffffffffffffffffffffffffffffffffffffff168373ffffffffffffffffffffffffffffffffffffffff161415612f0257612efd81613395565b612f41565b8173ffffffffffffffffffffffffffffffffffffffff168373ffffffffffffffffffffffffffffffffffffffff1614612f4057612f3f83826133de565b5b5b600073ffffffffffffffffffffffffffffffffffffffff168273ffffffffffffffffffffffffffffffffffffffff161415612f8457612f7f8161354b565b612fc3565b8273ffffffffffffffffffffffffffffffffffffffff168273ffffffffffffffffffffffffffffffffffffffff1614612fc257612fc1828261361c565b5b5b505050565b600073ffffffffffffffffffffffffffffffffffffffff168273ffffffffffffffffffffffffffffffffffffffff161415613038576040517f08c379a000000000000000000000000000000000000000000000000000000000815260040161302f9061572d565b60405180910390fd5b61304181611c8e565b15613081576040517f08c379a000000000000000000000000000000000000000000000000000000000815260040161307890615799565b60405180910390fd5b61308d600083836128e0565b6001600360008473ffffffffffffffffffffffffffffffffffffffff1673ffffffffffffffffffffffffffffffffffffffff16815260200190815260200160002060008282546130dd9190614f6f565b92505081905550816002600083815260200190815260200160002060006101000a81548173ffffffffffffffffffffffffffffffffffffffff021916908373ffffffffffffffffffffffffffffffffffffffff160217905550808273ffffffffffffffffffffffffffffffffffffffff16600073ffffffffffffffffffffffffffffffffffffffff167fddf252ad1be2c89b69c2b068fc378daa952ba7f163c4a11628f55a4df523b3ef60405160405180910390a461319e600083836128f0565b5050565b6000808273ffffffffffffffffffffffffffffffffffffffff163b119050919050565b6060600082141561320d576040518060400160405280600181526020017f30000000000000000000000000000000000000000000000000000000000000008152509050613321565b600082905060005b6000821461323f578080613228906157b9565b915050600a8261323891906146df565b9150613215565b60008167ffffffffffffffff81111561325b5761325a613c3b565b5b6040519080825280601f01601f19166020018201604052801561328d5781602001600182028036833780820191505090505b5090505b6000851461331a576001826132a69190614f3b565b9150600a856132b59190615802565b60306132c19190614f6f565b60f81b8183815181106132d7576132d6614958565b5b60200101907effffffffffffffffffffffffffffffffffffffffffffffffffffffffffffff1916908160001a905350600a8561331391906146df565b9450613291565b8093505050505b919050565b60007f01ffc9a7000000000000000000000000000000000000000000000000000000007bffffffffffffffffffffffffffffffffffffffffffffffffffffffff1916827bffffffffffffffffffffffffffffffffffffffffffffffffffffffff1916149050919050565b505050565b600980549050600a600083815260200190815260200160002081905550600981908060018154018082558091505060019003906000526020600020016000909190919091505550565b600060016133eb84611151565b6133f59190614f3b565b90506000600860008481526020019081526020016000205490508181146134da576000600760008673ffffffffffffffffffffffffffffffffffffffff1673ffffffffffffffffffffffffffffffffffffffff168152602001908152602001600020600084815260200190815260200160002054905080600760008773ffffffffffffffffffffffffffffffffffffffff1673ffffffffffffffffffffffffffffffffffffffff168152602001908152602001600020600084815260200190815260200160002081905550816008600083815260200190815260200160002081905550505b6008600084815260200190815260200160002060009055600760008573ffffffffffffffffffffffffffffffffffffffff1673ffffffffffffffffffffffffffffffffffffffff16815260200190815260200160002060008381526020019081526020016000206000905550505050565b6000600160098054905061355f9190614f3b565b90506000600a600084815260200190815260200160002054905060006009838154811061358f5761358e614958565b5b9060005260206000200154905080600983815481106135b1576135b0614958565b5b906000526020600020018190555081600a600083815260200190815260200160002081905550600a6000858152602001908152602001600020600090556009805480613600576135ff615833565b5b6001900381819060005260206000200160009055905550505050565b600061362783611151565b905081600760008573ffffffffffffffffffffffffffffffffffffffff1673ffffffffffffffffffffffffffffffffffffffff168152602001908152602001600020600083815260200190815260200160002081905550806008600084815260200190815260200160002081905550505050565b6040518060800160405280600073ffffffffffffffffffffffffffffffffffffffff168152602001600073ffffffffffffffffffffffffffffffffffffffff16815260200160008152602001600081525090565b8280546136fb9061422f565b90600052602060002090601f01602090048101928261371d5760008555613764565b82601f1061373657805160ff1916838001178555613764565b82800160010185558215613764579182015b82811115613763578251825591602001919060010190613748565b5b5090506137719190613775565b5090565b5b8082111561378e576000816000905550600101613776565b5090565b6000604051905090565b600080fd5b600080fd5b60007fffffffff0000000000000000000000000000000000000000000000000000000082169050919050565b6137db816137a6565b81146137e657600080fd5b50565b6000813590506137f8816137d2565b92915050565b6000602082840312156138145761381361379c565b5b6000613822848285016137e9565b91505092915050565b60008115159050919050565b6138408161382b565b82525050565b600060208201905061385b6000830184613837565b92915050565b600081519050919050565b600082825260208201905092915050565b60005b8381101561389b578082015181840152602081019050613880565b838111156138aa576000848401525b50505050565b6000601f19601f8301169050919050565b60006138cc82613861565b6138d6818561386c565b93506138e681856020860161387d565b6138ef816138b0565b840191505092915050565b6000602082019050818103600083015261391481846138c1565b905092915050565b6000819050919050565b61392f8161391c565b811461393a57600080fd5b50565b60008135905061394c81613926565b92915050565b6000602082840312156139685761396761379c565b5b60006139768482850161393d565b91505092915050565b600073ffffffffffffffffffffffffffffffffffffffff82169050919050565b60006139aa8261397f565b9050919050565b6139ba8161399f565b82525050565b60006020820190506139d560008301846139b1565b92915050565b6139e48161399f565b81146139ef57600080fd5b50565b600081359050613a01816139db565b92915050565b60008060408385031215613a1e57613a1d61379c565b5b6000613a2c858286016139f2565b9250506020613a3d8582860161393d565b9150509250929050565b613a508161391c565b82525050565b6000602082019050613a6b6000830184613a47565b92915050565b600080600060608486031215613a8a57613a8961379c565b5b6000613a98868287016139f2565b9350506020613aa9868287016139f2565b9250506040613aba8682870161393d565b9150509250925092565b6000819050919050565b613ad781613ac4565b8114613ae257600080fd5b50565b600081359050613af481613ace565b92915050565b600060208284031215613b1057613b0f61379c565b5b6000613b1e84828501613ae5565b91505092915050565b613b3081613ac4565b82525050565b6000602082019050613b4b6000830184613b27565b92915050565b60008060408385031215613b6857613b6761379c565b5b6000613b768582860161393d565b9250506020613b878582860161393d565b9150509250929050565b6000604082019050613ba660008301856139b1565b613bb36020830184613a47565b9392505050565b600060ff82169050919050565b613bd081613bba565b82525050565b6000602082019050613beb6000830184613bc7565b92915050565b60008060408385031215613c0857613c0761379c565b5b6000613c1685828601613ae5565b9250506020613c27858286016139f2565b9150509250929050565b600080fd5b600080fd5b7f4e487b7100000000000000000000000000000000000000000000000000000000600052604160045260246000fd5b613c73826138b0565b810181811067ffffffffffffffff82111715613c9257613c91613c3b565b5b80604052505050565b6000613ca5613792565b9050613cb18282613c6a565b919050565b600067ffffffffffffffff821115613cd157613cd0613c3b565b5b613cda826138b0565b9050602081019050919050565b82818337600083830152505050565b6000613d09613d0484613cb6565b613c9b565b905082815260208101848484011115613d2557613d24613c36565b5b613d30848285613ce7565b509392505050565b600082601f830112613d4d57613d4c613c31565b5b8135613d5d848260208601613cf6565b91505092915050565b613d6f81613bba565b8114613d7a57600080fd5b50565b600081359050613d8c81613d66565b92915050565b600080600080600080600080610100898b031215613db357613db261379c565b5b6000613dc18b828c016139f2565b9850506020613dd28b828c0161393d565b975050604089013567ffffffffffffffff811115613df357613df26137a1565b5b613dff8b828c01613d38565b9650506060613e108b828c0161393d565b9550506080613e218b828c0161393d565b94505060a0613e328b828c01613d7d565b93505060c0613e438b828c01613ae5565b92505060e0613e548b828c01613ae5565b9150509295985092959890939650565b600060208284031215613e7a57613e7961379c565b5b6000613e88848285016139f2565b91505092915050565b600080600080600080600060e0888a031215613eb057613eaf61379c565b5b6000613ebe8a828b016139f2565b9750506020613ecf8a828b0161393d565b9650506040613ee08a828b0161393d565b9550506060613ef18a828b0161393d565b9450506080613f028a828b01613d7d565b93505060a0613f138a828b01613ae5565b92505060c0613f248a828b01613ae5565b91505092959891949750929550565b613f3c8161382b565b8114613f4757600080fd5b50565b600081359050613f5981613f33565b92915050565b60008060408385031215613f7657613f7561379c565b5b6000613f84858286016139f2565b9250506020613f9585828601613f4a565b9150509250929050565b600080600060608486031215613fb857613fb761379c565b5b6000613fc68682870161393d565b935050602084013567ffffffffffffffff811115613fe757613fe66137a1565b5b613ff386828701613d38565b92505060406140048682870161393d565b9150509250925092565b600067ffffffffffffffff82111561402957614028613c3b565b5b614032826138b0565b9050602081019050919050565b600061405261404d8461400e565b613c9b565b90508281526020810184848401111561406e5761406d613c36565b5b614079848285613ce7565b509392505050565b600082601f83011261409657614095613c31565b5b81356140a684826020860161403f565b91505092915050565b600080600080608085870312156140c9576140c861379c565b5b60006140d7878288016139f2565b94505060206140e8878288016139f2565b93505060406140f98782880161393d565b925050606085013567ffffffffffffffff81111561411a576141196137a1565b5b61412687828801614081565b91505092959194509250565b61413b8161399f565b82525050565b61414a8161391c565b82525050565b6080820160008201516141666000850182614132565b5060208201516141796020850182614132565b50604082015161418c6040850182614141565b50606082015161419f6060850182614141565b50505050565b60006080820190506141ba6000830184614150565b92915050565b600080604083850312156141d7576141d661379c565b5b60006141e5858286016139f2565b92505060206141f6858286016139f2565b9150509250929050565b7f4e487b7100000000000000000000000000000000000000000000000000000000600052602260045260246000fd5b6000600282049050600182168061424757607f821691505b6020821081141561425b5761425a614200565b5b50919050565b7f4552433732313a20617070726f76656420717565727920666f72206e6f6e657860008201527f697374656e7420746f6b656e0000000000000000000000000000000000000000602082015250565b60006142bd602c8361386c565b91506142c882614261565b604082019050919050565b600060208201905081810360008301526142ec816142b0565b9050919050565b7f4552433732313a20617070726f76616c20746f2063757272656e74206f776e6560008201527f7200000000000000000000000000000000000000000000000000000000000000602082015250565b600061434f60218361386c565b915061435a826142f3565b604082019050919050565b6000602082019050818103600083015261437e81614342565b9050919050565b7f4552433732313a20617070726f76652063616c6c6572206973206e6f74206f7760008201527f6e6572206e6f7220617070726f76656420666f7220616c6c0000000000000000602082015250565b60006143e160388361386c565b91506143ec82614385565b604082019050919050565b60006020820190508181036000830152614410816143d4565b9050919050565b7f4552433732313a207472616e736665722063616c6c6572206973206e6f74206f60008201527f776e6572206e6f7220617070726f766564000000000000000000000000000000602082015250565b600061447360318361386c565b915061447e82614417565b604082019050919050565b600060208201905081810360008301526144a281614466565b9050919050565b7f4e487b7100000000000000000000000000000000000000000000000000000000600052601160045260246000fd5b60008160011c9050919050565b6000808291508390505b600185111561452f5780860481111561450b5761450a6144a9565b5b600185161561451a5780820291505b8081029050614528856144d8565b94506144ef565b94509492505050565b6000826145485760019050614604565b816145565760009050614604565b816001811461456c5760028114614576576145a5565b6001915050614604565b60ff841115614588576145876144a9565b5b8360020a91508482111561459f5761459e6144a9565b5b50614604565b5060208310610133831016604e8410600b84101617156145da5782820a9050838111156145d5576145d46144a9565b5b614604565b6145e784848460016144e5565b925090508184048111156145fe576145fd6144a9565b5b81810290505b9392505050565b60006146168261391c565b915061462183613bba565b925061464e7fffffffffffffffffffffffffffffffffffffffffffffffffffffffffffffffff8484614538565b905092915050565b60006146618261391c565b915061466c8361391c565b9250817fffffffffffffffffffffffffffffffffffffffffffffffffffffffffffffffff04831182151516156146a5576146a46144a9565b5b828202905092915050565b7f4e487b7100000000000000000000000000000000000000000000000000000000600052601260045260246000fd5b60006146ea8261391c565b91506146f58361391c565b925082614705576147046146b0565b5b828204905092915050565b7f455243373231456e756d657261626c653a206f776e657220696e646578206f7560008201527f74206f6620626f756e6473000000000000000000000000000000000000000000602082015250565b600061476c602b8361386c565b915061477782614710565b604082019050919050565b6000602082019050818103600083015261479b8161475f565b9050919050565b7f416363657373436f6e74726f6c3a2063616e206f6e6c792072656e6f756e636560008201527f20726f6c657320666f722073656c660000000000000000000000000000000000602082015250565b60006147fe602f8361386c565b9150614809826147a2565b604082019050919050565b6000602082019050818103600083015261482d816147f1565b9050919050565b7f417574656e746963614552433732313a20546f6b656e20616c7265616479206d60008201527f696e746564000000000000000000000000000000000000000000000000000000602082015250565b600061489060258361386c565b915061489b82614834565b604082019050919050565b600060208201905081810360008301526148bf81614883565b9050919050565b7f455243373231456e756d657261626c653a20676c6f62616c20696e646578206f60008201527f7574206f6620626f756e64730000000000000000000000000000000000000000602082015250565b6000614922602c8361386c565b915061492d826148c6565b604082019050919050565b6000602082019050818103600083015261495181614915565b9050919050565b7f4e487b7100000000000000000000000000000000000000000000000000000000600052603260045260246000fd5b7f4552433732313a206f776e657220717565727920666f72206e6f6e657869737460008201527f656e7420746f6b656e0000000000000000000000000000000000000000000000602082015250565b60006149e360298361386c565b91506149ee82614987565b604082019050919050565b60006020820190508181036000830152614a12816149d6565b9050919050565b7f4552433732313a2062616c616e636520717565727920666f7220746865207a6560008201527f726f206164647265737300000000000000000000000000000000000000000000602082015250565b6000614a75602a8361386c565b9150614a8082614a19565b604082019050919050565b60006020820190508181036000830152614aa481614a68565b9050919050565b7f417574656e746963614552433732313a204f6e6c792061646d696e732063616e60008201527f206368616e676520746869730000000000000000000000000000000000000000602082015250565b6000614b07602c8361386c565b9150614b1282614aab565b604082019050919050565b60006020820190508181036000830152614b3681614afa565b9050919050565b7f417574656e746963614552433732313a20496e766573746f722063616e27742060008201527f6265207468652063726561746f72000000000000000000000000000000000000602082015250565b6000614b99602e8361386c565b9150614ba482614b3d565b604082019050919050565b60006020820190508181036000830152614bc881614b8c565b9050919050565b7f417574656e746963614552433732313a20496e76616c6964207369676e61747560008201527f7265000000000000000000000000000000000000000000000000000000000000602082015250565b6000614c2b60228361386c565b9150614c3682614bcf565b604082019050919050565b60006020820190508181036000830152614c5a81614c1e565b9050919050565b7f417574656e746963614552433732313a204d61726b6574706c6163652061646460008201527f72657373206e6f74207365740000000000000000000000000000000000000000602082015250565b6000614cbd602c8361386c565b9150614cc882614c61565b604082019050919050565b60006020820190508181036000830152614cec81614cb0565b9050919050565b7f417574656e746963614552433732313a20546f6b656e20646f65736e2774206560008201527f7869737400000000000000000000000000000000000000000000000000000000602082015250565b6000614d4f60248361386c565b9150614d5a82614cf3565b604082019050919050565b60006020820190508181036000830152614d7e81614d42565b9050919050565b7f4552433732313a206f70657261746f7220717565727920666f72206e6f6e657860008201527f697374656e7420746f6b656e0000000000000000000000000000000000000000602082015250565b6000614de1602c8361386c565b9150614dec82614d85565b604082019050919050565b60006020820190508181036000830152614e1081614dd4565b9050919050565b7f4552433732313a207472616e736665722066726f6d20696e636f72726563742060008201527f6f776e6572000000000000000000000000000000000000000000000000000000602082015250565b6000614e7360258361386c565b9150614e7e82614e17565b604082019050919050565b60006020820190508181036000830152614ea281614e66565b9050919050565b7f4552433732313a207472616e7366657220746f20746865207a65726f2061646460008201527f7265737300000000000000000000000000000000000000000000000000000000602082015250565b6000614f0560248361386c565b9150614f1082614ea9565b604082019050919050565b60006020820190508181036000830152614f3481614ef8565b9050919050565b6000614f468261391c565b9150614f518361391c565b925082821015614f6457614f636144a9565b5b828203905092915050565b6000614f7a8261391c565b9150614f858361391c565b9250827fffffffffffffffffffffffffffffffffffffffffffffffffffffffffffffffff03821115614fba57614fb96144a9565b5b828201905092915050565b600081905092915050565b7f416363657373436f6e74726f6c3a206163636f756e7420000000000000000000600082015250565b6000615006601783614fc5565b915061501182614fd0565b601782019050919050565b600061502782613861565b6150318185614fc5565b935061504181856020860161387d565b80840191505092915050565b7f206973206d697373696e6720726f6c6520000000000000000000000000000000600082015250565b6000615083601183614fc5565b915061508e8261504d565b601182019050919050565b60006150a482614ff9565b91506150b0828561501c565b91506150bb82615076565b91506150c7828461501c565b91508190509392505050565b7f417574656e746963614552433732313a20466565206d757374206265206c657360008201527f73207468616e206f7220657175616c20746f2031303025000000000000000000602082015250565b600061512f60378361386c565b915061513a826150d3565b604082019050919050565b6000602082019050818103600083015261515e81615122565b9050919050565b7f45524337323155524953746f726167653a2055524920736574206f66206e6f6e60008201527f6578697374656e7420746f6b656e000000000000000000000000000000000000602082015250565b60006151c1602e8361386c565b91506151cc82615165565b604082019050919050565b600060208201905081810360008301526151f0816151b4565b9050919050565b600060a08201905061520c60008301886139b1565b61521960208301876139b1565b6152266040830186613a47565b6152336060830185613a47565b6152406080830184613a47565b9695505050505050565b7f19457468657265756d205369676e6564204d6573736167653a0a333200000000600082015250565b6000615280601c83614fc5565b915061528b8261524a565b601c82019050919050565b6000819050919050565b6152b16152ac82613ac4565b615296565b82525050565b60006152c282615273565b91506152ce82846152a0565b60208201915081905092915050565b60006080820190506152f26000830187613b27565b6152ff6020830186613bc7565b61530c6040830185613b27565b6153196060830184613b27565b95945050505050565b7f4552433732313a20617070726f766520746f2063616c6c657200000000000000600082015250565b600061535860198361386c565b915061536382615322565b602082019050919050565b600060208201905081810360008301526153878161534b565b9050919050565b7f4552433732313a207472616e7366657220746f206e6f6e20455243373231526560008201527f63656976657220696d706c656d656e7465720000000000000000000000000000602082015250565b60006153ea60328361386c565b91506153f58261538e565b604082019050919050565b60006020820190508181036000830152615419816153dd565b9050919050565b7f45524337323155524953746f726167653a2055524920717565727920666f722060008201527f6e6f6e6578697374656e7420746f6b656e000000000000000000000000000000602082015250565b600061547c60318361386c565b915061548782615420565b604082019050919050565b600060208201905081810360008301526154ab8161546f565b9050919050565b60006154be828561501c565b91506154ca828461501c565b91508190509392505050565b60006154e18261391c565b915060008214156154f5576154f46144a9565b5b600182039050919050565b7f537472696e67733a20686578206c656e67746820696e73756666696369656e74600082015250565b600061553660208361386c565b915061554182615500565b602082019050919050565b6000602082019050818103600083015261556581615529565b9050919050565b600081519050919050565b600082825260208201905092915050565b60006155938261556c565b61559d8185615577565b93506155ad81856020860161387d565b6155b6816138b0565b840191505092915050565b60006080820190506155d660008301876139b1565b6155e360208301866139b1565b6155f06040830185613a47565b81810360608301526156028184615588565b905095945050505050565b60008151905061561c816137d2565b92915050565b6000602082840312156156385761563761379c565b5b60006156468482850161560d565b91505092915050565b7f4552433732314d657461646174613a2055524920717565727920666f72206e6f60008201527f6e6578697374656e7420746f6b656e0000000000000000000000000000000000602082015250565b60006156ab602f8361386c565b91506156b68261564f565b604082019050919050565b600060208201905081810360008301526156da8161569e565b9050919050565b7f4552433732313a206d696e7420746f20746865207a65726f2061646472657373600082015250565b600061571760208361386c565b9150615722826156e1565b602082019050919050565b600060208201905081810360008301526157468161570a565b9050919050565b7f4552433732313a20746f6b656e20616c7265616479206d696e74656400000000600082015250565b6000615783601c8361386c565b915061578e8261574d565b602082019050919050565b600060208201905081810360008301526157b281615776565b9050919050565b60006157c48261391c565b91507fffffffffffffffffffffffffffffffffffffffffffffffffffffffffffffffff8214156157f7576157f66144a9565b5b600182019050919050565b600061580d8261391c565b91506158188361391c565b925082615828576158276146b0565b5b828206905092915050565b7f4e487b7100000000000000000000000000000000000000000000000000000000600052603160045260246000fdfea2646970667358221220fa509be871be263d187c4b1ee2f7cab3cdab2600938262a8ea955496ef005bed64736f6c634300080c0033",
  "immutableReferences": {},
  "source": "// SPDX-License-Identifier: MIT\npragma solidity 0.8.12;\n\nimport \"@openzeppelin/contracts/token/ERC721/extensions/ERC721URIStorage.sol\";\nimport \"@openzeppelin/contracts/token/ERC721/extensions/ERC721Enumerable.sol\";\nimport \"@openzeppelin/contracts/token/ERC721/extensions/ERC721Burnable.sol\";\nimport \"@openzeppelin/contracts/access/AccessControl.sol\";\nimport \"@openzeppelin/contracts/interfaces/IERC2981.sol\";\n\nimport \"./IERC721Autentica.sol\";\n\ncontract AutenticaERC721 is\n    Context,\n    ERC721URIStorage,\n    ERC721Enumerable,\n    IERC721Autentica,\n    IERC2981,\n    AccessControl\n{\n    /// Number of decimals used for fees.\n    uint8 public constant DECIMALS = 2;\n\n    /// Create a new role identifier for the operator role.\n    bytes32 public constant OPERATOR_ROLE = keccak256(\"OPERATOR_ROLE\");\n\n    /// Additional token details needed for trading.\n    struct TokenDetails {\n        /// Address of the wallet that created the token.\n        address creator;\n        /// Address of the wallet who paid for gas fees.\n        address investor;\n        /// The value ranges between 0 and 100 multiplied by (10 ** DECIMALS).\n        uint256 royaltyFee;\n        /// The value ranges between 0 and 100 multiplied by (10 ** DECIMALS).\n        uint256 investorFee;\n    }\n\n    /**\n     * @dev Emitted when the address of the  Autentica Marketplace smart contract has been updated.\n     */\n    event ChangedMarketplace(\n        address indexed oldAddress,\n        address indexed newAddress\n    );\n\n    // Address of the Autentica Marketplace smart contract.\n    address private _marketplace;\n\n    /**\n     * @dev Mapping from token ID to the token details structure which\n     * contains information like the creator and investor address, royalty fee\n     * and the investor fee.\n     *\n     * NOTE: The Autentica Marketplace smart contract supports royalties, so in order for the\n     * creator to be paid, we need to know who created the token and that information must\n     * stay the same even if the person who owns the token changes.\n     *\n     * NOTE: Autentica lets other people to pay for the gas fees of the token minting so\n     * in that case the minter is not the creator and owner of the token.\n     */\n    mapping(uint256 => TokenDetails) private _tokenDetails;\n\n    /**\n     * Initializes the smart contract.\n     */\n    constructor() ERC721(\"Autentica Market\", \"AUTMKT\") {\n        // Grant the admin role to the owner\n        _setupRole(DEFAULT_ADMIN_ROLE, _msgSender());\n        // Grant the operator role to the owner\n        _setupRole(OPERATOR_ROLE, _msgSender());\n    }\n\n    /**\n     * Returns the address of the Autentica Marketplace smart contract.\n     */\n    function marketplace() external view returns (address) {\n        return _marketplace;\n    }\n\n    /**\n     * @dev Sets the Autentica Marketplace smart contract address.\n     * Requirements:\n     *\n     * - The caller must be admin.\n     */\n    function setMarketplace(address marketplaceAddress)\n        external\n        returns (address)\n    {\n        require(\n            hasRole(DEFAULT_ADMIN_ROLE, _msgSender()),\n            \"AutenticaERC721: Only admins can change this\"\n        );\n\n        // Keep a reference to the old address\n        address oldMarketplace = _marketplace;\n\n        // Change the marketplace address\n        _marketplace = marketplaceAddress;\n\n        // Emit the event\n        emit ChangedMarketplace(oldMarketplace, _marketplace);\n\n        return _marketplace;\n    }\n\n    /**\n     * @dev Number of decimals used for fees.\n     */\n    function decimals() external pure returns (uint8) {\n        return DECIMALS;\n    }\n\n    /**\n     * @dev Returns the Royalty fee of the `tokenId` token.\n     * @param tokenId NFT ID.\n     *\n     * Requirements:\n     *\n     * - Token must exist.\n     */\n    function getRoyaltyFee(uint256 tokenId) external view returns (uint256) {\n        require(_exists(tokenId), \"AutenticaERC721: Token doesn't exist\");\n\n        return _tokenDetails[tokenId].royaltyFee;\n    }\n\n    /**\n     * @dev Returns the Investor fee of the `tokenId` token.\n     * @param tokenId NFT ID.\n     *\n     * Requirements:\n     *\n     * - Token must exist.\n     */\n    function getInvestorFee(uint256 tokenId) external view returns (uint256) {\n        require(_exists(tokenId), \"AutenticaERC721: Token doesn't exist\");\n\n        return _tokenDetails[tokenId].investorFee;\n    }\n\n    /**\n     * @dev Returns the creator of the `tokenId` token.\n     * @param tokenId NFT ID.\n     *\n     * NOTE: The Autentica Marketplace smart contract supports royalties, so in order for the\n     * creator to be paid, we need to know who created the token and that information must\n     * stay the same even if the person who owns the token changes.\n     *\n     * Requirements:\n     *\n     * - Token must exist.\n     */\n    function getCreator(uint256 tokenId) external view returns (address) {\n        require(_exists(tokenId), \"AutenticaERC721: Token doesn't exist\");\n\n        return _tokenDetails[tokenId].creator;\n    }\n\n    /**\n     * @dev Returns the investor of the `tokenId` token.\n     * @param tokenId NFT ID.\n     *\n     * NOTE: Autentica lets other people to pay for the gas fees of the token minting so\n     * in that case the minter is not the creator and owner of the token.\n     *\n     * Requirements:\n     *\n     * - Token must exist.\n     */\n    function getInvestor(uint256 tokenId) external view returns (address) {\n        require(_exists(tokenId), \"AutenticaERC721: Token doesn't exist\");\n\n        return _tokenDetails[tokenId].investor;\n    }\n\n    /**\n     * @dev Returns the token details of the `tokenId` token.\n     * @param tokenId NFT ID.\n     *\n     * Requirements:\n     *\n     * - Token must exist.\n     */\n    function getTokenDetails(uint256 tokenId)\n        external\n        view\n        returns (TokenDetails memory)\n    {\n        require(_exists(tokenId), \"AutenticaERC721: Token doesn't exist\");\n\n        return _tokenDetails[tokenId];\n    }\n\n    /**\n     * @dev Creates a token for `_msgSender()`. The creator of the token and the owner of it will\n     * be assigned to `_msgSender()`.\n     *\n     * @param tokenId Token ID.\n     * @param uri Token URI.\n     * @param royaltyFee Royalty fee.\n     *\n     * See {ERC721-_mint}.\n     *\n     * Requirements:\n     *\n     * - The `royaltyFee` must be less than or equal to 100 * (10 ** DECIMALS), meaning 100%.\n     */\n    function mint(\n        uint256 tokenId,\n        string memory uri,\n        uint256 royaltyFee\n    ) external {\n        // Validate the operation\n        canPerformMint(tokenId, royaltyFee);\n\n        // Creator and Owner of the token\n        address sender = _msgSender();\n\n        // Mint\n        _safeMint(sender, tokenId);\n        _setTokenURI(tokenId, uri);\n\n        // Set the token details\n        _tokenDetails[tokenId] = TokenDetails({\n            creator: sender,\n            investor: address(0x0), // There is no investor in this case\n            royaltyFee: royaltyFee,\n            investorFee: 0 // This fee is zero because there is not investor in this case\n        });\n    }\n\n    /**\n     * Creates a token on behalf of a creator and approves the Autentica Marketplace smart contract.\n     * The creator of the token and the owner of it will be assigned to `creator`\n     * while the investor will be set to `_msgSender()`.\n     *\n     * @param creator Token creator and owner.\n     * @param tokenId Token ID.\n     * @param uri Token URI.\n     * @param royaltyFee Royalty fee.\n     * @param investorFee Investor fee.\n     * @param v ECDSA `v` parameter.\n     * @param r ECDSA `r` parameter.\n     * @param s ECDSA `s` parameter.\n     *\n     * See {ERC721-_mint}.\n     *\n     * Requirements:\n     *\n     * - The `royaltyFee` must be less than or equal to 100 * (10 ** DECIMALS), meaning 100%.\n     * - the `investorFee` must be less than or equal to 100 * (10 ** DECIMALS), meaning 100%.\n     * - The investor can't be the creator.\n     * - The ECDSA signature must be signed by someone with the admin or operator role.\n     */\n    function investorMintingAndApproveMarketplace(\n        address creator,\n        uint256 tokenId,\n        string memory uri,\n        uint256 royaltyFee,\n        uint256 investorFee,\n        uint8 v,\n        bytes32 r,\n        bytes32 s\n    ) external {\n        // Validate the operation\n        canPerformInvestorMinting(\n            creator,\n            tokenId,\n            royaltyFee,\n            investorFee,\n            v,\n            r,\n            s\n        );\n\n        // Mint\n        _safeMint(creator, tokenId);\n        _setTokenURI(tokenId, uri);\n\n        // Set the token details\n        _tokenDetails[tokenId] = TokenDetails({\n            creator: creator,\n            investor: _msgSender(),\n            royaltyFee: royaltyFee,\n            investorFee: investorFee\n        });\n\n        // Approve the Autentica Marketplace smart contract for this specific token only.\n        _approve(_marketplace, tokenId);\n    }\n\n    /**\n     * @notice Validate the mint.\n     *\n     * @param tokenId Token ID.\n     * @param royaltyFee Royalty fee.\n     */\n    function canPerformMint(uint256 tokenId, uint256 royaltyFee)\n        public\n        view\n        returns (bool)\n    {\n        // Make sure that the token doesn't exist\n        require(!_exists(tokenId), \"AutenticaERC721: Token already minted\");\n\n        // Make sure that the royalty fee is valid\n        _validateFee(royaltyFee);\n\n        return true;\n    }\n\n    /**\n     * @notice Validate the investor minting.\n     *\n     * @param creator Token creator and owner.\n     * @param tokenId Token ID.\n     * @param royaltyFee Royalty fee.\n     * @param investorFee Investor fee.\n     * @param v ECDSA `v` parameter.\n     * @param r ECDSA `r` parameter.\n     * @param s ECDSA `s` parameter.\n     */\n    function canPerformInvestorMinting(\n        address creator,\n        uint256 tokenId,\n        uint256 royaltyFee,\n        uint256 investorFee,\n        uint8 v,\n        bytes32 r,\n        bytes32 s\n    ) public view returns (bool) {\n        // Make sure that the token doesn't exist\n        require(!_exists(tokenId), \"AutenticaERC721: Token already minted\");\n\n        // Make sure that the fees are valid\n        _validateFee(royaltyFee);\n        _validateFee(investorFee);\n\n        // Make sure that the investor is not the creator\n        require(\n            _msgSender() != creator,\n            \"AutenticaERC721: Investor can't be the creator\"\n        );\n\n        // Check signature\n        require(\n            _validateInvestorMintingSignature(\n                creator,\n                tokenId,\n                royaltyFee,\n                investorFee,\n                v,\n                r,\n                s\n            ),\n            \"AutenticaERC721: Invalid signature\"\n        );\n\n        // Make sure that the marketplace address is set\n        require(_marketplace != address(0x0), \"AutenticaERC721: Marketplace address not set\");\n\n        return true;\n    }\n\n    /**\n     * @dev Returns whether `tokenId` exists.\n     */\n    function exists(uint256 tokenId) external view returns (bool) {\n        return super._exists(tokenId);\n    }\n\n    /**\n     * Returns the Uniform Resource Identifier (URI) for a token.\n     * @param tokenId Token ID for which to return the URI.\n     *\n     * Requirements:\n     *\n     * - Token must exist.\n     */\n    function tokenURI(uint256 tokenId)\n        public\n        view\n        virtual\n        override(ERC721, ERC721URIStorage)\n        returns (string memory)\n    {\n        return super.tokenURI(tokenId);\n    }\n\n    /**\n     * @dev Called with the sale price to determine how much royalty is owed and to whom.\n     * @param tokenId - the NFT asset queried for royalty information\n     * @param salePrice - the sale price of the NFT asset specified by `tokenId`\n     * @return receiver - address of who should be sent the royalty payment\n     * @return royaltyAmount - the royalty payment amount for `salePrice`\n     */\n    function royaltyInfo(uint256 tokenId, uint256 salePrice)\n        external\n        view\n        returns (address receiver, uint256 royaltyAmount)\n    {\n        if (\n            _exists(tokenId) == false ||\n            _tokenDetails[tokenId].creator == address(0x0) ||\n            _tokenDetails[tokenId].royaltyFee == 0\n        ) {\n            // Zero out everything\n            return (address(0x0), 0);\n        } else {\n            // Return the address of the creator and the royalty proceeds\n            return (\n                _tokenDetails[tokenId].creator,\n                (salePrice * _tokenDetails[tokenId].royaltyFee) /\n                    (100 * 10**DECIMALS)\n            );\n        }\n    }\n\n    /**\n     * @dev See {IERC165-supportsInterface}.\n     */\n    function supportsInterface(bytes4 interfaceId)\n        public\n        view\n        virtual\n        override(ERC721, ERC721Enumerable, AccessControl, IERC165)\n        returns (bool)\n    {\n        return\n            interfaceId == type(IERC721Autentica).interfaceId ||\n            interfaceId == type(IERC2981).interfaceId ||\n            super.supportsInterface(interfaceId);\n    }\n\n    /**\n     * @dev Destroys `tokenId`.\n     * The creator, investor and royalty fee information is cleared when the token is burned.\n     *\n     * @param tokenId Token ID to burn.\n     *\n     * See {ERC721-_burn}.\n     */\n    function _burn(uint256 tokenId)\n        internal\n        virtual\n        override(ERC721, ERC721URIStorage)\n    {\n        super._burn(tokenId);\n\n        // Cleanup the rest of the information\n        delete _tokenDetails[tokenId];\n    }\n\n    /**\n     * Hook that is called before any token transfer.\n     */\n    function _beforeTokenTransfer(\n        address from,\n        address to,\n        uint256 tokenId\n    ) internal virtual override(ERC721, ERC721Enumerable) {\n        super._beforeTokenTransfer(from, to, tokenId);\n    }\n\n    /**\n     * Returns `true` if the signer has the admin or the operator role.\n     *\n     * @param creator - Artist.\n     * @param tokenId - Token ID.\n     * @param royaltyFee - Creator fee percentage.\n     * @param investorFee - Investor fee percentage.\n     * @param v ECDSA `v` parameter.\n     * @param r ECDSA `r` parameter.\n     * @param s ECDSA `s` parameter.\n     */\n    function _validateInvestorMintingSignature(\n        address creator,\n        uint256 tokenId,\n        uint256 royaltyFee,\n        uint256 investorFee,\n        uint8 v,\n        bytes32 r,\n        bytes32 s\n    ) private view returns (bool) {\n        bytes32 hash = keccak256(\n            abi.encode(address(this), creator, tokenId, royaltyFee, investorFee)\n        );\n\n        address signer = ecrecover(\n            keccak256(\n                abi.encodePacked(\"\\x19Ethereum Signed Message:\\n32\", hash)\n            ),\n            v,\n            r,\n            s\n        );\n\n        return\n            hasRole(DEFAULT_ADMIN_ROLE, signer) ||\n            hasRole(OPERATOR_ROLE, signer);\n    }\n\n    /**\n     * @dev Validates the fee value if it's within the allowed range.\n     *\n     * NOTE: The `value` must be less than or equal to 100 * (10 ** DECIMALS), meaning 100%.\n     */\n    function _validateFee(uint256 value) private pure {\n        require(\n            value <= 100 * (10**DECIMALS),\n            \"AutenticaERC721: Fee must be less than or equal to 100%\"\n        );\n    }\n}\n",
  "sourcePath": "/Volumes/Storage/Workspace/Projects/Autentica/smart-contracts/contracts/AutenticaERC721.sol",
  "compiler": {
    "name": "solc",
    "version": "0.8.12+commit.f00d7308.Emscripten.clang"
  },
  "schemaVersion": "3.4.5",
  "updatedAt": "2022-02-21T13:10:28.952Z",
  "devdoc": {
    "events": {
      "ChangedMarketplace(address,address)": {
        "details": "Emitted when the address of the  Autentica Marketplace smart contract has been updated."
      }
    },
    "kind": "dev",
    "methods": {
      "approve(address,uint256)": {
        "details": "See {IERC721-approve}."
      },
      "balanceOf(address)": {
        "details": "See {IERC721-balanceOf}."
      },
      "canPerformInvestorMinting(address,uint256,uint256,uint256,uint8,bytes32,bytes32)": {
        "params": {
          "creator": "Token creator and owner.",
          "investorFee": "Investor fee.",
          "r": "ECDSA `r` parameter.",
          "royaltyFee": "Royalty fee.",
          "s": "ECDSA `s` parameter.",
          "tokenId": "Token ID.",
          "v": "ECDSA `v` parameter."
        }
      },
      "canPerformMint(uint256,uint256)": {
        "params": {
          "royaltyFee": "Royalty fee.",
          "tokenId": "Token ID."
        }
      },
      "decimals()": {
        "details": "Number of decimals used for fees."
      },
      "exists(uint256)": {
        "details": "Returns whether `tokenId` exists."
      },
      "getApproved(uint256)": {
        "details": "See {IERC721-getApproved}."
      },
      "getCreator(uint256)": {
        "details": "Returns the creator of the `tokenId` token.",
        "params": {
          "tokenId": "NFT ID. NOTE: The Autentica Marketplace smart contract supports royalties, so in order for the creator to be paid, we need to know who created the token and that information must stay the same even if the person who owns the token changes. Requirements: - Token must exist."
        }
      },
      "getInvestor(uint256)": {
        "details": "Returns the investor of the `tokenId` token.",
        "params": {
          "tokenId": "NFT ID. NOTE: Autentica lets other people to pay for the gas fees of the token minting so in that case the minter is not the creator and owner of the token. Requirements: - Token must exist."
        }
      },
      "getInvestorFee(uint256)": {
        "details": "Returns the Investor fee of the `tokenId` token.",
        "params": {
          "tokenId": "NFT ID. Requirements: - Token must exist."
        }
      },
      "getRoleAdmin(bytes32)": {
        "details": "Returns the admin role that controls `role`. See {grantRole} and {revokeRole}. To change a role's admin, use {_setRoleAdmin}."
      },
      "getRoyaltyFee(uint256)": {
        "details": "Returns the Royalty fee of the `tokenId` token.",
        "params": {
          "tokenId": "NFT ID. Requirements: - Token must exist."
        }
      },
      "getTokenDetails(uint256)": {
        "details": "Returns the token details of the `tokenId` token.",
        "params": {
          "tokenId": "NFT ID. Requirements: - Token must exist."
        }
      },
      "grantRole(bytes32,address)": {
        "details": "Grants `role` to `account`. If `account` had not been already granted `role`, emits a {RoleGranted} event. Requirements: - the caller must have ``role``'s admin role."
      },
      "hasRole(bytes32,address)": {
        "details": "Returns `true` if `account` has been granted `role`."
      },
      "investorMintingAndApproveMarketplace(address,uint256,string,uint256,uint256,uint8,bytes32,bytes32)": {
        "params": {
          "creator": "Token creator and owner.",
          "investorFee": "Investor fee.",
          "r": "ECDSA `r` parameter.",
          "royaltyFee": "Royalty fee.",
          "s": "ECDSA `s` parameter. See {ERC721-_mint}. Requirements: - The `royaltyFee` must be less than or equal to 100 * (10 ** DECIMALS), meaning 100%. - the `investorFee` must be less than or equal to 100 * (10 ** DECIMALS), meaning 100%. - The investor can't be the creator. - The ECDSA signature must be signed by someone with the admin or operator role.",
          "tokenId": "Token ID.",
          "uri": "Token URI.",
          "v": "ECDSA `v` parameter."
        }
      },
      "isApprovedForAll(address,address)": {
        "details": "See {IERC721-isApprovedForAll}."
      },
      "mint(uint256,string,uint256)": {
        "details": "Creates a token for `_msgSender()`. The creator of the token and the owner of it will be assigned to `_msgSender()`.",
        "params": {
          "royaltyFee": "Royalty fee. See {ERC721-_mint}. Requirements: - The `royaltyFee` must be less than or equal to 100 * (10 ** DECIMALS), meaning 100%.",
          "tokenId": "Token ID.",
          "uri": "Token URI."
        }
      },
      "name()": {
        "details": "See {IERC721Metadata-name}."
      },
      "ownerOf(uint256)": {
        "details": "See {IERC721-ownerOf}."
      },
      "renounceRole(bytes32,address)": {
        "details": "Revokes `role` from the calling account. Roles are often managed via {grantRole} and {revokeRole}: this function's purpose is to provide a mechanism for accounts to lose their privileges if they are compromised (such as when a trusted device is misplaced). If the calling account had been revoked `role`, emits a {RoleRevoked} event. Requirements: - the caller must be `account`."
      },
      "revokeRole(bytes32,address)": {
        "details": "Revokes `role` from `account`. If `account` had been granted `role`, emits a {RoleRevoked} event. Requirements: - the caller must have ``role``'s admin role."
      },
      "royaltyInfo(uint256,uint256)": {
        "details": "Called with the sale price to determine how much royalty is owed and to whom.",
        "params": {
          "salePrice": "- the sale price of the NFT asset specified by `tokenId`",
          "tokenId": "- the NFT asset queried for royalty information"
        },
        "returns": {
          "receiver": "- address of who should be sent the royalty payment",
          "royaltyAmount": "- the royalty payment amount for `salePrice`"
        }
      },
      "safeTransferFrom(address,address,uint256)": {
        "details": "See {IERC721-safeTransferFrom}."
      },
      "safeTransferFrom(address,address,uint256,bytes)": {
        "details": "See {IERC721-safeTransferFrom}."
      },
      "setApprovalForAll(address,bool)": {
        "details": "See {IERC721-setApprovalForAll}."
      },
      "setMarketplace(address)": {
        "details": "Sets the Autentica Marketplace smart contract address. Requirements: - The caller must be admin."
      },
      "supportsInterface(bytes4)": {
        "details": "See {IERC165-supportsInterface}."
      },
      "symbol()": {
        "details": "See {IERC721Metadata-symbol}."
      },
      "tokenByIndex(uint256)": {
        "details": "See {IERC721Enumerable-tokenByIndex}."
      },
      "tokenOfOwnerByIndex(address,uint256)": {
        "details": "See {IERC721Enumerable-tokenOfOwnerByIndex}."
      },
      "tokenURI(uint256)": {
        "params": {
          "tokenId": "Token ID for which to return the URI. Requirements: - Token must exist."
        }
      },
      "totalSupply()": {
        "details": "See {IERC721Enumerable-totalSupply}."
      },
      "transferFrom(address,address,uint256)": {
        "details": "See {IERC721-transferFrom}."
      }
    },
    "stateVariables": {
      "_tokenDetails": {
        "details": "Mapping from token ID to the token details structure which contains information like the creator and investor address, royalty fee and the investor fee. NOTE: The Autentica Marketplace smart contract supports royalties, so in order for the creator to be paid, we need to know who created the token and that information must stay the same even if the person who owns the token changes. NOTE: Autentica lets other people to pay for the gas fees of the token minting so in that case the minter is not the creator and owner of the token."
      }
    },
    "version": 1
  },
  "userdoc": {
    "kind": "user",
    "methods": {
      "DECIMALS()": {
        "notice": "Number of decimals used for fees."
      },
      "OPERATOR_ROLE()": {
        "notice": "Create a new role identifier for the operator role."
      },
      "canPerformInvestorMinting(address,uint256,uint256,uint256,uint8,bytes32,bytes32)": {
        "notice": "Validate the investor minting."
      },
      "canPerformMint(uint256,uint256)": {
        "notice": "Validate the mint."
      },
      "constructor": {
        "notice": "Initializes the smart contract."
      },
      "investorMintingAndApproveMarketplace(address,uint256,string,uint256,uint256,uint8,bytes32,bytes32)": {
        "notice": "Creates a token on behalf of a creator and approves the Autentica Marketplace smart contract. The creator of the token and the owner of it will be assigned to `creator` while the investor will be set to `_msgSender()`."
      },
      "marketplace()": {
        "notice": "Returns the address of the Autentica Marketplace smart contract."
      },
      "tokenURI(uint256)": {
        "notice": "Returns the Uniform Resource Identifier (URI) for a token."
      }
    },
    "version": 1
  }
}