{
  "contractName": "ERC721Mock",
  "abi": [
    {
      "inputs": [
        {
          "internalType": "string",
          "name": "_name",
          "type": "string"
        },
        {
          "internalType": "string",
          "name": "_symbol",
          "type": "string"
        }
      ],
      "stateMutability": "nonpayable",
      "type": "constructor"
    },
    {
      "anonymous": false,
      "inputs": [
        {
          "indexed": true,
          "internalType": "address",
          "name": "owner",
          "type": "address"
        },
        {
          "indexed": true,
          "internalType": "address",
          "name": "approved",
          "type": "address"
        },
        {
          "indexed": true,
          "internalType": "uint256",
          "name": "tokenId",
          "type": "uint256"
        }
      ],
      "name": "Approval",
      "type": "event"
    },
    {
      "anonymous": false,
      "inputs": [
        {
          "indexed": true,
          "internalType": "address",
          "name": "owner",
          "type": "address"
        },
        {
          "indexed": true,
          "internalType": "address",
          "name": "operator",
          "type": "address"
        },
        {
          "indexed": false,
          "internalType": "bool",
          "name": "approved",
          "type": "bool"
        }
      ],
      "name": "ApprovalForAll",
      "type": "event"
    },
    {
      "anonymous": false,
      "inputs": [
        {
          "indexed": true,
          "internalType": "address",
          "name": "from",
          "type": "address"
        },
        {
          "indexed": true,
          "internalType": "address",
          "name": "to",
          "type": "address"
        },
        {
          "indexed": true,
          "internalType": "uint256",
          "name": "tokenId",
          "type": "uint256"
        }
      ],
      "name": "Transfer",
      "type": "event"
    },
    {
      "inputs": [
        {
          "internalType": "address",
          "name": "to",
          "type": "address"
        },
        {
          "internalType": "uint256",
          "name": "tokenId",
          "type": "uint256"
        }
      ],
      "name": "approve",
      "outputs": [],
      "stateMutability": "nonpayable",
      "type": "function"
    },
    {
      "inputs": [
        {
          "internalType": "address",
          "name": "owner",
          "type": "address"
        }
      ],
      "name": "balanceOf",
      "outputs": [
        {
          "internalType": "uint256",
          "name": "",
          "type": "uint256"
        }
      ],
      "stateMutability": "view",
      "type": "function"
    },
    {
      "inputs": [],
      "name": "currentSupply",
      "outputs": [
        {
          "internalType": "uint256",
          "name": "",
          "type": "uint256"
        }
      ],
      "stateMutability": "view",
      "type": "function"
    },
    {
      "inputs": [
        {
          "internalType": "uint256",
          "name": "tokenId",
          "type": "uint256"
        }
      ],
      "name": "getApproved",
      "outputs": [
        {
          "internalType": "address",
          "name": "",
          "type": "address"
        }
      ],
      "stateMutability": "view",
      "type": "function"
    },
    {
      "inputs": [
        {
          "internalType": "address",
          "name": "owner",
          "type": "address"
        },
        {
          "internalType": "address",
          "name": "operator",
          "type": "address"
        }
      ],
      "name": "isApprovedForAll",
      "outputs": [
        {
          "internalType": "bool",
          "name": "",
          "type": "bool"
        }
      ],
      "stateMutability": "view",
      "type": "function"
    },
    {
      "inputs": [],
      "name": "name",
      "outputs": [
        {
          "internalType": "string",
          "name": "",
          "type": "string"
        }
      ],
      "stateMutability": "view",
      "type": "function"
    },
    {
      "inputs": [
        {
          "internalType": "uint256",
          "name": "tokenId",
          "type": "uint256"
        }
      ],
      "name": "ownerOf",
      "outputs": [
        {
          "internalType": "address",
          "name": "",
          "type": "address"
        }
      ],
      "stateMutability": "view",
      "type": "function"
    },
    {
      "inputs": [
        {
          "internalType": "address",
          "name": "from",
          "type": "address"
        },
        {
          "internalType": "address",
          "name": "to",
          "type": "address"
        },
        {
          "internalType": "uint256",
          "name": "tokenId",
          "type": "uint256"
        }
      ],
      "name": "safeTransferFrom",
      "outputs": [],
      "stateMutability": "nonpayable",
      "type": "function"
    },
    {
      "inputs": [
        {
          "internalType": "address",
          "name": "from",
          "type": "address"
        },
        {
          "internalType": "address",
          "name": "to",
          "type": "address"
        },
        {
          "internalType": "uint256",
          "name": "tokenId",
          "type": "uint256"
        },
        {
          "internalType": "bytes",
          "name": "_data",
          "type": "bytes"
        }
      ],
      "name": "safeTransferFrom",
      "outputs": [],
      "stateMutability": "nonpayable",
      "type": "function"
    },
    {
      "inputs": [
        {
          "internalType": "address",
          "name": "operator",
          "type": "address"
        },
        {
          "internalType": "bool",
          "name": "approved",
          "type": "bool"
        }
      ],
      "name": "setApprovalForAll",
      "outputs": [],
      "stateMutability": "nonpayable",
      "type": "function"
    },
    {
      "inputs": [
        {
          "internalType": "bytes4",
          "name": "interfaceId",
          "type": "bytes4"
        }
      ],
      "name": "supportsInterface",
      "outputs": [
        {
          "internalType": "bool",
          "name": "",
          "type": "bool"
        }
      ],
      "stateMutability": "view",
      "type": "function"
    },
    {
      "inputs": [],
      "name": "symbol",
      "outputs": [
        {
          "internalType": "string",
          "name": "",
          "type": "string"
        }
      ],
      "stateMutability": "view",
      "type": "function"
    },
    {
      "inputs": [
        {
          "internalType": "uint256",
          "name": "tokenId",
          "type": "uint256"
        }
      ],
      "name": "tokenURI",
      "outputs": [
        {
          "internalType": "string",
          "name": "",
          "type": "string"
        }
      ],
      "stateMutability": "view",
      "type": "function"
    },
    {
      "inputs": [
        {
          "internalType": "address",
          "name": "from",
          "type": "address"
        },
        {
          "internalType": "address",
          "name": "to",
          "type": "address"
        },
        {
          "internalType": "uint256",
          "name": "tokenId",
          "type": "uint256"
        }
      ],
      "name": "transferFrom",
      "outputs": [],
      "stateMutability": "nonpayable",
      "type": "function"
    },
    {
      "inputs": [
        {
          "internalType": "address",
          "name": "_to",
          "type": "address"
        }
      ],
      "name": "mint",
      "outputs": [],
      "stateMutability": "nonpayable",
      "type": "function"
    }
  ],
  "bytecode": "0x608060405260006006553480156200001657600080fd5b5060405162002aed38038062002aed83398181016040528101906200003c9190620002c7565b81818160009080519060200190620000569291906200007a565b5080600190805190602001906200006f9291906200007a565b5050505050620003b1565b82805462000088906200037b565b90600052602060002090601f016020900481019282620000ac5760008555620000f8565b82601f10620000c757805160ff1916838001178555620000f8565b82800160010185558215620000f8579182015b82811115620000f7578251825591602001919060010190620000da565b5b5090506200010791906200010b565b5090565b5b80821115620001265760008160009055506001016200010c565b5090565b6000604051905090565b600080fd5b600080fd5b600080fd5b600080fd5b6000601f19601f8301169050919050565b7f4e487b7100000000000000000000000000000000000000000000000000000000600052604160045260246000fd5b620001938262000148565b810181811067ffffffffffffffff82111715620001b557620001b462000159565b5b80604052505050565b6000620001ca6200012a565b9050620001d8828262000188565b919050565b600067ffffffffffffffff821115620001fb57620001fa62000159565b5b620002068262000148565b9050602081019050919050565b60005b838110156200023357808201518184015260208101905062000216565b8381111562000243576000848401525b50505050565b6000620002606200025a84620001dd565b620001be565b9050828152602081018484840111156200027f576200027e62000143565b5b6200028c84828562000213565b509392505050565b600082601f830112620002ac57620002ab6200013e565b5b8151620002be84826020860162000249565b91505092915050565b60008060408385031215620002e157620002e062000134565b5b600083015167ffffffffffffffff81111562000302576200030162000139565b5b620003108582860162000294565b925050602083015167ffffffffffffffff81111562000334576200033362000139565b5b620003428582860162000294565b9150509250929050565b7f4e487b7100000000000000000000000000000000000000000000000000000000600052602260045260246000fd5b600060028204905060018216806200039457607f821691505b60208210811415620003ab57620003aa6200034c565b5b50919050565b61272c80620003c16000396000f3fe608060405234801561001057600080fd5b50600436106100f55760003560e01c80636a62784211610097578063a22cb46511610066578063a22cb46514610284578063b88d4fde146102a0578063c87b56dd146102bc578063e985e9c5146102ec576100f5565b80636a627842146101fc57806370a0823114610218578063771282f61461024857806395d89b4114610266576100f5565b8063095ea7b3116100d3578063095ea7b31461017857806323b872dd1461019457806342842e0e146101b05780636352211e146101cc576100f5565b806301ffc9a7146100fa57806306fdde031461012a578063081812fc14610148575b600080fd5b610114600480360381019061010f91906116af565b61031c565b60405161012191906116f7565b60405180910390f35b6101326103fe565b60405161013f91906117ab565b60405180910390f35b610162600480360381019061015d9190611803565b610490565b60405161016f9190611871565b60405180910390f35b610192600480360381019061018d91906118b8565b610515565b005b6101ae60048036038101906101a991906118f8565b61062d565b005b6101ca60048036038101906101c591906118f8565b61068d565b005b6101e660048036038101906101e19190611803565b6106ad565b6040516101f39190611871565b60405180910390f35b6102166004803603810190610211919061194b565b61075f565b005b610232600480360381019061022d919061194b565b610794565b60405161023f9190611987565b60405180910390f35b61025061084c565b60405161025d9190611987565b60405180910390f35b61026e610852565b60405161027b91906117ab565b60405180910390f35b61029e600480360381019061029991906119ce565b6108e4565b005b6102ba60048036038101906102b59190611b43565b6108fa565b005b6102d660048036038101906102d19190611803565b61095c565b6040516102e391906117ab565b60405180910390f35b61030660048036038101906103019190611bc6565b610a03565b60405161031391906116f7565b60405180910390f35b60007f80ac58cd000000000000000000000000000000000000000000000000000000007bffffffffffffffffffffffffffffffffffffffffffffffffffffffff1916827bffffffffffffffffffffffffffffffffffffffffffffffffffffffff191614806103e757507f5b5e139f000000000000000000000000000000000000000000000000000000007bffffffffffffffffffffffffffffffffffffffffffffffffffffffff1916827bffffffffffffffffffffffffffffffffffffffffffffffffffffffff1916145b806103f757506103f682610a97565b5b9050919050565b60606000805461040d90611c35565b80601f016020809104026020016040519081016040528092919081815260200182805461043990611c35565b80156104865780601f1061045b57610100808354040283529160200191610486565b820191906000526020600020905b81548152906001019060200180831161046957829003601f168201915b5050505050905090565b600061049b82610b01565b6104da576040517f08c379a00000000000000000000000000000000000000000000000000000000081526004016104d190611cd9565b60405180910390fd5b6004600083815260200190815260200160002060009054906101000a900473ffffffffffffffffffffffffffffffffffffffff169050919050565b6000610520826106ad565b90508073ffffffffffffffffffffffffffffffffffffffff168373ffffffffffffffffffffffffffffffffffffffff161415610591576040517f08c379a000000000000000000000000000000000000000000000000000000000815260040161058890611d6b565b60405180910390fd5b8073ffffffffffffffffffffffffffffffffffffffff166105b0610b6d565b73ffffffffffffffffffffffffffffffffffffffff1614806105df57506105de816105d9610b6d565b610a03565b5b61061e576040517f08c379a000000000000000000000000000000000000000000000000000000000815260040161061590611dfd565b60405180910390fd5b6106288383610b75565b505050565b61063e610638610b6d565b82610c2e565b61067d576040517f08c379a000000000000000000000000000000000000000000000000000000000815260040161067490611e8f565b60405180910390fd5b610688838383610d0c565b505050565b6106a8838383604051806020016040528060008152506108fa565b505050565b6000806002600084815260200190815260200160002060009054906101000a900473ffffffffffffffffffffffffffffffffffffffff169050600073ffffffffffffffffffffffffffffffffffffffff168173ffffffffffffffffffffffffffffffffffffffff161415610756576040517f08c379a000000000000000000000000000000000000000000000000000000000815260040161074d90611f21565b60405180910390fd5b80915050919050565b6107778160016006546107729190611f70565b610f73565b60016006600082825461078a9190611f70565b9250508190555050565b60008073ffffffffffffffffffffffffffffffffffffffff168273ffffffffffffffffffffffffffffffffffffffff161415610805576040517f08c379a00000000000000000000000000000000000000000000000000000000081526004016107fc90612038565b60405180910390fd5b600360008373ffffffffffffffffffffffffffffffffffffffff1673ffffffffffffffffffffffffffffffffffffffff168152602001908152602001600020549050919050565b60065481565b60606001805461086190611c35565b80601f016020809104026020016040519081016040528092919081815260200182805461088d90611c35565b80156108da5780601f106108af576101008083540402835291602001916108da565b820191906000526020600020905b8154815290600101906020018083116108bd57829003601f168201915b5050505050905090565b6108f66108ef610b6d565b838361114d565b5050565b61090b610905610b6d565b83610c2e565b61094a576040517f08c379a000000000000000000000000000000000000000000000000000000000815260040161094190611e8f565b60405180910390fd5b610956848484846112ba565b50505050565b606061096782610b01565b6109a6576040517f08c379a000000000000000000000000000000000000000000000000000000000815260040161099d906120ca565b60405180910390fd5b60006109b0611316565b905060008151116109d057604051806020016040528060008152506109fb565b806109da8461132d565b6040516020016109eb929190612126565b6040516020818303038152906040525b915050919050565b6000600560008473ffffffffffffffffffffffffffffffffffffffff1673ffffffffffffffffffffffffffffffffffffffff16815260200190815260200160002060008373ffffffffffffffffffffffffffffffffffffffff1673ffffffffffffffffffffffffffffffffffffffff16815260200190815260200160002060009054906101000a900460ff16905092915050565b60007f01ffc9a7000000000000000000000000000000000000000000000000000000007bffffffffffffffffffffffffffffffffffffffffffffffffffffffff1916827bffffffffffffffffffffffffffffffffffffffffffffffffffffffff1916149050919050565b60008073ffffffffffffffffffffffffffffffffffffffff166002600084815260200190815260200160002060009054906101000a900473ffffffffffffffffffffffffffffffffffffffff1673ffffffffffffffffffffffffffffffffffffffff1614159050919050565b600033905090565b816004600083815260200190815260200160002060006101000a81548173ffffffffffffffffffffffffffffffffffffffff021916908373ffffffffffffffffffffffffffffffffffffffff160217905550808273ffffffffffffffffffffffffffffffffffffffff16610be8836106ad565b73ffffffffffffffffffffffffffffffffffffffff167f8c5be1e5ebec7d5bd14f71427d1e84f3dd0314c0f7b2291e5b200ac8c7c3b92560405160405180910390a45050565b6000610c3982610b01565b610c78576040517f08c379a0000000000000000000000000000000000000000000000000000000008152600401610c6f906121bc565b60405180910390fd5b6000610c83836106ad565b90508073ffffffffffffffffffffffffffffffffffffffff168473ffffffffffffffffffffffffffffffffffffffff161480610cf257508373ffffffffffffffffffffffffffffffffffffffff16610cda84610490565b73ffffffffffffffffffffffffffffffffffffffff16145b80610d035750610d028185610a03565b5b91505092915050565b8273ffffffffffffffffffffffffffffffffffffffff16610d2c826106ad565b73ffffffffffffffffffffffffffffffffffffffff1614610d82576040517f08c379a0000000000000000000000000000000000000000000000000000000008152600401610d799061224e565b60405180910390fd5b600073ffffffffffffffffffffffffffffffffffffffff168273ffffffffffffffffffffffffffffffffffffffff161415610df2576040517f08c379a0000000000000000000000000000000000000000000000000000000008152600401610de9906122e0565b60405180910390fd5b610dfd83838361148e565b610e08600082610b75565b6001600360008573ffffffffffffffffffffffffffffffffffffffff1673ffffffffffffffffffffffffffffffffffffffff1681526020019081526020016000206000828254610e589190612300565b925050819055506001600360008473ffffffffffffffffffffffffffffffffffffffff1673ffffffffffffffffffffffffffffffffffffffff1681526020019081526020016000206000828254610eaf9190611f70565b92505081905550816002600083815260200190815260200160002060006101000a81548173ffffffffffffffffffffffffffffffffffffffff021916908373ffffffffffffffffffffffffffffffffffffffff160217905550808273ffffffffffffffffffffffffffffffffffffffff168473ffffffffffffffffffffffffffffffffffffffff167fddf252ad1be2c89b69c2b068fc378daa952ba7f163c4a11628f55a4df523b3ef60405160405180910390a4610f6e838383611493565b505050565b600073ffffffffffffffffffffffffffffffffffffffff168273ffffffffffffffffffffffffffffffffffffffff161415610fe3576040517f08c379a0000000000000000000000000000000000000000000000000000000008152600401610fda90612380565b60405180910390fd5b610fec81610b01565b1561102c576040517f08c379a0000000000000000000000000000000000000000000000000000000008152600401611023906123ec565b60405180910390fd5b6110386000838361148e565b6001600360008473ffffffffffffffffffffffffffffffffffffffff1673ffffffffffffffffffffffffffffffffffffffff16815260200190815260200160002060008282546110889190611f70565b92505081905550816002600083815260200190815260200160002060006101000a81548173ffffffffffffffffffffffffffffffffffffffff021916908373ffffffffffffffffffffffffffffffffffffffff160217905550808273ffffffffffffffffffffffffffffffffffffffff16600073ffffffffffffffffffffffffffffffffffffffff167fddf252ad1be2c89b69c2b068fc378daa952ba7f163c4a11628f55a4df523b3ef60405160405180910390a461114960008383611493565b5050565b8173ffffffffffffffffffffffffffffffffffffffff168373ffffffffffffffffffffffffffffffffffffffff1614156111bc576040517f08c379a00000000000000000000000000000000000000000000000000000000081526004016111b390612458565b60405180910390fd5b80600560008573ffffffffffffffffffffffffffffffffffffffff1673ffffffffffffffffffffffffffffffffffffffff16815260200190815260200160002060008473ffffffffffffffffffffffffffffffffffffffff1673ffffffffffffffffffffffffffffffffffffffff16815260200190815260200160002060006101000a81548160ff0219169083151502179055508173ffffffffffffffffffffffffffffffffffffffff168373ffffffffffffffffffffffffffffffffffffffff167f17307eab39ab6107e8899845ad3d59bd9653f200f220920489ca2b5937696c31836040516112ad91906116f7565b60405180910390a3505050565b6112c5848484610d0c565b6112d184848484611498565b611310576040517f08c379a0000000000000000000000000000000000000000000000000000000008152600401611307906124ea565b60405180910390fd5b50505050565b606060405180602001604052806000815250905090565b60606000821415611375576040518060400160405280600181526020017f30000000000000000000000000000000000000000000000000000000000000008152509050611489565b600082905060005b600082146113a75780806113909061250a565b915050600a826113a09190612582565b915061137d565b60008167ffffffffffffffff8111156113c3576113c2611a18565b5b6040519080825280601f01601f1916602001820160405280156113f55781602001600182028036833780820191505090505b5090505b600085146114825760018261140e9190612300565b9150600a8561141d91906125b3565b60306114299190611f70565b60f81b81838151811061143f5761143e6125e4565b5b60200101907effffffffffffffffffffffffffffffffffffffffffffffffffffffffffffff1916908160001a905350600a8561147b9190612582565b94506113f9565b8093505050505b919050565b505050565b505050565b60006114b98473ffffffffffffffffffffffffffffffffffffffff16611620565b15611613578373ffffffffffffffffffffffffffffffffffffffff1663150b7a026114e2610b6d565b8786866040518563ffffffff1660e01b81526004016115049493929190612668565b6020604051808303816000875af192505050801561154057506040513d601f19601f8201168201806040525081019061153d91906126c9565b60015b6115c3573d8060008114611570576040519150601f19603f3d011682016040523d82523d6000602084013e611575565b606091505b506000815114156115bb576040517f08c379a00000000000000000000000000000000000000000000000000000000081526004016115b2906124ea565b60405180910390fd5b805181602001fd5b63150b7a0260e01b7bffffffffffffffffffffffffffffffffffffffffffffffffffffffff1916817bffffffffffffffffffffffffffffffffffffffffffffffffffffffff191614915050611618565b600190505b949350505050565b6000808273ffffffffffffffffffffffffffffffffffffffff163b119050919050565b6000604051905090565b600080fd5b600080fd5b60007fffffffff0000000000000000000000000000000000000000000000000000000082169050919050565b61168c81611657565b811461169757600080fd5b50565b6000813590506116a981611683565b92915050565b6000602082840312156116c5576116c461164d565b5b60006116d38482850161169a565b91505092915050565b60008115159050919050565b6116f1816116dc565b82525050565b600060208201905061170c60008301846116e8565b92915050565b600081519050919050565b600082825260208201905092915050565b60005b8381101561174c578082015181840152602081019050611731565b8381111561175b576000848401525b50505050565b6000601f19601f8301169050919050565b600061177d82611712565b611787818561171d565b935061179781856020860161172e565b6117a081611761565b840191505092915050565b600060208201905081810360008301526117c58184611772565b905092915050565b6000819050919050565b6117e0816117cd565b81146117eb57600080fd5b50565b6000813590506117fd816117d7565b92915050565b6000602082840312156118195761181861164d565b5b6000611827848285016117ee565b91505092915050565b600073ffffffffffffffffffffffffffffffffffffffff82169050919050565b600061185b82611830565b9050919050565b61186b81611850565b82525050565b60006020820190506118866000830184611862565b92915050565b61189581611850565b81146118a057600080fd5b50565b6000813590506118b28161188c565b92915050565b600080604083850312156118cf576118ce61164d565b5b60006118dd858286016118a3565b92505060206118ee858286016117ee565b9150509250929050565b6000806000606084860312156119115761191061164d565b5b600061191f868287016118a3565b9350506020611930868287016118a3565b9250506040611941868287016117ee565b9150509250925092565b6000602082840312156119615761196061164d565b5b600061196f848285016118a3565b91505092915050565b611981816117cd565b82525050565b600060208201905061199c6000830184611978565b92915050565b6119ab816116dc565b81146119b657600080fd5b50565b6000813590506119c8816119a2565b92915050565b600080604083850312156119e5576119e461164d565b5b60006119f3858286016118a3565b9250506020611a04858286016119b9565b9150509250929050565b600080fd5b600080fd5b7f4e487b7100000000000000000000000000000000000000000000000000000000600052604160045260246000fd5b611a5082611761565b810181811067ffffffffffffffff82111715611a6f57611a6e611a18565b5b80604052505050565b6000611a82611643565b9050611a8e8282611a47565b919050565b600067ffffffffffffffff821115611aae57611aad611a18565b5b611ab782611761565b9050602081019050919050565b82818337600083830152505050565b6000611ae6611ae184611a93565b611a78565b905082815260208101848484011115611b0257611b01611a13565b5b611b0d848285611ac4565b509392505050565b600082601f830112611b2a57611b29611a0e565b5b8135611b3a848260208601611ad3565b91505092915050565b60008060008060808587031215611b5d57611b5c61164d565b5b6000611b6b878288016118a3565b9450506020611b7c878288016118a3565b9350506040611b8d878288016117ee565b925050606085013567ffffffffffffffff811115611bae57611bad611652565b5b611bba87828801611b15565b91505092959194509250565b60008060408385031215611bdd57611bdc61164d565b5b6000611beb858286016118a3565b9250506020611bfc858286016118a3565b9150509250929050565b7f4e487b7100000000000000000000000000000000000000000000000000000000600052602260045260246000fd5b60006002820490506001821680611c4d57607f821691505b60208210811415611c6157611c60611c06565b5b50919050565b7f4552433732313a20617070726f76656420717565727920666f72206e6f6e657860008201527f697374656e7420746f6b656e0000000000000000000000000000000000000000602082015250565b6000611cc3602c8361171d565b9150611cce82611c67565b604082019050919050565b60006020820190508181036000830152611cf281611cb6565b9050919050565b7f4552433732313a20617070726f76616c20746f2063757272656e74206f776e6560008201527f7200000000000000000000000000000000000000000000000000000000000000602082015250565b6000611d5560218361171d565b9150611d6082611cf9565b604082019050919050565b60006020820190508181036000830152611d8481611d48565b9050919050565b7f4552433732313a20617070726f76652063616c6c6572206973206e6f74206f7760008201527f6e6572206e6f7220617070726f76656420666f7220616c6c0000000000000000602082015250565b6000611de760388361171d565b9150611df282611d8b565b604082019050919050565b60006020820190508181036000830152611e1681611dda565b9050919050565b7f4552433732313a207472616e736665722063616c6c6572206973206e6f74206f60008201527f776e6572206e6f7220617070726f766564000000000000000000000000000000602082015250565b6000611e7960318361171d565b9150611e8482611e1d565b604082019050919050565b60006020820190508181036000830152611ea881611e6c565b9050919050565b7f4552433732313a206f776e657220717565727920666f72206e6f6e657869737460008201527f656e7420746f6b656e0000000000000000000000000000000000000000000000602082015250565b6000611f0b60298361171d565b9150611f1682611eaf565b604082019050919050565b60006020820190508181036000830152611f3a81611efe565b9050919050565b7f4e487b7100000000000000000000000000000000000000000000000000000000600052601160045260246000fd5b6000611f7b826117cd565b9150611f86836117cd565b9250827fffffffffffffffffffffffffffffffffffffffffffffffffffffffffffffffff03821115611fbb57611fba611f41565b5b828201905092915050565b7f4552433732313a2062616c616e636520717565727920666f7220746865207a6560008201527f726f206164647265737300000000000000000000000000000000000000000000602082015250565b6000612022602a8361171d565b915061202d82611fc6565b604082019050919050565b6000602082019050818103600083015261205181612015565b9050919050565b7f4552433732314d657461646174613a2055524920717565727920666f72206e6f60008201527f6e6578697374656e7420746f6b656e0000000000000000000000000000000000602082015250565b60006120b4602f8361171d565b91506120bf82612058565b604082019050919050565b600060208201905081810360008301526120e3816120a7565b9050919050565b600081905092915050565b600061210082611712565b61210a81856120ea565b935061211a81856020860161172e565b80840191505092915050565b600061213282856120f5565b915061213e82846120f5565b91508190509392505050565b7f4552433732313a206f70657261746f7220717565727920666f72206e6f6e657860008201527f697374656e7420746f6b656e0000000000000000000000000000000000000000602082015250565b60006121a6602c8361171d565b91506121b18261214a565b604082019050919050565b600060208201905081810360008301526121d581612199565b9050919050565b7f4552433732313a207472616e736665722066726f6d20696e636f72726563742060008201527f6f776e6572000000000000000000000000000000000000000000000000000000602082015250565b600061223860258361171d565b9150612243826121dc565b604082019050919050565b600060208201905081810360008301526122678161222b565b9050919050565b7f4552433732313a207472616e7366657220746f20746865207a65726f2061646460008201527f7265737300000000000000000000000000000000000000000000000000000000602082015250565b60006122ca60248361171d565b91506122d58261226e565b604082019050919050565b600060208201905081810360008301526122f9816122bd565b9050919050565b600061230b826117cd565b9150612316836117cd565b92508282101561232957612328611f41565b5b828203905092915050565b7f4552433732313a206d696e7420746f20746865207a65726f2061646472657373600082015250565b600061236a60208361171d565b915061237582612334565b602082019050919050565b600060208201905081810360008301526123998161235d565b9050919050565b7f4552433732313a20746f6b656e20616c7265616479206d696e74656400000000600082015250565b60006123d6601c8361171d565b91506123e1826123a0565b602082019050919050565b60006020820190508181036000830152612405816123c9565b9050919050565b7f4552433732313a20617070726f766520746f2063616c6c657200000000000000600082015250565b600061244260198361171d565b915061244d8261240c565b602082019050919050565b6000602082019050818103600083015261247181612435565b9050919050565b7f4552433732313a207472616e7366657220746f206e6f6e20455243373231526560008201527f63656976657220696d706c656d656e7465720000000000000000000000000000602082015250565b60006124d460328361171d565b91506124df82612478565b604082019050919050565b60006020820190508181036000830152612503816124c7565b9050919050565b6000612515826117cd565b91507fffffffffffffffffffffffffffffffffffffffffffffffffffffffffffffffff82141561254857612547611f41565b5b600182019050919050565b7f4e487b7100000000000000000000000000000000000000000000000000000000600052601260045260246000fd5b600061258d826117cd565b9150612598836117cd565b9250826125a8576125a7612553565b5b828204905092915050565b60006125be826117cd565b91506125c9836117cd565b9250826125d9576125d8612553565b5b828206905092915050565b7f4e487b7100000000000000000000000000000000000000000000000000000000600052603260045260246000fd5b600081519050919050565b600082825260208201905092915050565b600061263a82612613565b612644818561261e565b935061265481856020860161172e565b61265d81611761565b840191505092915050565b600060808201905061267d6000830187611862565b61268a6020830186611862565b6126976040830185611978565b81810360608301526126a9818461262f565b905095945050505050565b6000815190506126c381611683565b92915050565b6000602082840312156126df576126de61164d565b5b60006126ed848285016126b4565b9150509291505056fea2646970667358221220b1d0b58861547b837cdd4d9f208a666fad9c4d68e2a6901f8d8fd2bfa8a3c33464736f6c634300080c0033",
  "immutableReferences": {},
  "source": "// SPDX-License-Identifier: MIT\npragma solidity 0.8.12;\n\nimport \"@openzeppelin/contracts/token/ERC721/ERC721.sol\";\n\n/// @title Dummy ERC-721 smart contract used for testing purposes.\ncontract ERC721Mock is ERC721 {\n    uint256 public currentSupply = 0;\n\n    constructor(string memory _name, string memory _symbol) ERC721(_name, _symbol) {}\n\n    function mint(address _to) public {\n        _mint(_to, currentSupply + 1);\n        currentSupply += 1;\n    }\n}",
  "sourcePath": "/Volumes/Storage/Workspace/Projects/Autentica/smart-contracts/contracts/mock/ERC721Mock.sol",
  "compiler": {
    "name": "solc",
    "version": "0.8.12+commit.f00d7308.Emscripten.clang"
  },
  "schemaVersion": "3.4.5",
  "updatedAt": "2022-02-21T13:10:29.038Z",
  "devdoc": {
    "kind": "dev",
    "methods": {
      "approve(address,uint256)": {
        "details": "See {IERC721-approve}."
      },
      "balanceOf(address)": {
        "details": "See {IERC721-balanceOf}."
      },
      "getApproved(uint256)": {
        "details": "See {IERC721-getApproved}."
      },
      "isApprovedForAll(address,address)": {
        "details": "See {IERC721-isApprovedForAll}."
      },
      "name()": {
        "details": "See {IERC721Metadata-name}."
      },
      "ownerOf(uint256)": {
        "details": "See {IERC721-ownerOf}."
      },
      "safeTransferFrom(address,address,uint256)": {
        "details": "See {IERC721-safeTransferFrom}."
      },
      "safeTransferFrom(address,address,uint256,bytes)": {
        "details": "See {IERC721-safeTransferFrom}."
      },
      "setApprovalForAll(address,bool)": {
        "details": "See {IERC721-setApprovalForAll}."
      },
      "supportsInterface(bytes4)": {
        "details": "See {IERC165-supportsInterface}."
      },
      "symbol()": {
        "details": "See {IERC721Metadata-symbol}."
      },
      "tokenURI(uint256)": {
        "details": "See {IERC721Metadata-tokenURI}."
      },
      "transferFrom(address,address,uint256)": {
        "details": "See {IERC721-transferFrom}."
      }
    },
    "title": "Dummy ERC-721 smart contract used for testing purposes.",
    "version": 1
  },
  "userdoc": {
    "kind": "user",
    "methods": {},
    "version": 1
  }
}