{
  "contractName": "ERC721RoyaltiesMock",
  "abi": [
    {
      "inputs": [
        {
          "internalType": "string",
          "name": "_name",
          "type": "string"
        },
        {
          "internalType": "string",
          "name": "_symbol",
          "type": "string"
        }
      ],
      "stateMutability": "nonpayable",
      "type": "constructor"
    },
    {
      "anonymous": false,
      "inputs": [
        {
          "indexed": true,
          "internalType": "address",
          "name": "owner",
          "type": "address"
        },
        {
          "indexed": true,
          "internalType": "address",
          "name": "approved",
          "type": "address"
        },
        {
          "indexed": true,
          "internalType": "uint256",
          "name": "tokenId",
          "type": "uint256"
        }
      ],
      "name": "Approval",
      "type": "event"
    },
    {
      "anonymous": false,
      "inputs": [
        {
          "indexed": true,
          "internalType": "address",
          "name": "owner",
          "type": "address"
        },
        {
          "indexed": true,
          "internalType": "address",
          "name": "operator",
          "type": "address"
        },
        {
          "indexed": false,
          "internalType": "bool",
          "name": "approved",
          "type": "bool"
        }
      ],
      "name": "ApprovalForAll",
      "type": "event"
    },
    {
      "anonymous": false,
      "inputs": [
        {
          "indexed": true,
          "internalType": "address",
          "name": "from",
          "type": "address"
        },
        {
          "indexed": true,
          "internalType": "address",
          "name": "to",
          "type": "address"
        },
        {
          "indexed": true,
          "internalType": "uint256",
          "name": "tokenId",
          "type": "uint256"
        }
      ],
      "name": "Transfer",
      "type": "event"
    },
    {
      "inputs": [],
      "name": "DECIMALS",
      "outputs": [
        {
          "internalType": "uint8",
          "name": "",
          "type": "uint8"
        }
      ],
      "stateMutability": "view",
      "type": "function"
    },
    {
      "inputs": [
        {
          "internalType": "address",
          "name": "to",
          "type": "address"
        },
        {
          "internalType": "uint256",
          "name": "tokenId",
          "type": "uint256"
        }
      ],
      "name": "approve",
      "outputs": [],
      "stateMutability": "nonpayable",
      "type": "function"
    },
    {
      "inputs": [
        {
          "internalType": "address",
          "name": "owner",
          "type": "address"
        }
      ],
      "name": "balanceOf",
      "outputs": [
        {
          "internalType": "uint256",
          "name": "",
          "type": "uint256"
        }
      ],
      "stateMutability": "view",
      "type": "function"
    },
    {
      "inputs": [],
      "name": "currentSupply",
      "outputs": [
        {
          "internalType": "uint256",
          "name": "",
          "type": "uint256"
        }
      ],
      "stateMutability": "view",
      "type": "function"
    },
    {
      "inputs": [
        {
          "internalType": "uint256",
          "name": "tokenId",
          "type": "uint256"
        }
      ],
      "name": "getApproved",
      "outputs": [
        {
          "internalType": "address",
          "name": "",
          "type": "address"
        }
      ],
      "stateMutability": "view",
      "type": "function"
    },
    {
      "inputs": [
        {
          "internalType": "address",
          "name": "owner",
          "type": "address"
        },
        {
          "internalType": "address",
          "name": "operator",
          "type": "address"
        }
      ],
      "name": "isApprovedForAll",
      "outputs": [
        {
          "internalType": "bool",
          "name": "",
          "type": "bool"
        }
      ],
      "stateMutability": "view",
      "type": "function"
    },
    {
      "inputs": [],
      "name": "name",
      "outputs": [
        {
          "internalType": "string",
          "name": "",
          "type": "string"
        }
      ],
      "stateMutability": "view",
      "type": "function"
    },
    {
      "inputs": [
        {
          "internalType": "uint256",
          "name": "tokenId",
          "type": "uint256"
        }
      ],
      "name": "ownerOf",
      "outputs": [
        {
          "internalType": "address",
          "name": "",
          "type": "address"
        }
      ],
      "stateMutability": "view",
      "type": "function"
    },
    {
      "inputs": [
        {
          "internalType": "address",
          "name": "from",
          "type": "address"
        },
        {
          "internalType": "address",
          "name": "to",
          "type": "address"
        },
        {
          "internalType": "uint256",
          "name": "tokenId",
          "type": "uint256"
        }
      ],
      "name": "safeTransferFrom",
      "outputs": [],
      "stateMutability": "nonpayable",
      "type": "function"
    },
    {
      "inputs": [
        {
          "internalType": "address",
          "name": "from",
          "type": "address"
        },
        {
          "internalType": "address",
          "name": "to",
          "type": "address"
        },
        {
          "internalType": "uint256",
          "name": "tokenId",
          "type": "uint256"
        },
        {
          "internalType": "bytes",
          "name": "_data",
          "type": "bytes"
        }
      ],
      "name": "safeTransferFrom",
      "outputs": [],
      "stateMutability": "nonpayable",
      "type": "function"
    },
    {
      "inputs": [
        {
          "internalType": "address",
          "name": "operator",
          "type": "address"
        },
        {
          "internalType": "bool",
          "name": "approved",
          "type": "bool"
        }
      ],
      "name": "setApprovalForAll",
      "outputs": [],
      "stateMutability": "nonpayable",
      "type": "function"
    },
    {
      "inputs": [],
      "name": "symbol",
      "outputs": [
        {
          "internalType": "string",
          "name": "",
          "type": "string"
        }
      ],
      "stateMutability": "view",
      "type": "function"
    },
    {
      "inputs": [
        {
          "internalType": "uint256",
          "name": "tokenId",
          "type": "uint256"
        }
      ],
      "name": "tokenURI",
      "outputs": [
        {
          "internalType": "string",
          "name": "",
          "type": "string"
        }
      ],
      "stateMutability": "view",
      "type": "function"
    },
    {
      "inputs": [
        {
          "internalType": "address",
          "name": "from",
          "type": "address"
        },
        {
          "internalType": "address",
          "name": "to",
          "type": "address"
        },
        {
          "internalType": "uint256",
          "name": "tokenId",
          "type": "uint256"
        }
      ],
      "name": "transferFrom",
      "outputs": [],
      "stateMutability": "nonpayable",
      "type": "function"
    },
    {
      "inputs": [
        {
          "internalType": "address",
          "name": "_to",
          "type": "address"
        },
        {
          "internalType": "uint256",
          "name": "royaltyFee",
          "type": "uint256"
        }
      ],
      "name": "mint",
      "outputs": [],
      "stateMutability": "nonpayable",
      "type": "function"
    },
    {
      "inputs": [
        {
          "internalType": "uint256",
          "name": "tokenId",
          "type": "uint256"
        },
        {
          "internalType": "uint256",
          "name": "salePrice",
          "type": "uint256"
        }
      ],
      "name": "royaltyInfo",
      "outputs": [
        {
          "internalType": "address",
          "name": "receiver",
          "type": "address"
        },
        {
          "internalType": "uint256",
          "name": "royaltyAmount",
          "type": "uint256"
        }
      ],
      "stateMutability": "view",
      "type": "function"
    },
    {
      "inputs": [
        {
          "internalType": "bytes4",
          "name": "interfaceId",
          "type": "bytes4"
        }
      ],
      "name": "supportsInterface",
      "outputs": [
        {
          "internalType": "bool",
          "name": "",
          "type": "bool"
        }
      ],
      "stateMutability": "view",
      "type": "function"
    }
  ],
  "bytecode": "0x608060405260006006553480156200001657600080fd5b50604051620030253803806200302583398181016040528101906200003c9190620002c7565b81818160009080519060200190620000569291906200007a565b5080600190805190602001906200006f9291906200007a565b5050505050620003b1565b82805462000088906200037b565b90600052602060002090601f016020900481019282620000ac5760008555620000f8565b82601f10620000c757805160ff1916838001178555620000f8565b82800160010185558215620000f8579182015b82811115620000f7578251825591602001919060010190620000da565b5b5090506200010791906200010b565b5090565b5b80821115620001265760008160009055506001016200010c565b5090565b6000604051905090565b600080fd5b600080fd5b600080fd5b600080fd5b6000601f19601f8301169050919050565b7f4e487b7100000000000000000000000000000000000000000000000000000000600052604160045260246000fd5b620001938262000148565b810181811067ffffffffffffffff82111715620001b557620001b462000159565b5b80604052505050565b6000620001ca6200012a565b9050620001d8828262000188565b919050565b600067ffffffffffffffff821115620001fb57620001fa62000159565b5b620002068262000148565b9050602081019050919050565b60005b838110156200023357808201518184015260208101905062000216565b8381111562000243576000848401525b50505050565b6000620002606200025a84620001dd565b620001be565b9050828152602081018484840111156200027f576200027e62000143565b5b6200028c84828562000213565b509392505050565b600082601f830112620002ac57620002ab6200013e565b5b8151620002be84826020860162000249565b91505092915050565b60008060408385031215620002e157620002e062000134565b5b600083015167ffffffffffffffff81111562000302576200030162000139565b5b620003108582860162000294565b925050602083015167ffffffffffffffff81111562000334576200033362000139565b5b620003428582860162000294565b9150509250929050565b7f4e487b7100000000000000000000000000000000000000000000000000000000600052602260045260246000fd5b600060028204905060018216806200039457607f821691505b60208210811415620003ab57620003aa6200034c565b5b50919050565b612c6480620003c16000396000f3fe608060405234801561001057600080fd5b506004361061010b5760003560e01c806342842e0e116100a257806395d89b411161007157806395d89b41146102cb578063a22cb465146102e9578063b88d4fde14610305578063c87b56dd14610321578063e985e9c5146103515761010b565b806342842e0e146102315780636352211e1461024d57806370a082311461027d578063771282f6146102ad5761010b565b806323b872dd116100de57806323b872dd146101aa5780632a55205a146101c65780632e0f2625146101f757806340c10f19146102155761010b565b806301ffc9a71461011057806306fdde0314610140578063081812fc1461015e578063095ea7b31461018e575b600080fd5b61012a6004803603810190610125919061196f565b610381565b60405161013791906119b7565b60405180910390f35b6101486103fb565b6040516101559190611a6b565b60405180910390f35b61017860048036038101906101739190611ac3565b61048d565b6040516101859190611b31565b60405180910390f35b6101a860048036038101906101a39190611b78565b610512565b005b6101c460048036038101906101bf9190611bb8565b61062a565b005b6101e060048036038101906101db9190611c0b565b61068a565b6040516101ee929190611c5a565b60405180910390f35b6101ff6107c5565b60405161020c9190611c9f565b60405180910390f35b61022f600480360381019061022a9190611b78565b6107ca565b005b61024b60048036038101906102469190611bb8565b6108a0565b005b61026760048036038101906102629190611ac3565b6108c0565b6040516102749190611b31565b60405180910390f35b61029760048036038101906102929190611cba565b610972565b6040516102a49190611ce7565b60405180910390f35b6102b5610a2a565b6040516102c29190611ce7565b60405180910390f35b6102d3610a30565b6040516102e09190611a6b565b60405180910390f35b61030360048036038101906102fe9190611d2e565b610ac2565b005b61031f600480360381019061031a9190611ea3565b610ad8565b005b61033b60048036038101906103369190611ac3565b610b3a565b6040516103489190611a6b565b60405180910390f35b61036b60048036038101906103669190611f26565b610be1565b60405161037891906119b7565b60405180910390f35b60007f2a55205a000000000000000000000000000000000000000000000000000000007bffffffffffffffffffffffffffffffffffffffffffffffffffffffff1916827bffffffffffffffffffffffffffffffffffffffffffffffffffffffff191614806103f457506103f382610c75565b5b9050919050565b60606000805461040a90611f95565b80601f016020809104026020016040519081016040528092919081815260200182805461043690611f95565b80156104835780601f1061045857610100808354040283529160200191610483565b820191906000526020600020905b81548152906001019060200180831161046657829003601f168201915b5050505050905090565b600061049882610d57565b6104d7576040517f08c379a00000000000000000000000000000000000000000000000000000000081526004016104ce90612039565b60405180910390fd5b6004600083815260200190815260200160002060009054906101000a900473ffffffffffffffffffffffffffffffffffffffff169050919050565b600061051d826108c0565b90508073ffffffffffffffffffffffffffffffffffffffff168373ffffffffffffffffffffffffffffffffffffffff16141561058e576040517f08c379a0000000000000000000000000000000000000000000000000000000008152600401610585906120cb565b60405180910390fd5b8073ffffffffffffffffffffffffffffffffffffffff166105ad610dc3565b73ffffffffffffffffffffffffffffffffffffffff1614806105dc57506105db816105d6610dc3565b610be1565b5b61061b576040517f08c379a00000000000000000000000000000000000000000000000000000000081526004016106129061215d565b60405180910390fd5b6106258383610dcb565b505050565b61063b610635610dc3565b82610e84565b61067a576040517f08c379a0000000000000000000000000000000000000000000000000000000008152600401610671906121ef565b60405180910390fd5b610685838383610f62565b505050565b6000806000151561069a85610d57565b1515148061070a5750600073ffffffffffffffffffffffffffffffffffffffff166007600086815260200190815260200160002060000160009054906101000a900473ffffffffffffffffffffffffffffffffffffffff1673ffffffffffffffffffffffffffffffffffffffff16145b8061072b575060006007600086815260200190815260200160002060010154145b1561073c57600080915091506107be565b6007600085815260200190815260200160002060000160009054906101000a900473ffffffffffffffffffffffffffffffffffffffff166002600a6107819190612371565b606461078d91906123bc565b6007600087815260200190815260200160002060010154856107af91906123bc565b6107b99190612445565b915091505b9250929050565b600281565b6107e28260016006546107dd9190612476565b6111c9565b60405180604001604052803373ffffffffffffffffffffffffffffffffffffffff168152602001828152506007600060016006546108209190612476565b815260200190815260200160002060008201518160000160006101000a81548173ffffffffffffffffffffffffffffffffffffffff021916908373ffffffffffffffffffffffffffffffffffffffff160217905550602082015181600101559050506001600660008282546108959190612476565b925050819055505050565b6108bb83838360405180602001604052806000815250610ad8565b505050565b6000806002600084815260200190815260200160002060009054906101000a900473ffffffffffffffffffffffffffffffffffffffff169050600073ffffffffffffffffffffffffffffffffffffffff168173ffffffffffffffffffffffffffffffffffffffff161415610969576040517f08c379a00000000000000000000000000000000000000000000000000000000081526004016109609061253e565b60405180910390fd5b80915050919050565b60008073ffffffffffffffffffffffffffffffffffffffff168273ffffffffffffffffffffffffffffffffffffffff1614156109e3576040517f08c379a00000000000000000000000000000000000000000000000000000000081526004016109da906125d0565b60405180910390fd5b600360008373ffffffffffffffffffffffffffffffffffffffff1673ffffffffffffffffffffffffffffffffffffffff168152602001908152602001600020549050919050565b60065481565b606060018054610a3f90611f95565b80601f0160208091040260200160405190810160405280929190818152602001828054610a6b90611f95565b8015610ab85780601f10610a8d57610100808354040283529160200191610ab8565b820191906000526020600020905b815481529060010190602001808311610a9b57829003601f168201915b5050505050905090565b610ad4610acd610dc3565b83836113a3565b5050565b610ae9610ae3610dc3565b83610e84565b610b28576040517f08c379a0000000000000000000000000000000000000000000000000000000008152600401610b1f906121ef565b60405180910390fd5b610b3484848484611510565b50505050565b6060610b4582610d57565b610b84576040517f08c379a0000000000000000000000000000000000000000000000000000000008152600401610b7b90612662565b60405180910390fd5b6000610b8e61156c565b90506000815111610bae5760405180602001604052806000815250610bd9565b80610bb884611583565b604051602001610bc99291906126be565b6040516020818303038152906040525b915050919050565b6000600560008473ffffffffffffffffffffffffffffffffffffffff1673ffffffffffffffffffffffffffffffffffffffff16815260200190815260200160002060008373ffffffffffffffffffffffffffffffffffffffff1673ffffffffffffffffffffffffffffffffffffffff16815260200190815260200160002060009054906101000a900460ff16905092915050565b60007f80ac58cd000000000000000000000000000000000000000000000000000000007bffffffffffffffffffffffffffffffffffffffffffffffffffffffff1916827bffffffffffffffffffffffffffffffffffffffffffffffffffffffff19161480610d4057507f5b5e139f000000000000000000000000000000000000000000000000000000007bffffffffffffffffffffffffffffffffffffffffffffffffffffffff1916827bffffffffffffffffffffffffffffffffffffffffffffffffffffffff1916145b80610d505750610d4f826116e4565b5b9050919050565b60008073ffffffffffffffffffffffffffffffffffffffff166002600084815260200190815260200160002060009054906101000a900473ffffffffffffffffffffffffffffffffffffffff1673ffffffffffffffffffffffffffffffffffffffff1614159050919050565b600033905090565b816004600083815260200190815260200160002060006101000a81548173ffffffffffffffffffffffffffffffffffffffff021916908373ffffffffffffffffffffffffffffffffffffffff160217905550808273ffffffffffffffffffffffffffffffffffffffff16610e3e836108c0565b73ffffffffffffffffffffffffffffffffffffffff167f8c5be1e5ebec7d5bd14f71427d1e84f3dd0314c0f7b2291e5b200ac8c7c3b92560405160405180910390a45050565b6000610e8f82610d57565b610ece576040517f08c379a0000000000000000000000000000000000000000000000000000000008152600401610ec590612754565b60405180910390fd5b6000610ed9836108c0565b90508073ffffffffffffffffffffffffffffffffffffffff168473ffffffffffffffffffffffffffffffffffffffff161480610f4857508373ffffffffffffffffffffffffffffffffffffffff16610f308461048d565b73ffffffffffffffffffffffffffffffffffffffff16145b80610f595750610f588185610be1565b5b91505092915050565b8273ffffffffffffffffffffffffffffffffffffffff16610f82826108c0565b73ffffffffffffffffffffffffffffffffffffffff1614610fd8576040517f08c379a0000000000000000000000000000000000000000000000000000000008152600401610fcf906127e6565b60405180910390fd5b600073ffffffffffffffffffffffffffffffffffffffff168273ffffffffffffffffffffffffffffffffffffffff161415611048576040517f08c379a000000000000000000000000000000000000000000000000000000000815260040161103f90612878565b60405180910390fd5b61105383838361174e565b61105e600082610dcb565b6001600360008573ffffffffffffffffffffffffffffffffffffffff1673ffffffffffffffffffffffffffffffffffffffff16815260200190815260200160002060008282546110ae9190612898565b925050819055506001600360008473ffffffffffffffffffffffffffffffffffffffff1673ffffffffffffffffffffffffffffffffffffffff16815260200190815260200160002060008282546111059190612476565b92505081905550816002600083815260200190815260200160002060006101000a81548173ffffffffffffffffffffffffffffffffffffffff021916908373ffffffffffffffffffffffffffffffffffffffff160217905550808273ffffffffffffffffffffffffffffffffffffffff168473ffffffffffffffffffffffffffffffffffffffff167fddf252ad1be2c89b69c2b068fc378daa952ba7f163c4a11628f55a4df523b3ef60405160405180910390a46111c4838383611753565b505050565b600073ffffffffffffffffffffffffffffffffffffffff168273ffffffffffffffffffffffffffffffffffffffff161415611239576040517f08c379a000000000000000000000000000000000000000000000000000000000815260040161123090612918565b60405180910390fd5b61124281610d57565b15611282576040517f08c379a000000000000000000000000000000000000000000000000000000000815260040161127990612984565b60405180910390fd5b61128e6000838361174e565b6001600360008473ffffffffffffffffffffffffffffffffffffffff1673ffffffffffffffffffffffffffffffffffffffff16815260200190815260200160002060008282546112de9190612476565b92505081905550816002600083815260200190815260200160002060006101000a81548173ffffffffffffffffffffffffffffffffffffffff021916908373ffffffffffffffffffffffffffffffffffffffff160217905550808273ffffffffffffffffffffffffffffffffffffffff16600073ffffffffffffffffffffffffffffffffffffffff167fddf252ad1be2c89b69c2b068fc378daa952ba7f163c4a11628f55a4df523b3ef60405160405180910390a461139f60008383611753565b5050565b8173ffffffffffffffffffffffffffffffffffffffff168373ffffffffffffffffffffffffffffffffffffffff161415611412576040517f08c379a0000000000000000000000000000000000000000000000000000000008152600401611409906129f0565b60405180910390fd5b80600560008573ffffffffffffffffffffffffffffffffffffffff1673ffffffffffffffffffffffffffffffffffffffff16815260200190815260200160002060008473ffffffffffffffffffffffffffffffffffffffff1673ffffffffffffffffffffffffffffffffffffffff16815260200190815260200160002060006101000a81548160ff0219169083151502179055508173ffffffffffffffffffffffffffffffffffffffff168373ffffffffffffffffffffffffffffffffffffffff167f17307eab39ab6107e8899845ad3d59bd9653f200f220920489ca2b5937696c318360405161150391906119b7565b60405180910390a3505050565b61151b848484610f62565b61152784848484611758565b611566576040517f08c379a000000000000000000000000000000000000000000000000000000000815260040161155d90612a82565b60405180910390fd5b50505050565b606060405180602001604052806000815250905090565b606060008214156115cb576040518060400160405280600181526020017f300000000000000000000000000000000000000000000000000000000000000081525090506116df565b600082905060005b600082146115fd5780806115e690612aa2565b915050600a826115f69190612445565b91506115d3565b60008167ffffffffffffffff81111561161957611618611d78565b5b6040519080825280601f01601f19166020018201604052801561164b5781602001600182028036833780820191505090505b5090505b600085146116d8576001826116649190612898565b9150600a856116739190612aeb565b603061167f9190612476565b60f81b81838151811061169557611694612b1c565b5b60200101907effffffffffffffffffffffffffffffffffffffffffffffffffffffffffffff1916908160001a905350600a856116d19190612445565b945061164f565b8093505050505b919050565b60007f01ffc9a7000000000000000000000000000000000000000000000000000000007bffffffffffffffffffffffffffffffffffffffffffffffffffffffff1916827bffffffffffffffffffffffffffffffffffffffffffffffffffffffff1916149050919050565b505050565b505050565b60006117798473ffffffffffffffffffffffffffffffffffffffff166118e0565b156118d3578373ffffffffffffffffffffffffffffffffffffffff1663150b7a026117a2610dc3565b8786866040518563ffffffff1660e01b81526004016117c49493929190612ba0565b6020604051808303816000875af192505050801561180057506040513d601f19601f820116820180604052508101906117fd9190612c01565b60015b611883573d8060008114611830576040519150601f19603f3d011682016040523d82523d6000602084013e611835565b606091505b5060008151141561187b576040517f08c379a000000000000000000000000000000000000000000000000000000000815260040161187290612a82565b60405180910390fd5b805181602001fd5b63150b7a0260e01b7bffffffffffffffffffffffffffffffffffffffffffffffffffffffff1916817bffffffffffffffffffffffffffffffffffffffffffffffffffffffff1916149150506118d8565b600190505b949350505050565b6000808273ffffffffffffffffffffffffffffffffffffffff163b119050919050565b6000604051905090565b600080fd5b600080fd5b60007fffffffff0000000000000000000000000000000000000000000000000000000082169050919050565b61194c81611917565b811461195757600080fd5b50565b60008135905061196981611943565b92915050565b6000602082840312156119855761198461190d565b5b60006119938482850161195a565b91505092915050565b60008115159050919050565b6119b18161199c565b82525050565b60006020820190506119cc60008301846119a8565b92915050565b600081519050919050565b600082825260208201905092915050565b60005b83811015611a0c5780820151818401526020810190506119f1565b83811115611a1b576000848401525b50505050565b6000601f19601f8301169050919050565b6000611a3d826119d2565b611a4781856119dd565b9350611a578185602086016119ee565b611a6081611a21565b840191505092915050565b60006020820190508181036000830152611a858184611a32565b905092915050565b6000819050919050565b611aa081611a8d565b8114611aab57600080fd5b50565b600081359050611abd81611a97565b92915050565b600060208284031215611ad957611ad861190d565b5b6000611ae784828501611aae565b91505092915050565b600073ffffffffffffffffffffffffffffffffffffffff82169050919050565b6000611b1b82611af0565b9050919050565b611b2b81611b10565b82525050565b6000602082019050611b466000830184611b22565b92915050565b611b5581611b10565b8114611b6057600080fd5b50565b600081359050611b7281611b4c565b92915050565b60008060408385031215611b8f57611b8e61190d565b5b6000611b9d85828601611b63565b9250506020611bae85828601611aae565b9150509250929050565b600080600060608486031215611bd157611bd061190d565b5b6000611bdf86828701611b63565b9350506020611bf086828701611b63565b9250506040611c0186828701611aae565b9150509250925092565b60008060408385031215611c2257611c2161190d565b5b6000611c3085828601611aae565b9250506020611c4185828601611aae565b9150509250929050565b611c5481611a8d565b82525050565b6000604082019050611c6f6000830185611b22565b611c7c6020830184611c4b565b9392505050565b600060ff82169050919050565b611c9981611c83565b82525050565b6000602082019050611cb46000830184611c90565b92915050565b600060208284031215611cd057611ccf61190d565b5b6000611cde84828501611b63565b91505092915050565b6000602082019050611cfc6000830184611c4b565b92915050565b611d0b8161199c565b8114611d1657600080fd5b50565b600081359050611d2881611d02565b92915050565b60008060408385031215611d4557611d4461190d565b5b6000611d5385828601611b63565b9250506020611d6485828601611d19565b9150509250929050565b600080fd5b600080fd5b7f4e487b7100000000000000000000000000000000000000000000000000000000600052604160045260246000fd5b611db082611a21565b810181811067ffffffffffffffff82111715611dcf57611dce611d78565b5b80604052505050565b6000611de2611903565b9050611dee8282611da7565b919050565b600067ffffffffffffffff821115611e0e57611e0d611d78565b5b611e1782611a21565b9050602081019050919050565b82818337600083830152505050565b6000611e46611e4184611df3565b611dd8565b905082815260208101848484011115611e6257611e61611d73565b5b611e6d848285611e24565b509392505050565b600082601f830112611e8a57611e89611d6e565b5b8135611e9a848260208601611e33565b91505092915050565b60008060008060808587031215611ebd57611ebc61190d565b5b6000611ecb87828801611b63565b9450506020611edc87828801611b63565b9350506040611eed87828801611aae565b925050606085013567ffffffffffffffff811115611f0e57611f0d611912565b5b611f1a87828801611e75565b91505092959194509250565b60008060408385031215611f3d57611f3c61190d565b5b6000611f4b85828601611b63565b9250506020611f5c85828601611b63565b9150509250929050565b7f4e487b7100000000000000000000000000000000000000000000000000000000600052602260045260246000fd5b60006002820490506001821680611fad57607f821691505b60208210811415611fc157611fc0611f66565b5b50919050565b7f4552433732313a20617070726f76656420717565727920666f72206e6f6e657860008201527f697374656e7420746f6b656e0000000000000000000000000000000000000000602082015250565b6000612023602c836119dd565b915061202e82611fc7565b604082019050919050565b6000602082019050818103600083015261205281612016565b9050919050565b7f4552433732313a20617070726f76616c20746f2063757272656e74206f776e6560008201527f7200000000000000000000000000000000000000000000000000000000000000602082015250565b60006120b56021836119dd565b91506120c082612059565b604082019050919050565b600060208201905081810360008301526120e4816120a8565b9050919050565b7f4552433732313a20617070726f76652063616c6c6572206973206e6f74206f7760008201527f6e6572206e6f7220617070726f76656420666f7220616c6c0000000000000000602082015250565b60006121476038836119dd565b9150612152826120eb565b604082019050919050565b600060208201905081810360008301526121768161213a565b9050919050565b7f4552433732313a207472616e736665722063616c6c6572206973206e6f74206f60008201527f776e6572206e6f7220617070726f766564000000000000000000000000000000602082015250565b60006121d96031836119dd565b91506121e48261217d565b604082019050919050565b60006020820190508181036000830152612208816121cc565b9050919050565b7f4e487b7100000000000000000000000000000000000000000000000000000000600052601160045260246000fd5b60008160011c9050919050565b6000808291508390505b6001851115612295578086048111156122715761227061220f565b5b60018516156122805780820291505b808102905061228e8561223e565b9450612255565b94509492505050565b6000826122ae576001905061236a565b816122bc576000905061236a565b81600181146122d257600281146122dc5761230b565b600191505061236a565b60ff8411156122ee576122ed61220f565b5b8360020a9150848211156123055761230461220f565b5b5061236a565b5060208310610133831016604e8410600b84101617156123405782820a90508381111561233b5761233a61220f565b5b61236a565b61234d848484600161224b565b925090508184048111156123645761236361220f565b5b81810290505b9392505050565b600061237c82611a8d565b915061238783611c83565b92506123b47fffffffffffffffffffffffffffffffffffffffffffffffffffffffffffffffff848461229e565b905092915050565b60006123c782611a8d565b91506123d283611a8d565b9250817fffffffffffffffffffffffffffffffffffffffffffffffffffffffffffffffff048311821515161561240b5761240a61220f565b5b828202905092915050565b7f4e487b7100000000000000000000000000000000000000000000000000000000600052601260045260246000fd5b600061245082611a8d565b915061245b83611a8d565b92508261246b5761246a612416565b5b828204905092915050565b600061248182611a8d565b915061248c83611a8d565b9250827fffffffffffffffffffffffffffffffffffffffffffffffffffffffffffffffff038211156124c1576124c061220f565b5b828201905092915050565b7f4552433732313a206f776e657220717565727920666f72206e6f6e657869737460008201527f656e7420746f6b656e0000000000000000000000000000000000000000000000602082015250565b60006125286029836119dd565b9150612533826124cc565b604082019050919050565b600060208201905081810360008301526125578161251b565b9050919050565b7f4552433732313a2062616c616e636520717565727920666f7220746865207a6560008201527f726f206164647265737300000000000000000000000000000000000000000000602082015250565b60006125ba602a836119dd565b91506125c58261255e565b604082019050919050565b600060208201905081810360008301526125e9816125ad565b9050919050565b7f4552433732314d657461646174613a2055524920717565727920666f72206e6f60008201527f6e6578697374656e7420746f6b656e0000000000000000000000000000000000602082015250565b600061264c602f836119dd565b9150612657826125f0565b604082019050919050565b6000602082019050818103600083015261267b8161263f565b9050919050565b600081905092915050565b6000612698826119d2565b6126a28185612682565b93506126b28185602086016119ee565b80840191505092915050565b60006126ca828561268d565b91506126d6828461268d565b91508190509392505050565b7f4552433732313a206f70657261746f7220717565727920666f72206e6f6e657860008201527f697374656e7420746f6b656e0000000000000000000000000000000000000000602082015250565b600061273e602c836119dd565b9150612749826126e2565b604082019050919050565b6000602082019050818103600083015261276d81612731565b9050919050565b7f4552433732313a207472616e736665722066726f6d20696e636f72726563742060008201527f6f776e6572000000000000000000000000000000000000000000000000000000602082015250565b60006127d06025836119dd565b91506127db82612774565b604082019050919050565b600060208201905081810360008301526127ff816127c3565b9050919050565b7f4552433732313a207472616e7366657220746f20746865207a65726f2061646460008201527f7265737300000000000000000000000000000000000000000000000000000000602082015250565b60006128626024836119dd565b915061286d82612806565b604082019050919050565b6000602082019050818103600083015261289181612855565b9050919050565b60006128a382611a8d565b91506128ae83611a8d565b9250828210156128c1576128c061220f565b5b828203905092915050565b7f4552433732313a206d696e7420746f20746865207a65726f2061646472657373600082015250565b60006129026020836119dd565b915061290d826128cc565b602082019050919050565b60006020820190508181036000830152612931816128f5565b9050919050565b7f4552433732313a20746f6b656e20616c7265616479206d696e74656400000000600082015250565b600061296e601c836119dd565b915061297982612938565b602082019050919050565b6000602082019050818103600083015261299d81612961565b9050919050565b7f4552433732313a20617070726f766520746f2063616c6c657200000000000000600082015250565b60006129da6019836119dd565b91506129e5826129a4565b602082019050919050565b60006020820190508181036000830152612a09816129cd565b9050919050565b7f4552433732313a207472616e7366657220746f206e6f6e20455243373231526560008201527f63656976657220696d706c656d656e7465720000000000000000000000000000602082015250565b6000612a6c6032836119dd565b9150612a7782612a10565b604082019050919050565b60006020820190508181036000830152612a9b81612a5f565b9050919050565b6000612aad82611a8d565b91507fffffffffffffffffffffffffffffffffffffffffffffffffffffffffffffffff821415612ae057612adf61220f565b5b600182019050919050565b6000612af682611a8d565b9150612b0183611a8d565b925082612b1157612b10612416565b5b828206905092915050565b7f4e487b7100000000000000000000000000000000000000000000000000000000600052603260045260246000fd5b600081519050919050565b600082825260208201905092915050565b6000612b7282612b4b565b612b7c8185612b56565b9350612b8c8185602086016119ee565b612b9581611a21565b840191505092915050565b6000608082019050612bb56000830187611b22565b612bc26020830186611b22565b612bcf6040830185611c4b565b8181036060830152612be18184612b67565b905095945050505050565b600081519050612bfb81611943565b92915050565b600060208284031215612c1757612c1661190d565b5b6000612c2584828501612bec565b9150509291505056fea264697066735822122010efb23d4dcaf59d0862cffd7be9fae0e15a59c5f0e53e6306e074a6dea6d81964736f6c634300080c0033",
  "immutableReferences": {},
  "source": "// SPDX-License-Identifier: MIT\npragma solidity 0.8.12;\n\nimport \"@openzeppelin/contracts/token/ERC721/ERC721.sol\";\nimport \"@openzeppelin/contracts/interfaces/IERC2981.sol\";\n\n/// @title Dummy ERC-721 smart contract with support for ERC-2981 used for testing purposes.\ncontract ERC721RoyaltiesMock is ERC721, IERC2981 {\n    uint8 public constant DECIMALS = 2;\n    uint256 public currentSupply = 0;\n\n    struct Royalties {\n        address creator;\n        uint256 fee;\n    }\n\n    mapping(uint256 => Royalties) private _royalties;\n\n    constructor(string memory _name, string memory _symbol) ERC721(_name, _symbol) {}\n\n    function mint(address _to, uint256 royaltyFee) public {\n        _mint(_to, currentSupply + 1);\n        _royalties[currentSupply + 1] = Royalties({\n            creator: msg.sender, \n            fee: royaltyFee\n        });\n        currentSupply += 1;\n    }\n\n    function royaltyInfo(uint256 tokenId, uint256 salePrice)\n        external\n        view\n        returns (address receiver, uint256 royaltyAmount)\n    {\n        if (_exists(tokenId) == false || _royalties[tokenId].creator == address(0x0) || _royalties[tokenId].fee == 0) {\n            // Zero out everything\n            return (address(0x0), 0);\n        } else {\n            // Return the address of the creator and the royalty proceeds\n            return (_royalties[tokenId].creator, (salePrice * _royalties[tokenId].fee) / (100 * 10**DECIMALS));\n        }\n    }\n\n    function supportsInterface(bytes4 interfaceId)\n        public\n        view\n        virtual\n        override(ERC721, IERC165)\n        returns (bool)\n    {\n        return\n            interfaceId == type(IERC2981).interfaceId ||\n            super.supportsInterface(interfaceId);\n    }\n}",
  "sourcePath": "/Volumes/Storage/Workspace/Projects/Autentica/smart-contracts/contracts/mock/ERC721RoyaltiesMock.sol",
  "compiler": {
    "name": "solc",
    "version": "0.8.12+commit.f00d7308.Emscripten.clang"
  },
  "schemaVersion": "3.4.5",
  "updatedAt": "2022-02-21T13:10:29.047Z",
  "devdoc": {
    "kind": "dev",
    "methods": {
      "approve(address,uint256)": {
        "details": "See {IERC721-approve}."
      },
      "balanceOf(address)": {
        "details": "See {IERC721-balanceOf}."
      },
      "getApproved(uint256)": {
        "details": "See {IERC721-getApproved}."
      },
      "isApprovedForAll(address,address)": {
        "details": "See {IERC721-isApprovedForAll}."
      },
      "name()": {
        "details": "See {IERC721Metadata-name}."
      },
      "ownerOf(uint256)": {
        "details": "See {IERC721-ownerOf}."
      },
      "royaltyInfo(uint256,uint256)": {
        "details": "Returns how much royalty is owed and to whom, based on a sale price that may be denominated in any unit of exchange. The royalty amount is denominated and should be payed in that same unit of exchange."
      },
      "safeTransferFrom(address,address,uint256)": {
        "details": "See {IERC721-safeTransferFrom}."
      },
      "safeTransferFrom(address,address,uint256,bytes)": {
        "details": "See {IERC721-safeTransferFrom}."
      },
      "setApprovalForAll(address,bool)": {
        "details": "See {IERC721-setApprovalForAll}."
      },
      "symbol()": {
        "details": "See {IERC721Metadata-symbol}."
      },
      "tokenURI(uint256)": {
        "details": "See {IERC721Metadata-tokenURI}."
      },
      "transferFrom(address,address,uint256)": {
        "details": "See {IERC721-transferFrom}."
      }
    },
    "title": "Dummy ERC-721 smart contract with support for ERC-2981 used for testing purposes.",
    "version": 1
  },
  "userdoc": {
    "kind": "user",
    "methods": {},
    "version": 1
  }
}