{
  "contractName": "ERC721RoyaltiesMock",
  "abi": [
    {
      "inputs": [
        {
          "internalType": "string",
          "name": "_name",
          "type": "string"
        },
        {
          "internalType": "string",
          "name": "_symbol",
          "type": "string"
        }
      ],
      "stateMutability": "nonpayable",
      "type": "constructor"
    },
    {
      "anonymous": false,
      "inputs": [
        {
          "indexed": true,
          "internalType": "address",
          "name": "owner",
          "type": "address"
        },
        {
          "indexed": true,
          "internalType": "address",
          "name": "approved",
          "type": "address"
        },
        {
          "indexed": true,
          "internalType": "uint256",
          "name": "tokenId",
          "type": "uint256"
        }
      ],
      "name": "Approval",
      "type": "event"
    },
    {
      "anonymous": false,
      "inputs": [
        {
          "indexed": true,
          "internalType": "address",
          "name": "owner",
          "type": "address"
        },
        {
          "indexed": true,
          "internalType": "address",
          "name": "operator",
          "type": "address"
        },
        {
          "indexed": false,
          "internalType": "bool",
          "name": "approved",
          "type": "bool"
        }
      ],
      "name": "ApprovalForAll",
      "type": "event"
    },
    {
      "anonymous": false,
      "inputs": [
        {
          "indexed": true,
          "internalType": "address",
          "name": "from",
          "type": "address"
        },
        {
          "indexed": true,
          "internalType": "address",
          "name": "to",
          "type": "address"
        },
        {
          "indexed": true,
          "internalType": "uint256",
          "name": "tokenId",
          "type": "uint256"
        }
      ],
      "name": "Transfer",
      "type": "event"
    },
    {
      "inputs": [],
      "name": "DECIMALS",
      "outputs": [
        {
          "internalType": "uint8",
          "name": "",
          "type": "uint8"
        }
      ],
      "stateMutability": "view",
      "type": "function"
    },
    {
      "inputs": [
        {
          "internalType": "address",
          "name": "to",
          "type": "address"
        },
        {
          "internalType": "uint256",
          "name": "tokenId",
          "type": "uint256"
        }
      ],
      "name": "approve",
      "outputs": [],
      "stateMutability": "nonpayable",
      "type": "function"
    },
    {
      "inputs": [
        {
          "internalType": "address",
          "name": "owner",
          "type": "address"
        }
      ],
      "name": "balanceOf",
      "outputs": [
        {
          "internalType": "uint256",
          "name": "",
          "type": "uint256"
        }
      ],
      "stateMutability": "view",
      "type": "function"
    },
    {
      "inputs": [],
      "name": "currentSupply",
      "outputs": [
        {
          "internalType": "uint256",
          "name": "",
          "type": "uint256"
        }
      ],
      "stateMutability": "view",
      "type": "function"
    },
    {
      "inputs": [
        {
          "internalType": "uint256",
          "name": "tokenId",
          "type": "uint256"
        }
      ],
      "name": "getApproved",
      "outputs": [
        {
          "internalType": "address",
          "name": "",
          "type": "address"
        }
      ],
      "stateMutability": "view",
      "type": "function"
    },
    {
      "inputs": [
        {
          "internalType": "address",
          "name": "owner",
          "type": "address"
        },
        {
          "internalType": "address",
          "name": "operator",
          "type": "address"
        }
      ],
      "name": "isApprovedForAll",
      "outputs": [
        {
          "internalType": "bool",
          "name": "",
          "type": "bool"
        }
      ],
      "stateMutability": "view",
      "type": "function"
    },
    {
      "inputs": [],
      "name": "name",
      "outputs": [
        {
          "internalType": "string",
          "name": "",
          "type": "string"
        }
      ],
      "stateMutability": "view",
      "type": "function"
    },
    {
      "inputs": [
        {
          "internalType": "uint256",
          "name": "tokenId",
          "type": "uint256"
        }
      ],
      "name": "ownerOf",
      "outputs": [
        {
          "internalType": "address",
          "name": "",
          "type": "address"
        }
      ],
      "stateMutability": "view",
      "type": "function"
    },
    {
      "inputs": [
        {
          "internalType": "address",
          "name": "from",
          "type": "address"
        },
        {
          "internalType": "address",
          "name": "to",
          "type": "address"
        },
        {
          "internalType": "uint256",
          "name": "tokenId",
          "type": "uint256"
        }
      ],
      "name": "safeTransferFrom",
      "outputs": [],
      "stateMutability": "nonpayable",
      "type": "function"
    },
    {
      "inputs": [
        {
          "internalType": "address",
          "name": "from",
          "type": "address"
        },
        {
          "internalType": "address",
          "name": "to",
          "type": "address"
        },
        {
          "internalType": "uint256",
          "name": "tokenId",
          "type": "uint256"
        },
        {
          "internalType": "bytes",
          "name": "data",
          "type": "bytes"
        }
      ],
      "name": "safeTransferFrom",
      "outputs": [],
      "stateMutability": "nonpayable",
      "type": "function"
    },
    {
      "inputs": [
        {
          "internalType": "address",
          "name": "operator",
          "type": "address"
        },
        {
          "internalType": "bool",
          "name": "approved",
          "type": "bool"
        }
      ],
      "name": "setApprovalForAll",
      "outputs": [],
      "stateMutability": "nonpayable",
      "type": "function"
    },
    {
      "inputs": [],
      "name": "symbol",
      "outputs": [
        {
          "internalType": "string",
          "name": "",
          "type": "string"
        }
      ],
      "stateMutability": "view",
      "type": "function"
    },
    {
      "inputs": [
        {
          "internalType": "uint256",
          "name": "tokenId",
          "type": "uint256"
        }
      ],
      "name": "tokenURI",
      "outputs": [
        {
          "internalType": "string",
          "name": "",
          "type": "string"
        }
      ],
      "stateMutability": "view",
      "type": "function"
    },
    {
      "inputs": [
        {
          "internalType": "address",
          "name": "from",
          "type": "address"
        },
        {
          "internalType": "address",
          "name": "to",
          "type": "address"
        },
        {
          "internalType": "uint256",
          "name": "tokenId",
          "type": "uint256"
        }
      ],
      "name": "transferFrom",
      "outputs": [],
      "stateMutability": "nonpayable",
      "type": "function"
    },
    {
      "inputs": [
        {
          "internalType": "address",
          "name": "_to",
          "type": "address"
        },
        {
          "internalType": "uint256",
          "name": "royaltyFee",
          "type": "uint256"
        }
      ],
      "name": "mint",
      "outputs": [],
      "stateMutability": "nonpayable",
      "type": "function"
    },
    {
      "inputs": [
        {
          "internalType": "uint256",
          "name": "tokenId",
          "type": "uint256"
        },
        {
          "internalType": "uint256",
          "name": "salePrice",
          "type": "uint256"
        }
      ],
      "name": "royaltyInfo",
      "outputs": [
        {
          "internalType": "address",
          "name": "receiver",
          "type": "address"
        },
        {
          "internalType": "uint256",
          "name": "royaltyAmount",
          "type": "uint256"
        }
      ],
      "stateMutability": "view",
      "type": "function"
    },
    {
      "inputs": [
        {
          "internalType": "bytes4",
          "name": "interfaceId",
          "type": "bytes4"
        }
      ],
      "name": "supportsInterface",
      "outputs": [
        {
          "internalType": "bool",
          "name": "",
          "type": "bool"
        }
      ],
      "stateMutability": "view",
      "type": "function"
    }
  ],
  "bytecode": "0x608060405260006006553480156200001657600080fd5b50604051620018c8380380620018c8833981016040819052620000399162000130565b8181600062000049838262000229565b50600162000058828262000229565b5050505050620002f5565b634e487b7160e01b600052604160045260246000fd5b600082601f8301126200008b57600080fd5b81516001600160401b0380821115620000a857620000a862000063565b604051601f8301601f19908116603f01168101908282118183101715620000d357620000d362000063565b81604052838152602092508683858801011115620000f057600080fd5b600091505b83821015620001145785820183015181830184015290820190620000f5565b83821115620001265760008385830101525b9695505050505050565b600080604083850312156200014457600080fd5b82516001600160401b03808211156200015c57600080fd5b6200016a8683870162000079565b935060208501519150808211156200018157600080fd5b50620001908582860162000079565b9150509250929050565b600181811c90821680620001af57607f821691505b602082108103620001d057634e487b7160e01b600052602260045260246000fd5b50919050565b601f8211156200022457600081815260208120601f850160051c81016020861015620001ff5750805b601f850160051c820191505b8181101562000220578281556001016200020b565b5050505b505050565b81516001600160401b0381111562000245576200024562000063565b6200025d816200025684546200019a565b84620001d6565b602080601f8311600181146200029557600084156200027c5750858301515b600019600386901b1c1916600185901b17855562000220565b600085815260208120601f198616915b82811015620002c657888601518255948401946001909101908401620002a5565b5085821015620002e55787850151600019600388901b60f8161c191681555b5050505050600190811b01905550565b6115c380620003056000396000f3fe608060405234801561001057600080fd5b506004361061010b5760003560e01c806342842e0e116100a257806395d89b411161007157806395d89b411461024f578063a22cb46514610257578063b88d4fde1461026a578063c87b56dd1461027d578063e985e9c51461029057600080fd5b806342842e0e146101ff5780636352211e1461021257806370a0823114610225578063771282f61461024657600080fd5b806323b872dd116100de57806323b872dd1461018d5780632a55205a146101a05780632e0f2625146101d257806340c10f19146101ec57600080fd5b806301ffc9a71461011057806306fdde0314610138578063081812fc1461014d578063095ea7b314610178575b600080fd5b61012361011e366004610fa5565b6102a3565b60405190151581526020015b60405180910390f35b6101406102ce565b60405161012f919061101a565b61016061015b36600461102d565b610360565b6040516001600160a01b03909116815260200161012f565b61018b610186366004611062565b610387565b005b61018b61019b36600461108c565b6104a1565b6101b36101ae3660046110c8565b6104d2565b604080516001600160a01b03909316835260208301919091520161012f565b6101da600281565b60405160ff909116815260200161012f565b61018b6101fa366004611062565b610598565b61018b61020d36600461108c565b610636565b61016061022036600461102d565b610651565b6102386102333660046110ea565b6106b1565b60405190815260200161012f565b61023860065481565b610140610737565b61018b610265366004611105565b610746565b61018b610278366004611157565b610755565b61014061028b36600461102d565b61078d565b61012361029e366004611233565b610801565b60006001600160e01b0319821663152a902d60e11b14806102c857506102c88261082f565b92915050565b6060600080546102dd90611266565b80601f016020809104026020016040519081016040528092919081815260200182805461030990611266565b80156103565780601f1061032b57610100808354040283529160200191610356565b820191906000526020600020905b81548152906001019060200180831161033957829003601f168201915b5050505050905090565b600061036b8261087f565b506000908152600460205260409020546001600160a01b031690565b600061039282610651565b9050806001600160a01b0316836001600160a01b0316036104045760405162461bcd60e51b815260206004820152602160248201527f4552433732313a20617070726f76616c20746f2063757272656e74206f776e656044820152603960f91b60648201526084015b60405180910390fd5b336001600160a01b038216148061042057506104208133610801565b6104925760405162461bcd60e51b815260206004820152603e60248201527f4552433732313a20617070726f76652063616c6c6572206973206e6f7420746f60448201527f6b656e206f776e6572206e6f7220617070726f76656420666f7220616c6c000060648201526084016103fb565b61049c83836108e1565b505050565b6104ab338261094f565b6104c75760405162461bcd60e51b81526004016103fb906112a0565b61049c8383836109ae565b60008281526002602052604081205481906001600160a01b0316158061050d57506000848152600760205260409020546001600160a01b0316155b806105275750600084815260076020526040902060010154155b1561053757506000905080610591565b6000848152600760205260409020546001600160a01b031661055b6002600a6113e8565b6105669060646113f7565b60008681526007602052604090206001015461058290866113f7565b61058c919061142c565b915091505b9250929050565b6105b08260065460016105ab9190611440565b610b4a565b6040518060400160405280336001600160a01b03168152602001828152506007600060065460016105e19190611440565b81526020808201929092526040016000908120835181546001600160a01b0319166001600160a01b0390911617815592909101516001928301556006805490919061062d908490611440565b90915550505050565b61049c83838360405180602001604052806000815250610755565b6000818152600260205260408120546001600160a01b0316806102c85760405162461bcd60e51b8152602060048201526018602482015277115490cdcc8c4e881a5b9d985b1a59081d1bdad95b88125160421b60448201526064016103fb565b60006001600160a01b03821661071b5760405162461bcd60e51b815260206004820152602960248201527f4552433732313a2061646472657373207a65726f206973206e6f7420612076616044820152683634b21037bbb732b960b91b60648201526084016103fb565b506001600160a01b031660009081526003602052604090205490565b6060600180546102dd90611266565b610751338383610c8c565b5050565b61075f338361094f565b61077b5760405162461bcd60e51b81526004016103fb906112a0565b61078784848484610d5a565b50505050565b60606107988261087f565b60006107af60408051602081019091526000815290565b905060008151116107cf57604051806020016040528060008152506107fa565b806107d984610d8d565b6040516020016107ea929190611458565b6040516020818303038152906040525b9392505050565b6001600160a01b03918216600090815260056020908152604080832093909416825291909152205460ff1690565b60006001600160e01b031982166380ac58cd60e01b148061086057506001600160e01b03198216635b5e139f60e01b145b806102c857506301ffc9a760e01b6001600160e01b03198316146102c8565b6000818152600260205260409020546001600160a01b03166108de5760405162461bcd60e51b8152602060048201526018602482015277115490cdcc8c4e881a5b9d985b1a59081d1bdad95b88125160421b60448201526064016103fb565b50565b600081815260046020526040902080546001600160a01b0319166001600160a01b038416908117909155819061091682610651565b6001600160a01b03167f8c5be1e5ebec7d5bd14f71427d1e84f3dd0314c0f7b2291e5b200ac8c7c3b92560405160405180910390a45050565b60008061095b83610651565b9050806001600160a01b0316846001600160a01b0316148061098257506109828185610801565b806109a65750836001600160a01b031661099b84610360565b6001600160a01b0316145b949350505050565b826001600160a01b03166109c182610651565b6001600160a01b031614610a255760405162461bcd60e51b815260206004820152602560248201527f4552433732313a207472616e736665722066726f6d20696e636f72726563742060448201526437bbb732b960d91b60648201526084016103fb565b6001600160a01b038216610a875760405162461bcd60e51b8152602060048201526024808201527f4552433732313a207472616e7366657220746f20746865207a65726f206164646044820152637265737360e01b60648201526084016103fb565b610a926000826108e1565b6001600160a01b0383166000908152600360205260408120805460019290610abb908490611487565b90915550506001600160a01b0382166000908152600360205260408120805460019290610ae9908490611440565b909155505060008181526002602052604080822080546001600160a01b0319166001600160a01b0386811691821790925591518493918716917fddf252ad1be2c89b69c2b068fc378daa952ba7f163c4a11628f55a4df523b3ef91a4505050565b6001600160a01b038216610ba05760405162461bcd60e51b815260206004820181905260248201527f4552433732313a206d696e7420746f20746865207a65726f206164647265737360448201526064016103fb565b6000818152600260205260409020546001600160a01b031615610c055760405162461bcd60e51b815260206004820152601c60248201527f4552433732313a20746f6b656e20616c7265616479206d696e7465640000000060448201526064016103fb565b6001600160a01b0382166000908152600360205260408120805460019290610c2e908490611440565b909155505060008181526002602052604080822080546001600160a01b0319166001600160a01b03861690811790915590518392907fddf252ad1be2c89b69c2b068fc378daa952ba7f163c4a11628f55a4df523b3ef908290a45050565b816001600160a01b0316836001600160a01b031603610ced5760405162461bcd60e51b815260206004820152601960248201527f4552433732313a20617070726f766520746f2063616c6c65720000000000000060448201526064016103fb565b6001600160a01b03838116600081815260056020908152604080832094871680845294825291829020805460ff191686151590811790915591519182527f17307eab39ab6107e8899845ad3d59bd9653f200f220920489ca2b5937696c31910160405180910390a3505050565b610d658484846109ae565b610d7184848484610e8e565b6107875760405162461bcd60e51b81526004016103fb9061149e565b606081600003610db45750506040805180820190915260018152600360fc1b602082015290565b8160005b8115610dde5780610dc8816114f0565b9150610dd79050600a8361142c565b9150610db8565b60008167ffffffffffffffff811115610df957610df9611141565b6040519080825280601f01601f191660200182016040528015610e23576020820181803683370190505b5090505b84156109a657610e38600183611487565b9150610e45600a86611509565b610e50906030611440565b60f81b818381518110610e6557610e6561151d565b60200101906001600160f81b031916908160001a905350610e87600a8661142c565b9450610e27565b60006001600160a01b0384163b15610f8457604051630a85bd0160e11b81526001600160a01b0385169063150b7a0290610ed2903390899088908890600401611533565b6020604051808303816000875af1925050508015610f0d575060408051601f3d908101601f19168201909252610f0a91810190611570565b60015b610f6a573d808015610f3b576040519150601f19603f3d011682016040523d82523d6000602084013e610f40565b606091505b508051600003610f625760405162461bcd60e51b81526004016103fb9061149e565b805181602001fd5b6001600160e01b031916630a85bd0160e11b1490506109a6565b506001949350505050565b6001600160e01b0319811681146108de57600080fd5b600060208284031215610fb757600080fd5b81356107fa81610f8f565b60005b83811015610fdd578181015183820152602001610fc5565b838111156107875750506000910152565b60008151808452611006816020860160208601610fc2565b601f01601f19169290920160200192915050565b6020815260006107fa6020830184610fee565b60006020828403121561103f57600080fd5b5035919050565b80356001600160a01b038116811461105d57600080fd5b919050565b6000806040838503121561107557600080fd5b61107e83611046565b946020939093013593505050565b6000806000606084860312156110a157600080fd5b6110aa84611046565b92506110b860208501611046565b9150604084013590509250925092565b600080604083850312156110db57600080fd5b50508035926020909101359150565b6000602082840312156110fc57600080fd5b6107fa82611046565b6000806040838503121561111857600080fd5b61112183611046565b91506020830135801515811461113657600080fd5b809150509250929050565b634e487b7160e01b600052604160045260246000fd5b6000806000806080858703121561116d57600080fd5b61117685611046565b935061118460208601611046565b925060408501359150606085013567ffffffffffffffff808211156111a857600080fd5b818701915087601f8301126111bc57600080fd5b8135818111156111ce576111ce611141565b604051601f8201601f19908116603f011681019083821181831017156111f6576111f6611141565b816040528281528a602084870101111561120f57600080fd5b82602086016020830137600060208483010152809550505050505092959194509250565b6000806040838503121561124657600080fd5b61124f83611046565b915061125d60208401611046565b90509250929050565b600181811c9082168061127a57607f821691505b60208210810361129a57634e487b7160e01b600052602260045260246000fd5b50919050565b6020808252602e908201527f4552433732313a2063616c6c6572206973206e6f7420746f6b656e206f776e6560408201526d1c881b9bdc88185c1c1c9bdd995960921b606082015260800190565b634e487b7160e01b600052601160045260246000fd5b600181815b8085111561133f578160001904821115611325576113256112ee565b8085161561133257918102915b93841c9390800290611309565b509250929050565b600082611356575060016102c8565b81611363575060006102c8565b816001811461137957600281146113835761139f565b60019150506102c8565b60ff841115611394576113946112ee565b50506001821b6102c8565b5060208310610133831016604e8410600b84101617156113c2575081810a6102c8565b6113cc8383611304565b80600019048211156113e0576113e06112ee565b029392505050565b60006107fa60ff841683611347565b6000816000190483118215151615611411576114116112ee565b500290565b634e487b7160e01b600052601260045260246000fd5b60008261143b5761143b611416565b500490565b60008219821115611453576114536112ee565b500190565b6000835161146a818460208801610fc2565b83519083019061147e818360208801610fc2565b01949350505050565b600082821015611499576114996112ee565b500390565b60208082526032908201527f4552433732313a207472616e7366657220746f206e6f6e20455243373231526560408201527131b2b4bb32b91034b6b83632b6b2b73a32b960711b606082015260800190565b600060018201611502576115026112ee565b5060010190565b60008261151857611518611416565b500690565b634e487b7160e01b600052603260045260246000fd5b6001600160a01b038581168252841660208201526040810183905260806060820181905260009061156690830184610fee565b9695505050505050565b60006020828403121561158257600080fd5b81516107fa81610f8f56fea2646970667358221220b73d48722d08b8c8d9550d49d525fdc787d2ef4292371b3347c0bcf62fe3345064736f6c634300080f0033",
  "immutableReferences": {},
  "source": "// SPDX-License-Identifier: MIT\npragma solidity >=0.8.15 <0.9.0;\n\nimport \"@openzeppelin/contracts/token/ERC721/ERC721.sol\";\nimport \"@openzeppelin/contracts/interfaces/IERC2981.sol\";\n\n/// @title Dummy ERC-721 smart contract with support for ERC-2981 used for testing purposes.\ncontract ERC721RoyaltiesMock is ERC721, IERC2981 {\n    uint8 public constant DECIMALS = 2;\n    uint256 public currentSupply = 0;\n\n    struct Royalties {\n        address creator;\n        uint256 fee;\n    }\n\n    mapping(uint256 => Royalties) private _royalties;\n\n    constructor(string memory _name, string memory _symbol) ERC721(_name, _symbol) {}\n\n    function mint(address _to, uint256 royaltyFee) public {\n        _mint(_to, currentSupply + 1);\n        _royalties[currentSupply + 1] = Royalties({\n            creator: msg.sender, \n            fee: royaltyFee\n        });\n        currentSupply += 1;\n    }\n\n    function royaltyInfo(uint256 tokenId, uint256 salePrice)\n        external\n        view\n        returns (address receiver, uint256 royaltyAmount)\n    {\n        if (_exists(tokenId) == false || _royalties[tokenId].creator == address(0x0) || _royalties[tokenId].fee == 0) {\n            // Zero out everything\n            return (address(0x0), 0);\n        } else {\n            // Return the address of the creator and the royalty proceeds\n            return (_royalties[tokenId].creator, (salePrice * _royalties[tokenId].fee) / (100 * 10**DECIMALS));\n        }\n    }\n\n    function supportsInterface(bytes4 interfaceId)\n        public\n        view\n        virtual\n        override(ERC721, IERC165)\n        returns (bool)\n    {\n        return\n            interfaceId == type(IERC2981).interfaceId ||\n            super.supportsInterface(interfaceId);\n    }\n}",
  "sourcePath": "/Volumes/Storage/Workspace/Projects/Autentica/smart-contracts/contracts/mock/ERC721RoyaltiesMock.sol",
  "compiler": {
    "name": "solc",
    "version": "0.8.15+commit.e14f2714.Emscripten.clang"
  },
  "schemaVersion": "3.4.9",
  "updatedAt": "2022-09-01T11:50:54.141Z",
  "devdoc": {
    "kind": "dev",
    "methods": {
      "approve(address,uint256)": {
        "details": "See {IERC721-approve}."
      },
      "balanceOf(address)": {
        "details": "See {IERC721-balanceOf}."
      },
      "getApproved(uint256)": {
        "details": "See {IERC721-getApproved}."
      },
      "isApprovedForAll(address,address)": {
        "details": "See {IERC721-isApprovedForAll}."
      },
      "name()": {
        "details": "See {IERC721Metadata-name}."
      },
      "ownerOf(uint256)": {
        "details": "See {IERC721-ownerOf}."
      },
      "royaltyInfo(uint256,uint256)": {
        "details": "Returns how much royalty is owed and to whom, based on a sale price that may be denominated in any unit of exchange. The royalty amount is denominated and should be paid in that same unit of exchange."
      },
      "safeTransferFrom(address,address,uint256)": {
        "details": "See {IERC721-safeTransferFrom}."
      },
      "safeTransferFrom(address,address,uint256,bytes)": {
        "details": "See {IERC721-safeTransferFrom}."
      },
      "setApprovalForAll(address,bool)": {
        "details": "See {IERC721-setApprovalForAll}."
      },
      "symbol()": {
        "details": "See {IERC721Metadata-symbol}."
      },
      "tokenURI(uint256)": {
        "details": "See {IERC721Metadata-tokenURI}."
      },
      "transferFrom(address,address,uint256)": {
        "details": "See {IERC721-transferFrom}."
      }
    },
    "title": "Dummy ERC-721 smart contract with support for ERC-2981 used for testing purposes.",
    "version": 1
  },
  "userdoc": {
    "kind": "user",
    "methods": {},
    "version": 1
  }
}