{
  "contractName": "NFTMarketplace",
  "abi": [
    {
      "anonymous": false,
      "inputs": [
        {
          "indexed": true,
          "internalType": "address",
          "name": "tokenAddress",
          "type": "address"
        }
      ],
      "name": "AllowedTokenAdded",
      "type": "event"
    },
    {
      "anonymous": false,
      "inputs": [
        {
          "indexed": true,
          "internalType": "address",
          "name": "tokenAddress",
          "type": "address"
        }
      ],
      "name": "AllowedTokenRemoved",
      "type": "event"
    },
    {
      "anonymous": false,
      "inputs": [
        {
          "indexed": true,
          "internalType": "address",
          "name": "oldAddress",
          "type": "address"
        },
        {
          "indexed": true,
          "internalType": "address",
          "name": "newAddress",
          "type": "address"
        }
      ],
      "name": "ChangedAutentica",
      "type": "event"
    },
    {
      "anonymous": false,
      "inputs": [
        {
          "indexed": false,
          "internalType": "address",
          "name": "account",
          "type": "address"
        }
      ],
      "name": "Paused",
      "type": "event"
    },
    {
      "anonymous": false,
      "inputs": [
        {
          "indexed": true,
          "internalType": "bytes32",
          "name": "role",
          "type": "bytes32"
        },
        {
          "indexed": true,
          "internalType": "bytes32",
          "name": "previousAdminRole",
          "type": "bytes32"
        },
        {
          "indexed": true,
          "internalType": "bytes32",
          "name": "newAdminRole",
          "type": "bytes32"
        }
      ],
      "name": "RoleAdminChanged",
      "type": "event"
    },
    {
      "anonymous": false,
      "inputs": [
        {
          "indexed": true,
          "internalType": "bytes32",
          "name": "role",
          "type": "bytes32"
        },
        {
          "indexed": true,
          "internalType": "address",
          "name": "account",
          "type": "address"
        },
        {
          "indexed": true,
          "internalType": "address",
          "name": "sender",
          "type": "address"
        }
      ],
      "name": "RoleGranted",
      "type": "event"
    },
    {
      "anonymous": false,
      "inputs": [
        {
          "indexed": true,
          "internalType": "bytes32",
          "name": "role",
          "type": "bytes32"
        },
        {
          "indexed": true,
          "internalType": "address",
          "name": "account",
          "type": "address"
        },
        {
          "indexed": true,
          "internalType": "address",
          "name": "sender",
          "type": "address"
        }
      ],
      "name": "RoleRevoked",
      "type": "event"
    },
    {
      "anonymous": false,
      "inputs": [
        {
          "indexed": true,
          "internalType": "address",
          "name": "collection",
          "type": "address"
        },
        {
          "indexed": true,
          "internalType": "uint256",
          "name": "tokenId",
          "type": "uint256"
        },
        {
          "indexed": true,
          "internalType": "address",
          "name": "seller",
          "type": "address"
        },
        {
          "indexed": false,
          "internalType": "address",
          "name": "buyer",
          "type": "address"
        },
        {
          "indexed": false,
          "internalType": "uint256",
          "name": "price",
          "type": "uint256"
        },
        {
          "indexed": false,
          "internalType": "uint256",
          "name": "creatorProceeds",
          "type": "uint256"
        },
        {
          "indexed": false,
          "internalType": "uint256",
          "name": "investorProceeds",
          "type": "uint256"
        }
      ],
      "name": "TradedForCoins",
      "type": "event"
    },
    {
      "anonymous": false,
      "inputs": [
        {
          "indexed": true,
          "internalType": "address",
          "name": "collection",
          "type": "address"
        },
        {
          "indexed": true,
          "internalType": "uint256",
          "name": "tokenId",
          "type": "uint256"
        },
        {
          "indexed": true,
          "internalType": "address",
          "name": "seller",
          "type": "address"
        },
        {
          "indexed": false,
          "internalType": "address",
          "name": "buyer",
          "type": "address"
        },
        {
          "indexed": false,
          "internalType": "address",
          "name": "token",
          "type": "address"
        },
        {
          "indexed": false,
          "internalType": "uint256",
          "name": "price",
          "type": "uint256"
        },
        {
          "indexed": false,
          "internalType": "uint256",
          "name": "creatorProceeds",
          "type": "uint256"
        },
        {
          "indexed": false,
          "internalType": "uint256",
          "name": "investorProceeds",
          "type": "uint256"
        }
      ],
      "name": "TradedForTokens",
      "type": "event"
    },
    {
      "anonymous": false,
      "inputs": [
        {
          "indexed": false,
          "internalType": "address",
          "name": "account",
          "type": "address"
        }
      ],
      "name": "Unpaused",
      "type": "event"
    },
    {
      "inputs": [],
      "name": "DECIMALS",
      "outputs": [
        {
          "internalType": "uint8",
          "name": "",
          "type": "uint8"
        }
      ],
      "stateMutability": "view",
      "type": "function",
      "constant": true
    },
    {
      "inputs": [],
      "name": "DEFAULT_ADMIN_ROLE",
      "outputs": [
        {
          "internalType": "bytes32",
          "name": "",
          "type": "bytes32"
        }
      ],
      "stateMutability": "view",
      "type": "function",
      "constant": true
    },
    {
      "inputs": [],
      "name": "OPERATOR_ROLE",
      "outputs": [
        {
          "internalType": "bytes32",
          "name": "",
          "type": "bytes32"
        }
      ],
      "stateMutability": "view",
      "type": "function",
      "constant": true
    },
    {
      "inputs": [
        {
          "internalType": "bytes32",
          "name": "role",
          "type": "bytes32"
        }
      ],
      "name": "getRoleAdmin",
      "outputs": [
        {
          "internalType": "bytes32",
          "name": "",
          "type": "bytes32"
        }
      ],
      "stateMutability": "view",
      "type": "function",
      "constant": true
    },
    {
      "inputs": [
        {
          "internalType": "bytes32",
          "name": "role",
          "type": "bytes32"
        },
        {
          "internalType": "address",
          "name": "account",
          "type": "address"
        }
      ],
      "name": "grantRole",
      "outputs": [],
      "stateMutability": "nonpayable",
      "type": "function"
    },
    {
      "inputs": [
        {
          "internalType": "bytes32",
          "name": "role",
          "type": "bytes32"
        },
        {
          "internalType": "address",
          "name": "account",
          "type": "address"
        }
      ],
      "name": "hasRole",
      "outputs": [
        {
          "internalType": "bool",
          "name": "",
          "type": "bool"
        }
      ],
      "stateMutability": "view",
      "type": "function",
      "constant": true
    },
    {
      "inputs": [],
      "name": "paused",
      "outputs": [
        {
          "internalType": "bool",
          "name": "",
          "type": "bool"
        }
      ],
      "stateMutability": "view",
      "type": "function",
      "constant": true
    },
    {
      "inputs": [
        {
          "internalType": "bytes32",
          "name": "role",
          "type": "bytes32"
        },
        {
          "internalType": "address",
          "name": "account",
          "type": "address"
        }
      ],
      "name": "renounceRole",
      "outputs": [],
      "stateMutability": "nonpayable",
      "type": "function"
    },
    {
      "inputs": [
        {
          "internalType": "bytes32",
          "name": "role",
          "type": "bytes32"
        },
        {
          "internalType": "address",
          "name": "account",
          "type": "address"
        }
      ],
      "name": "revokeRole",
      "outputs": [],
      "stateMutability": "nonpayable",
      "type": "function"
    },
    {
      "inputs": [
        {
          "internalType": "bytes4",
          "name": "interfaceId",
          "type": "bytes4"
        }
      ],
      "name": "supportsInterface",
      "outputs": [
        {
          "internalType": "bool",
          "name": "",
          "type": "bool"
        }
      ],
      "stateMutability": "view",
      "type": "function",
      "constant": true
    },
    {
      "inputs": [
        {
          "internalType": "address",
          "name": "wallet",
          "type": "address"
        },
        {
          "internalType": "address[]",
          "name": "allowedTokens",
          "type": "address[]"
        }
      ],
      "name": "initialize",
      "outputs": [],
      "stateMutability": "nonpayable",
      "type": "function"
    },
    {
      "inputs": [],
      "name": "autentica",
      "outputs": [
        {
          "internalType": "address",
          "name": "",
          "type": "address"
        }
      ],
      "stateMutability": "view",
      "type": "function",
      "constant": true
    },
    {
      "inputs": [
        {
          "internalType": "address",
          "name": "wallet",
          "type": "address"
        }
      ],
      "name": "setAutentica",
      "outputs": [
        {
          "internalType": "address",
          "name": "",
          "type": "address"
        }
      ],
      "stateMutability": "nonpayable",
      "type": "function"
    },
    {
      "inputs": [],
      "name": "decimals",
      "outputs": [
        {
          "internalType": "uint8",
          "name": "",
          "type": "uint8"
        }
      ],
      "stateMutability": "pure",
      "type": "function",
      "constant": true
    },
    {
      "inputs": [],
      "name": "numberOfAllowedTokens",
      "outputs": [
        {
          "internalType": "uint256",
          "name": "",
          "type": "uint256"
        }
      ],
      "stateMutability": "view",
      "type": "function",
      "constant": true
    },
    {
      "inputs": [
        {
          "internalType": "uint256",
          "name": "index",
          "type": "uint256"
        }
      ],
      "name": "allowedTokenAtIndex",
      "outputs": [
        {
          "internalType": "address",
          "name": "",
          "type": "address"
        }
      ],
      "stateMutability": "view",
      "type": "function",
      "constant": true
    },
    {
      "inputs": [
        {
          "internalType": "address",
          "name": "tokenAddress",
          "type": "address"
        }
      ],
      "name": "isTokenAllowed",
      "outputs": [
        {
          "internalType": "bool",
          "name": "",
          "type": "bool"
        }
      ],
      "stateMutability": "view",
      "type": "function",
      "constant": true
    },
    {
      "inputs": [
        {
          "internalType": "address",
          "name": "tokenAddress",
          "type": "address"
        }
      ],
      "name": "addAllowedToken",
      "outputs": [],
      "stateMutability": "nonpayable",
      "type": "function"
    },
    {
      "inputs": [
        {
          "internalType": "uint256",
          "name": "index",
          "type": "uint256"
        }
      ],
      "name": "removeAllowedTokenAtIndex",
      "outputs": [],
      "stateMutability": "nonpayable",
      "type": "function"
    },
    {
      "inputs": [
        {
          "internalType": "address",
          "name": "collection",
          "type": "address"
        },
        {
          "internalType": "uint256",
          "name": "tokenId",
          "type": "uint256"
        },
        {
          "internalType": "uint256",
          "name": "price",
          "type": "uint256"
        },
        {
          "internalType": "address",
          "name": "buyer",
          "type": "address"
        },
        {
          "internalType": "uint256",
          "name": "marketplaceFee",
          "type": "uint256"
        },
        {
          "components": [
            {
              "internalType": "uint8",
              "name": "v",
              "type": "uint8"
            },
            {
              "internalType": "bytes32",
              "name": "r",
              "type": "bytes32"
            },
            {
              "internalType": "bytes32",
              "name": "s",
              "type": "bytes32"
            }
          ],
          "internalType": "struct NFTMarketplace.Signature",
          "name": "signature",
          "type": "tuple"
        }
      ],
      "name": "tradeForCoins",
      "outputs": [],
      "stateMutability": "payable",
      "type": "function",
      "payable": true
    },
    {
      "inputs": [
        {
          "internalType": "address",
          "name": "collection",
          "type": "address"
        },
        {
          "internalType": "uint256",
          "name": "tokenId",
          "type": "uint256"
        },
        {
          "internalType": "uint256",
          "name": "price",
          "type": "uint256"
        },
        {
          "internalType": "address",
          "name": "token",
          "type": "address"
        },
        {
          "internalType": "address",
          "name": "buyer",
          "type": "address"
        },
        {
          "internalType": "uint256",
          "name": "marketplaceFee",
          "type": "uint256"
        },
        {
          "components": [
            {
              "internalType": "uint8",
              "name": "v",
              "type": "uint8"
            },
            {
              "internalType": "bytes32",
              "name": "r",
              "type": "bytes32"
            },
            {
              "internalType": "bytes32",
              "name": "s",
              "type": "bytes32"
            }
          ],
          "internalType": "struct NFTMarketplace.Signature",
          "name": "signature",
          "type": "tuple"
        }
      ],
      "name": "tradeForTokens",
      "outputs": [],
      "stateMutability": "nonpayable",
      "type": "function"
    },
    {
      "inputs": [
        {
          "internalType": "address",
          "name": "collection",
          "type": "address"
        },
        {
          "internalType": "uint256",
          "name": "tokenId",
          "type": "uint256"
        },
        {
          "internalType": "uint256",
          "name": "price",
          "type": "uint256"
        },
        {
          "internalType": "address",
          "name": "currency",
          "type": "address"
        },
        {
          "internalType": "address",
          "name": "buyer",
          "type": "address"
        },
        {
          "internalType": "uint256",
          "name": "marketplaceFee",
          "type": "uint256"
        },
        {
          "components": [
            {
              "internalType": "uint8",
              "name": "v",
              "type": "uint8"
            },
            {
              "internalType": "bytes32",
              "name": "r",
              "type": "bytes32"
            },
            {
              "internalType": "bytes32",
              "name": "s",
              "type": "bytes32"
            }
          ],
          "internalType": "struct NFTMarketplace.Signature",
          "name": "signature",
          "type": "tuple"
        }
      ],
      "name": "canPerformTrade",
      "outputs": [
        {
          "internalType": "bool",
          "name": "",
          "type": "bool"
        }
      ],
      "stateMutability": "view",
      "type": "function",
      "constant": true
    },
    {
      "inputs": [
        {
          "internalType": "address",
          "name": "collection",
          "type": "address"
        },
        {
          "internalType": "uint256",
          "name": "tokenId",
          "type": "uint256"
        }
      ],
      "name": "getRoyaltyFee",
      "outputs": [
        {
          "internalType": "uint256",
          "name": "",
          "type": "uint256"
        }
      ],
      "stateMutability": "view",
      "type": "function",
      "constant": true
    },
    {
      "inputs": [
        {
          "internalType": "address",
          "name": "collection",
          "type": "address"
        },
        {
          "internalType": "uint256",
          "name": "tokenId",
          "type": "uint256"
        }
      ],
      "name": "getInvestorFee",
      "outputs": [
        {
          "internalType": "uint256",
          "name": "",
          "type": "uint256"
        }
      ],
      "stateMutability": "view",
      "type": "function",
      "constant": true
    },
    {
      "inputs": [
        {
          "internalType": "contract IERC721",
          "name": "collection",
          "type": "address"
        },
        {
          "internalType": "uint256",
          "name": "tokenId",
          "type": "uint256"
        },
        {
          "internalType": "address",
          "name": "tokenOwner",
          "type": "address"
        }
      ],
      "name": "isMarketplaceApproved",
      "outputs": [
        {
          "internalType": "bool",
          "name": "",
          "type": "bool"
        }
      ],
      "stateMutability": "view",
      "type": "function",
      "constant": true
    },
    {
      "inputs": [],
      "name": "pause",
      "outputs": [],
      "stateMutability": "nonpayable",
      "type": "function"
    },
    {
      "inputs": [],
      "name": "unpause",
      "outputs": [],
      "stateMutability": "nonpayable",
      "type": "function"
    }
  ],
  "bytecode": "0x608060405234801561001057600080fd5b506150a1806100206000396000f3fe60806040526004361061019c5760003560e01c80635c975abb116100ec578063946d92041161008a578063d0f4adca11610064578063d0f4adca146105df578063d547741f14610608578063f5b541a614610631578063f9eaee0d1461065c5761019c565b8063946d920414610560578063a217fddf14610589578063b4c43869146105b45761019c565b806376ab4570116100c657806376ab4570146104b35780638456cb59146104f0578063862d32e21461050757806391d14854146105235761019c565b80635c975abb146104205780636aaa90571461044b5780636bc79a67146104765761019c565b806336568abe116101595780633f4ba83a116101335780633f4ba83a1461037a5780634178617f1461039157806342f7260e146103ba57806359d7a486146103e35761019c565b806336568abe146102d7578063369e4c2c146103005780633ab104091461033d5761019c565b806301ffc9a7146101a1578063243f5c87146101de578063248a9ca31461021b5780632e0f2625146102585780632f2ff15d14610283578063313ce567146102ac575b600080fd5b3480156101ad57600080fd5b506101c860048036038101906101c391906132b1565b610699565b6040516101d591906132f9565b60405180910390f35b3480156101ea57600080fd5b50610205600480360381019061020091906133cc565b610713565b60405161021291906132f9565b60405180910390f35b34801561022757600080fd5b50610242600480360381019061023d91906134a5565b61080c565b60405161024f91906134e1565b60405180910390f35b34801561026457600080fd5b5061026d61082c565b60405161027a9190613518565b60405180910390f35b34801561028f57600080fd5b506102aa60048036038101906102a59190613533565b610831565b005b3480156102b857600080fd5b506102c161085a565b6040516102ce9190613518565b60405180910390f35b3480156102e357600080fd5b506102fe60048036038101906102f99190613533565b610863565b005b34801561030c57600080fd5b50610327600480360381019061032291906135b1565b6108e6565b60405161033491906132f9565b60405180910390f35b34801561034957600080fd5b50610364600480360381019061035f9190613604565b610a1c565b6040516103719190613653565b60405180910390f35b34801561038657600080fd5b5061038f610ae2565b005b34801561039d57600080fd5b506103b860048036038101906103b3919061366e565b610b3f565b005b3480156103c657600080fd5b506103e160048036038101906103dc91906133cc565b610cf4565b005b3480156103ef57600080fd5b5061040a6004803603810190610405919061366e565b611192565b60405161041791906136aa565b60405180910390f35b34801561042c57600080fd5b506104356112f6565b60405161044291906132f9565b60405180910390f35b34801561045757600080fd5b5061046061130d565b60405161046d91906136aa565b60405180910390f35b34801561048257600080fd5b5061049d600480360381019061049891906136c5565b611337565b6040516104aa91906136aa565b60405180910390f35b3480156104bf57600080fd5b506104da60048036038101906104d59190613604565b6113c8565b6040516104e79190613653565b60405180910390f35b3480156104fc57600080fd5b5061050561155d565b005b610521600480360381019061051c91906136f2565b6115ba565b005b34801561052f57600080fd5b5061054a60048036038101906105459190613533565b611874565b60405161055791906132f9565b60405180910390f35b34801561056c57600080fd5b50610587600480360381019061058291906138d9565b6118df565b005b34801561059557600080fd5b5061059e611ab6565b6040516105ab91906134e1565b60405180910390f35b3480156105c057600080fd5b506105c9611abd565b6040516105d69190613653565b60405180910390f35b3480156105eb57600080fd5b50610606600480360381019061060191906136c5565b611aca565b005b34801561061457600080fd5b5061062f600480360381019061062a9190613533565b611d42565b005b34801561063d57600080fd5b50610646611d6b565b60405161065391906134e1565b60405180910390f35b34801561066857600080fd5b50610683600480360381019061067e919061366e565b611d8f565b60405161069091906132f9565b60405180910390f35b60007f7965db0b000000000000000000000000000000000000000000000000000000007bffffffffffffffffffffffffffffffffffffffffffffffffffffffff1916827bffffffffffffffffffffffffffffffffffffffffffffffffffffffff1916148061070c575061070b82611e40565b5b9050919050565b600061071d6112f6565b1561075d576040517f08c379a0000000000000000000000000000000000000000000000000000000008152600401610754906139b8565b60405180910390fd5b61076688611eaa565b60006107728989611f16565b905061077f898983612295565b600061078b8a8a6113c8565b905060006107998b8b610a1c565b90506107a582876122e8565b6107bb8b8b85600001518a8d8d88888e8e612353565b6107fa576040517f08c379a00000000000000000000000000000000000000000000000000000000081526004016107f190613a4a565b60405180910390fd5b60019350505050979650505050505050565b600060656000838152602001908152602001600020600101549050919050565b600281565b61083a8261080c565b61084b81610846612474565b61247c565b6108558383612519565b505050565b60006002905090565b61086b612474565b73ffffffffffffffffffffffffffffffffffffffff168173ffffffffffffffffffffffffffffffffffffffff16146108d8576040517f08c379a00000000000000000000000000000000000000000000000000000000081526004016108cf90613adc565b60405180910390fd5b6108e282826125fa565b5050565b60003073ffffffffffffffffffffffffffffffffffffffff168473ffffffffffffffffffffffffffffffffffffffff1663081812fc856040518263ffffffff1660e01b81526004016109389190613653565b602060405180830381865afa158015610955573d6000803e3d6000fd5b505050506040513d601f19601f820116820180604052508101906109799190613b11565b73ffffffffffffffffffffffffffffffffffffffff161480610a1357508373ffffffffffffffffffffffffffffffffffffffff1663e985e9c583306040518363ffffffff1660e01b81526004016109d1929190613b3e565b602060405180830381865afa1580156109ee573d6000803e3d6000fd5b505050506040513d601f19601f82011682018060405250810190610a129190613b93565b5b90509392505050565b60008060009050610a4d847f4b763d0e000000000000000000000000000000000000000000000000000000006126dc565b15610ad857610ad5848573ffffffffffffffffffffffffffffffffffffffff1663f915765b866040518263ffffffff1660e01b8152600401610a8f9190613653565b602060405180830381865afa158015610aac573d6000803e3d6000fd5b505050506040513d601f19601f82011682018060405250810190610ad09190613bd5565b612701565b90505b8091505092915050565b610af66000801b610af1612474565b611874565b610b35576040517f08c379a0000000000000000000000000000000000000000000000000000000008152600401610b2c90613c74565b60405180910390fd5b610b3d6127a9565b565b610b536000801b610b4e612474565b611874565b610b92576040517f08c379a0000000000000000000000000000000000000000000000000000000008152600401610b8990613d06565b60405180910390fd5b600073ffffffffffffffffffffffffffffffffffffffff168173ffffffffffffffffffffffffffffffffffffffff161415610c02576040517f08c379a0000000000000000000000000000000000000000000000000000000008152600401610bf990613d98565b60405180910390fd5b610c0b81611d8f565b15610c4b576040517f08c379a0000000000000000000000000000000000000000000000000000000008152600401610c4290613e2a565b60405180910390fd5b60fc819080600181540180825580915050600190039060005260206000200160009091909190916101000a81548173ffffffffffffffffffffffffffffffffffffffff021916908373ffffffffffffffffffffffffffffffffffffffff1602179055508073ffffffffffffffffffffffffffffffffffffffff167ff849d00bc67e9e4bf072df9680646c59b8c5380160834c2e1d4896ce5ec81f7560405160405180910390a250565b60026097541415610d3a576040517f08c379a0000000000000000000000000000000000000000000000000000000008152600401610d3190613e96565b60405180910390fd5b6002609781905550610d4b84611d8f565b610d8a576040517f08c379a0000000000000000000000000000000000000000000000000000000008152600401610d8190613f28565b60405180910390fd5b610d9987878787878787610713565b506000610da68888611f16565b90506000610dc882610db88b8b6113c8565b610dc28c8c610a1c565b8761284b565b905060006040518060600160405280610de584600001518b612a52565b8152602001610df884602001518b612a52565b8152602001610e07878b612a52565b81525090506000610e188983612a9e565b90508773ffffffffffffffffffffffffffffffffffffffff166323b872dd888660000151846040518463ffffffff1660e01b8152600401610e5b93929190613f48565b6020604051808303816000875af1158015610e7a573d6000803e3d6000fd5b505050506040513d601f19601f82011682018060405250810190610e9e9190613b93565b50600082602001511115610f36578773ffffffffffffffffffffffffffffffffffffffff166323b872dd88866040015185602001516040518463ffffffff1660e01b8152600401610ef193929190613f48565b6020604051808303816000875af1158015610f10573d6000803e3d6000fd5b505050506040513d601f19601f82011682018060405250810190610f349190613b93565b505b600082600001511115610fcd578773ffffffffffffffffffffffffffffffffffffffff166323b872dd88866020015185600001516040518463ffffffff1660e01b8152600401610f8893929190613f48565b6020604051808303816000875af1158015610fa7573d6000803e3d6000fd5b505050506040513d601f19601f82011682018060405250810190610fcb9190613b93565b505b600082604001511115611082578773ffffffffffffffffffffffffffffffffffffffff166323b872dd8860fb60009054906101000a900473ffffffffffffffffffffffffffffffffffffffff1685604001516040518463ffffffff1660e01b815260040161103d93929190613f48565b6020604051808303816000875af115801561105c573d6000803e3d6000fd5b505050506040513d601f19601f820116820180604052508101906110809190613b93565b505b8a73ffffffffffffffffffffffffffffffffffffffff166342842e0e85600001516110ab612474565b8d6040518463ffffffff1660e01b81526004016110ca93929190613f48565b600060405180830381600087803b1580156110e457600080fd5b505af11580156110f8573d6000803e3d6000fd5b50505050836000015173ffffffffffffffffffffffffffffffffffffffff168a8c73ffffffffffffffffffffffffffffffffffffffff167fd2931a5510b70889f7184c1086b44af3927ab0a2edc9f2efd28e158973e1c274611158612474565b8c8e88600001518960200151604051611175959493929190613f7f565b60405180910390a450505050600160978190555050505050505050565b60006111a86000801b6111a3612474565b611874565b6111e7576040517f08c379a00000000000000000000000000000000000000000000000000000000081526004016111de90614044565b60405180910390fd5b600060fb60009054906101000a900473ffffffffffffffffffffffffffffffffffffffff1690508260fb60006101000a81548173ffffffffffffffffffffffffffffffffffffffff021916908373ffffffffffffffffffffffffffffffffffffffff16021790555060fb60009054906101000a900473ffffffffffffffffffffffffffffffffffffffff1673ffffffffffffffffffffffffffffffffffffffff168173ffffffffffffffffffffffffffffffffffffffff167fa2c04199617341beb18c0052b61ae8aa35006743d43ca44891ca000f56e9065560405160405180910390a360fb60009054906101000a900473ffffffffffffffffffffffffffffffffffffffff16915050919050565b600060c960009054906101000a900460ff16905090565b600060fb60009054906101000a900473ffffffffffffffffffffffffffffffffffffffff16905090565b6000611341611abd565b8210611382576040517f08c379a0000000000000000000000000000000000000000000000000000000008152600401611379906140d6565b60405180910390fd5b60fc8281548110611396576113956140f6565b5b9060005260206000200160009054906101000a900473ffffffffffffffffffffffffffffffffffffffff169050919050565b600080600090506113f9847f4b763d0e000000000000000000000000000000000000000000000000000000006126dc565b1561148857611481848573ffffffffffffffffffffffffffffffffffffffff16639e4c0141866040518263ffffffff1660e01b815260040161143b9190613653565b602060405180830381865afa158015611458573d6000803e3d6000fd5b505050506040513d601f19601f8201168201806040525081019061147c9190613bd5565b612701565b9050611553565b6114b2847f2a55205a000000000000000000000000000000000000000000000000000000006126dc565b15611552578373ffffffffffffffffffffffffffffffffffffffff16632a55205a846002600a6114e29190614287565b60646114ee91906142d2565b6040518363ffffffff1660e01b815260040161150b92919061432c565b6040805180830381865afa158015611527573d6000803e3d6000fd5b505050506040513d601f19601f8201168201806040525081019061154b9190614355565b9050809150505b5b8091505092915050565b6115716000801b61156c612474565b611874565b6115b0576040517f08c379a00000000000000000000000000000000000000000000000000000000081526004016115a790614407565b60405180910390fd5b6115b8612ad6565b565b60026097541415611600576040517f08c379a00000000000000000000000000000000000000000000000000000000081526004016115f790613e96565b60405180910390fd5b600260978190555083341461164a576040517f08c379a000000000000000000000000000000000000000000000000000000000815260040161164190614499565b60405180910390fd5b61165a8686866000878787610713565b5060006116678787611f16565b90506000611689826116798a8a6113c8565b6116838b8b610a1c565b8761284b565b9050600060405180606001604052806116a684600001518a612a52565b81526020016116b984602001518a612a52565b81526020016116c8878a612a52565b815250905060006116d98883612a9e565b90506116e9846000015182612b79565b6000826020015111156117095761170884604001518360200151612b79565b5b6000826000015111156117295761172884602001518360000151612b79565b5b6000826040015111156117675761176660fb60009054906101000a900473ffffffffffffffffffffffffffffffffffffffff168360400151612b79565b5b8973ffffffffffffffffffffffffffffffffffffffff166342842e0e8560000151611790612474565b8c6040518463ffffffff1660e01b81526004016117af93929190613f48565b600060405180830381600087803b1580156117c957600080fd5b505af11580156117dd573d6000803e3d6000fd5b50505050836000015173ffffffffffffffffffffffffffffffffffffffff16898b73ffffffffffffffffffffffffffffffffffffffff167f3f50967031f099da64972c124ffe273c54d217d5626acee2b44875ec378718ac61183d612474565b8c8760000151886020015160405161185894939291906144b9565b60405180910390a4505050506001609781905550505050505050565b60006065600084815260200190815260200160002060000160008373ffffffffffffffffffffffffffffffffffffffff1673ffffffffffffffffffffffffffffffffffffffff16815260200190815260200160002060009054906101000a900460ff16905092915050565b600060019054906101000a900460ff166119075760008054906101000a900460ff1615611910565b61190f612c2a565b5b61194f576040517f08c379a000000000000000000000000000000000000000000000000000000000815260040161194690614570565b60405180910390fd5b60008060019054906101000a900460ff16159050801561199f576001600060016101000a81548160ff02191690831515021790555060016000806101000a81548160ff0219169083151502179055505b6119a7612c3b565b6119af612c8c565b6119b7612cdd565b6119bf612d2e565b6119c7612d87565b6119db6000801b6119d6612474565b612df3565b611a0c7f97667070c54ef182b0f5858b034beac1b6f3089aa2d3188bb1e8929f4fa9b929611a07612474565b612df3565b8260fb60006101000a81548173ffffffffffffffffffffffffffffffffffffffff021916908373ffffffffffffffffffffffffffffffffffffffff16021790555060005b8251811015611a8f57611a7c838281518110611a6f57611a6e6140f6565b5b6020026020010151610b3f565b8080611a8790614590565b915050611a50565b508015611ab15760008060016101000a81548160ff0219169083151502179055505b505050565b6000801b81565b600060fc80549050905090565b611ade6000801b611ad9612474565b611874565b611b1d576040517f08c379a0000000000000000000000000000000000000000000000000000000008152600401611b149061464b565b60405180910390fd5b611b25611abd565b8110611b66576040517f08c379a0000000000000000000000000000000000000000000000000000000008152600401611b5d906140d6565b60405180910390fd5b600060fc8281548110611b7c57611b7b6140f6565b5b9060005260206000200160009054906101000a900473ffffffffffffffffffffffffffffffffffffffff1690506001611bb3611abd565b1415611c055760fc805480611bcb57611bca61466b565b5b6001900381819060005260206000200160006101000a81549073ffffffffffffffffffffffffffffffffffffffff02191690559055611cfb565b60fc6001611c11611abd565b611c1b919061469a565b81548110611c2c57611c2b6140f6565b5b9060005260206000200160009054906101000a900473ffffffffffffffffffffffffffffffffffffffff1660fc8381548110611c6b57611c6a6140f6565b5b9060005260206000200160006101000a81548173ffffffffffffffffffffffffffffffffffffffff021916908373ffffffffffffffffffffffffffffffffffffffff16021790555060fc805480611cc557611cc461466b565b5b6001900381819060005260206000200160006101000a81549073ffffffffffffffffffffffffffffffffffffffff021916905590555b8073ffffffffffffffffffffffffffffffffffffffff167fbf996b4fd74f0c7159bb017b1db415b0d9a6f13129f46d0b93309d170b78df3160405160405180910390a25050565b611d4b8261080c565b611d5c81611d57612474565b61247c565b611d6683836125fa565b505050565b7f97667070c54ef182b0f5858b034beac1b6f3089aa2d3188bb1e8929f4fa9b92981565b600080600090505b611d9f611abd565b811015611e35578273ffffffffffffffffffffffffffffffffffffffff1660fc8281548110611dd157611dd06140f6565b5b9060005260206000200160009054906101000a900473ffffffffffffffffffffffffffffffffffffffff1673ffffffffffffffffffffffffffffffffffffffff161415611e22576001915050611e3b565b8080611e2d90614590565b915050611d97565b50600090505b919050565b60007f01ffc9a7000000000000000000000000000000000000000000000000000000007bffffffffffffffffffffffffffffffffffffffffffffffffffffffff1916827bffffffffffffffffffffffffffffffffffffffffffffffffffffffff1916149050919050565b611ed4817f80ac58cd000000000000000000000000000000000000000000000000000000006126dc565b611f13576040517f08c379a0000000000000000000000000000000000000000000000000000000008152600401611f0a90614766565b60405180910390fd5b50565b611f1e6131c8565b600060405180606001604052808573ffffffffffffffffffffffffffffffffffffffff16636352211e866040518263ffffffff1660e01b8152600401611f649190613653565b602060405180830381865afa158015611f81573d6000803e3d6000fd5b505050506040513d601f19601f82011682018060405250810190611fa59190613b11565b73ffffffffffffffffffffffffffffffffffffffff168152602001600073ffffffffffffffffffffffffffffffffffffffff168152602001600073ffffffffffffffffffffffffffffffffffffffff168152509050612024847f4b763d0e000000000000000000000000000000000000000000000000000000006126dc565b15612190578373ffffffffffffffffffffffffffffffffffffffff1663d48e638a846040518263ffffffff1660e01b81526004016120629190613653565b602060405180830381865afa15801561207f573d6000803e3d6000fd5b505050506040513d601f19601f820116820180604052508101906120a39190613b11565b816020019073ffffffffffffffffffffffffffffffffffffffff16908173ffffffffffffffffffffffffffffffffffffffff16815250508373ffffffffffffffffffffffffffffffffffffffff1663c99dccf9846040518263ffffffff1660e01b81526004016121139190613653565b602060405180830381865afa158015612130573d6000803e3d6000fd5b505050506040513d601f19601f820116820180604052508101906121549190613b11565b816040019073ffffffffffffffffffffffffffffffffffffffff16908173ffffffffffffffffffffffffffffffffffffffff168152505061228b565b6121ba847f2a55205a000000000000000000000000000000000000000000000000000000006126dc565b1561228a578373ffffffffffffffffffffffffffffffffffffffff16632a55205a846002600a6121ea9190614287565b60646121f691906142d2565b6040518363ffffffff1660e01b815260040161221392919061432c565b6040805180830381865afa15801561222f573d6000803e3d6000fd5b505050506040513d601f19601f820116820180604052508101906122539190614355565b50816020018173ffffffffffffffffffffffffffffffffffffffff1673ffffffffffffffffffffffffffffffffffffffff16815250505b5b8091505092915050565b6122a4838383600001516108e6565b6122e3576040517f08c379a00000000000000000000000000000000000000000000000000000000081526004016122da906147f8565b60405180910390fd5b505050565b6002600a6122f69190614287565b606461230291906142d2565b818361230e9190614818565b111561234f576040517f08c379a0000000000000000000000000000000000000000000000000000000008152600401612346906148e0565b60405180910390fd5b5050565b600080308c8c8c8c8c8c8c8c8c6040516020016123799a99989796959493929190614900565b60405160208183030381529060405280519060200120905060006001826040516020016123a69190614a14565b604051602081830303815290604052805190602001208560000160208101906123cf9190614a66565b86602001358760400135604051600081526020016040526040516123f69493929190614a93565b6020604051602081039080840390855afa158015612418573d6000803e3d6000fd5b5050506020604051035190506124316000801b82611874565b8061246257506124617f97667070c54ef182b0f5858b034beac1b6f3089aa2d3188bb1e8929f4fa9b92982611874565b5b925050509a9950505050505050505050565b600033905090565b6124868282611874565b612515576124ab8173ffffffffffffffffffffffffffffffffffffffff166014612e01565b6124b98360001c6020612e01565b6040516020016124ca929190614bdf565b6040516020818303038152906040526040517f08c379a000000000000000000000000000000000000000000000000000000000815260040161250c9190614c52565b60405180910390fd5b5050565b6125238282611874565b6125f65760016065600084815260200190815260200160002060000160008373ffffffffffffffffffffffffffffffffffffffff1673ffffffffffffffffffffffffffffffffffffffff16815260200190815260200160002060006101000a81548160ff02191690831515021790555061259b612474565b73ffffffffffffffffffffffffffffffffffffffff168173ffffffffffffffffffffffffffffffffffffffff16837f2f8788117e7eff1d82e926ec794901d17c78024a50270940304540a733656f0d60405160405180910390a45b5050565b6126048282611874565b156126d85760006065600084815260200190815260200160002060000160008373ffffffffffffffffffffffffffffffffffffffff1673ffffffffffffffffffffffffffffffffffffffff16815260200190815260200160002060006101000a81548160ff02191690831515021790555061267d612474565b73ffffffffffffffffffffffffffffffffffffffff168173ffffffffffffffffffffffffffffffffffffffff16837ff6391f5c32d9c69d2a47ea670b442974b53935d1edc7fd64eb21e047a839171b60405160405180910390a45b5050565b60006126e78361303d565b80156126f957506126f8838361308a565b5b905092915050565b60008273ffffffffffffffffffffffffffffffffffffffff1663313ce5676040518163ffffffff1660e01b8152600401602060405180830381865afa15801561274e573d6000803e3d6000fd5b505050506040513d601f19601f820116820180604052508101906127729190614c89565b600a61277e9190614287565b6002600a61278c9190614287565b8361279791906142d2565b6127a19190614ce5565b905092915050565b6127b16112f6565b6127f0576040517f08c379a00000000000000000000000000000000000000000000000000000000081526004016127e790614d62565b60405180910390fd5b600060c960006101000a81548160ff0219169083151502179055507f5db9ee0a495bf2e6ff9c91a7834c1ba4fdd244a5e8aa4e537bd38aeae4b073aa612834612474565b60405161284191906136aa565b60405180910390a1565b61285361322b565b600060405180604001604052806000815260200160008152509050856020015173ffffffffffffffffffffffffffffffffffffffff16866000015173ffffffffffffffffffffffffffffffffffffffff16141561295357600073ffffffffffffffffffffffffffffffffffffffff16866040015173ffffffffffffffffffffffffffffffffffffffff16141580156128eb5750600084115b1561294e576002600a6128fe9190614287565b606461290a91906142d2565b836002600a6129199190614287565b606461292591906142d2565b61292f919061469a565b8561293a91906142d2565b6129449190614ce5565b8160200181815250505b612a46565b600073ffffffffffffffffffffffffffffffffffffffff16866020015173ffffffffffffffffffffffffffffffffffffffff16141580156129945750600085115b15612a455784816000018181525050600073ffffffffffffffffffffffffffffffffffffffff16866040015173ffffffffffffffffffffffffffffffffffffffff16141580156129e45750600084115b15612a44576002600a6129f79190614287565b6064612a0391906142d2565b816000015185612a1391906142d2565b612a1d9190614ce5565b81602001818152505080602001518160000151612a3a919061469a565b8160000181815250505b5b5b80915050949350505050565b600080831415612a655760009050612a98565b6002600a612a739190614287565b6064612a7f91906142d2565b8383612a8b91906142d2565b612a959190614ce5565b90505b92915050565b600081602001518260000151836040015185612aba919061469a565b612ac4919061469a565b612ace919061469a565b905092915050565b612ade6112f6565b15612b1e576040517f08c379a0000000000000000000000000000000000000000000000000000000008152600401612b1590614dce565b60405180910390fd5b600160c960006101000a81548160ff0219169083151502179055507f62e78cea01bee320cd4e420270b5ea74000d11b0c9f74754ebdbfc544b05a258612b62612474565b604051612b6f91906136aa565b60405180910390a1565b60008273ffffffffffffffffffffffffffffffffffffffff1682604051612b9f90614e1f565b60006040518083038185875af1925050503d8060008114612bdc576040519150601f19603f3d011682016040523d82523d6000602084013e612be1565b606091505b5050905080612c25576040517f08c379a0000000000000000000000000000000000000000000000000000000008152600401612c1c90614ea6565b60405180910390fd5b505050565b6000612c35306131b5565b15905090565b600060019054906101000a900460ff16612c8a576040517f08c379a0000000000000000000000000000000000000000000000000000000008152600401612c8190614f38565b60405180910390fd5b565b600060019054906101000a900460ff16612cdb576040517f08c379a0000000000000000000000000000000000000000000000000000000008152600401612cd290614f38565b60405180910390fd5b565b600060019054906101000a900460ff16612d2c576040517f08c379a0000000000000000000000000000000000000000000000000000000008152600401612d2390614f38565b60405180910390fd5b565b600060019054906101000a900460ff16612d7d576040517f08c379a0000000000000000000000000000000000000000000000000000000008152600401612d7490614f38565b60405180910390fd5b6001609781905550565b600060019054906101000a900460ff16612dd6576040517f08c379a0000000000000000000000000000000000000000000000000000000008152600401612dcd90614f38565b60405180910390fd5b600060c960006101000a81548160ff021916908315150217905550565b612dfd8282612519565b5050565b606060006002836002612e1491906142d2565b612e1e9190614818565b67ffffffffffffffff811115612e3757612e36613796565b5b6040519080825280601f01601f191660200182016040528015612e695781602001600182028036833780820191505090505b5090507f300000000000000000000000000000000000000000000000000000000000000081600081518110612ea157612ea06140f6565b5b60200101907effffffffffffffffffffffffffffffffffffffffffffffffffffffffffffff1916908160001a9053507f780000000000000000000000000000000000000000000000000000000000000081600181518110612f0557612f046140f6565b5b60200101907effffffffffffffffffffffffffffffffffffffffffffffffffffffffffffff1916908160001a90535060006001846002612f4591906142d2565b612f4f9190614818565b90505b6001811115612fef577f3031323334353637383961626364656600000000000000000000000000000000600f861660108110612f9157612f906140f6565b5b1a60f81b828281518110612fa857612fa76140f6565b5b60200101907effffffffffffffffffffffffffffffffffffffffffffffffffffffffffffff1916908160001a905350600485901c945080612fe890614f58565b9050612f52565b5060008414613033576040517f08c379a000000000000000000000000000000000000000000000000000000000815260040161302a90614fce565b60405180910390fd5b8091505092915050565b6000613069827f01ffc9a70000000000000000000000000000000000000000000000000000000061308a565b801561308357506130818263ffffffff60e01b61308a565b155b9050919050565b6000806301ffc9a760e01b836040516024016130a69190614ffd565b604051602081830303815290604052907bffffffffffffffffffffffffffffffffffffffffffffffffffffffff19166020820180517bffffffffffffffffffffffffffffffffffffffffffffffffffffffff838183161783525050505090506000808573ffffffffffffffffffffffffffffffffffffffff16617530846040516131309190615054565b6000604051808303818686fa925050503d806000811461316c576040519150601f19603f3d011682016040523d82523d6000602084013e613171565b606091505b509150915060208151101561318c57600093505050506131af565b8180156131a95750808060200190518101906131a89190613b93565b5b93505050505b92915050565b600080823b905060008111915050919050565b6040518060600160405280600073ffffffffffffffffffffffffffffffffffffffff168152602001600073ffffffffffffffffffffffffffffffffffffffff168152602001600073ffffffffffffffffffffffffffffffffffffffff1681525090565b604051806040016040528060008152602001600081525090565b6000604051905090565b600080fd5b600080fd5b60007fffffffff0000000000000000000000000000000000000000000000000000000082169050919050565b61328e81613259565b811461329957600080fd5b50565b6000813590506132ab81613285565b92915050565b6000602082840312156132c7576132c661324f565b5b60006132d58482850161329c565b91505092915050565b60008115159050919050565b6132f3816132de565b82525050565b600060208201905061330e60008301846132ea565b92915050565b600073ffffffffffffffffffffffffffffffffffffffff82169050919050565b600061333f82613314565b9050919050565b61334f81613334565b811461335a57600080fd5b50565b60008135905061336c81613346565b92915050565b6000819050919050565b61338581613372565b811461339057600080fd5b50565b6000813590506133a28161337c565b92915050565b600080fd5b6000606082840312156133c3576133c26133a8565b5b81905092915050565b6000806000806000806000610120888a0312156133ec576133eb61324f565b5b60006133fa8a828b0161335d565b975050602061340b8a828b01613393565b965050604061341c8a828b01613393565b955050606061342d8a828b0161335d565b945050608061343e8a828b0161335d565b93505060a061344f8a828b01613393565b92505060c06134608a828b016133ad565b91505092959891949750929550565b6000819050919050565b6134828161346f565b811461348d57600080fd5b50565b60008135905061349f81613479565b92915050565b6000602082840312156134bb576134ba61324f565b5b60006134c984828501613490565b91505092915050565b6134db8161346f565b82525050565b60006020820190506134f660008301846134d2565b92915050565b600060ff82169050919050565b613512816134fc565b82525050565b600060208201905061352d6000830184613509565b92915050565b6000806040838503121561354a5761354961324f565b5b600061355885828601613490565b92505060206135698582860161335d565b9150509250929050565b600061357e82613334565b9050919050565b61358e81613573565b811461359957600080fd5b50565b6000813590506135ab81613585565b92915050565b6000806000606084860312156135ca576135c961324f565b5b60006135d88682870161359c565b93505060206135e986828701613393565b92505060406135fa8682870161335d565b9150509250925092565b6000806040838503121561361b5761361a61324f565b5b60006136298582860161335d565b925050602061363a85828601613393565b9150509250929050565b61364d81613372565b82525050565b60006020820190506136686000830184613644565b92915050565b6000602082840312156136845761368361324f565b5b60006136928482850161335d565b91505092915050565b6136a481613334565b82525050565b60006020820190506136bf600083018461369b565b92915050565b6000602082840312156136db576136da61324f565b5b60006136e984828501613393565b91505092915050565b60008060008060008061010087890312156137105761370f61324f565b5b600061371e89828a0161335d565b965050602061372f89828a01613393565b955050604061374089828a01613393565b945050606061375189828a0161335d565b935050608061376289828a01613393565b92505060a061377389828a016133ad565b9150509295509295509295565b600080fd5b6000601f19601f8301169050919050565b7f4e487b7100000000000000000000000000000000000000000000000000000000600052604160045260246000fd5b6137ce82613785565b810181811067ffffffffffffffff821117156137ed576137ec613796565b5b80604052505050565b6000613800613245565b905061380c82826137c5565b919050565b600067ffffffffffffffff82111561382c5761382b613796565b5b602082029050602081019050919050565b600080fd5b600061385561385084613811565b6137f6565b905080838252602082019050602084028301858111156138785761387761383d565b5b835b818110156138a1578061388d888261335d565b84526020840193505060208101905061387a565b5050509392505050565b600082601f8301126138c0576138bf613780565b5b81356138d0848260208601613842565b91505092915050565b600080604083850312156138f0576138ef61324f565b5b60006138fe8582860161335d565b925050602083013567ffffffffffffffff81111561391f5761391e613254565b5b61392b858286016138ab565b9150509250929050565b600082825260208201905092915050565b7f4e46544d61726b6574706c6163653a20436f6e7472616374206973207061757360008201527f6564000000000000000000000000000000000000000000000000000000000000602082015250565b60006139a2602283613935565b91506139ad82613946565b604082019050919050565b600060208201905081810360008301526139d181613995565b9050919050565b7f4e46544d61726b6574706c6163653a20496e76616c6964207369676e6174757260008201527f6500000000000000000000000000000000000000000000000000000000000000602082015250565b6000613a34602183613935565b9150613a3f826139d8565b604082019050919050565b60006020820190508181036000830152613a6381613a27565b9050919050565b7f416363657373436f6e74726f6c3a2063616e206f6e6c792072656e6f756e636560008201527f20726f6c657320666f722073656c660000000000000000000000000000000000602082015250565b6000613ac6602f83613935565b9150613ad182613a6a565b604082019050919050565b60006020820190508181036000830152613af581613ab9565b9050919050565b600081519050613b0b81613346565b92915050565b600060208284031215613b2757613b2661324f565b5b6000613b3584828501613afc565b91505092915050565b6000604082019050613b53600083018561369b565b613b60602083018461369b565b9392505050565b613b70816132de565b8114613b7b57600080fd5b50565b600081519050613b8d81613b67565b92915050565b600060208284031215613ba957613ba861324f565b5b6000613bb784828501613b7e565b91505092915050565b600081519050613bcf8161337c565b92915050565b600060208284031215613beb57613bea61324f565b5b6000613bf984828501613bc0565b91505092915050565b7f4e46544d61726b6574706c6163653a204f6e6c792061646d696e732063616e2060008201527f756e706175736500000000000000000000000000000000000000000000000000602082015250565b6000613c5e602783613935565b9150613c6982613c02565b604082019050919050565b60006020820190508181036000830152613c8d81613c51565b9050919050565b7f4e46544d61726b6574706c6163653a204f6e6c792061646d696e732063616e2060008201527f61646420616c6c6f77656420746f6b656e730000000000000000000000000000602082015250565b6000613cf0603283613935565b9150613cfb82613c94565b604082019050919050565b60006020820190508181036000830152613d1f81613ce3565b9050919050565b7f4e46544d61726b6574706c6163653a20546f6b656e206164647265737320697360008201527f20746865207a65726f2061646472657373000000000000000000000000000000602082015250565b6000613d82603183613935565b9150613d8d82613d26565b604082019050919050565b60006020820190508181036000830152613db181613d75565b9050919050565b7f4e46544d61726b6574706c6163653a20546f6b656e206164647265737320697360008201527f20616c726561647920616c6c6f77656400000000000000000000000000000000602082015250565b6000613e14603083613935565b9150613e1f82613db8565b604082019050919050565b60006020820190508181036000830152613e4381613e07565b9050919050565b7f5265656e7472616e637947756172643a207265656e7472616e742063616c6c00600082015250565b6000613e80601f83613935565b9150613e8b82613e4a565b602082019050919050565b60006020820190508181036000830152613eaf81613e73565b9050919050565b7f4e46544d61726b6574706c6163653a20546f6b656e206e6f7420616c6c6f776560008201527f6400000000000000000000000000000000000000000000000000000000000000602082015250565b6000613f12602183613935565b9150613f1d82613eb6565b604082019050919050565b60006020820190508181036000830152613f4181613f05565b9050919050565b6000606082019050613f5d600083018661369b565b613f6a602083018561369b565b613f776040830184613644565b949350505050565b600060a082019050613f94600083018861369b565b613fa1602083018761369b565b613fae6040830186613644565b613fbb6060830185613644565b613fc86080830184613644565b9695505050505050565b7f4e46544d61726b6574706c6163653a204f6e6c792061646d696e732063616e2060008201527f6368616e67652074686973000000000000000000000000000000000000000000602082015250565b600061402e602b83613935565b915061403982613fd2565b604082019050919050565b6000602082019050818103600083015261405d81614021565b9050919050565b7f4e46544d61726b6574706c6163653a20496e646578206f7574206f6620626f7560008201527f6e64730000000000000000000000000000000000000000000000000000000000602082015250565b60006140c0602383613935565b91506140cb82614064565b604082019050919050565b600060208201905081810360008301526140ef816140b3565b9050919050565b7f4e487b7100000000000000000000000000000000000000000000000000000000600052603260045260246000fd5b7f4e487b7100000000000000000000000000000000000000000000000000000000600052601160045260246000fd5b60008160011c9050919050565b6000808291508390505b60018511156141ab5780860481111561418757614186614125565b5b60018516156141965780820291505b80810290506141a485614154565b945061416b565b94509492505050565b6000826141c45760019050614280565b816141d25760009050614280565b81600181146141e857600281146141f257614221565b6001915050614280565b60ff84111561420457614203614125565b5b8360020a91508482111561421b5761421a614125565b5b50614280565b5060208310610133831016604e8410600b84101617156142565782820a90508381111561425157614250614125565b5b614280565b6142638484846001614161565b9250905081840481111561427a57614279614125565b5b81810290505b9392505050565b600061429282613372565b915061429d836134fc565b92506142ca7fffffffffffffffffffffffffffffffffffffffffffffffffffffffffffffffff84846141b4565b905092915050565b60006142dd82613372565b91506142e883613372565b9250817fffffffffffffffffffffffffffffffffffffffffffffffffffffffffffffffff048311821515161561432157614320614125565b5b828202905092915050565b60006040820190506143416000830185613644565b61434e6020830184613644565b9392505050565b6000806040838503121561436c5761436b61324f565b5b600061437a85828601613afc565b925050602061438b85828601613bc0565b9150509250929050565b7f4e46544d61726b6574706c6163653a204f6e6c792061646d696e732063616e2060008201527f7061757365000000000000000000000000000000000000000000000000000000602082015250565b60006143f1602583613935565b91506143fc82614395565b604082019050919050565b60006020820190508181036000830152614420816143e4565b9050919050565b7f4e46544d61726b6574706c6163653a204e6f7420656e6f75676820636f696e7360008201527f2073656e74000000000000000000000000000000000000000000000000000000602082015250565b6000614483602583613935565b915061448e82614427565b604082019050919050565b600060208201905081810360008301526144b281614476565b9050919050565b60006080820190506144ce600083018761369b565b6144db6020830186613644565b6144e86040830185613644565b6144f56060830184613644565b95945050505050565b7f496e697469616c697a61626c653a20636f6e747261637420697320616c72656160008201527f647920696e697469616c697a6564000000000000000000000000000000000000602082015250565b600061455a602e83613935565b9150614565826144fe565b604082019050919050565b600060208201905081810360008301526145898161454d565b9050919050565b600061459b82613372565b91507fffffffffffffffffffffffffffffffffffffffffffffffffffffffffffffffff8214156145ce576145cd614125565b5b600182019050919050565b7f4e46544d61726b6574706c6163653a204f6e6c792061646d696e732063616e2060008201527f72656d6f766520616c6c6f77656420746f6b656e730000000000000000000000602082015250565b6000614635603583613935565b9150614640826145d9565b604082019050919050565b6000602082019050818103600083015261466481614628565b9050919050565b7f4e487b7100000000000000000000000000000000000000000000000000000000600052603160045260246000fd5b60006146a582613372565b91506146b083613372565b9250828210156146c3576146c2614125565b5b828203905092915050565b7f4e46544d61726b6574706c6163653a20436f6c6c656374696f6e20646f65732060008201527f6e6f7420737570706f727420746865204552432d37323120696e74657266616360208201527f6500000000000000000000000000000000000000000000000000000000000000604082015250565b6000614750604183613935565b915061475b826146ce565b606082019050919050565b6000602082019050818103600083015261477f81614743565b9050919050565b7f4e46544d61726b6574706c6163653a204f776e657220686173206e6f7420617060008201527f70726f76656420757320666f72206d616e6167696e6720697473204e46547300602082015250565b60006147e2603f83613935565b91506147ed82614786565b604082019050919050565b60006020820190508181036000830152614811816147d5565b9050919050565b600061482382613372565b915061482e83613372565b9250827fffffffffffffffffffffffffffffffffffffffffffffffffffffffffffffffff0382111561486357614862614125565b5b828201905092915050565b7f4e46544d61726b6574706c6163653a20546f74616c20666565732063616e6e6f60008201527f742062652067726561746572207468616e203130302500000000000000000000602082015250565b60006148ca603683613935565b91506148d58261486e565b604082019050919050565b600060208201905081810360008301526148f9816148bd565b9050919050565b600061014082019050614916600083018d61369b565b614923602083018c61369b565b614930604083018b613644565b61493d606083018a61369b565b61494a608083018961369b565b61495760a0830188613644565b61496460c083018761369b565b61497160e0830186613644565b61497f610100830185613644565b61498d610120830184613644565b9b9a5050505050505050505050565b600081905092915050565b7f19457468657265756d205369676e6564204d6573736167653a0a333200000000600082015250565b60006149dd601c8361499c565b91506149e8826149a7565b601c82019050919050565b6000819050919050565b614a0e614a098261346f565b6149f3565b82525050565b6000614a1f826149d0565b9150614a2b82846149fd565b60208201915081905092915050565b614a43816134fc565b8114614a4e57600080fd5b50565b600081359050614a6081614a3a565b92915050565b600060208284031215614a7c57614a7b61324f565b5b6000614a8a84828501614a51565b91505092915050565b6000608082019050614aa860008301876134d2565b614ab56020830186613509565b614ac260408301856134d2565b614acf60608301846134d2565b95945050505050565b7f416363657373436f6e74726f6c3a206163636f756e7420000000000000000000600082015250565b6000614b0e60178361499c565b9150614b1982614ad8565b601782019050919050565b600081519050919050565b60005b83811015614b4d578082015181840152602081019050614b32565b83811115614b5c576000848401525b50505050565b6000614b6d82614b24565b614b77818561499c565b9350614b87818560208601614b2f565b80840191505092915050565b7f206973206d697373696e6720726f6c6520000000000000000000000000000000600082015250565b6000614bc960118361499c565b9150614bd482614b93565b601182019050919050565b6000614bea82614b01565b9150614bf68285614b62565b9150614c0182614bbc565b9150614c0d8284614b62565b91508190509392505050565b6000614c2482614b24565b614c2e8185613935565b9350614c3e818560208601614b2f565b614c4781613785565b840191505092915050565b60006020820190508181036000830152614c6c8184614c19565b905092915050565b600081519050614c8381614a3a565b92915050565b600060208284031215614c9f57614c9e61324f565b5b6000614cad84828501614c74565b91505092915050565b7f4e487b7100000000000000000000000000000000000000000000000000000000600052601260045260246000fd5b6000614cf082613372565b9150614cfb83613372565b925082614d0b57614d0a614cb6565b5b828204905092915050565b7f5061757361626c653a206e6f7420706175736564000000000000000000000000600082015250565b6000614d4c601483613935565b9150614d5782614d16565b602082019050919050565b60006020820190508181036000830152614d7b81614d3f565b9050919050565b7f5061757361626c653a2070617573656400000000000000000000000000000000600082015250565b6000614db8601083613935565b9150614dc382614d82565b602082019050919050565b60006020820190508181036000830152614de781614dab565b9050919050565b600081905092915050565b50565b6000614e09600083614dee565b9150614e1482614df9565b600082019050919050565b6000614e2a82614dfc565b9150819050919050565b7f4e46544d61726b6574706c6163653a204661696c656420746f2073656e64206360008201527f6f696e7300000000000000000000000000000000000000000000000000000000602082015250565b6000614e90602483613935565b9150614e9b82614e34565b604082019050919050565b60006020820190508181036000830152614ebf81614e83565b9050919050565b7f496e697469616c697a61626c653a20636f6e7472616374206973206e6f74206960008201527f6e697469616c697a696e67000000000000000000000000000000000000000000602082015250565b6000614f22602b83613935565b9150614f2d82614ec6565b604082019050919050565b60006020820190508181036000830152614f5181614f15565b9050919050565b6000614f6382613372565b91506000821415614f7757614f76614125565b5b600182039050919050565b7f537472696e67733a20686578206c656e67746820696e73756666696369656e74600082015250565b6000614fb8602083613935565b9150614fc382614f82565b602082019050919050565b60006020820190508181036000830152614fe781614fab565b9050919050565b614ff781613259565b82525050565b60006020820190506150126000830184614fee565b92915050565b600081519050919050565b600061502e82615018565b6150388185614dee565b9350615048818560208601614b2f565b80840191505092915050565b60006150608284615023565b91508190509291505056fea26469706673582212209efa0f5aba523138322b9f607b1603715499812241f95b0856514d41df769d7b64736f6c634300080b0033",
  "immutableReferences": {},
  "source": "// SPDX-License-Identifier: MIT\npragma solidity 0.8.11;\n\nimport \"@openzeppelin/contracts-upgradeable/access/AccessControlUpgradeable.sol\";\nimport \"@openzeppelin/contracts-upgradeable/security/ReentrancyGuardUpgradeable.sol\";\nimport \"@openzeppelin/contracts-upgradeable/security/PausableUpgradeable.sol\";\nimport \"@openzeppelin/contracts/token/ERC721/IERC721.sol\";\nimport \"@openzeppelin/contracts/token/ERC20/IERC20.sol\";\nimport \"@openzeppelin/contracts/utils/introspection/ERC165Checker.sol\";\nimport \"@openzeppelin/contracts/interfaces/IERC2981.sol\";\n\nimport \"./IERC721Autentica.sol\";\n\ncontract NFTMarketplace is\n    AccessControlUpgradeable,\n    ReentrancyGuardUpgradeable,\n    PausableUpgradeable\n{\n    // Number of decimals used for fees.\n    uint8 public constant DECIMALS = 2;\n\n    // Create a new role identifier for the operator role.\n    bytes32 public constant OPERATOR_ROLE = keccak256(\"OPERATOR_ROLE\");\n\n    // Autentica wallet address.\n    address private _autentica;\n\n    // Allowed token addresses to be used with `tradeForTokens`.\n    address[] private _allowedTokens;\n\n    // NFT details.\n    struct NFT {\n        address owner;\n        address creator;\n        address investor;\n    }\n\n    // Percentages for each party that needs to be payed.\n    struct Percentages {\n        uint256 creator;\n        uint256 investor;\n    }\n\n    // Proceeds for each party that needs to be payed amounts expressed in coins or tokens, not in percentages\n    struct Proceeds {\n        uint256 creator;\n        uint256 investor;\n        uint256 marketplace;\n    }\n\n    // ECDSA signature.\n    struct Signature {\n        uint8 v;\n        bytes32 r;\n        bytes32 s;\n    }\n\n    /**\n     * @dev Emitted when the Autentica wallet address has been updated.\n     */\n    event ChangedAutentica(\n        address indexed oldAddress,\n        address indexed newAddress\n    );\n    /**\n     * @dev Emitted when a trade occured between the `seller` (the owner of the ERC-721 token\n     * represented by `tokenId` within the `collection` smart contract) and `buyer` which\n     * payed the specified `price` in coins (the native cryptocurrency of the platform, i.e.: ETH).\n     */\n    event TradedForCoins(\n        address indexed collection,\n        uint256 indexed tokenId,\n        address indexed seller,\n        address buyer,\n        uint256 price,\n        uint256 creatorProceeds,\n        uint256 investorProceeds\n    );\n    /**\n     * @dev Emitted when a trade occured between the `seller` (the owner of the ERC-721 token\n     * represented by `tokenId` within the `collection` smart contract) and `buyer` which\n     * payed the specified `price` in tokens that are represented by the `token`\n     * ERC-20 smart contract address.\n     */\n    event TradedForTokens(\n        address indexed collection,\n        uint256 indexed tokenId,\n        address indexed seller,\n        address buyer,\n        address token,\n        uint256 price,\n        uint256 creatorProceeds,\n        uint256 investorProceeds\n    );\n\n    /**\n     * @dev Emitted when a new token is allowed to be used for trading.\n     */\n    event AllowedTokenAdded(address indexed tokenAddress);\n    /**\n     * @dev Emitted when a token is not longer allowed to be used for trading.\n     */\n    event AllowedTokenRemoved(address indexed tokenAddress);\n\n    /**\n     * @dev The initializer (upgradeable constructor) sets the creator of the contract as the admin\n     * and operator of this smart contract, sets the wallet address for Autentica and sets the allowed tokens.\n     */\n    function initialize(address wallet, address[] memory allowedTokens)\n        public\n        initializer\n    {\n        // Initialize all the inherited abstract contracts.\n        __Context_init_unchained();\n        __ERC165_init_unchained();\n        __AccessControl_init_unchained();\n        __ReentrancyGuard_init_unchained();\n        __Pausable_init_unchained();\n\n        // Grant the admin role to the owner\n        _setupRole(DEFAULT_ADMIN_ROLE, _msgSender());\n        // Grant the operator role to the owner\n        _setupRole(OPERATOR_ROLE, _msgSender());\n\n        // Set the wallet address for Autentica\n        _autentica = wallet;\n\n        // Set the allowed tokens\n        for (uint256 i = 0; i < allowedTokens.length; i++) {\n            addAllowedToken(allowedTokens[i]);\n        }\n    }\n\n    /**\n     * Returns the Autentica wallet address.\n     */\n    function autentica() external view returns (address) {\n        return _autentica;\n    }\n\n    /**\n     * @dev Sets the Autentica wallet address.\n     *\n     * Requirements:\n     *\n     * - the caller must be admin.\n     */\n    function setAutentica(address wallet) external returns (address) {\n        require(\n            hasRole(DEFAULT_ADMIN_ROLE, _msgSender()),\n            \"NFTMarketplace: Only admins can change this\"\n        );\n\n        // Keep a reference to the old address\n        address oldAutentica = _autentica;\n\n        // Change the address\n        _autentica = wallet;\n\n        // Emit the event\n        emit ChangedAutentica(oldAutentica, _autentica);\n\n        return _autentica;\n    }\n\n    /**\n     * @dev Returns the number of decimals used for fees.\n     */\n    function decimals() external pure returns (uint8) {\n        return DECIMALS;\n    }\n\n    /**\n     * @dev Returns the number of allowed tokens.\n     */\n    function numberOfAllowedTokens() public view returns (uint256) {\n        return _allowedTokens.length;\n    }\n\n    /**\n     * @dev Returns the address of the allowed token at the specified index.\n     * @param index The index of the allowed token.\n     */\n    function allowedTokenAtIndex(uint256 index) public view returns (address) {\n        require(\n            index < numberOfAllowedTokens(),\n            \"NFTMarketplace: Index out of bounds\"\n        );\n        return _allowedTokens[index];\n    }\n\n    /**\n     * @dev Verifies if a token address has been allowed already.\n     */\n    function isTokenAllowed(address tokenAddress) public view returns (bool) {\n        for (uint256 i = 0; i < numberOfAllowedTokens(); i++) {\n            if (_allowedTokens[i] == tokenAddress) {\n                return true;\n            }\n        }\n\n        return false;\n    }\n\n    /**\n     * @dev Add a new allowed token to the contract.\n     * @param tokenAddress The address of the allowed token to add.\n     *\n     * Requirements:\n     *\n     * - the caller must be admin.\n     */\n    function addAllowedToken(address tokenAddress) public {\n        require(\n            hasRole(DEFAULT_ADMIN_ROLE, _msgSender()),\n            \"NFTMarketplace: Only admins can add allowed tokens\"\n        );\n\n        // Check if the token address is valid\n        require(\n            tokenAddress != address(0),\n            \"NFTMarketplace: Token address is the zero address\"\n        );\n\n        // Check if the token address is already allowed\n        require(\n            !isTokenAllowed(tokenAddress),\n            \"NFTMarketplace: Token address is already allowed\"\n        );\n\n        // Add the token address\n        _allowedTokens.push(tokenAddress);\n\n        // Emit the event\n        emit AllowedTokenAdded(tokenAddress);\n    }\n\n    /**\n     * @dev Remove the allowed token at the specified index.\n     * @param index The index of the allowed token.\n     *\n     * Requirements:\n     *\n     * - the caller must be admin.\n     */\n    function removeAllowedTokenAtIndex(uint256 index) public {\n        require(\n            hasRole(DEFAULT_ADMIN_ROLE, _msgSender()),\n            \"NFTMarketplace: Only admins can remove allowed tokens\"\n        );\n\n        // Check if the index is valid\n        require(\n            index < numberOfAllowedTokens(),\n            \"NFTMarketplace: Index out of bounds\"\n        );\n\n        // Keep a reference to the old address\n        address tokenAddress = _allowedTokens[index];\n\n        // Deleting an element from the array does not affect the array length, so we need to use the `pop()` method\n        if (numberOfAllowedTokens() == 1) {\n            _allowedTokens.pop();\n        } else {\n            // Instead of shifting all the elements from the right, we will just move the last element in place of the\n            // element that will be removed\n            _allowedTokens[index] = _allowedTokens[numberOfAllowedTokens() - 1];\n            // Remove the last element\n            _allowedTokens.pop();\n        }\n\n        // Emit the event\n        emit AllowedTokenRemoved(tokenAddress);\n    }\n\n    /**\n     * @notice Trades an NFT for a given amount of coins (the native cryptocurrency of the platform, i.e.: ETH).\n     *\n     * @param collection The ERC-721 smart contract.\n     * @param tokenId The unique identifier of the ERC-721 token within the `collection` smart contract.\n     * @param price The price of the NFT in coins.\n     * @param buyer Buyer address.\n     * @param marketplaceFee Marketplace fee.\n     * @param signature ECDSA signature.\n     *\n     * @dev Requirements\n     *\n     * - The `collection` smart contract must be an ERC-721 smart contract.\n     * - The owner of the NFT identified by `tokenId` within the `collection` smart contract must have approved\n     *   this smart contract to manage its NFTs.\n     * - The `price` and `msg.value` must be equal.\n     * - The sum of all the fees cannot be greater than 100%.\n     * - The ECDSA signature must be signed by someone with the admin or operator role.\n     */\n    function tradeForCoins(\n        address collection,\n        uint256 tokenId,\n        uint256 price,\n        address buyer,\n        uint256 marketplaceFee,\n        Signature calldata signature\n    ) external payable nonReentrant {\n        // Check if the user sent enough coins\n        require(msg.value == price, \"NFTMarketplace: Not enough coins sent\");\n\n        // Validate the trade\n        canPerformTrade(\n            collection,\n            tokenId,\n            price,\n            address(0x0),\n            buyer,\n            marketplaceFee,\n            signature\n        );\n\n        NFT memory nft = _nftDetails(collection, tokenId);\n\n        // Assemble the percentages\n        Percentages memory percentages = _percentagesDetails(\n            nft,\n            getRoyaltyFee(collection, tokenId),\n            getInvestorFee(collection, tokenId),\n            marketplaceFee\n        );\n\n        // Assemble the fees\n        Proceeds memory proceeds = Proceeds({\n            creator: _calculateProceedsForFee(percentages.creator, price),\n            investor: _calculateProceedsForFee(percentages.investor, price),\n            marketplace: _calculateProceedsForFee(marketplaceFee, price)\n        });\n\n        // Calculate the base owner proceeds\n        uint256 ownerProceeds = _calculateOwnerProceeds(\n            price,\n            proceeds\n        );\n\n        // Payments\n        _sendViaCall(payable(nft.owner), ownerProceeds);\n        if (proceeds.investor > 0) {\n            _sendViaCall(payable(nft.investor), proceeds.investor);\n        }\n        if (proceeds.creator > 0) {\n            _sendViaCall(payable(nft.creator), proceeds.creator);\n        }\n        if (proceeds.marketplace > 0) {\n            _sendViaCall(payable(_autentica), proceeds.marketplace);\n        }\n\n        // Finally transfer the NFT\n        IERC721(collection).safeTransferFrom(nft.owner, _msgSender(), tokenId);\n\n        // Emit the event\n        emit TradedForCoins(\n            collection,\n            tokenId,\n            nft.owner,\n            _msgSender(),\n            price,\n            proceeds.creator,\n            proceeds.investor\n        );\n    }\n\n    /**\n     * @notice Trades an NFT for a given amount of ERC-20 tokens (i.e.: AUT/USDT/USDC).\n     *\n     * @param collection The ERC-721 smart contract.\n     * @param tokenId The unique identifier of the ERC-721 token within the `collection` smart contract.\n     * @param price The price of the NFT in `token` tokens.\n     * @param token The ERC-20 smart contract.\n     * @param buyer Buyer address.\n     * @param marketplaceFee Marketplace fee.\n     * @param signature ECDSA signature.\n     *\n     * Requirements:\n     *\n     * - The `collection` smart contract must be an ERC-721 smart contract.\n     * - The owner of the NFT identified by `tokenId` within the `collection` smart contract must have approved\n     *   this smart contract to manage its NFTs.\n     * - The sum of all the fees cannot be greater than 100%.\n     * - The ECDSA signature must be signed by someone with the admin or operator role.\n     */\n    function tradeForTokens(\n        address collection,\n        uint256 tokenId,\n        uint256 price,\n        address token,\n        address buyer,\n        uint256 marketplaceFee,\n        Signature calldata signature\n    ) external nonReentrant {\n        // Check if the token is allowed\n        require(isTokenAllowed(token), \"NFTMarketplace: Token not allowed\");\n\n        // Validate the trade\n        canPerformTrade(\n            collection,\n            tokenId,\n            price,\n            token,\n            buyer,\n            marketplaceFee,\n            signature\n        );\n\n        // Assemble the NFT details\n        NFT memory nft = _nftDetails(collection, tokenId);\n\n        // Assemble the percentages\n        Percentages memory percentages = _percentagesDetails(\n            nft,\n            getRoyaltyFee(collection, tokenId),\n            getInvestorFee(collection, tokenId),\n            marketplaceFee\n        );\n\n        // Assemble the fees\n        Proceeds memory proceeds = Proceeds({\n            creator: _calculateProceedsForFee(percentages.creator, price),\n            investor: _calculateProceedsForFee(percentages.investor, price),\n            marketplace: _calculateProceedsForFee(marketplaceFee, price)\n        });\n\n        // Calculate the base owner proceeds\n        uint256 ownerProceeds = _calculateOwnerProceeds(\n            price,\n            proceeds\n        );\n\n        // Payments\n        IERC20(token).transferFrom(buyer, nft.owner, ownerProceeds);\n        if (proceeds.investor > 0) {\n            IERC20(token).transferFrom(\n                buyer,\n                nft.investor,\n                proceeds.investor\n            );\n        }\n        if (proceeds.creator > 0) {\n            IERC20(token).transferFrom(buyer, nft.creator, proceeds.creator);\n        }\n        if (proceeds.marketplace > 0) {\n            IERC20(token).transferFrom(\n                buyer,\n                _autentica,\n                proceeds.marketplace\n            );\n        }\n        // Finally transfer the NFT\n        IERC721(collection).safeTransferFrom(nft.owner, _msgSender(), tokenId);\n\n        // Emit the event\n        emit TradedForTokens(\n            collection,\n            tokenId,\n            nft.owner,\n            _msgSender(),\n            token,\n            price,\n            proceeds.creator,\n            proceeds.investor\n        );\n    }\n\n    /**\n     * @notice Validate the trade.\n     *\n     * @param collection The ERC-721 smart contract.\n     * @param tokenId The unique identifier of the ERC-721 token within the `collection` smart contract.\n     * @param price The price of the NFT in `token` tokens.\n     * @param currency The type of currency (erc20 or native currency)\n     * @param buyer Buyer address.\n     * @param marketplaceFee Marketplace fee.\n     * @param signature ECDSA signature.\n     *\n     */\n    function canPerformTrade(\n        address collection,\n        uint256 tokenId,\n        uint256 price,\n        address currency,\n        address buyer,\n        uint256 marketplaceFee,\n        Signature calldata signature\n    ) public view returns (bool) {\n        // Check if the contract is paused\n        require(!paused(), \"NFTMarketplace: Contract is paused\");\n\n        // Check if the collection is an ERC-721 smart contract\n        _validateERC721(collection);\n\n        // Assemble the NFT details\n        NFT memory nft = _nftDetails(collection, tokenId);\n\n        // Validate the approval\n        _validateNFTApproval(collection, tokenId, nft);\n\n        // Fees\n        uint256 royaltyFee = getRoyaltyFee(collection, tokenId);\n        uint256 investorFee = getInvestorFee(collection, tokenId);\n\n        // Make sure that all the fees sumed up do not exceed 100%\n        // \n        // Note: The investor fee is ignored from the validation\n        // because that fee represents a percetange of the\n        // royalty fee.\n        _validateFees(royaltyFee, marketplaceFee);\n\n        // Make sure the parameters are valid\n        require(\n            _validateTrade(\n                collection,\n                tokenId,\n                nft.owner,\n                buyer,\n                price,\n                currency,\n                royaltyFee,\n                investorFee,\n                marketplaceFee,\n                signature\n            ),\n            \"NFTMarketplace: Invalid signature\"\n        );\n        return true;\n    }\n\n    /**\n     * @notice If the collection smart contract implements `IERC721Autentica` or `IERC2981` then \n     * the function returns the royalty fee from that smart contract, otherwise it will return 0.\n     *\n     * @param collection The ERC-721 smart contract.\n     * @param tokenId The unique identifier of the ERC-721 token within the `collection` smart contract.\n     *\n     */\n    function getRoyaltyFee(address collection, uint256 tokenId)\n        public\n        view\n        returns (uint256)\n    {\n        uint256 royaltyFee = 0;\n\n        if (ERC165Checker.supportsInterface(collection, type(IERC721Autentica).interfaceId)) {\n            // This is a smart contract implementing `IERC721Autentica`\n            royaltyFee = _normalizedFee(\n                IERC721Autentica(collection),\n                IERC721Autentica(collection).getRoyaltyFee(tokenId)\n            );\n        } else if (ERC165Checker.supportsInterface(collection, type(IERC2981).interfaceId)) {\n            // This is a smart contract implementing `IERC2981`\n            (, royaltyFee) = IERC2981(collection).royaltyInfo(tokenId, 100 * (10 ** DECIMALS));\n            // The reason for why we use `100 * (10 ** DECIMALS)` as the sale price is because other\n            // we don't want to lose precision when calculating the fee.\n        }\n        return royaltyFee;\n    }\n\n    /**\n     * @notice If the collection smart contract implements `IERC721Autentica` then the function \n     * returns the investor fee from that smart contract, otherwise it will return 0.\n     *\n     * @param collection The ERC-721 smart contract.\n     * @param tokenId The unique identifier of the ERC-721 token within the `collection` smart contract.\n     *\n     */\n    function getInvestorFee(address collection, uint256 tokenId)\n        public\n        view\n        returns (uint256)\n    {\n        uint256 investorFee = 0;\n        if (ERC165Checker.supportsInterface(collection, type(IERC721Autentica).interfaceId)) {\n            // This is a smart contract implementing `IERC721Autentica`\n            investorFee = _normalizedFee(\n                IERC721Autentica(collection),\n                IERC721Autentica(collection).getInvestorFee(tokenId)\n            );\n        }\n        return investorFee;\n    }\n\n    /**\n     * @dev Verifies if the token owner has approved this smart contract to manage its \n     * NFTs from the specified collection.\n     * @return Returns `true` if this smart contract is approved by the `tokenOwner` in \n     * the `collection` smart contract or only if that specific NFT is approved for this smart contract.\n     */\n    function isMarketplaceApproved(\n        IERC721 collection,\n        uint256 tokenId,\n        address tokenOwner\n    ) public view returns (bool) {\n        return\n            collection.getApproved(tokenId) == address(this) ||\n            collection.isApprovedForAll(tokenOwner, address(this));\n    }\n\n    /**\n     * @notice Pause the contract.\n     *\n     * Requirements:\n     *\n     * - the caller must be admin.\n     */\n    function pause() public {\n        // Make sure that only admins can pause the contract\n        require(\n            hasRole(DEFAULT_ADMIN_ROLE, _msgSender()),\n            \"NFTMarketplace: Only admins can pause\"\n        );\n\n        // Do it\n        _pause();\n    }\n\n    /**\n     * @notice Unpause the contract.\n     *\n     * Requirements:\n     *\n     * - the caller must be admin.\n     */\n    function unpause() public {\n        // Make sure that only admins can unpause the contract\n        require(\n            hasRole(DEFAULT_ADMIN_ROLE, _msgSender()),\n            \"NFTMarketplace: Only admins can unpause\"\n        );\n\n        // Do it\n        _unpause();\n    }\n\n    /**\n     * @dev Function to transfer coins (the native cryptocurrency of the \n     * platform, i.e.: ETH) from this contract to the specified address.\n     *\n     * @param to - Address where to transfer the coins\n     * @param amount - Amount (in wei)\n     *\n     */\n    function _sendViaCall(address payable to, uint256 amount) private {\n        (bool sent, ) = to.call{value: amount}(\"\");\n        require(sent, \"NFTMarketplace: Failed to send coins\");\n    }\n\n    /**\n     * Returns `true` if the signer has the admin or the operator role.\n     *\n     * @param collection The ERC-721 smart contract.\n     * @param tokenId The unique identifier of the ERC-721 token within the `collection` smart contract.\n     * @param buyer Seller address.\n     * @param buyer Buyer address.\n     * @param price Price of the NFT expressed in coins or tokens.\n     * @param token The ERC-20 smart contract address.\n     * @param royaltyFee Royalty fee.\n     * @param investorFee Investor fee.\n     * @param marketplaceFee Marketplace fee.\n     * @param signature ECDSA signature.\n     */\n    function _validateTrade(\n        address collection,\n        uint256 tokenId,\n        address seller,\n        address buyer,\n        uint256 price,\n        address token,\n        uint256 royaltyFee,\n        uint256 investorFee,\n        uint256 marketplaceFee,\n        Signature calldata signature\n    ) private view returns (bool) {\n        bytes32 hash = keccak256(\n            abi.encode(\n                address(this),\n                collection,\n                tokenId,\n                seller,\n                buyer,\n                price,\n                token,\n                royaltyFee,\n                investorFee,\n                marketplaceFee\n            )\n        );\n\n        address signer = ecrecover(\n            keccak256(\n                abi.encodePacked(\"\\x19Ethereum Signed Message:\\n32\", hash)\n            ),\n            signature.v,\n            signature.r,\n            signature.s\n        );\n\n        return\n            hasRole(DEFAULT_ADMIN_ROLE, signer) ||\n            hasRole(OPERATOR_ROLE, signer);\n    }\n\n    /**\n     * @dev Returns the fee normalized to the number of decimals used in this smart contract.\n     *\n     * @param collection The Autentica ERC-721 smart contract.\n     * @param fee Value represented using the number of decimals used by the `collection` smart contract.\n     */\n    function _normalizedFee(IERC721Autentica collection, uint256 fee)\n        private\n        view\n        returns (uint256)\n    {\n        return (fee * (10**DECIMALS)) / (10**collection.decimals());\n    }\n\n    /**\n     * @dev Returns the number of coins/tokens for a given fee percentage.\n     */\n    function _calculateProceedsForFee(uint256 fee, uint256 price)\n        private\n        pure\n        returns (uint256)\n    {\n        if (fee == 0) {\n            return 0;\n        }\n\n        // Price * Fee (which is already multiplied by 10**DECIMALS) / 100% multiplied by 10**DECIMALS\n        return (price * fee) / (100 * 10**DECIMALS);\n    }\n\n    /**\n     * Returns the owner proceeds.\n     */\n    function _calculateOwnerProceeds(\n        uint256 price,\n        Proceeds memory proceeds\n    ) private pure returns (uint256) {\n        return\n            price -\n            proceeds.marketplace -\n            proceeds.creator -\n            proceeds.investor;\n    }\n\n    /**\n     * @dev Makes sure that the `collection` is a valid ERC-721 smart contract.\n     */\n    function _validateERC721(address collection) private view {\n        require(\n            ERC165Checker.supportsInterface(\n                collection,\n                type(IERC721).interfaceId\n            ),\n            \"NFTMarketplace: Collection does not support the ERC-721 interface\"\n        );\n    }\n\n    /**\n     * @dev Makes sure that the owner approved this smart contract for the token.\n     */\n    function _validateNFTApproval(\n        address collection,\n        uint256 tokenId,\n        NFT memory nft\n    ) private view {\n        require(\n            isMarketplaceApproved(IERC721(collection), tokenId, nft.owner),\n            \"NFTMarketplace: Owner has not approved us for managing its NFTs\"\n        );\n    }\n\n    /**\n     * @dev Make sure that all the fees sumed up do not exceed 100%.\n     */\n    function _validateFees(\n        uint256 royaltyFee,\n        uint256 marketplaceFee\n    ) private pure {\n        require(\n            royaltyFee + marketplaceFee <= 100 * 10**DECIMALS,\n            \"NFTMarketplace: Total fees cannot be greater than 100%\"\n        );\n    }\n\n    /**\n     * @dev Returns the NFT details.\n     *\n     * @param collection The ERC-721 smart contract.\n     * @param tokenId The unique identifier of the ERC-721 token within the `collection` smart contract.\n     */\n    function _nftDetails(address collection, uint256 tokenId)\n        private\n        view\n        returns (NFT memory)\n    {\n        // Assemble the NFT details\n        NFT memory nft = NFT({\n            owner: IERC721(collection).ownerOf(tokenId),\n            creator: address(0x0), // Will get overriden below if this is a Autentica ERC-721 collection\n            investor: address(0x0) // Will get overriden below if this is a Autentica ERC-721 collection\n        });\n\n        // Update the information about the creator and investor\n        if (ERC165Checker.supportsInterface(collection, type(IERC721Autentica).interfaceId)) {\n            // This is a smart contract implementing `IERC721Autentica`\n            nft.creator = IERC721Autentica(collection).getCreator(tokenId);\n            nft.investor = IERC721Autentica(collection).getInvestor(tokenId);\n        } else if (ERC165Checker.supportsInterface(collection, type(IERC2981).interfaceId)) {\n            // This is a smart contract implementing `IERC2981`\n            (nft.creator, ) = IERC2981(collection).royaltyInfo(tokenId, 100 * (10 ** DECIMALS));\n            // The reason for why we use `100 * (10 ** DECIMALS)` as the sale price is because other\n            // implementations of `ERC-2981` may return `address(0x0)` for the \n            // `receiver` if the values are too low or zero.\n        }\n\n        return nft;\n    }\n\n    /**\n     * @dev Returns the Percentages details.\n     *\n     * @param nft NFT details.\n     * @param royaltyFee Royalty fee.\n     * @param investorFee Investor fee.\n     * @param marketplaceFee Marketplace fee.\n     */\n    function _percentagesDetails(\n        NFT memory nft,\n        uint256 royaltyFee,\n        uint256 investorFee,\n        uint256 marketplaceFee\n    ) private pure returns (Percentages memory) {\n        Percentages memory percentages = Percentages({creator: 0, investor: 0});\n\n        if (nft.owner == nft.creator) {\n            // CASE 1: The NFT is owned by the creator\n\n            if (nft.investor != address(0x0) && investorFee > 0) {\n                // CASE 1.1: The investor will receive X% from the creator/owner's end\n                percentages.investor = (investorFee * ((100 * 10**DECIMALS) - marketplaceFee)) / (100 * 10**DECIMALS);\n            }\n        } else {\n            // CASE 2: The NFT is owned by someone else\n\n            if (nft.creator != address(0x0) && royaltyFee > 0) {\n                // CASE 2.1: The creator will get payed too\n                percentages.creator = royaltyFee;\n\n                if (nft.investor != address(0x0) && investorFee > 0) {\n                    // CASE 1.1: The investor will receive X% from the creator's end\n                    \n                    // Calculate the investor fee\n                    percentages.investor = (investorFee * percentages.creator) / (100 * 10**DECIMALS);\n                    // Shrink the creator fee\n                    percentages.creator = percentages.creator - percentages.investor;\n                }\n            }\n        }\n\n        return percentages;\n    }\n}\n",
  "sourcePath": "/Volumes/Storage/Workspace/Projects/Autentica/smart-contracts-playground/contracts/NFTMarketplace.sol",
  "compiler": {
    "name": "solc",
    "version": "0.8.11+commit.d7f03943.Emscripten.clang"
  },
  "schemaVersion": "3.4.4",
  "updatedAt": "2022-02-07T12:44:08.815Z",
  "networkType": "ethereum",
  "devdoc": {
    "events": {
      "AllowedTokenAdded(address)": {
        "details": "Emitted when a new token is allowed to be used for trading."
      },
      "AllowedTokenRemoved(address)": {
        "details": "Emitted when a token is not longer allowed to be used for trading."
      },
      "ChangedAutentica(address,address)": {
        "details": "Emitted when the Autentica wallet address has been updated."
      },
      "TradedForCoins(address,uint256,address,address,uint256,uint256,uint256)": {
        "details": "Emitted when a trade occured between the `seller` (the owner of the ERC-721 token represented by `tokenId` within the `collection` smart contract) and `buyer` which payed the specified `price` in coins (the native cryptocurrency of the platform, i.e.: ETH)."
      },
      "TradedForTokens(address,uint256,address,address,address,uint256,uint256,uint256)": {
        "details": "Emitted when a trade occured between the `seller` (the owner of the ERC-721 token represented by `tokenId` within the `collection` smart contract) and `buyer` which payed the specified `price` in tokens that are represented by the `token` ERC-20 smart contract address."
      }
    },
    "kind": "dev",
    "methods": {
      "addAllowedToken(address)": {
        "details": "Add a new allowed token to the contract.",
        "params": {
          "tokenAddress": "The address of the allowed token to add. Requirements: - the caller must be admin."
        }
      },
      "allowedTokenAtIndex(uint256)": {
        "details": "Returns the address of the allowed token at the specified index.",
        "params": {
          "index": "The index of the allowed token."
        }
      },
      "canPerformTrade(address,uint256,uint256,address,address,uint256,(uint8,bytes32,bytes32))": {
        "params": {
          "buyer": "Buyer address.",
          "collection": "The ERC-721 smart contract.",
          "currency": "The type of currency (erc20 or native currency)",
          "marketplaceFee": "Marketplace fee.",
          "price": "The price of the NFT in `token` tokens.",
          "signature": "ECDSA signature.",
          "tokenId": "The unique identifier of the ERC-721 token within the `collection` smart contract."
        }
      },
      "decimals()": {
        "details": "Returns the number of decimals used for fees."
      },
      "getInvestorFee(address,uint256)": {
        "params": {
          "collection": "The ERC-721 smart contract.",
          "tokenId": "The unique identifier of the ERC-721 token within the `collection` smart contract."
        }
      },
      "getRoleAdmin(bytes32)": {
        "details": "Returns the admin role that controls `role`. See {grantRole} and {revokeRole}. To change a role's admin, use {_setRoleAdmin}."
      },
      "getRoyaltyFee(address,uint256)": {
        "params": {
          "collection": "The ERC-721 smart contract.",
          "tokenId": "The unique identifier of the ERC-721 token within the `collection` smart contract."
        }
      },
      "grantRole(bytes32,address)": {
        "details": "Grants `role` to `account`. If `account` had not been already granted `role`, emits a {RoleGranted} event. Requirements: - the caller must have ``role``'s admin role."
      },
      "hasRole(bytes32,address)": {
        "details": "Returns `true` if `account` has been granted `role`."
      },
      "initialize(address,address[])": {
        "details": "The initializer (upgradeable constructor) sets the creator of the contract as the admin and operator of this smart contract, sets the wallet address for Autentica and sets the allowed tokens."
      },
      "isMarketplaceApproved(address,uint256,address)": {
        "details": "Verifies if the token owner has approved this smart contract to manage its  NFTs from the specified collection.",
        "returns": {
          "_0": "Returns `true` if this smart contract is approved by the `tokenOwner` in  the `collection` smart contract or only if that specific NFT is approved for this smart contract."
        }
      },
      "isTokenAllowed(address)": {
        "details": "Verifies if a token address has been allowed already."
      },
      "numberOfAllowedTokens()": {
        "details": "Returns the number of allowed tokens."
      },
      "paused()": {
        "details": "Returns true if the contract is paused, and false otherwise."
      },
      "removeAllowedTokenAtIndex(uint256)": {
        "details": "Remove the allowed token at the specified index.",
        "params": {
          "index": "The index of the allowed token. Requirements: - the caller must be admin."
        }
      },
      "renounceRole(bytes32,address)": {
        "details": "Revokes `role` from the calling account. Roles are often managed via {grantRole} and {revokeRole}: this function's purpose is to provide a mechanism for accounts to lose their privileges if they are compromised (such as when a trusted device is misplaced). If the calling account had been revoked `role`, emits a {RoleRevoked} event. Requirements: - the caller must be `account`."
      },
      "revokeRole(bytes32,address)": {
        "details": "Revokes `role` from `account`. If `account` had been granted `role`, emits a {RoleRevoked} event. Requirements: - the caller must have ``role``'s admin role."
      },
      "setAutentica(address)": {
        "details": "Sets the Autentica wallet address. Requirements: - the caller must be admin."
      },
      "supportsInterface(bytes4)": {
        "details": "See {IERC165-supportsInterface}."
      },
      "tradeForCoins(address,uint256,uint256,address,uint256,(uint8,bytes32,bytes32))": {
        "details": "Requirements - The `collection` smart contract must be an ERC-721 smart contract. - The owner of the NFT identified by `tokenId` within the `collection` smart contract must have approved   this smart contract to manage its NFTs. - The `price` and `msg.value` must be equal. - The sum of all the fees cannot be greater than 100%. - The ECDSA signature must be signed by someone with the admin or operator role.",
        "params": {
          "buyer": "Buyer address.",
          "collection": "The ERC-721 smart contract.",
          "marketplaceFee": "Marketplace fee.",
          "price": "The price of the NFT in coins.",
          "signature": "ECDSA signature.",
          "tokenId": "The unique identifier of the ERC-721 token within the `collection` smart contract."
        }
      },
      "tradeForTokens(address,uint256,uint256,address,address,uint256,(uint8,bytes32,bytes32))": {
        "params": {
          "buyer": "Buyer address.",
          "collection": "The ERC-721 smart contract.",
          "marketplaceFee": "Marketplace fee.",
          "price": "The price of the NFT in `token` tokens.",
          "signature": "ECDSA signature. Requirements: - The `collection` smart contract must be an ERC-721 smart contract. - The owner of the NFT identified by `tokenId` within the `collection` smart contract must have approved   this smart contract to manage its NFTs. - The sum of all the fees cannot be greater than 100%. - The ECDSA signature must be signed by someone with the admin or operator role.",
          "token": "The ERC-20 smart contract.",
          "tokenId": "The unique identifier of the ERC-721 token within the `collection` smart contract."
        }
      }
    },
    "version": 1
  },
  "userdoc": {
    "kind": "user",
    "methods": {
      "autentica()": {
        "notice": "Returns the Autentica wallet address."
      },
      "canPerformTrade(address,uint256,uint256,address,address,uint256,(uint8,bytes32,bytes32))": {
        "notice": "Validate the trade."
      },
      "getInvestorFee(address,uint256)": {
        "notice": "If the collection smart contract implements `IERC721Autentica` then the function  returns the investor fee from that smart contract, otherwise it will return 0."
      },
      "getRoyaltyFee(address,uint256)": {
        "notice": "If the collection smart contract implements `IERC721Autentica` or `IERC2981` then  the function returns the royalty fee from that smart contract, otherwise it will return 0."
      },
      "pause()": {
        "notice": "Pause the contract. Requirements: - the caller must be admin."
      },
      "tradeForCoins(address,uint256,uint256,address,uint256,(uint8,bytes32,bytes32))": {
        "notice": "Trades an NFT for a given amount of coins (the native cryptocurrency of the platform, i.e.: ETH)."
      },
      "tradeForTokens(address,uint256,uint256,address,address,uint256,(uint8,bytes32,bytes32))": {
        "notice": "Trades an NFT for a given amount of ERC-20 tokens (i.e.: AUT/USDT/USDC)."
      },
      "unpause()": {
        "notice": "Unpause the contract. Requirements: - the caller must be admin."
      }
    },
    "version": 1
  }
}