{
  "contractName": "NFTMarketplace",
  "abi": [
    {
      "inputs": [
        {
          "internalType": "address",
          "name": "wallet",
          "type": "address"
        },
        {
          "internalType": "address[]",
          "name": "allowedTokens",
          "type": "address[]"
        }
      ],
      "stateMutability": "nonpayable",
      "type": "constructor"
    },
    {
      "anonymous": false,
      "inputs": [
        {
          "indexed": true,
          "internalType": "address",
          "name": "tokenAddress",
          "type": "address"
        }
      ],
      "name": "AllowedTokenAdded",
      "type": "event"
    },
    {
      "anonymous": false,
      "inputs": [
        {
          "indexed": true,
          "internalType": "address",
          "name": "tokenAddress",
          "type": "address"
        }
      ],
      "name": "AllowedTokenRemoved",
      "type": "event"
    },
    {
      "anonymous": false,
      "inputs": [
        {
          "indexed": true,
          "internalType": "address",
          "name": "oldAddress",
          "type": "address"
        },
        {
          "indexed": true,
          "internalType": "address",
          "name": "newAddress",
          "type": "address"
        }
      ],
      "name": "ChangedAutentica",
      "type": "event"
    },
    {
      "anonymous": false,
      "inputs": [
        {
          "indexed": false,
          "internalType": "address",
          "name": "account",
          "type": "address"
        }
      ],
      "name": "Paused",
      "type": "event"
    },
    {
      "anonymous": false,
      "inputs": [
        {
          "indexed": true,
          "internalType": "bytes32",
          "name": "role",
          "type": "bytes32"
        },
        {
          "indexed": true,
          "internalType": "bytes32",
          "name": "previousAdminRole",
          "type": "bytes32"
        },
        {
          "indexed": true,
          "internalType": "bytes32",
          "name": "newAdminRole",
          "type": "bytes32"
        }
      ],
      "name": "RoleAdminChanged",
      "type": "event"
    },
    {
      "anonymous": false,
      "inputs": [
        {
          "indexed": true,
          "internalType": "bytes32",
          "name": "role",
          "type": "bytes32"
        },
        {
          "indexed": true,
          "internalType": "address",
          "name": "account",
          "type": "address"
        },
        {
          "indexed": true,
          "internalType": "address",
          "name": "sender",
          "type": "address"
        }
      ],
      "name": "RoleGranted",
      "type": "event"
    },
    {
      "anonymous": false,
      "inputs": [
        {
          "indexed": true,
          "internalType": "bytes32",
          "name": "role",
          "type": "bytes32"
        },
        {
          "indexed": true,
          "internalType": "address",
          "name": "account",
          "type": "address"
        },
        {
          "indexed": true,
          "internalType": "address",
          "name": "sender",
          "type": "address"
        }
      ],
      "name": "RoleRevoked",
      "type": "event"
    },
    {
      "anonymous": false,
      "inputs": [
        {
          "indexed": true,
          "internalType": "address",
          "name": "collection",
          "type": "address"
        },
        {
          "indexed": true,
          "internalType": "uint256",
          "name": "tokenId",
          "type": "uint256"
        },
        {
          "indexed": true,
          "internalType": "address",
          "name": "seller",
          "type": "address"
        },
        {
          "indexed": false,
          "internalType": "address",
          "name": "buyer",
          "type": "address"
        },
        {
          "indexed": false,
          "internalType": "uint256",
          "name": "price",
          "type": "uint256"
        },
        {
          "indexed": false,
          "internalType": "uint256",
          "name": "ownerProceeds",
          "type": "uint256"
        },
        {
          "indexed": false,
          "internalType": "uint256",
          "name": "creatorProceeds",
          "type": "uint256"
        },
        {
          "indexed": false,
          "internalType": "uint256",
          "name": "investorProceeds",
          "type": "uint256"
        }
      ],
      "name": "TradedForCoins",
      "type": "event"
    },
    {
      "anonymous": false,
      "inputs": [
        {
          "indexed": true,
          "internalType": "address",
          "name": "collection",
          "type": "address"
        },
        {
          "indexed": true,
          "internalType": "uint256",
          "name": "tokenId",
          "type": "uint256"
        },
        {
          "indexed": true,
          "internalType": "address",
          "name": "seller",
          "type": "address"
        },
        {
          "indexed": false,
          "internalType": "address",
          "name": "buyer",
          "type": "address"
        },
        {
          "indexed": false,
          "internalType": "address",
          "name": "token",
          "type": "address"
        },
        {
          "indexed": false,
          "internalType": "uint256",
          "name": "price",
          "type": "uint256"
        },
        {
          "indexed": false,
          "internalType": "uint256",
          "name": "ownerProceeds",
          "type": "uint256"
        },
        {
          "indexed": false,
          "internalType": "uint256",
          "name": "creatorProceeds",
          "type": "uint256"
        },
        {
          "indexed": false,
          "internalType": "uint256",
          "name": "investorProceeds",
          "type": "uint256"
        }
      ],
      "name": "TradedForTokens",
      "type": "event"
    },
    {
      "anonymous": false,
      "inputs": [
        {
          "indexed": false,
          "internalType": "address",
          "name": "account",
          "type": "address"
        }
      ],
      "name": "Unpaused",
      "type": "event"
    },
    {
      "inputs": [],
      "name": "DECIMALS",
      "outputs": [
        {
          "internalType": "uint8",
          "name": "",
          "type": "uint8"
        }
      ],
      "stateMutability": "view",
      "type": "function",
      "constant": true
    },
    {
      "inputs": [],
      "name": "DEFAULT_ADMIN_ROLE",
      "outputs": [
        {
          "internalType": "bytes32",
          "name": "",
          "type": "bytes32"
        }
      ],
      "stateMutability": "view",
      "type": "function",
      "constant": true
    },
    {
      "inputs": [],
      "name": "OPERATOR_ROLE",
      "outputs": [
        {
          "internalType": "bytes32",
          "name": "",
          "type": "bytes32"
        }
      ],
      "stateMutability": "view",
      "type": "function",
      "constant": true
    },
    {
      "inputs": [
        {
          "internalType": "bytes32",
          "name": "role",
          "type": "bytes32"
        }
      ],
      "name": "getRoleAdmin",
      "outputs": [
        {
          "internalType": "bytes32",
          "name": "",
          "type": "bytes32"
        }
      ],
      "stateMutability": "view",
      "type": "function",
      "constant": true
    },
    {
      "inputs": [
        {
          "internalType": "bytes32",
          "name": "role",
          "type": "bytes32"
        },
        {
          "internalType": "address",
          "name": "account",
          "type": "address"
        }
      ],
      "name": "grantRole",
      "outputs": [],
      "stateMutability": "nonpayable",
      "type": "function"
    },
    {
      "inputs": [
        {
          "internalType": "bytes32",
          "name": "role",
          "type": "bytes32"
        },
        {
          "internalType": "address",
          "name": "account",
          "type": "address"
        }
      ],
      "name": "hasRole",
      "outputs": [
        {
          "internalType": "bool",
          "name": "",
          "type": "bool"
        }
      ],
      "stateMutability": "view",
      "type": "function",
      "constant": true
    },
    {
      "inputs": [],
      "name": "paused",
      "outputs": [
        {
          "internalType": "bool",
          "name": "",
          "type": "bool"
        }
      ],
      "stateMutability": "view",
      "type": "function",
      "constant": true
    },
    {
      "inputs": [
        {
          "internalType": "bytes32",
          "name": "role",
          "type": "bytes32"
        },
        {
          "internalType": "address",
          "name": "account",
          "type": "address"
        }
      ],
      "name": "renounceRole",
      "outputs": [],
      "stateMutability": "nonpayable",
      "type": "function"
    },
    {
      "inputs": [
        {
          "internalType": "bytes32",
          "name": "role",
          "type": "bytes32"
        },
        {
          "internalType": "address",
          "name": "account",
          "type": "address"
        }
      ],
      "name": "revokeRole",
      "outputs": [],
      "stateMutability": "nonpayable",
      "type": "function"
    },
    {
      "inputs": [
        {
          "internalType": "bytes4",
          "name": "interfaceId",
          "type": "bytes4"
        }
      ],
      "name": "supportsInterface",
      "outputs": [
        {
          "internalType": "bool",
          "name": "",
          "type": "bool"
        }
      ],
      "stateMutability": "view",
      "type": "function",
      "constant": true
    },
    {
      "inputs": [],
      "name": "autentica",
      "outputs": [
        {
          "internalType": "address",
          "name": "",
          "type": "address"
        }
      ],
      "stateMutability": "view",
      "type": "function",
      "constant": true
    },
    {
      "inputs": [
        {
          "internalType": "address",
          "name": "wallet",
          "type": "address"
        }
      ],
      "name": "setAutentica",
      "outputs": [
        {
          "internalType": "address",
          "name": "",
          "type": "address"
        }
      ],
      "stateMutability": "nonpayable",
      "type": "function"
    },
    {
      "inputs": [],
      "name": "decimals",
      "outputs": [
        {
          "internalType": "uint8",
          "name": "",
          "type": "uint8"
        }
      ],
      "stateMutability": "pure",
      "type": "function",
      "constant": true
    },
    {
      "inputs": [],
      "name": "numberOfAllowedTokens",
      "outputs": [
        {
          "internalType": "uint256",
          "name": "",
          "type": "uint256"
        }
      ],
      "stateMutability": "view",
      "type": "function",
      "constant": true
    },
    {
      "inputs": [
        {
          "internalType": "uint256",
          "name": "index",
          "type": "uint256"
        }
      ],
      "name": "allowedTokenAtIndex",
      "outputs": [
        {
          "internalType": "address",
          "name": "",
          "type": "address"
        }
      ],
      "stateMutability": "view",
      "type": "function",
      "constant": true
    },
    {
      "inputs": [
        {
          "internalType": "address",
          "name": "tokenAddress",
          "type": "address"
        }
      ],
      "name": "isTokenAllowed",
      "outputs": [
        {
          "internalType": "bool",
          "name": "",
          "type": "bool"
        }
      ],
      "stateMutability": "view",
      "type": "function",
      "constant": true
    },
    {
      "inputs": [
        {
          "internalType": "address",
          "name": "tokenAddress",
          "type": "address"
        }
      ],
      "name": "addAllowedToken",
      "outputs": [],
      "stateMutability": "nonpayable",
      "type": "function"
    },
    {
      "inputs": [
        {
          "internalType": "uint256",
          "name": "index",
          "type": "uint256"
        }
      ],
      "name": "removeAllowedTokenAtIndex",
      "outputs": [],
      "stateMutability": "nonpayable",
      "type": "function"
    },
    {
      "inputs": [
        {
          "internalType": "address",
          "name": "collection",
          "type": "address"
        },
        {
          "internalType": "uint256",
          "name": "tokenId",
          "type": "uint256"
        },
        {
          "internalType": "uint256",
          "name": "price",
          "type": "uint256"
        },
        {
          "internalType": "address",
          "name": "buyer",
          "type": "address"
        },
        {
          "internalType": "uint256",
          "name": "marketplaceFee",
          "type": "uint256"
        },
        {
          "components": [
            {
              "internalType": "uint8",
              "name": "v",
              "type": "uint8"
            },
            {
              "internalType": "bytes32",
              "name": "r",
              "type": "bytes32"
            },
            {
              "internalType": "bytes32",
              "name": "s",
              "type": "bytes32"
            }
          ],
          "internalType": "struct NFTMarketplace.Signature",
          "name": "signature",
          "type": "tuple"
        }
      ],
      "name": "tradeForCoins",
      "outputs": [],
      "stateMutability": "payable",
      "type": "function",
      "payable": true
    },
    {
      "inputs": [
        {
          "internalType": "address",
          "name": "collection",
          "type": "address"
        },
        {
          "internalType": "uint256",
          "name": "tokenId",
          "type": "uint256"
        },
        {
          "internalType": "uint256",
          "name": "price",
          "type": "uint256"
        },
        {
          "internalType": "address",
          "name": "token",
          "type": "address"
        },
        {
          "internalType": "address",
          "name": "buyer",
          "type": "address"
        },
        {
          "internalType": "uint256",
          "name": "marketplaceFee",
          "type": "uint256"
        },
        {
          "components": [
            {
              "internalType": "uint8",
              "name": "v",
              "type": "uint8"
            },
            {
              "internalType": "bytes32",
              "name": "r",
              "type": "bytes32"
            },
            {
              "internalType": "bytes32",
              "name": "s",
              "type": "bytes32"
            }
          ],
          "internalType": "struct NFTMarketplace.Signature",
          "name": "signature",
          "type": "tuple"
        }
      ],
      "name": "tradeForTokens",
      "outputs": [],
      "stateMutability": "nonpayable",
      "type": "function"
    },
    {
      "inputs": [
        {
          "internalType": "address",
          "name": "collection",
          "type": "address"
        },
        {
          "internalType": "uint256",
          "name": "tokenId",
          "type": "uint256"
        },
        {
          "internalType": "uint256",
          "name": "price",
          "type": "uint256"
        },
        {
          "internalType": "address",
          "name": "currency",
          "type": "address"
        },
        {
          "internalType": "address",
          "name": "buyer",
          "type": "address"
        },
        {
          "internalType": "uint256",
          "name": "marketplaceFee",
          "type": "uint256"
        },
        {
          "components": [
            {
              "internalType": "uint8",
              "name": "v",
              "type": "uint8"
            },
            {
              "internalType": "bytes32",
              "name": "r",
              "type": "bytes32"
            },
            {
              "internalType": "bytes32",
              "name": "s",
              "type": "bytes32"
            }
          ],
          "internalType": "struct NFTMarketplace.Signature",
          "name": "signature",
          "type": "tuple"
        }
      ],
      "name": "canPerformTrade",
      "outputs": [
        {
          "internalType": "bool",
          "name": "",
          "type": "bool"
        }
      ],
      "stateMutability": "view",
      "type": "function",
      "constant": true
    },
    {
      "inputs": [
        {
          "internalType": "address",
          "name": "collection",
          "type": "address"
        },
        {
          "internalType": "uint256",
          "name": "tokenId",
          "type": "uint256"
        }
      ],
      "name": "getRoyaltyFee",
      "outputs": [
        {
          "internalType": "uint256",
          "name": "",
          "type": "uint256"
        }
      ],
      "stateMutability": "view",
      "type": "function",
      "constant": true
    },
    {
      "inputs": [
        {
          "internalType": "address",
          "name": "collection",
          "type": "address"
        },
        {
          "internalType": "uint256",
          "name": "tokenId",
          "type": "uint256"
        }
      ],
      "name": "getInvestorFee",
      "outputs": [
        {
          "internalType": "uint256",
          "name": "",
          "type": "uint256"
        }
      ],
      "stateMutability": "view",
      "type": "function",
      "constant": true
    },
    {
      "inputs": [
        {
          "internalType": "contract IERC721",
          "name": "collection",
          "type": "address"
        },
        {
          "internalType": "uint256",
          "name": "tokenId",
          "type": "uint256"
        },
        {
          "internalType": "address",
          "name": "tokenOwner",
          "type": "address"
        }
      ],
      "name": "isMarketplaceApproved",
      "outputs": [
        {
          "internalType": "bool",
          "name": "",
          "type": "bool"
        }
      ],
      "stateMutability": "view",
      "type": "function",
      "constant": true
    },
    {
      "inputs": [],
      "name": "pause",
      "outputs": [],
      "stateMutability": "nonpayable",
      "type": "function"
    },
    {
      "inputs": [],
      "name": "unpause",
      "outputs": [],
      "stateMutability": "nonpayable",
      "type": "function"
    }
  ],
  "bytecode": "0x60806040523480156200001157600080fd5b506040516200307438038062003074833981016040819052620000349162000421565b600180556002805460ff191690556200004f600033620000f3565b6200007b7f97667070c54ef182b0f5858b034beac1b6f3089aa2d3188bb1e8929f4fa9b92933620000f3565b60028054610100600160a81b0319166101006001600160a01b0385160217905560005b8151811015620000ea57620000d5828281518110620000c157620000c16200050a565b60200260200101516200010360201b60201c565b80620000e18162000520565b9150506200009e565b50505062000548565b620000ff8282620002dd565b5050565b3360009081527fad3228b676f7d3cd4284a5443f17f1962b36e491b30a40b2405849e597ba5fb5602052604090205460ff16620001a25760405162461bcd60e51b815260206004820152603260248201527f4e46544d61726b6574706c6163653a204f6e6c792061646d696e732063616e2060448201527161646420616c6c6f77656420746f6b656e7360701b60648201526084015b60405180910390fd5b6001600160a01b038116620002035760405162461bcd60e51b815260206004820152603160248201526000805160206200305483398151915260448201527020746865207a65726f206164647265737360781b606482015260840162000199565b6200020e816200037d565b15620002655760405162461bcd60e51b815260206004820152603060248201526000805160206200305483398151915260448201526f08185b1c9958591e48185b1b1bddd95960821b606482015260840162000199565b6003805460018101825560009182527fc2575a0e9e593c00f959f8c92f12db2869c3395a3b0502d05e2516446f71f85b0180546001600160a01b0319166001600160a01b03841690811790915560405190917ff849d00bc67e9e4bf072df9680646c59b8c5380160834c2e1d4896ce5ec81f7591a250565b6000828152602081815260408083206001600160a01b038516845290915290205460ff16620000ff576000828152602081815260408083206001600160a01b03851684529091529020805460ff19166001179055620003393390565b6001600160a01b0316816001600160a01b0316837f2f8788117e7eff1d82e926ec794901d17c78024a50270940304540a733656f0d60405160405180910390a45050565b6000805b600354811015620003e557826001600160a01b031660038281548110620003ac57620003ac6200050a565b6000918252602090912001546001600160a01b031603620003d05750600192915050565b80620003dc8162000520565b91505062000381565b50600092915050565b80516001600160a01b03811681146200040657600080fd5b919050565b634e487b7160e01b600052604160045260246000fd5b600080604083850312156200043557600080fd5b6200044083620003ee565b602084810151919350906001600160401b03808211156200046057600080fd5b818601915086601f8301126200047557600080fd5b8151818111156200048a576200048a6200040b565b8060051b604051601f19603f83011681018181108582111715620004b257620004b26200040b565b604052918252848201925083810185019189831115620004d157600080fd5b938501935b82851015620004fa57620004ea85620003ee565b84529385019392850192620004d6565b8096505050505050509250929050565b634e487b7160e01b600052603260045260246000fd5b6000600182016200054157634e487b7160e01b600052601160045260246000fd5b5060010190565b612afc80620005586000396000f3fe6080604052600436106101815760003560e01c80635c975abb116100d157806391d148541161008a578063d0f4adca11610064578063d0f4adca14610450578063d547741f14610470578063f5b541a614610490578063f9eaee0d146104c457600080fd5b806391d1485414610406578063a217fddf14610426578063b4c438691461043b57600080fd5b80635c975abb146103635780636aaa90571461037b5780636bc79a671461039e57806376ab4570146103be5780638456cb59146103de578063862d32e2146103f357600080fd5b806336568abe1161013e5780633f4ba83a116101185780633f4ba83a146102d65780634178617f146102eb57806342f7260e1461030b57806359d7a4861461032b57600080fd5b806336568abe14610276578063369e4c2c146102965780633ab10409146102b657600080fd5b806301ffc9a714610186578063243f5c87146101bb578063248a9ca3146101db5780632e0f2625146102195780632f2ff15d14610240578063313ce56714610262575b600080fd5b34801561019257600080fd5b506101a66101a1366004612488565b6104e4565b60405190151581526020015b60405180910390f35b3480156101c757600080fd5b506101a66101d63660046124df565b61051b565b3480156101e757600080fd5b5061020b6101f6366004612558565b60009081526020819052604090206001015490565b6040519081526020016101b2565b34801561022557600080fd5b5061022e600281565b60405160ff90911681526020016101b2565b34801561024c57600080fd5b5061026061025b366004612571565b61064b565b005b34801561026e57600080fd5b50600261022e565b34801561028257600080fd5b50610260610291366004612571565b610675565b3480156102a257600080fd5b506101a66102b13660046125a1565b6106f3565b3480156102c257600080fd5b5061020b6102d13660046125e3565b6107e9565b3480156102e257600080fd5b50610260610881565b3480156102f757600080fd5b5061026061030636600461260f565b6108e0565b34801561031757600080fd5b506102606103263660046124df565b610a97565b34801561033757600080fd5b5061034b61034636600461260f565b610ef4565b6040516001600160a01b0390911681526020016101b2565b34801561036f57600080fd5b5060025460ff166101a6565b34801561038757600080fd5b5060025461010090046001600160a01b031661034b565b3480156103aa57600080fd5b5061034b6103b9366004612558565b610fc1565b3480156103ca57600080fd5b5061020b6103d93660046125e3565b611018565b3480156103ea57600080fd5b50610260611115565b61026061040136600461262c565b611170565b34801561041257600080fd5b506101a6610421366004612571565b61141d565b34801561043257600080fd5b5061020b600081565b34801561044757600080fd5b5060035461020b565b34801561045c57600080fd5b5061026061046b366004612558565b611446565b34801561047c57600080fd5b5061026061048b366004612571565b61162b565b34801561049c57600080fd5b5061020b7f97667070c54ef182b0f5858b034beac1b6f3089aa2d3188bb1e8929f4fa9b92981565b3480156104d057600080fd5b506101a66104df36600461260f565b611650565b60006001600160e01b03198216637965db0b60e01b148061051557506301ffc9a760e01b6001600160e01b03198316145b92915050565b600061052960025460ff1690565b156105865760405162461bcd60e51b815260206004820152602260248201527f4e46544d61726b6574706c6163653a20436f6e74726163742069732070617573604482015261195960f21b60648201526084015b60405180910390fd5b61058f886116b9565b600061059b8989611749565b90506105a88989836119b3565b60006105b48a8a611018565b905060006105c28b8b6107e9565b90506105ce8287611a34565b6105e48b8b85600001518a8d8d88888e8e611ac2565b61063a5760405162461bcd60e51b815260206004820152602160248201527f4e46544d61726b6574706c6163653a20496e76616c6964207369676e617475726044820152606560f81b606482015260840161057d565b5060019a9950505050505050505050565b60008281526020819052604090206001015461066681611c45565b6106708383611c4f565b505050565b6001600160a01b03811633146106e55760405162461bcd60e51b815260206004820152602f60248201527f416363657373436f6e74726f6c3a2063616e206f6e6c792072656e6f756e636560448201526e103937b632b9903337b91039b2b63360891b606482015260840161057d565b6106ef8282611cd3565b5050565b60405163020604bf60e21b81526004810183905260009030906001600160a01b0386169063081812fc90602401602060405180830381865afa15801561073d573d6000803e3d6000fd5b505050506040513d601f19601f820116820180604052508101906107619190612691565b6001600160a01b031614806107e1575060405163e985e9c560e01b81526001600160a01b03838116600483015230602483015285169063e985e9c590604401602060405180830381865afa1580156107bd573d6000803e3d6000fd5b505050506040513d601f19601f820116820180604052508101906107e191906126ae565b949350505050565b6000806107fd846325bb1e8760e11b611d38565b1561087a5760405163f915765b60e01b8152600481018490526108779085906001600160a01b0382169063f915765b906024015b602060405180830381865afa15801561084e573d6000803e3d6000fd5b505050506040513d601f19601f8201168201806040525081019061087291906126d0565b611d54565b90505b9392505050565b61088c60003361141d565b6108d65760405162461bcd60e51b81526020600482015260276024820152600080516020612aa7833981519152604482015266756e706175736560c81b606482015260840161057d565b6108de611de3565b565b6108eb60003361141d565b6109405760405162461bcd60e51b81526020600482015260326024820152600080516020612aa783398151915260448201527161646420616c6c6f77656420746f6b656e7360701b606482015260840161057d565b6001600160a01b0381166109b05760405162461bcd60e51b815260206004820152603160248201527f4e46544d61726b6574706c6163653a20546f6b656e206164647265737320697360448201527020746865207a65726f206164647265737360781b606482015260840161057d565b6109b981611650565b15610a1f5760405162461bcd60e51b815260206004820152603060248201527f4e46544d61726b6574706c6163653a20546f6b656e206164647265737320697360448201526f08185b1c9958591e48185b1b1bddd95960821b606482015260840161057d565b6003805460018101825560009182527fc2575a0e9e593c00f959f8c92f12db2869c3395a3b0502d05e2516446f71f85b0180546001600160a01b0319166001600160a01b03841690811790915560405190917ff849d00bc67e9e4bf072df9680646c59b8c5380160834c2e1d4896ce5ec81f7591a250565b600260015403610ae95760405162461bcd60e51b815260206004820152601f60248201527f5265656e7472616e637947756172643a207265656e7472616e742063616c6c00604482015260640161057d565b6002600155610af784611650565b610b4d5760405162461bcd60e51b815260206004820152602160248201527f4e46544d61726b6574706c6163653a20546f6b656e206e6f7420616c6c6f77656044820152601960fa1b606482015260840161057d565b610b5c8787878787878761051b565b506000610b698888611749565b90506000610b8b82610b7b8b8b611018565b610b858c8c6107e9565b87611e35565b905060006040518060600160405280610ba884600001518b611f8e565b8152602001610bbb84602001518b611f8e565b8152602001610bca878b611f8e565b905290506000610bda8983611fc1565b84516040516323b872dd60e01b81529192506001600160a01b038a16916323b872dd91610c0e918b919086906004016126e9565b6020604051808303816000875af1158015610c2d573d6000803e3d6000fd5b505050506040513d601f19601f82011682018060405250810190610c5191906126ae565b50602082015115610cd857604080850151602084015191516323b872dd60e01b81526001600160a01b038b16926323b872dd92610c93928c92906004016126e9565b6020604051808303816000875af1158015610cb2573d6000803e3d6000fd5b505050506040513d601f19601f82011682018060405250810190610cd691906126ae565b505b815115610d5957602084015182516040516323b872dd60e01b81526001600160a01b038b16926323b872dd92610d14928c9291906004016126e9565b6020604051808303816000875af1158015610d33573d6000803e3d6000fd5b505050506040513d601f19601f82011682018060405250810190610d5791906126ae565b505b604082015115610de75760025460408084015190516323b872dd60e01b81526001600160a01b03808c16936323b872dd93610da2938d93610100909304909216916004016126e9565b6020604051808303816000875af1158015610dc1573d6000803e3d6000fd5b505050506040513d601f19601f82011682018060405250810190610de591906126ae565b505b8351604051632142170760e11b81526001600160a01b038d16916342842e0e91610e18919033908f906004016126e9565b600060405180830381600087803b158015610e3257600080fd5b505af1158015610e46573d6000803e3d6000fd5b5050505083600001516001600160a01b03168a8c6001600160a01b03167f69d820f7af9ba1109e1ff47df37b0819b3ed419d6e5361abcd8574d4f836be1b610e8b3390565b8c8e8789600001518a60200151604051610edb969594939291906001600160a01b03968716815294909516602085015260408401929092526060830152608082015260a081019190915260c00190565b60405180910390a4505060018055505050505050505050565b6000610f00813361141d565b610f4e5760405162461bcd60e51b815260206004820152602b6024820152600080516020612aa783398151915260448201526a6368616e6765207468697360a81b606482015260840161057d565b600280546001600160a01b03848116610100908102610100600160a81b0319841617938490556040519281900482169304169082907fa2c04199617341beb18c0052b61ae8aa35006743d43ca44891ca000f56e9065590600090a3505060025461010090046001600160a01b0316919050565b6000610fcc60035490565b8210610fea5760405162461bcd60e51b815260040161057d9061270d565b60038281548110610ffd57610ffd612750565b6000918252602090912001546001600160a01b031692915050565b60008061102c846325bb1e8760e11b611d38565b1561106b57604051639e4c014160e01b8152600481018490526110649085906001600160a01b03821690639e4c014190602401610831565b905061087a565b61107c8463152a902d60e11b611d38565b1561087a576001600160a01b038416632a55205a8461109d6002600a612860565b6110a890606461286f565b6040516001600160e01b031960e085901b168152600481019290925260248201526044016040805180830381865afa1580156110e8573d6000803e3d6000fd5b505050506040513d601f19601f8201168201806040525081019061110c919061288e565b95945050505050565b61112060003361141d565b6111685760405162461bcd60e51b81526020600482015260256024820152600080516020612aa7833981519152604482015264706175736560d81b606482015260840161057d565b6108de611ff1565b6002600154036111c25760405162461bcd60e51b815260206004820152601f60248201527f5265656e7472616e637947756172643a207265656e7472616e742063616c6c00604482015260640161057d565b60026001553484146112245760405162461bcd60e51b815260206004820152602560248201527f4e46544d61726b6574706c6163653a204e6f7420656e6f75676820636f696e73604482015264081cd95b9d60da1b606482015260840161057d565b611234868686600087878761051b565b5060006112418787611749565b9050600061125d826112538a8a611018565b610b858b8b6107e9565b90506000604051806060016040528061127a84600001518a611f8e565b815260200161128d84602001518a611f8e565b815260200161129c878a611f8e565b9052905060006112ac8883611fc1565b90506112bc84600001518261202e565b6020820151156112d8576112d88460400151836020015161202e565b8151156112f1576112f18460200151836000015161202e565b60408201511561131b57600254604083015161131b9161010090046001600160a01b03169061202e565b8351604051632142170760e11b81526001600160a01b038c16916342842e0e9161134c919033908e906004016126e9565b600060405180830381600087803b15801561136657600080fd5b505af115801561137a573d6000803e3d6000fd5b5050505083600001516001600160a01b0316898b6001600160a01b03167f0208fc5be027d6de8ccfba986c6e00e8fe20decd43de203db40d4024616c23336113bf3390565b8c86886000015189602001516040516114059594939291906001600160a01b03959095168552602085019390935260408401919091526060830152608082015260a00190565b60405180910390a45050600180555050505050505050565b6000918252602082815260408084206001600160a01b0393909316845291905290205460ff1690565b61145160003361141d565b6114a95760405162461bcd60e51b81526020600482015260356024820152600080516020612aa783398151915260448201527472656d6f766520616c6c6f77656420746f6b656e7360581b606482015260840161057d565b60035481106114ca5760405162461bcd60e51b815260040161057d9061270d565b6000600382815481106114df576114df612750565b6000918252602090912001546001600160a01b031690506114ff60035490565b60010361153e576003805480611517576115176128bc565b600082815260209020810160001990810180546001600160a01b03191690550190556115f3565b6003600161154b60035490565b61155591906128d2565b8154811061156557611565612750565b600091825260209091200154600380546001600160a01b03909216918490811061159157611591612750565b9060005260206000200160006101000a8154816001600160a01b0302191690836001600160a01b0316021790555060038054806115d0576115d06128bc565b600082815260209020810160001990810180546001600160a01b03191690550190555b6040516001600160a01b038216907fbf996b4fd74f0c7159bb017b1db415b0d9a6f13129f46d0b93309d170b78df3190600090a25050565b60008281526020819052604090206001015461164681611c45565b6106708383611cd3565b6000805b6003548110156116b057826001600160a01b03166003828154811061167b5761167b612750565b6000918252602090912001546001600160a01b03160361169e5750600192915050565b806116a8816128e9565b915050611654565b50600092915050565b6116ca816380ac58cd60e01b611d38565b6117465760405162461bcd60e51b815260206004820152604160248201527f4e46544d61726b6574706c6163653a20436f6c6c656374696f6e20646f65732060448201527f6e6f7420737570706f727420746865204552432d37323120696e7465726661636064820152606560f81b608482015260a40161057d565b50565b60408051606081018252600080825260208201819052918101919091526040805160608101918290526331a9108f60e11b90915260648101839052600090806001600160a01b038616636352211e60848301602060405180830381865afa1580156117b8573d6000803e3d6000fd5b505050506040513d601f19601f820116820180604052508101906117dc9190612691565b6001600160a01b031681526000602082018190526040909101529050611809846325bb1e8760e11b611d38565b156118fc57604051636a4731c560e11b8152600481018490526001600160a01b0385169063d48e638a90602401602060405180830381865afa158015611853573d6000803e3d6000fd5b505050506040513d601f19601f820116820180604052508101906118779190612691565b6001600160a01b03908116602083015260405163c99dccf960e01b8152600481018590529085169063c99dccf990602401602060405180830381865afa1580156118c5573d6000803e3d6000fd5b505050506040513d601f19601f820116820180604052508101906118e99190612691565b6001600160a01b0316604082015261087a565b61190d8463152a902d60e11b611d38565b1561087a576001600160a01b038416632a55205a8461192e6002600a612860565b61193990606461286f565b6040516001600160e01b031960e085901b168152600481019290925260248201526044016040805180830381865afa158015611979573d6000803e3d6000fd5b505050506040513d601f19601f8201168201806040525081019061199d919061288e565b506001600160a01b031660208201529392505050565b6119c2838383600001516106f3565b6106705760405162461bcd60e51b815260206004820152603f60248201527f4e46544d61726b6574706c6163653a204f776e657220686173206e6f7420617060448201527f70726f76656420757320666f72206d616e6167696e6720697473204e46547300606482015260840161057d565b611a406002600a612860565b611a4b90606461286f565b611a558284612902565b11156106ef5760405162461bcd60e51b815260206004820152603660248201527f4e46544d61726b6574706c6163653a20546f74616c20666565732063616e6e6f604482015275742062652067726561746572207468616e203130302560501b606482015260840161057d565b60408051306020808301919091526001600160a01b038d811683850152606083018d90528b811660808401528a811660a084015260c083018a9052881660e08301526101008201879052610120820186905261014080830186905283518084039091018152610160830190935282519201919091207f19457468657265756d205369676e6564204d6573736167653a0a33320000000061018083015261019c820181905260009182906001906101bc0160408051601f19818403018152919052805160209182012090611b9790870187612929565b604080516000815260208181018084529490945260ff9092168282015291870135606082015290860135608082015260a0016020604051602081039080840390855afa158015611beb573d6000803e3d6000fd5b5050604051601f1901519150611c04905060008261141d565b80611c345750611c347f97667070c54ef182b0f5858b034beac1b6f3089aa2d3188bb1e8929f4fa9b9298261141d565b9d9c50505050505050505050505050565b61174681336120dd565b611c59828261141d565b6106ef576000828152602081815260408083206001600160a01b03851684529091529020805460ff19166001179055611c8f3390565b6001600160a01b0316816001600160a01b0316837f2f8788117e7eff1d82e926ec794901d17c78024a50270940304540a733656f0d60405160405180910390a45050565b611cdd828261141d565b156106ef576000828152602081815260408083206001600160a01b0385168085529252808320805460ff1916905551339285917ff6391f5c32d9c69d2a47ea670b442974b53935d1edc7fd64eb21e047a839171b9190a45050565b6000611d4383612141565b801561087a575061087a8383612174565b6000826001600160a01b031663313ce5676040518163ffffffff1660e01b8152600401602060405180830381865afa158015611d94573d6000803e3d6000fd5b505050506040513d601f19601f82011682018060405250810190611db89190612946565b611dc390600a612860565b611dcf6002600a612860565b611dd9908461286f565b61087a9190612963565b611deb61225d565b6002805460ff191690557f5db9ee0a495bf2e6ff9c91a7834c1ba4fdd244a5e8aa4e537bd38aeae4b073aa335b6040516001600160a01b03909116815260200160405180910390a1565b604080518082019091526000808252602082015260006040518060400160405280600081526020016000815250905085602001516001600160a01b031686600001516001600160a01b031603611efe5760408601516001600160a01b031615801590611ea15750600084115b15611ef957611eb26002600a612860565b611ebd90606461286f565b83611eca6002600a612860565b611ed590606461286f565b611edf91906128d2565b611ee9908661286f565b611ef39190612963565b60208201525b61110c565b60208601516001600160a01b031615801590611f1a5750600085115b1561110c5784815260408601516001600160a01b031615801590611f3e5750600084115b1561110c57611f4f6002600a612860565b611f5a90606461286f565b8151611f66908661286f565b611f709190612963565b602082018190528151611f8391906128d2565b815295945050505050565b600082600003611fa057506000610515565b611fac6002600a612860565b611fb790606461286f565b611dd9848461286f565b600081602001518260000151836040015185611fdd91906128d2565b611fe791906128d2565b61087a91906128d2565b611ff96122a6565b6002805460ff191660011790557f62e78cea01bee320cd4e420270b5ea74000d11b0c9f74754ebdbfc544b05a258611e183390565b6000826001600160a01b03168260405160006040518083038185875af1925050503d806000811461207b576040519150601f19603f3d011682016040523d82523d6000602084013e612080565b606091505b50509050806106705760405162461bcd60e51b8152602060048201526024808201527f4e46544d61726b6574706c6163653a204661696c656420746f2073656e6420636044820152636f696e7360e01b606482015260840161057d565b6120e7828261141d565b6106ef576120ff816001600160a01b031660146122ec565b61210a8360206122ec565b60405160200161211b9291906129b5565b60408051601f198184030181529082905262461bcd60e51b825261057d91600401612a2a565b6000612154826301ffc9a760e01b612174565b8015610515575061216d826001600160e01b0319612174565b1592915050565b604080516001600160e01b0319831660248083019190915282518083039091018152604490910182526020810180516001600160e01b03166301ffc9a760e01b179052905160009190829081906001600160a01b03871690617530906121db908690612a5d565b6000604051808303818686fa925050503d8060008114612217576040519150601f19603f3d011682016040523d82523d6000602084013e61221c565b606091505b50915091506020815110156122375760009350505050610515565b81801561225357508080602001905181019061225391906126ae565b9695505050505050565b60025460ff166108de5760405162461bcd60e51b815260206004820152601460248201527314185d5cd8589b194e881b9bdd081c185d5cd95960621b604482015260640161057d565b60025460ff16156108de5760405162461bcd60e51b815260206004820152601060248201526f14185d5cd8589b194e881c185d5cd95960821b604482015260640161057d565b606060006122fb83600261286f565b612306906002612902565b67ffffffffffffffff81111561231e5761231e612a79565b6040519080825280601f01601f191660200182016040528015612348576020820181803683370190505b509050600360fc1b8160008151811061236357612363612750565b60200101906001600160f81b031916908160001a905350600f60fb1b8160018151811061239257612392612750565b60200101906001600160f81b031916908160001a90535060006123b684600261286f565b6123c1906001612902565b90505b6001811115612439576f181899199a1a9b1b9c1cb0b131b232b360811b85600f16601081106123f5576123f5612750565b1a60f81b82828151811061240b5761240b612750565b60200101906001600160f81b031916908160001a90535060049490941c9361243281612a8f565b90506123c4565b50831561087a5760405162461bcd60e51b815260206004820181905260248201527f537472696e67733a20686578206c656e67746820696e73756666696369656e74604482015260640161057d565b60006020828403121561249a57600080fd5b81356001600160e01b03198116811461087a57600080fd5b6001600160a01b038116811461174657600080fd5b6000606082840312156124d957600080fd5b50919050565b6000806000806000806000610120888a0312156124fb57600080fd5b8735612506816124b2565b965060208801359550604088013594506060880135612524816124b2565b93506080880135612534816124b2565b925060a0880135915061254a8960c08a016124c7565b905092959891949750929550565b60006020828403121561256a57600080fd5b5035919050565b6000806040838503121561258457600080fd5b823591506020830135612596816124b2565b809150509250929050565b6000806000606084860312156125b657600080fd5b83356125c1816124b2565b92506020840135915060408401356125d8816124b2565b809150509250925092565b600080604083850312156125f657600080fd5b8235612601816124b2565b946020939093013593505050565b60006020828403121561262157600080fd5b813561087a816124b2565b600080600080600080610100878903121561264657600080fd5b8635612651816124b2565b95506020870135945060408701359350606087013561266f816124b2565b9250608087013591506126858860a089016124c7565b90509295509295509295565b6000602082840312156126a357600080fd5b815161087a816124b2565b6000602082840312156126c057600080fd5b8151801515811461087a57600080fd5b6000602082840312156126e257600080fd5b5051919050565b6001600160a01b039384168152919092166020820152604081019190915260600190565b60208082526023908201527f4e46544d61726b6574706c6163653a20496e646578206f7574206f6620626f756040820152626e647360e81b606082015260800190565b634e487b7160e01b600052603260045260246000fd5b634e487b7160e01b600052601160045260246000fd5b600181815b808511156127b757816000190482111561279d5761279d612766565b808516156127aa57918102915b93841c9390800290612781565b509250929050565b6000826127ce57506001610515565b816127db57506000610515565b81600181146127f157600281146127fb57612817565b6001915050610515565b60ff84111561280c5761280c612766565b50506001821b610515565b5060208310610133831016604e8410600b841016171561283a575081810a610515565b612844838361277c565b806000190482111561285857612858612766565b029392505050565b600061087a60ff8416836127bf565b600081600019048311821515161561288957612889612766565b500290565b600080604083850312156128a157600080fd5b82516128ac816124b2565b6020939093015192949293505050565b634e487b7160e01b600052603160045260246000fd5b6000828210156128e4576128e4612766565b500390565b6000600182016128fb576128fb612766565b5060010190565b6000821982111561291557612915612766565b500190565b60ff8116811461174657600080fd5b60006020828403121561293b57600080fd5b813561087a8161291a565b60006020828403121561295857600080fd5b815161087a8161291a565b60008261298057634e487b7160e01b600052601260045260246000fd5b500490565b60005b838110156129a0578181015183820152602001612988565b838111156129af576000848401525b50505050565b7f416363657373436f6e74726f6c3a206163636f756e74200000000000000000008152600083516129ed816017850160208801612985565b7001034b99036b4b9b9b4b733903937b6329607d1b6017918401918201528351612a1e816028840160208801612985565b01602801949350505050565b6020815260008251806020840152612a49816040850160208701612985565b601f01601f19169190910160400192915050565b60008251612a6f818460208701612985565b9190910192915050565b634e487b7160e01b600052604160045260246000fd5b600081612a9e57612a9e612766565b50600019019056fe4e46544d61726b6574706c6163653a204f6e6c792061646d696e732063616e20a26469706673582212209b6e613866f3773800ad06ff28ec05881903c3159fc6993c4e9607677b410a1964736f6c634300080f00334e46544d61726b6574706c6163653a20546f6b656e2061646472657373206973",
  "immutableReferences": {},
  "source": "// SPDX-License-Identifier: MIT\npragma solidity >=0.8.15 <0.9.0;\n\nimport \"@openzeppelin/contracts/access/AccessControl.sol\";\nimport \"@openzeppelin/contracts/security/ReentrancyGuard.sol\";\nimport \"@openzeppelin/contracts/security/Pausable.sol\";\nimport \"@openzeppelin/contracts/token/ERC721/IERC721.sol\";\nimport \"@openzeppelin/contracts/token/ERC20/IERC20.sol\";\nimport \"@openzeppelin/contracts/utils/introspection/ERC165Checker.sol\";\nimport \"@openzeppelin/contracts/interfaces/IERC2981.sol\";\n\nimport \"./IERC721Autentica.sol\";\n\ncontract NFTMarketplace is\n    AccessControl,\n    ReentrancyGuard,\n    Pausable\n{\n    // Number of decimals used for fees.\n    uint8 public constant DECIMALS = 2;\n\n    // Create a new role identifier for the operator role.\n    bytes32 public constant OPERATOR_ROLE = keccak256(\"OPERATOR_ROLE\");\n\n    // Autentica wallet address.\n    address private _autentica;\n\n    // Allowed token addresses to be used with `tradeForTokens`.\n    address[] private _allowedTokens;\n\n    // NFT details.\n    struct NFT {\n        address owner;\n        address creator;\n        address investor;\n    }\n\n    // Percentages for each party that needs to be payed.\n    struct Percentages {\n        uint256 creator;\n        uint256 investor;\n    }\n\n    // Proceeds for each party that needs to be payed amounts expressed in coins or tokens, not in percentages\n    struct Proceeds {\n        uint256 creator;\n        uint256 investor;\n        uint256 marketplace;\n    }\n\n    // ECDSA signature.\n    struct Signature {\n        uint8 v;\n        bytes32 r;\n        bytes32 s;\n    }\n\n    /**\n     * @dev Emitted when the Autentica wallet address has been updated.\n     */\n    event ChangedAutentica(\n        address indexed oldAddress,\n        address indexed newAddress\n    );\n    /**\n     * @dev Emitted when a trade occured between the `seller` (the owner of the ERC-721 token\n     * represented by `tokenId` within the `collection` smart contract) and `buyer` which\n     * payed the specified `price` in coins (the native cryptocurrency of the platform, i.e.: ETH).\n     */\n    event TradedForCoins(\n        address indexed collection,\n        uint256 indexed tokenId,\n        address indexed seller,\n        address buyer,\n        uint256 price,\n        uint256 ownerProceeds,\n        uint256 creatorProceeds,\n        uint256 investorProceeds\n    );\n    /**\n     * @dev Emitted when a trade occured between the `seller` (the owner of the ERC-721 token\n     * represented by `tokenId` within the `collection` smart contract) and `buyer` which\n     * payed the specified `price` in tokens that are represented by the `token`\n     * ERC-20 smart contract address.\n     */\n    event TradedForTokens(\n        address indexed collection,\n        uint256 indexed tokenId,\n        address indexed seller,\n        address buyer,\n        address token,\n        uint256 price,\n        uint256 ownerProceeds,\n        uint256 creatorProceeds,\n        uint256 investorProceeds\n    );\n\n    /**\n     * @dev Emitted when a new token is allowed to be used for trading.\n     */\n    event AllowedTokenAdded(address indexed tokenAddress);\n    /**\n     * @dev Emitted when a token is not longer allowed to be used for trading.\n     */\n    event AllowedTokenRemoved(address indexed tokenAddress);\n\n    /**\n     * The constructor sets the creator of the contract as the admin\n     * and operator of this smart contract, sets the wallet address for Autentica and sets the allowed tokens.\n     */\n    constructor(address wallet, address[] memory allowedTokens) {\n        // Grant the admin role to the owner\n        _setupRole(DEFAULT_ADMIN_ROLE, _msgSender());\n        // Grant the operator role to the owner\n        _setupRole(OPERATOR_ROLE, _msgSender());\n\n        // Set the wallet address for Autentica\n        _autentica = wallet;\n\n        // Set the allowed tokens\n        for (uint256 i = 0; i < allowedTokens.length; i++) {\n            addAllowedToken(allowedTokens[i]);\n        }\n    }\n\n    /**\n     * Returns the Autentica wallet address.\n     */\n    function autentica() external view returns (address) {\n        return _autentica;\n    }\n\n    /**\n     * @dev Sets the Autentica wallet address.\n     *\n     * Requirements:\n     *\n     * - the caller must be admin.\n     */\n    function setAutentica(address wallet) external returns (address) {\n        require(\n            hasRole(DEFAULT_ADMIN_ROLE, _msgSender()),\n            \"NFTMarketplace: Only admins can change this\"\n        );\n\n        // Keep a reference to the old address\n        address oldAutentica = _autentica;\n\n        // Change the address\n        _autentica = wallet;\n\n        // Emit the event\n        emit ChangedAutentica(oldAutentica, _autentica);\n\n        return _autentica;\n    }\n\n    /**\n     * @dev Returns the number of decimals used for fees.\n     */\n    function decimals() external pure returns (uint8) {\n        return DECIMALS;\n    }\n\n    /**\n     * @dev Returns the number of allowed tokens.\n     */\n    function numberOfAllowedTokens() public view returns (uint256) {\n        return _allowedTokens.length;\n    }\n\n    /**\n     * @dev Returns the address of the allowed token at the specified index.\n     * @param index The index of the allowed token.\n     */\n    function allowedTokenAtIndex(uint256 index) public view returns (address) {\n        require(\n            index < numberOfAllowedTokens(),\n            \"NFTMarketplace: Index out of bounds\"\n        );\n        return _allowedTokens[index];\n    }\n\n    /**\n     * @dev Verifies if a token address has been allowed already.\n     */\n    function isTokenAllowed(address tokenAddress) public view returns (bool) {\n        for (uint256 i = 0; i < numberOfAllowedTokens(); i++) {\n            if (_allowedTokens[i] == tokenAddress) {\n                return true;\n            }\n        }\n\n        return false;\n    }\n\n    /**\n     * @dev Add a new allowed token to the contract.\n     * @param tokenAddress The address of the allowed token to add.\n     *\n     * Requirements:\n     *\n     * - the caller must be admin.\n     */\n    function addAllowedToken(address tokenAddress) public {\n        require(\n            hasRole(DEFAULT_ADMIN_ROLE, _msgSender()),\n            \"NFTMarketplace: Only admins can add allowed tokens\"\n        );\n\n        // Check if the token address is valid\n        require(\n            tokenAddress != address(0),\n            \"NFTMarketplace: Token address is the zero address\"\n        );\n\n        // Check if the token address is already allowed\n        require(\n            !isTokenAllowed(tokenAddress),\n            \"NFTMarketplace: Token address is already allowed\"\n        );\n\n        // Add the token address\n        _allowedTokens.push(tokenAddress);\n\n        // Emit the event\n        emit AllowedTokenAdded(tokenAddress);\n    }\n\n    /**\n     * @dev Remove the allowed token at the specified index.\n     * @param index The index of the allowed token.\n     *\n     * Requirements:\n     *\n     * - the caller must be admin.\n     */\n    function removeAllowedTokenAtIndex(uint256 index) public {\n        require(\n            hasRole(DEFAULT_ADMIN_ROLE, _msgSender()),\n            \"NFTMarketplace: Only admins can remove allowed tokens\"\n        );\n\n        // Check if the index is valid\n        require(\n            index < numberOfAllowedTokens(),\n            \"NFTMarketplace: Index out of bounds\"\n        );\n\n        // Keep a reference to the old address\n        address tokenAddress = _allowedTokens[index];\n\n        // Deleting an element from the array does not affect the array length, so we need to use the `pop()` method\n        if (numberOfAllowedTokens() == 1) {\n            _allowedTokens.pop();\n        } else {\n            // Instead of shifting all the elements from the right, we will just move the last element in place of the\n            // element that will be removed\n            _allowedTokens[index] = _allowedTokens[numberOfAllowedTokens() - 1];\n            // Remove the last element\n            _allowedTokens.pop();\n        }\n\n        // Emit the event\n        emit AllowedTokenRemoved(tokenAddress);\n    }\n\n    /**\n     * @notice Trades an NFT for a given amount of coins (the native cryptocurrency of the platform, i.e.: ETH).\n     *\n     * @param collection The ERC-721 smart contract.\n     * @param tokenId The unique identifier of the ERC-721 token within the `collection` smart contract.\n     * @param price The price of the NFT in coins.\n     * @param buyer Buyer address.\n     * @param marketplaceFee Marketplace fee.\n     * @param signature ECDSA signature.\n     *\n     * @dev Requirements\n     *\n     * - The `collection` smart contract must be an ERC-721 smart contract.\n     * - The owner of the NFT identified by `tokenId` within the `collection` smart contract must have approved\n     *   this smart contract to manage its NFTs.\n     * - The `price` and `msg.value` must be equal.\n     * - The sum of all the fees cannot be greater than 100%.\n     * - The ECDSA signature must be signed by someone with the admin or operator role.\n     */\n    function tradeForCoins(\n        address collection,\n        uint256 tokenId,\n        uint256 price,\n        address buyer,\n        uint256 marketplaceFee,\n        Signature calldata signature\n    ) external payable nonReentrant {\n        // Check if the user sent enough coins\n        require(msg.value == price, \"NFTMarketplace: Not enough coins sent\");\n\n        // Validate the trade\n        canPerformTrade(\n            collection,\n            tokenId,\n            price,\n            address(0x0),\n            buyer,\n            marketplaceFee,\n            signature\n        );\n\n        NFT memory nft = _nftDetails(collection, tokenId);\n\n        // Assemble the percentages\n        Percentages memory percentages = _percentagesDetails(\n            nft,\n            getRoyaltyFee(collection, tokenId),\n            getInvestorFee(collection, tokenId),\n            marketplaceFee\n        );\n\n        // Assemble the fees\n        Proceeds memory proceeds = Proceeds({\n            creator: _calculateProceedsForFee(percentages.creator, price),\n            investor: _calculateProceedsForFee(percentages.investor, price),\n            marketplace: _calculateProceedsForFee(marketplaceFee, price)\n        });\n\n        // Calculate the base owner proceeds\n        uint256 ownerProceeds = _calculateOwnerProceeds(\n            price,\n            proceeds\n        );\n\n        // Payments\n        _sendViaCall(payable(nft.owner), ownerProceeds);\n        if (proceeds.investor > 0) {\n            _sendViaCall(payable(nft.investor), proceeds.investor);\n        }\n        if (proceeds.creator > 0) {\n            _sendViaCall(payable(nft.creator), proceeds.creator);\n        }\n        if (proceeds.marketplace > 0) {\n            _sendViaCall(payable(_autentica), proceeds.marketplace);\n        }\n\n        // Finally transfer the NFT\n        IERC721(collection).safeTransferFrom(nft.owner, _msgSender(), tokenId);\n\n        // Emit the event\n        emit TradedForCoins(\n            collection,\n            tokenId,\n            nft.owner,\n            _msgSender(),\n            price,\n            ownerProceeds,\n            proceeds.creator,\n            proceeds.investor\n        );\n    }\n\n    /**\n     * @notice Trades an NFT for a given amount of ERC-20 tokens (i.e.: AUT/USDT/USDC).\n     *\n     * @param collection The ERC-721 smart contract.\n     * @param tokenId The unique identifier of the ERC-721 token within the `collection` smart contract.\n     * @param price The price of the NFT in `token` tokens.\n     * @param token The ERC-20 smart contract.\n     * @param buyer Buyer address.\n     * @param marketplaceFee Marketplace fee.\n     * @param signature ECDSA signature.\n     *\n     * Requirements:\n     *\n     * - The `collection` smart contract must be an ERC-721 smart contract.\n     * - The owner of the NFT identified by `tokenId` within the `collection` smart contract must have approved\n     *   this smart contract to manage its NFTs.\n     * - The sum of all the fees cannot be greater than 100%.\n     * - The ECDSA signature must be signed by someone with the admin or operator role.\n     */\n    function tradeForTokens(\n        address collection,\n        uint256 tokenId,\n        uint256 price,\n        address token,\n        address buyer,\n        uint256 marketplaceFee,\n        Signature calldata signature\n    ) external nonReentrant {\n        // Check if the token is allowed\n        require(isTokenAllowed(token), \"NFTMarketplace: Token not allowed\");\n\n        // Validate the trade\n        canPerformTrade(\n            collection,\n            tokenId,\n            price,\n            token,\n            buyer,\n            marketplaceFee,\n            signature\n        );\n\n        // Assemble the NFT details\n        NFT memory nft = _nftDetails(collection, tokenId);\n\n        // Assemble the percentages\n        Percentages memory percentages = _percentagesDetails(\n            nft,\n            getRoyaltyFee(collection, tokenId),\n            getInvestorFee(collection, tokenId),\n            marketplaceFee\n        );\n\n        // Assemble the fees\n        Proceeds memory proceeds = Proceeds({\n            creator: _calculateProceedsForFee(percentages.creator, price),\n            investor: _calculateProceedsForFee(percentages.investor, price),\n            marketplace: _calculateProceedsForFee(marketplaceFee, price)\n        });\n\n        // Calculate the base owner proceeds\n        uint256 ownerProceeds = _calculateOwnerProceeds(\n            price,\n            proceeds\n        );\n\n        // Payments\n        IERC20(token).transferFrom(buyer, nft.owner, ownerProceeds);\n        if (proceeds.investor > 0) {\n            IERC20(token).transferFrom(\n                buyer,\n                nft.investor,\n                proceeds.investor\n            );\n        }\n        if (proceeds.creator > 0) {\n            IERC20(token).transferFrom(buyer, nft.creator, proceeds.creator);\n        }\n        if (proceeds.marketplace > 0) {\n            IERC20(token).transferFrom(\n                buyer,\n                _autentica,\n                proceeds.marketplace\n            );\n        }\n        // Finally transfer the NFT\n        IERC721(collection).safeTransferFrom(nft.owner, _msgSender(), tokenId);\n\n        // Emit the event\n        emit TradedForTokens(\n            collection,\n            tokenId,\n            nft.owner,\n            _msgSender(),\n            token,\n            price,\n            ownerProceeds,\n            proceeds.creator,\n            proceeds.investor\n        );\n    }\n\n    /**\n     * @notice Validate the trade.\n     *\n     * @param collection The ERC-721 smart contract.\n     * @param tokenId The unique identifier of the ERC-721 token within the `collection` smart contract.\n     * @param price The price of the NFT in `token` tokens.\n     * @param currency The type of currency (erc20 or native currency)\n     * @param buyer Buyer address.\n     * @param marketplaceFee Marketplace fee.\n     * @param signature ECDSA signature.\n     *\n     */\n    function canPerformTrade(\n        address collection,\n        uint256 tokenId,\n        uint256 price,\n        address currency,\n        address buyer,\n        uint256 marketplaceFee,\n        Signature calldata signature\n    ) public view returns (bool) {\n        // Check if the contract is paused\n        require(!paused(), \"NFTMarketplace: Contract is paused\");\n\n        // Check if the collection is an ERC-721 smart contract\n        _validateERC721(collection);\n\n        // Assemble the NFT details\n        NFT memory nft = _nftDetails(collection, tokenId);\n\n        // Validate the approval\n        _validateNFTApproval(collection, tokenId, nft);\n\n        // Fees\n        uint256 royaltyFee = getRoyaltyFee(collection, tokenId);\n        uint256 investorFee = getInvestorFee(collection, tokenId);\n\n        // Make sure that all the fees sumed up do not exceed 100%\n        // \n        // Note: The investor fee is ignored from the validation\n        // because that fee represents a percetange of the\n        // royalty fee.\n        _validateFees(royaltyFee, marketplaceFee);\n\n        // Make sure the parameters are valid\n        require(\n            _validateTrade(\n                collection,\n                tokenId,\n                nft.owner,\n                buyer,\n                price,\n                currency,\n                royaltyFee,\n                investorFee,\n                marketplaceFee,\n                signature\n            ),\n            \"NFTMarketplace: Invalid signature\"\n        );\n        return true;\n    }\n\n    /**\n     * @notice If the collection smart contract implements `IERC721Autentica` or `IERC2981` then \n     * the function returns the royalty fee from that smart contract, otherwise it will return 0.\n     *\n     * @param collection The ERC-721 smart contract.\n     * @param tokenId The unique identifier of the ERC-721 token within the `collection` smart contract.\n     *\n     */\n    function getRoyaltyFee(address collection, uint256 tokenId)\n        public\n        view\n        returns (uint256)\n    {\n        uint256 royaltyFee = 0;\n\n        if (ERC165Checker.supportsInterface(collection, type(IERC721Autentica).interfaceId)) {\n            // This is a smart contract implementing `IERC721Autentica`\n            royaltyFee = _normalizedFee(\n                IERC721Autentica(collection),\n                IERC721Autentica(collection).getRoyaltyFee(tokenId)\n            );\n        } else if (ERC165Checker.supportsInterface(collection, type(IERC2981).interfaceId)) {\n            // This is a smart contract implementing `IERC2981`\n            (, royaltyFee) = IERC2981(collection).royaltyInfo(tokenId, 100 * (10 ** DECIMALS));\n            // The reason for why we use `100 * (10 ** DECIMALS)` as the sale price is because other\n            // we don't want to lose precision when calculating the fee.\n        }\n        return royaltyFee;\n    }\n\n    /**\n     * @notice If the collection smart contract implements `IERC721Autentica` then the function \n     * returns the investor fee from that smart contract, otherwise it will return 0.\n     *\n     * @param collection The ERC-721 smart contract.\n     * @param tokenId The unique identifier of the ERC-721 token within the `collection` smart contract.\n     *\n     */\n    function getInvestorFee(address collection, uint256 tokenId)\n        public\n        view\n        returns (uint256)\n    {\n        uint256 investorFee = 0;\n        if (ERC165Checker.supportsInterface(collection, type(IERC721Autentica).interfaceId)) {\n            // This is a smart contract implementing `IERC721Autentica`\n            investorFee = _normalizedFee(\n                IERC721Autentica(collection),\n                IERC721Autentica(collection).getInvestorFee(tokenId)\n            );\n        }\n        return investorFee;\n    }\n\n    /**\n     * @dev Verifies if the token owner has approved this smart contract to manage its \n     * NFTs from the specified collection.\n     * @return Returns `true` if this smart contract is approved by the `tokenOwner` in \n     * the `collection` smart contract or only if that specific NFT is approved for this smart contract.\n     */\n    function isMarketplaceApproved(\n        IERC721 collection,\n        uint256 tokenId,\n        address tokenOwner\n    ) public view returns (bool) {\n        return\n            collection.getApproved(tokenId) == address(this) ||\n            collection.isApprovedForAll(tokenOwner, address(this));\n    }\n\n    /**\n     * @notice Pause the contract.\n     *\n     * Requirements:\n     *\n     * - the caller must be admin.\n     */\n    function pause() public {\n        // Make sure that only admins can pause the contract\n        require(\n            hasRole(DEFAULT_ADMIN_ROLE, _msgSender()),\n            \"NFTMarketplace: Only admins can pause\"\n        );\n\n        // Do it\n        _pause();\n    }\n\n    /**\n     * @notice Unpause the contract.\n     *\n     * Requirements:\n     *\n     * - the caller must be admin.\n     */\n    function unpause() public {\n        // Make sure that only admins can unpause the contract\n        require(\n            hasRole(DEFAULT_ADMIN_ROLE, _msgSender()),\n            \"NFTMarketplace: Only admins can unpause\"\n        );\n\n        // Do it\n        _unpause();\n    }\n\n    /**\n     * @dev Function to transfer coins (the native cryptocurrency of the \n     * platform, i.e.: ETH) from this contract to the specified address.\n     *\n     * @param to - Address where to transfer the coins\n     * @param amount - Amount (in wei)\n     *\n     */\n    function _sendViaCall(address payable to, uint256 amount) private {\n        (bool sent, ) = to.call{value: amount}(\"\");\n        require(sent, \"NFTMarketplace: Failed to send coins\");\n    }\n\n    /**\n     * Returns `true` if the signer has the admin or the operator role.\n     *\n     * @param collection The ERC-721 smart contract.\n     * @param tokenId The unique identifier of the ERC-721 token within the `collection` smart contract.\n     * @param buyer Seller address.\n     * @param buyer Buyer address.\n     * @param price Price of the NFT expressed in coins or tokens.\n     * @param token The ERC-20 smart contract address.\n     * @param royaltyFee Royalty fee.\n     * @param investorFee Investor fee.\n     * @param marketplaceFee Marketplace fee.\n     * @param signature ECDSA signature.\n     */\n    function _validateTrade(\n        address collection,\n        uint256 tokenId,\n        address seller,\n        address buyer,\n        uint256 price,\n        address token,\n        uint256 royaltyFee,\n        uint256 investorFee,\n        uint256 marketplaceFee,\n        Signature calldata signature\n    ) private view returns (bool) {\n        bytes32 hash = keccak256(\n            abi.encode(\n                address(this),\n                collection,\n                tokenId,\n                seller,\n                buyer,\n                price,\n                token,\n                royaltyFee,\n                investorFee,\n                marketplaceFee\n            )\n        );\n\n        address signer = ecrecover(\n            keccak256(\n                abi.encodePacked(\"\\x19Ethereum Signed Message:\\n32\", hash)\n            ),\n            signature.v,\n            signature.r,\n            signature.s\n        );\n\n        return\n            hasRole(DEFAULT_ADMIN_ROLE, signer) ||\n            hasRole(OPERATOR_ROLE, signer);\n    }\n\n    /**\n     * @dev Returns the fee normalized to the number of decimals used in this smart contract.\n     *\n     * @param collection The Autentica ERC-721 smart contract.\n     * @param fee Value represented using the number of decimals used by the `collection` smart contract.\n     */\n    function _normalizedFee(IERC721Autentica collection, uint256 fee)\n        private\n        view\n        returns (uint256)\n    {\n        return (fee * (10**DECIMALS)) / (10**collection.decimals());\n    }\n\n    /**\n     * @dev Returns the number of coins/tokens for a given fee percentage.\n     */\n    function _calculateProceedsForFee(uint256 fee, uint256 price)\n        private\n        pure\n        returns (uint256)\n    {\n        if (fee == 0) {\n            return 0;\n        }\n\n        // Price * Fee (which is already multiplied by 10**DECIMALS) / 100% multiplied by 10**DECIMALS\n        return (price * fee) / (100 * 10**DECIMALS);\n    }\n\n    /**\n     * Returns the owner proceeds.\n     */\n    function _calculateOwnerProceeds(\n        uint256 price,\n        Proceeds memory proceeds\n    ) private pure returns (uint256) {\n        return\n            price -\n            proceeds.marketplace -\n            proceeds.creator -\n            proceeds.investor;\n    }\n\n    /**\n     * @dev Makes sure that the `collection` is a valid ERC-721 smart contract.\n     */\n    function _validateERC721(address collection) private view {\n        require(\n            ERC165Checker.supportsInterface(\n                collection,\n                type(IERC721).interfaceId\n            ),\n            \"NFTMarketplace: Collection does not support the ERC-721 interface\"\n        );\n    }\n\n    /**\n     * @dev Makes sure that the owner approved this smart contract for the token.\n     */\n    function _validateNFTApproval(\n        address collection,\n        uint256 tokenId,\n        NFT memory nft\n    ) private view {\n        require(\n            isMarketplaceApproved(IERC721(collection), tokenId, nft.owner),\n            \"NFTMarketplace: Owner has not approved us for managing its NFTs\"\n        );\n    }\n\n    /**\n     * @dev Make sure that all the fees sumed up do not exceed 100%.\n     */\n    function _validateFees(\n        uint256 royaltyFee,\n        uint256 marketplaceFee\n    ) private pure {\n        require(\n            royaltyFee + marketplaceFee <= 100 * 10**DECIMALS,\n            \"NFTMarketplace: Total fees cannot be greater than 100%\"\n        );\n    }\n\n    /**\n     * @dev Returns the NFT details.\n     *\n     * @param collection The ERC-721 smart contract.\n     * @param tokenId The unique identifier of the ERC-721 token within the `collection` smart contract.\n     */\n    function _nftDetails(address collection, uint256 tokenId)\n        private\n        view\n        returns (NFT memory)\n    {\n        // Assemble the NFT details\n        NFT memory nft = NFT({\n            owner: IERC721(collection).ownerOf(tokenId),\n            creator: address(0x0), // Will get overriden below if this is a Autentica ERC-721 collection\n            investor: address(0x0) // Will get overriden below if this is a Autentica ERC-721 collection\n        });\n\n        // Update the information about the creator and investor\n        if (ERC165Checker.supportsInterface(collection, type(IERC721Autentica).interfaceId)) {\n            // This is a smart contract implementing `IERC721Autentica`\n            nft.creator = IERC721Autentica(collection).getCreator(tokenId);\n            nft.investor = IERC721Autentica(collection).getInvestor(tokenId);\n        } else if (ERC165Checker.supportsInterface(collection, type(IERC2981).interfaceId)) {\n            // This is a smart contract implementing `IERC2981`\n            (nft.creator, ) = IERC2981(collection).royaltyInfo(tokenId, 100 * (10 ** DECIMALS));\n            // The reason for why we use `100 * (10 ** DECIMALS)` as the sale price is because other\n            // implementations of `ERC-2981` may return `address(0x0)` for the \n            // `receiver` if the values are too low or zero.\n        }\n\n        return nft;\n    }\n\n    /**\n     * @dev Returns the Percentages details.\n     *\n     * @param nft NFT details.\n     * @param royaltyFee Royalty fee.\n     * @param investorFee Investor fee.\n     * @param marketplaceFee Marketplace fee.\n     */\n    function _percentagesDetails(\n        NFT memory nft,\n        uint256 royaltyFee,\n        uint256 investorFee,\n        uint256 marketplaceFee\n    ) private pure returns (Percentages memory) {\n        Percentages memory percentages = Percentages({creator: 0, investor: 0});\n\n        if (nft.owner == nft.creator) {\n            // CASE 1: The NFT is owned by the creator\n\n            if (nft.investor != address(0x0) && investorFee > 0) {\n                // CASE 1.1: The investor will receive X% from the creator/owner's end\n                percentages.investor = (investorFee * ((100 * 10**DECIMALS) - marketplaceFee)) / (100 * 10**DECIMALS);\n            }\n        } else {\n            // CASE 2: The NFT is owned by someone else\n\n            if (nft.creator != address(0x0) && royaltyFee > 0) {\n                // CASE 2.1: The creator will get payed too\n                percentages.creator = royaltyFee;\n\n                if (nft.investor != address(0x0) && investorFee > 0) {\n                    // CASE 1.1: The investor will receive X% from the creator's end\n                    \n                    // Calculate the investor fee\n                    percentages.investor = (investorFee * percentages.creator) / (100 * 10**DECIMALS);\n                    // Shrink the creator fee\n                    percentages.creator = percentages.creator - percentages.investor;\n                }\n            }\n        }\n\n        return percentages;\n    }\n}\n",
  "sourcePath": "/Volumes/Storage/Workspace/Projects/Autentica/smart-contracts/contracts/NFTMarketplace.sol",
  "compiler": {
    "name": "solc",
    "version": "0.8.15+commit.e14f2714.Emscripten.clang"
  },
  "schemaVersion": "3.4.8",
  "updatedAt": "2022-07-14T11:54:33.414Z",
  "networkType": "ethereum",
  "devdoc": {
    "events": {
      "AllowedTokenAdded(address)": {
        "details": "Emitted when a new token is allowed to be used for trading."
      },
      "AllowedTokenRemoved(address)": {
        "details": "Emitted when a token is not longer allowed to be used for trading."
      },
      "ChangedAutentica(address,address)": {
        "details": "Emitted when the Autentica wallet address has been updated."
      },
      "TradedForCoins(address,uint256,address,address,uint256,uint256,uint256,uint256)": {
        "details": "Emitted when a trade occured between the `seller` (the owner of the ERC-721 token represented by `tokenId` within the `collection` smart contract) and `buyer` which payed the specified `price` in coins (the native cryptocurrency of the platform, i.e.: ETH)."
      },
      "TradedForTokens(address,uint256,address,address,address,uint256,uint256,uint256,uint256)": {
        "details": "Emitted when a trade occured between the `seller` (the owner of the ERC-721 token represented by `tokenId` within the `collection` smart contract) and `buyer` which payed the specified `price` in tokens that are represented by the `token` ERC-20 smart contract address."
      }
    },
    "kind": "dev",
    "methods": {
      "addAllowedToken(address)": {
        "details": "Add a new allowed token to the contract.",
        "params": {
          "tokenAddress": "The address of the allowed token to add. Requirements: - the caller must be admin."
        }
      },
      "allowedTokenAtIndex(uint256)": {
        "details": "Returns the address of the allowed token at the specified index.",
        "params": {
          "index": "The index of the allowed token."
        }
      },
      "canPerformTrade(address,uint256,uint256,address,address,uint256,(uint8,bytes32,bytes32))": {
        "params": {
          "buyer": "Buyer address.",
          "collection": "The ERC-721 smart contract.",
          "currency": "The type of currency (erc20 or native currency)",
          "marketplaceFee": "Marketplace fee.",
          "price": "The price of the NFT in `token` tokens.",
          "signature": "ECDSA signature.",
          "tokenId": "The unique identifier of the ERC-721 token within the `collection` smart contract."
        }
      },
      "decimals()": {
        "details": "Returns the number of decimals used for fees."
      },
      "getInvestorFee(address,uint256)": {
        "params": {
          "collection": "The ERC-721 smart contract.",
          "tokenId": "The unique identifier of the ERC-721 token within the `collection` smart contract."
        }
      },
      "getRoleAdmin(bytes32)": {
        "details": "Returns the admin role that controls `role`. See {grantRole} and {revokeRole}. To change a role's admin, use {_setRoleAdmin}."
      },
      "getRoyaltyFee(address,uint256)": {
        "params": {
          "collection": "The ERC-721 smart contract.",
          "tokenId": "The unique identifier of the ERC-721 token within the `collection` smart contract."
        }
      },
      "grantRole(bytes32,address)": {
        "details": "Grants `role` to `account`. If `account` had not been already granted `role`, emits a {RoleGranted} event. Requirements: - the caller must have ``role``'s admin role. May emit a {RoleGranted} event."
      },
      "hasRole(bytes32,address)": {
        "details": "Returns `true` if `account` has been granted `role`."
      },
      "isMarketplaceApproved(address,uint256,address)": {
        "details": "Verifies if the token owner has approved this smart contract to manage its  NFTs from the specified collection.",
        "returns": {
          "_0": "Returns `true` if this smart contract is approved by the `tokenOwner` in  the `collection` smart contract or only if that specific NFT is approved for this smart contract."
        }
      },
      "isTokenAllowed(address)": {
        "details": "Verifies if a token address has been allowed already."
      },
      "numberOfAllowedTokens()": {
        "details": "Returns the number of allowed tokens."
      },
      "paused()": {
        "details": "Returns true if the contract is paused, and false otherwise."
      },
      "removeAllowedTokenAtIndex(uint256)": {
        "details": "Remove the allowed token at the specified index.",
        "params": {
          "index": "The index of the allowed token. Requirements: - the caller must be admin."
        }
      },
      "renounceRole(bytes32,address)": {
        "details": "Revokes `role` from the calling account. Roles are often managed via {grantRole} and {revokeRole}: this function's purpose is to provide a mechanism for accounts to lose their privileges if they are compromised (such as when a trusted device is misplaced). If the calling account had been revoked `role`, emits a {RoleRevoked} event. Requirements: - the caller must be `account`. May emit a {RoleRevoked} event."
      },
      "revokeRole(bytes32,address)": {
        "details": "Revokes `role` from `account`. If `account` had been granted `role`, emits a {RoleRevoked} event. Requirements: - the caller must have ``role``'s admin role. May emit a {RoleRevoked} event."
      },
      "setAutentica(address)": {
        "details": "Sets the Autentica wallet address. Requirements: - the caller must be admin."
      },
      "supportsInterface(bytes4)": {
        "details": "See {IERC165-supportsInterface}."
      },
      "tradeForCoins(address,uint256,uint256,address,uint256,(uint8,bytes32,bytes32))": {
        "details": "Requirements - The `collection` smart contract must be an ERC-721 smart contract. - The owner of the NFT identified by `tokenId` within the `collection` smart contract must have approved   this smart contract to manage its NFTs. - The `price` and `msg.value` must be equal. - The sum of all the fees cannot be greater than 100%. - The ECDSA signature must be signed by someone with the admin or operator role.",
        "params": {
          "buyer": "Buyer address.",
          "collection": "The ERC-721 smart contract.",
          "marketplaceFee": "Marketplace fee.",
          "price": "The price of the NFT in coins.",
          "signature": "ECDSA signature.",
          "tokenId": "The unique identifier of the ERC-721 token within the `collection` smart contract."
        }
      },
      "tradeForTokens(address,uint256,uint256,address,address,uint256,(uint8,bytes32,bytes32))": {
        "params": {
          "buyer": "Buyer address.",
          "collection": "The ERC-721 smart contract.",
          "marketplaceFee": "Marketplace fee.",
          "price": "The price of the NFT in `token` tokens.",
          "signature": "ECDSA signature. Requirements: - The `collection` smart contract must be an ERC-721 smart contract. - The owner of the NFT identified by `tokenId` within the `collection` smart contract must have approved   this smart contract to manage its NFTs. - The sum of all the fees cannot be greater than 100%. - The ECDSA signature must be signed by someone with the admin or operator role.",
          "token": "The ERC-20 smart contract.",
          "tokenId": "The unique identifier of the ERC-721 token within the `collection` smart contract."
        }
      }
    },
    "version": 1
  },
  "userdoc": {
    "kind": "user",
    "methods": {
      "autentica()": {
        "notice": "Returns the Autentica wallet address."
      },
      "canPerformTrade(address,uint256,uint256,address,address,uint256,(uint8,bytes32,bytes32))": {
        "notice": "Validate the trade."
      },
      "constructor": {
        "notice": "The constructor sets the creator of the contract as the admin and operator of this smart contract, sets the wallet address for Autentica and sets the allowed tokens."
      },
      "getInvestorFee(address,uint256)": {
        "notice": "If the collection smart contract implements `IERC721Autentica` then the function  returns the investor fee from that smart contract, otherwise it will return 0."
      },
      "getRoyaltyFee(address,uint256)": {
        "notice": "If the collection smart contract implements `IERC721Autentica` or `IERC2981` then  the function returns the royalty fee from that smart contract, otherwise it will return 0."
      },
      "pause()": {
        "notice": "Pause the contract. Requirements: - the caller must be admin."
      },
      "tradeForCoins(address,uint256,uint256,address,uint256,(uint8,bytes32,bytes32))": {
        "notice": "Trades an NFT for a given amount of coins (the native cryptocurrency of the platform, i.e.: ETH)."
      },
      "tradeForTokens(address,uint256,uint256,address,address,uint256,(uint8,bytes32,bytes32))": {
        "notice": "Trades an NFT for a given amount of ERC-20 tokens (i.e.: AUT/USDT/USDC)."
      },
      "unpause()": {
        "notice": "Unpause the contract. Requirements: - the caller must be admin."
      }
    },
    "version": 1
  }
}