{
  "contractName": "NFTMarketplaceV2Mock",
  "abi": [
    {
      "anonymous": false,
      "inputs": [
        {
          "indexed": true,
          "internalType": "address",
          "name": "tokenAddress",
          "type": "address"
        }
      ],
      "name": "AllowedTokenAdded",
      "type": "event"
    },
    {
      "anonymous": false,
      "inputs": [
        {
          "indexed": true,
          "internalType": "address",
          "name": "tokenAddress",
          "type": "address"
        }
      ],
      "name": "AllowedTokenRemoved",
      "type": "event"
    },
    {
      "anonymous": false,
      "inputs": [
        {
          "indexed": true,
          "internalType": "address",
          "name": "oldAddress",
          "type": "address"
        },
        {
          "indexed": true,
          "internalType": "address",
          "name": "newAddress",
          "type": "address"
        }
      ],
      "name": "ChangedAutentica",
      "type": "event"
    },
    {
      "anonymous": false,
      "inputs": [
        {
          "indexed": false,
          "internalType": "address",
          "name": "account",
          "type": "address"
        }
      ],
      "name": "Paused",
      "type": "event"
    },
    {
      "anonymous": false,
      "inputs": [
        {
          "indexed": true,
          "internalType": "bytes32",
          "name": "role",
          "type": "bytes32"
        },
        {
          "indexed": true,
          "internalType": "bytes32",
          "name": "previousAdminRole",
          "type": "bytes32"
        },
        {
          "indexed": true,
          "internalType": "bytes32",
          "name": "newAdminRole",
          "type": "bytes32"
        }
      ],
      "name": "RoleAdminChanged",
      "type": "event"
    },
    {
      "anonymous": false,
      "inputs": [
        {
          "indexed": true,
          "internalType": "bytes32",
          "name": "role",
          "type": "bytes32"
        },
        {
          "indexed": true,
          "internalType": "address",
          "name": "account",
          "type": "address"
        },
        {
          "indexed": true,
          "internalType": "address",
          "name": "sender",
          "type": "address"
        }
      ],
      "name": "RoleGranted",
      "type": "event"
    },
    {
      "anonymous": false,
      "inputs": [
        {
          "indexed": true,
          "internalType": "bytes32",
          "name": "role",
          "type": "bytes32"
        },
        {
          "indexed": true,
          "internalType": "address",
          "name": "account",
          "type": "address"
        },
        {
          "indexed": true,
          "internalType": "address",
          "name": "sender",
          "type": "address"
        }
      ],
      "name": "RoleRevoked",
      "type": "event"
    },
    {
      "anonymous": false,
      "inputs": [
        {
          "indexed": true,
          "internalType": "address",
          "name": "collection",
          "type": "address"
        },
        {
          "indexed": true,
          "internalType": "uint256",
          "name": "tokenId",
          "type": "uint256"
        },
        {
          "indexed": true,
          "internalType": "address",
          "name": "seller",
          "type": "address"
        },
        {
          "indexed": false,
          "internalType": "address",
          "name": "buyer",
          "type": "address"
        },
        {
          "indexed": false,
          "internalType": "uint256",
          "name": "price",
          "type": "uint256"
        }
      ],
      "name": "TradedForCoins",
      "type": "event"
    },
    {
      "anonymous": false,
      "inputs": [
        {
          "indexed": true,
          "internalType": "address",
          "name": "collection",
          "type": "address"
        },
        {
          "indexed": true,
          "internalType": "uint256",
          "name": "tokenId",
          "type": "uint256"
        },
        {
          "indexed": true,
          "internalType": "address",
          "name": "seller",
          "type": "address"
        },
        {
          "indexed": false,
          "internalType": "address",
          "name": "buyer",
          "type": "address"
        },
        {
          "indexed": false,
          "internalType": "address",
          "name": "token",
          "type": "address"
        },
        {
          "indexed": false,
          "internalType": "uint256",
          "name": "price",
          "type": "uint256"
        }
      ],
      "name": "TradedForTokens",
      "type": "event"
    },
    {
      "anonymous": false,
      "inputs": [
        {
          "indexed": false,
          "internalType": "address",
          "name": "account",
          "type": "address"
        }
      ],
      "name": "Unpaused",
      "type": "event"
    },
    {
      "inputs": [],
      "name": "DECIMALS",
      "outputs": [
        {
          "internalType": "uint8",
          "name": "",
          "type": "uint8"
        }
      ],
      "stateMutability": "view",
      "type": "function"
    },
    {
      "inputs": [],
      "name": "DEFAULT_ADMIN_ROLE",
      "outputs": [
        {
          "internalType": "bytes32",
          "name": "",
          "type": "bytes32"
        }
      ],
      "stateMutability": "view",
      "type": "function"
    },
    {
      "inputs": [],
      "name": "OPERATOR_ROLE",
      "outputs": [
        {
          "internalType": "bytes32",
          "name": "",
          "type": "bytes32"
        }
      ],
      "stateMutability": "view",
      "type": "function"
    },
    {
      "inputs": [
        {
          "internalType": "bytes32",
          "name": "role",
          "type": "bytes32"
        }
      ],
      "name": "getRoleAdmin",
      "outputs": [
        {
          "internalType": "bytes32",
          "name": "",
          "type": "bytes32"
        }
      ],
      "stateMutability": "view",
      "type": "function"
    },
    {
      "inputs": [
        {
          "internalType": "bytes32",
          "name": "role",
          "type": "bytes32"
        },
        {
          "internalType": "address",
          "name": "account",
          "type": "address"
        }
      ],
      "name": "grantRole",
      "outputs": [],
      "stateMutability": "nonpayable",
      "type": "function"
    },
    {
      "inputs": [
        {
          "internalType": "bytes32",
          "name": "role",
          "type": "bytes32"
        },
        {
          "internalType": "address",
          "name": "account",
          "type": "address"
        }
      ],
      "name": "hasRole",
      "outputs": [
        {
          "internalType": "bool",
          "name": "",
          "type": "bool"
        }
      ],
      "stateMutability": "view",
      "type": "function"
    },
    {
      "inputs": [],
      "name": "paused",
      "outputs": [
        {
          "internalType": "bool",
          "name": "",
          "type": "bool"
        }
      ],
      "stateMutability": "view",
      "type": "function"
    },
    {
      "inputs": [
        {
          "internalType": "bytes32",
          "name": "role",
          "type": "bytes32"
        },
        {
          "internalType": "address",
          "name": "account",
          "type": "address"
        }
      ],
      "name": "renounceRole",
      "outputs": [],
      "stateMutability": "nonpayable",
      "type": "function"
    },
    {
      "inputs": [
        {
          "internalType": "bytes32",
          "name": "role",
          "type": "bytes32"
        },
        {
          "internalType": "address",
          "name": "account",
          "type": "address"
        }
      ],
      "name": "revokeRole",
      "outputs": [],
      "stateMutability": "nonpayable",
      "type": "function"
    },
    {
      "inputs": [
        {
          "internalType": "bytes4",
          "name": "interfaceId",
          "type": "bytes4"
        }
      ],
      "name": "supportsInterface",
      "outputs": [
        {
          "internalType": "bool",
          "name": "",
          "type": "bool"
        }
      ],
      "stateMutability": "view",
      "type": "function"
    },
    {
      "inputs": [
        {
          "internalType": "address",
          "name": "wallet",
          "type": "address"
        },
        {
          "internalType": "address[]",
          "name": "allowedTokens",
          "type": "address[]"
        }
      ],
      "name": "initialize",
      "outputs": [],
      "stateMutability": "nonpayable",
      "type": "function"
    },
    {
      "inputs": [],
      "name": "autentica",
      "outputs": [
        {
          "internalType": "address",
          "name": "",
          "type": "address"
        }
      ],
      "stateMutability": "view",
      "type": "function"
    },
    {
      "inputs": [
        {
          "internalType": "address",
          "name": "wallet",
          "type": "address"
        }
      ],
      "name": "setAutentica",
      "outputs": [
        {
          "internalType": "address",
          "name": "",
          "type": "address"
        }
      ],
      "stateMutability": "nonpayable",
      "type": "function"
    },
    {
      "inputs": [],
      "name": "decimals",
      "outputs": [
        {
          "internalType": "uint8",
          "name": "",
          "type": "uint8"
        }
      ],
      "stateMutability": "pure",
      "type": "function"
    },
    {
      "inputs": [],
      "name": "numberOfAllowedTokens",
      "outputs": [
        {
          "internalType": "uint256",
          "name": "",
          "type": "uint256"
        }
      ],
      "stateMutability": "view",
      "type": "function"
    },
    {
      "inputs": [
        {
          "internalType": "uint256",
          "name": "index",
          "type": "uint256"
        }
      ],
      "name": "allowedTokenAtIndex",
      "outputs": [
        {
          "internalType": "address",
          "name": "",
          "type": "address"
        }
      ],
      "stateMutability": "view",
      "type": "function"
    },
    {
      "inputs": [
        {
          "internalType": "address",
          "name": "tokenAddress",
          "type": "address"
        }
      ],
      "name": "isTokenAllowed",
      "outputs": [
        {
          "internalType": "bool",
          "name": "",
          "type": "bool"
        }
      ],
      "stateMutability": "view",
      "type": "function"
    },
    {
      "inputs": [
        {
          "internalType": "address",
          "name": "tokenAddress",
          "type": "address"
        }
      ],
      "name": "addAllowedToken",
      "outputs": [],
      "stateMutability": "nonpayable",
      "type": "function"
    },
    {
      "inputs": [
        {
          "internalType": "uint256",
          "name": "index",
          "type": "uint256"
        }
      ],
      "name": "removeAllowedTokenAtIndex",
      "outputs": [],
      "stateMutability": "nonpayable",
      "type": "function"
    },
    {
      "inputs": [
        {
          "internalType": "address",
          "name": "collection",
          "type": "address"
        },
        {
          "internalType": "uint256",
          "name": "tokenId",
          "type": "uint256"
        },
        {
          "internalType": "uint256",
          "name": "price",
          "type": "uint256"
        },
        {
          "internalType": "address",
          "name": "buyer",
          "type": "address"
        },
        {
          "internalType": "uint256",
          "name": "marketplaceFee",
          "type": "uint256"
        },
        {
          "components": [
            {
              "internalType": "uint8",
              "name": "v",
              "type": "uint8"
            },
            {
              "internalType": "bytes32",
              "name": "r",
              "type": "bytes32"
            },
            {
              "internalType": "bytes32",
              "name": "s",
              "type": "bytes32"
            }
          ],
          "internalType": "struct NFTMarketplaceV2Mock.Signature",
          "name": "signature",
          "type": "tuple"
        }
      ],
      "name": "tradeForCoins",
      "outputs": [],
      "stateMutability": "payable",
      "type": "function"
    },
    {
      "inputs": [
        {
          "internalType": "address",
          "name": "collection",
          "type": "address"
        },
        {
          "internalType": "uint256",
          "name": "tokenId",
          "type": "uint256"
        },
        {
          "internalType": "uint256",
          "name": "price",
          "type": "uint256"
        },
        {
          "internalType": "address",
          "name": "token",
          "type": "address"
        },
        {
          "internalType": "address",
          "name": "buyer",
          "type": "address"
        },
        {
          "internalType": "uint256",
          "name": "marketplaceFee",
          "type": "uint256"
        },
        {
          "components": [
            {
              "internalType": "uint8",
              "name": "v",
              "type": "uint8"
            },
            {
              "internalType": "bytes32",
              "name": "r",
              "type": "bytes32"
            },
            {
              "internalType": "bytes32",
              "name": "s",
              "type": "bytes32"
            }
          ],
          "internalType": "struct NFTMarketplaceV2Mock.Signature",
          "name": "signature",
          "type": "tuple"
        }
      ],
      "name": "tradeForTokens",
      "outputs": [],
      "stateMutability": "nonpayable",
      "type": "function"
    },
    {
      "inputs": [
        {
          "internalType": "address",
          "name": "collection",
          "type": "address"
        },
        {
          "internalType": "uint256",
          "name": "tokenId",
          "type": "uint256"
        },
        {
          "internalType": "uint256",
          "name": "price",
          "type": "uint256"
        },
        {
          "internalType": "address",
          "name": "currency",
          "type": "address"
        },
        {
          "internalType": "address",
          "name": "buyer",
          "type": "address"
        },
        {
          "internalType": "uint256",
          "name": "marketplaceFee",
          "type": "uint256"
        },
        {
          "components": [
            {
              "internalType": "uint8",
              "name": "v",
              "type": "uint8"
            },
            {
              "internalType": "bytes32",
              "name": "r",
              "type": "bytes32"
            },
            {
              "internalType": "bytes32",
              "name": "s",
              "type": "bytes32"
            }
          ],
          "internalType": "struct NFTMarketplaceV2Mock.Signature",
          "name": "signature",
          "type": "tuple"
        }
      ],
      "name": "canPerformTrade",
      "outputs": [
        {
          "internalType": "bool",
          "name": "",
          "type": "bool"
        }
      ],
      "stateMutability": "view",
      "type": "function"
    },
    {
      "inputs": [
        {
          "internalType": "address",
          "name": "collection",
          "type": "address"
        },
        {
          "internalType": "uint256",
          "name": "tokenId",
          "type": "uint256"
        }
      ],
      "name": "getRoyaltyFee",
      "outputs": [
        {
          "internalType": "uint256",
          "name": "",
          "type": "uint256"
        }
      ],
      "stateMutability": "view",
      "type": "function"
    },
    {
      "inputs": [
        {
          "internalType": "address",
          "name": "collection",
          "type": "address"
        },
        {
          "internalType": "uint256",
          "name": "tokenId",
          "type": "uint256"
        }
      ],
      "name": "getInvestorFee",
      "outputs": [
        {
          "internalType": "uint256",
          "name": "",
          "type": "uint256"
        }
      ],
      "stateMutability": "view",
      "type": "function"
    },
    {
      "inputs": [
        {
          "internalType": "address",
          "name": "collection",
          "type": "address"
        }
      ],
      "name": "supportsERC721",
      "outputs": [
        {
          "internalType": "bool",
          "name": "",
          "type": "bool"
        }
      ],
      "stateMutability": "view",
      "type": "function"
    },
    {
      "inputs": [
        {
          "internalType": "address",
          "name": "collection",
          "type": "address"
        }
      ],
      "name": "supportsIERC721Autentica",
      "outputs": [
        {
          "internalType": "bool",
          "name": "",
          "type": "bool"
        }
      ],
      "stateMutability": "view",
      "type": "function"
    },
    {
      "inputs": [
        {
          "internalType": "contract IERC721",
          "name": "collection",
          "type": "address"
        },
        {
          "internalType": "uint256",
          "name": "tokenId",
          "type": "uint256"
        },
        {
          "internalType": "address",
          "name": "tokenOwner",
          "type": "address"
        }
      ],
      "name": "isMarketplaceApproved",
      "outputs": [
        {
          "internalType": "bool",
          "name": "",
          "type": "bool"
        }
      ],
      "stateMutability": "view",
      "type": "function"
    },
    {
      "inputs": [],
      "name": "pause",
      "outputs": [],
      "stateMutability": "nonpayable",
      "type": "function"
    },
    {
      "inputs": [],
      "name": "unpause",
      "outputs": [],
      "stateMutability": "nonpayable",
      "type": "function"
    }
  ],
  "bytecode": "0x608060405234801561001057600080fd5b50614d94806100206000396000f3fe6080604052600436106101c25760003560e01c80636aaa9057116100f7578063946d920411610095578063d0f4adca11610064578063d0f4adca1461067f578063d547741f146106a8578063f5b541a6146106d1578063f9eaee0d146106fc576101c2565b8063946d9204146105c35780639d9bcad2146105ec578063a217fddf14610629578063b4c4386914610654576101c2565b806376ab4570116100d157806376ab4570146105165780638456cb5914610553578063862d32e21461056a57806391d1485414610586576101c2565b80636aaa9057146104715780636bc79a671461049c5780636e3f5ca7146104d9576101c2565b8063369e4c2c116101645780634178617f1161013e5780634178617f146103b757806342f7260e146103e057806359d7a486146104095780635c975abb14610446576101c2565b8063369e4c2c146103265780633ab10409146103635780633f4ba83a146103a0576101c2565b80632e0f2625116101a05780632e0f26251461027e5780632f2ff15d146102a9578063313ce567146102d257806336568abe146102fd576101c2565b806301ffc9a7146101c7578063243f5c8714610204578063248a9ca314610241575b600080fd5b3480156101d357600080fd5b506101ee60048036038101906101e9919061305d565b610739565b6040516101fb91906130a5565b60405180910390f35b34801561021057600080fd5b5061022b60048036038101906102269190613178565b6107b3565b60405161023891906130a5565b60405180910390f35b34801561024d57600080fd5b5061026860048036038101906102639190613251565b6108ad565b604051610275919061328d565b60405180910390f35b34801561028a57600080fd5b506102936108cd565b6040516102a091906132c4565b60405180910390f35b3480156102b557600080fd5b506102d060048036038101906102cb91906132df565b6108d2565b005b3480156102de57600080fd5b506102e76108fb565b6040516102f491906132c4565b60405180910390f35b34801561030957600080fd5b50610324600480360381019061031f91906132df565b610904565b005b34801561033257600080fd5b5061034d6004803603810190610348919061335d565b610987565b60405161035a91906130a5565b60405180910390f35b34801561036f57600080fd5b5061038a600480360381019061038591906133b0565b610abd565b60405161039791906133ff565b60405180910390f35b3480156103ac57600080fd5b506103b5610b62565b005b3480156103c357600080fd5b506103de60048036038101906103d9919061341a565b610bbf565b005b3480156103ec57600080fd5b5061040760048036038101906104029190613178565b610d74565b005b34801561041557600080fd5b50610430600480360381019061042b919061341a565b611205565b60405161043d9190613456565b60405180910390f35b34801561045257600080fd5b5061045b611369565b60405161046891906130a5565b60405180910390f35b34801561047d57600080fd5b50610486611380565b6040516104939190613456565b60405180910390f35b3480156104a857600080fd5b506104c360048036038101906104be9190613471565b6113aa565b6040516104d09190613456565b60405180910390f35b3480156104e557600080fd5b5061050060048036038101906104fb919061341a565b61143b565b60405161050d91906130a5565b60405180910390f35b34801561052257600080fd5b5061053d600480360381019061053891906133b0565b61146e565b60405161054a91906133ff565b60405180910390f35b34801561055f57600080fd5b50610568611513565b005b610584600480360381019061057f919061349e565b611570565b005b34801561059257600080fd5b506105ad60048036038101906105a891906132df565b611815565b6040516105ba91906130a5565b60405180910390f35b3480156105cf57600080fd5b506105ea60048036038101906105e59190613685565b611880565b005b3480156105f857600080fd5b50610613600480360381019061060e919061341a565b611a57565b60405161062091906130a5565b60405180910390f35b34801561063557600080fd5b5061063e611a8a565b60405161064b919061328d565b60405180910390f35b34801561066057600080fd5b50610669611a91565b60405161067691906133ff565b60405180910390f35b34801561068b57600080fd5b506106a660048036038101906106a19190613471565b611a9e565b005b3480156106b457600080fd5b506106cf60048036038101906106ca91906132df565b611d16565b005b3480156106dd57600080fd5b506106e6611d3f565b6040516106f3919061328d565b60405180910390f35b34801561070857600080fd5b50610723600480360381019061071e919061341a565b611d63565b60405161073091906130a5565b60405180910390f35b60007f7965db0b000000000000000000000000000000000000000000000000000000007bffffffffffffffffffffffffffffffffffffffffffffffffffffffff1916827bffffffffffffffffffffffffffffffffffffffffffffffffffffffff191614806107ac57506107ab82611e14565b5b9050919050565b60006107bd611369565b156107fd576040517f08c379a00000000000000000000000000000000000000000000000000000000081526004016107f490613764565b60405180910390fd5b61080688611e7e565b60006108128989611ec9565b905061081f898983612128565b600061082b8a8a61146e565b905060006108398b8b610abd565b905061084682828861217b565b61085c8b8b85600001518a8d8d88888e8e6121f2565b61089b576040517f08c379a0000000000000000000000000000000000000000000000000000000008152600401610892906137f6565b60405180910390fd5b60019350505050979650505050505050565b600060656000838152602001908152602001600020600101549050919050565b600481565b6108db826108ad565b6108ec816108e7612313565b61231b565b6108f683836123b8565b505050565b60006004905090565b61090c612313565b73ffffffffffffffffffffffffffffffffffffffff168173ffffffffffffffffffffffffffffffffffffffff1614610979576040517f08c379a000000000000000000000000000000000000000000000000000000000815260040161097090613888565b60405180910390fd5b6109838282612499565b5050565b60003073ffffffffffffffffffffffffffffffffffffffff168473ffffffffffffffffffffffffffffffffffffffff1663081812fc856040518263ffffffff1660e01b81526004016109d991906133ff565b602060405180830381865afa1580156109f6573d6000803e3d6000fd5b505050506040513d601f19601f82011682018060405250810190610a1a91906138bd565b73ffffffffffffffffffffffffffffffffffffffff161480610ab457508373ffffffffffffffffffffffffffffffffffffffff1663e985e9c583306040518363ffffffff1660e01b8152600401610a729291906138ea565b602060405180830381865afa158015610a8f573d6000803e3d6000fd5b505050506040513d601f19601f82011682018060405250810190610ab3919061393f565b5b90509392505050565b60008060009050610acd8461143b565b15610b5857610b55848573ffffffffffffffffffffffffffffffffffffffff1663f915765b866040518263ffffffff1660e01b8152600401610b0f91906133ff565b602060405180830381865afa158015610b2c573d6000803e3d6000fd5b505050506040513d601f19601f82011682018060405250810190610b509190613981565b61257b565b90505b8091505092915050565b610b766000801b610b71612313565b611815565b610bb5576040517f08c379a0000000000000000000000000000000000000000000000000000000008152600401610bac90613a20565b60405180910390fd5b610bbd612623565b565b610bd36000801b610bce612313565b611815565b610c12576040517f08c379a0000000000000000000000000000000000000000000000000000000008152600401610c0990613ab2565b60405180910390fd5b600073ffffffffffffffffffffffffffffffffffffffff168173ffffffffffffffffffffffffffffffffffffffff161415610c82576040517f08c379a0000000000000000000000000000000000000000000000000000000008152600401610c7990613b44565b60405180910390fd5b610c8b81611d63565b15610ccb576040517f08c379a0000000000000000000000000000000000000000000000000000000008152600401610cc290613bd6565b60405180910390fd5b60fc819080600181540180825580915050600190039060005260206000200160009091909190916101000a81548173ffffffffffffffffffffffffffffffffffffffff021916908373ffffffffffffffffffffffffffffffffffffffff1602179055508073ffffffffffffffffffffffffffffffffffffffff167ff849d00bc67e9e4bf072df9680646c59b8c5380160834c2e1d4896ce5ec81f7560405160405180910390a250565b60026097541415610dba576040517f08c379a0000000000000000000000000000000000000000000000000000000008152600401610db190613c42565b60405180910390fd5b6002609781905550610dcb84611d63565b610e0a576040517f08c379a0000000000000000000000000000000000000000000000000000000008152600401610e0190613cd4565b60405180910390fd5b610e19878787878787876107b3565b506000610e268888611ec9565b90506000610e4782610e388b8b61146e565b610e428c8c610abd565b6126c5565b905060006040518060600160405280610e6484600001518b6127c9565b8152602001610e7784602001518b6127c9565b8152602001610e86878b6127c9565b81525090506000610e978983612815565b90508773ffffffffffffffffffffffffffffffffffffffff166323b872dd888660000151846040518463ffffffff1660e01b8152600401610eda93929190613cf4565b6020604051808303816000875af1158015610ef9573d6000803e3d6000fd5b505050506040513d601f19601f82011682018060405250810190610f1d919061393f565b50600082602001511115610fb5578773ffffffffffffffffffffffffffffffffffffffff166323b872dd88866040015185602001516040518463ffffffff1660e01b8152600401610f7093929190613cf4565b6020604051808303816000875af1158015610f8f573d6000803e3d6000fd5b505050506040513d601f19601f82011682018060405250810190610fb3919061393f565b505b60008260000151111561104c578773ffffffffffffffffffffffffffffffffffffffff166323b872dd88866020015185600001516040518463ffffffff1660e01b815260040161100793929190613cf4565b6020604051808303816000875af1158015611026573d6000803e3d6000fd5b505050506040513d601f19601f8201168201806040525081019061104a919061393f565b505b600082604001511115611101578773ffffffffffffffffffffffffffffffffffffffff166323b872dd8860fb60009054906101000a900473ffffffffffffffffffffffffffffffffffffffff1685604001516040518463ffffffff1660e01b81526004016110bc93929190613cf4565b6020604051808303816000875af11580156110db573d6000803e3d6000fd5b505050506040513d601f19601f820116820180604052508101906110ff919061393f565b505b8a73ffffffffffffffffffffffffffffffffffffffff166342842e0e856000015161112a612313565b8d6040518463ffffffff1660e01b815260040161114993929190613cf4565b600060405180830381600087803b15801561116357600080fd5b505af1158015611177573d6000803e3d6000fd5b50505050836000015173ffffffffffffffffffffffffffffffffffffffff168a8c73ffffffffffffffffffffffffffffffffffffffff167f89a3ccd6bf92084ed98b16a09ee98eca5bab2e4321a76d8d7c9c0fbd5852e84e6111d7612313565b8c8e6040516111e893929190613cf4565b60405180910390a450505050600160978190555050505050505050565b600061121b6000801b611216612313565b611815565b61125a576040517f08c379a000000000000000000000000000000000000000000000000000000000815260040161125190613d9d565b60405180910390fd5b600060fb60009054906101000a900473ffffffffffffffffffffffffffffffffffffffff1690508260fb60006101000a81548173ffffffffffffffffffffffffffffffffffffffff021916908373ffffffffffffffffffffffffffffffffffffffff16021790555060fb60009054906101000a900473ffffffffffffffffffffffffffffffffffffffff1673ffffffffffffffffffffffffffffffffffffffff168173ffffffffffffffffffffffffffffffffffffffff167fa2c04199617341beb18c0052b61ae8aa35006743d43ca44891ca000f56e9065560405160405180910390a360fb60009054906101000a900473ffffffffffffffffffffffffffffffffffffffff16915050919050565b600060c960009054906101000a900460ff16905090565b600060fb60009054906101000a900473ffffffffffffffffffffffffffffffffffffffff16905090565b60006113b4611a91565b82106113f5576040517f08c379a00000000000000000000000000000000000000000000000000000000081526004016113ec90613e2f565b60405180910390fd5b60fc828154811061140957611408613e4f565b5b9060005260206000200160009054906101000a900473ffffffffffffffffffffffffffffffffffffffff169050919050565b6000611467827f4b763d0e0000000000000000000000000000000000000000000000000000000061284d565b9050919050565b6000806000905061147e8461143b565b1561150957611506848573ffffffffffffffffffffffffffffffffffffffff16639e4c0141866040518263ffffffff1660e01b81526004016114c091906133ff565b602060405180830381865afa1580156114dd573d6000803e3d6000fd5b505050506040513d601f19601f820116820180604052508101906115019190613981565b61257b565b90505b8091505092915050565b6115276000801b611522612313565b611815565b611566576040517f08c379a000000000000000000000000000000000000000000000000000000000815260040161155d90613ef0565b60405180910390fd5b61156e612872565b565b600260975414156115b6576040517f08c379a00000000000000000000000000000000000000000000000000000000081526004016115ad90613c42565b60405180910390fd5b6002609781905550833414611600576040517f08c379a00000000000000000000000000000000000000000000000000000000081526004016115f790613f82565b60405180910390fd5b61161086868660008787876107b3565b50600061161d8787611ec9565b9050600061163e8261162f8a8a61146e565b6116398b8b610abd565b6126c5565b90506000604051806060016040528061165b84600001518a6127c9565b815260200161166e84602001518a6127c9565b815260200161167d878a6127c9565b8152509050600061168e8883612815565b905061169e846000015182612915565b6000826020015111156116be576116bd84604001518360200151612915565b5b6000826000015111156116de576116dd84602001518360000151612915565b5b60008260400151111561171c5761171b60fb60009054906101000a900473ffffffffffffffffffffffffffffffffffffffff168360400151612915565b5b8973ffffffffffffffffffffffffffffffffffffffff166342842e0e8560000151611745612313565b8c6040518463ffffffff1660e01b815260040161176493929190613cf4565b600060405180830381600087803b15801561177e57600080fd5b505af1158015611792573d6000803e3d6000fd5b50505050600073ffffffffffffffffffffffffffffffffffffffff1660008073ffffffffffffffffffffffffffffffffffffffff167f5571d7a2f159f42b30a9146ea3b63800a6daee9ef203f7c8bd3e58433cc3740e6000806040516117f9929190613fe7565b60405180910390a4505050506001609781905550505050505050565b60006065600084815260200190815260200160002060000160008373ffffffffffffffffffffffffffffffffffffffff1673ffffffffffffffffffffffffffffffffffffffff16815260200190815260200160002060009054906101000a900460ff16905092915050565b600060019054906101000a900460ff166118a85760008054906101000a900460ff16156118b1565b6118b06129c6565b5b6118f0576040517f08c379a00000000000000000000000000000000000000000000000000000000081526004016118e790614082565b60405180910390fd5b60008060019054906101000a900460ff161590508015611940576001600060016101000a81548160ff02191690831515021790555060016000806101000a81548160ff0219169083151502179055505b6119486129d7565b611950612a28565b611958612a79565b611960612aca565b611968612b23565b61197c6000801b611977612313565b612b8f565b6119ad7f97667070c54ef182b0f5858b034beac1b6f3089aa2d3188bb1e8929f4fa9b9296119a8612313565b612b8f565b8260fb60006101000a81548173ffffffffffffffffffffffffffffffffffffffff021916908373ffffffffffffffffffffffffffffffffffffffff16021790555060005b8251811015611a3057611a1d838281518110611a1057611a0f613e4f565b5b6020026020010151610bbf565b8080611a28906140d1565b9150506119f1565b508015611a525760008060016101000a81548160ff0219169083151502179055505b505050565b6000611a83827f80ac58cd0000000000000000000000000000000000000000000000000000000061284d565b9050919050565b6000801b81565b600060fc80549050905090565b611ab26000801b611aad612313565b611815565b611af1576040517f08c379a0000000000000000000000000000000000000000000000000000000008152600401611ae89061418c565b60405180910390fd5b611af9611a91565b8110611b3a576040517f08c379a0000000000000000000000000000000000000000000000000000000008152600401611b3190613e2f565b60405180910390fd5b600060fc8281548110611b5057611b4f613e4f565b5b9060005260206000200160009054906101000a900473ffffffffffffffffffffffffffffffffffffffff1690506001611b87611a91565b1415611bd95760fc805480611b9f57611b9e6141ac565b5b6001900381819060005260206000200160006101000a81549073ffffffffffffffffffffffffffffffffffffffff02191690559055611ccf565b60fc6001611be5611a91565b611bef91906141db565b81548110611c0057611bff613e4f565b5b9060005260206000200160009054906101000a900473ffffffffffffffffffffffffffffffffffffffff1660fc8381548110611c3f57611c3e613e4f565b5b9060005260206000200160006101000a81548173ffffffffffffffffffffffffffffffffffffffff021916908373ffffffffffffffffffffffffffffffffffffffff16021790555060fc805480611c9957611c986141ac565b5b6001900381819060005260206000200160006101000a81549073ffffffffffffffffffffffffffffffffffffffff021916905590555b8073ffffffffffffffffffffffffffffffffffffffff167fbf996b4fd74f0c7159bb017b1db415b0d9a6f13129f46d0b93309d170b78df3160405160405180910390a25050565b611d1f826108ad565b611d3081611d2b612313565b61231b565b611d3a8383612499565b505050565b7f97667070c54ef182b0f5858b034beac1b6f3089aa2d3188bb1e8929f4fa9b92981565b600080600090505b611d73611a91565b811015611e09578273ffffffffffffffffffffffffffffffffffffffff1660fc8281548110611da557611da4613e4f565b5b9060005260206000200160009054906101000a900473ffffffffffffffffffffffffffffffffffffffff1673ffffffffffffffffffffffffffffffffffffffff161415611df6576001915050611e0f565b8080611e01906140d1565b915050611d6b565b50600090505b919050565b60007f01ffc9a7000000000000000000000000000000000000000000000000000000007bffffffffffffffffffffffffffffffffffffffffffffffffffffffff1916827bffffffffffffffffffffffffffffffffffffffffffffffffffffffff1916149050919050565b611e8781611a57565b611ec6576040517f08c379a0000000000000000000000000000000000000000000000000000000008152600401611ebd906142a7565b60405180910390fd5b50565b611ed1612f74565b600060405180606001604052808573ffffffffffffffffffffffffffffffffffffffff16636352211e866040518263ffffffff1660e01b8152600401611f1791906133ff565b602060405180830381865afa158015611f34573d6000803e3d6000fd5b505050506040513d601f19601f82011682018060405250810190611f5891906138bd565b73ffffffffffffffffffffffffffffffffffffffff168152602001600073ffffffffffffffffffffffffffffffffffffffff168152602001600073ffffffffffffffffffffffffffffffffffffffff168152509050611fb68461143b565b1561211e578373ffffffffffffffffffffffffffffffffffffffff1663d48e638a846040518263ffffffff1660e01b8152600401611ff491906133ff565b602060405180830381865afa158015612011573d6000803e3d6000fd5b505050506040513d601f19601f8201168201806040525081019061203591906138bd565b816020019073ffffffffffffffffffffffffffffffffffffffff16908173ffffffffffffffffffffffffffffffffffffffff16815250508373ffffffffffffffffffffffffffffffffffffffff1663c99dccf9846040518263ffffffff1660e01b81526004016120a591906133ff565b602060405180830381865afa1580156120c2573d6000803e3d6000fd5b505050506040513d601f19601f820116820180604052508101906120e691906138bd565b816040019073ffffffffffffffffffffffffffffffffffffffff16908173ffffffffffffffffffffffffffffffffffffffff16815250505b8091505092915050565b61213783838360000151610987565b612176576040517f08c379a000000000000000000000000000000000000000000000000000000000815260040161216d90614339565b60405180910390fd5b505050565b6004600a612189919061448c565b606461219591906144d7565b8183856121a29190614531565b6121ac9190614531565b11156121ed576040517f08c379a00000000000000000000000000000000000000000000000000000000081526004016121e4906145f9565b60405180910390fd5b505050565b600080308c8c8c8c8c8c8c8c8c6040516020016122189a99989796959493929190614619565b6040516020818303038152906040528051906020012090506000600182604051602001612245919061472d565b6040516020818303038152906040528051906020012085600001602081019061226e919061477f565b866020013587604001356040516000815260200160405260405161229594939291906147ac565b6020604051602081039080840390855afa1580156122b7573d6000803e3d6000fd5b5050506020604051035190506122d06000801b82611815565b8061230157506123007f97667070c54ef182b0f5858b034beac1b6f3089aa2d3188bb1e8929f4fa9b92982611815565b5b925050509a9950505050505050505050565b600033905090565b6123258282611815565b6123b45761234a8173ffffffffffffffffffffffffffffffffffffffff166014612b9d565b6123588360001c6020612b9d565b6040516020016123699291906148f8565b6040516020818303038152906040526040517f08c379a00000000000000000000000000000000000000000000000000000000081526004016123ab919061496b565b60405180910390fd5b5050565b6123c28282611815565b6124955760016065600084815260200190815260200160002060000160008373ffffffffffffffffffffffffffffffffffffffff1673ffffffffffffffffffffffffffffffffffffffff16815260200190815260200160002060006101000a81548160ff02191690831515021790555061243a612313565b73ffffffffffffffffffffffffffffffffffffffff168173ffffffffffffffffffffffffffffffffffffffff16837f2f8788117e7eff1d82e926ec794901d17c78024a50270940304540a733656f0d60405160405180910390a45b5050565b6124a38282611815565b156125775760006065600084815260200190815260200160002060000160008373ffffffffffffffffffffffffffffffffffffffff1673ffffffffffffffffffffffffffffffffffffffff16815260200190815260200160002060006101000a81548160ff02191690831515021790555061251c612313565b73ffffffffffffffffffffffffffffffffffffffff168173ffffffffffffffffffffffffffffffffffffffff16837ff6391f5c32d9c69d2a47ea670b442974b53935d1edc7fd64eb21e047a839171b60405160405180910390a45b5050565b60008273ffffffffffffffffffffffffffffffffffffffff1663313ce5676040518163ffffffff1660e01b8152600401602060405180830381865afa1580156125c8573d6000803e3d6000fd5b505050506040513d601f19601f820116820180604052508101906125ec91906149a2565b600a6125f8919061448c565b6004600a612606919061448c565b8361261191906144d7565b61261b91906149fe565b905092915050565b61262b611369565b61266a576040517f08c379a000000000000000000000000000000000000000000000000000000000815260040161266190614a7b565b60405180910390fd5b600060c960006101000a81548160ff0219169083151502179055507f5db9ee0a495bf2e6ff9c91a7834c1ba4fdd244a5e8aa4e537bd38aeae4b073aa6126ae612313565b6040516126bb9190613456565b60405180910390a1565b6126cd612fd7565b600060405180604001604052806000815260200160008152509050846020015173ffffffffffffffffffffffffffffffffffffffff16856000015173ffffffffffffffffffffffffffffffffffffffff16141561276c57600073ffffffffffffffffffffffffffffffffffffffff16856040015173ffffffffffffffffffffffffffffffffffffffff161461276757828160200181815250505b6127be565b600073ffffffffffffffffffffffffffffffffffffffff16856020015173ffffffffffffffffffffffffffffffffffffffff16141580156127ad5750600084115b156127bd57838160000181815250505b5b809150509392505050565b6000808314156127dc576000905061280f565b6004600a6127ea919061448c565b60646127f691906144d7565b838361280291906144d7565b61280c91906149fe565b90505b92915050565b60008160200151826000015183604001518561283191906141db565b61283b91906141db565b61284591906141db565b905092915050565b600061285883612dd9565b801561286a57506128698383612e26565b5b905092915050565b61287a611369565b156128ba576040517f08c379a00000000000000000000000000000000000000000000000000000000081526004016128b190614ae7565b60405180910390fd5b600160c960006101000a81548160ff0219169083151502179055507f62e78cea01bee320cd4e420270b5ea74000d11b0c9f74754ebdbfc544b05a2586128fe612313565b60405161290b9190613456565b60405180910390a1565b60008273ffffffffffffffffffffffffffffffffffffffff168260405161293b90614b38565b60006040518083038185875af1925050503d8060008114612978576040519150601f19603f3d011682016040523d82523d6000602084013e61297d565b606091505b50509050806129c1576040517f08c379a00000000000000000000000000000000000000000000000000000000081526004016129b890614b99565b60405180910390fd5b505050565b60006129d130612f51565b15905090565b600060019054906101000a900460ff16612a26576040517f08c379a0000000000000000000000000000000000000000000000000000000008152600401612a1d90614c2b565b60405180910390fd5b565b600060019054906101000a900460ff16612a77576040517f08c379a0000000000000000000000000000000000000000000000000000000008152600401612a6e90614c2b565b60405180910390fd5b565b600060019054906101000a900460ff16612ac8576040517f08c379a0000000000000000000000000000000000000000000000000000000008152600401612abf90614c2b565b60405180910390fd5b565b600060019054906101000a900460ff16612b19576040517f08c379a0000000000000000000000000000000000000000000000000000000008152600401612b1090614c2b565b60405180910390fd5b6001609781905550565b600060019054906101000a900460ff16612b72576040517f08c379a0000000000000000000000000000000000000000000000000000000008152600401612b6990614c2b565b60405180910390fd5b600060c960006101000a81548160ff021916908315150217905550565b612b9982826123b8565b5050565b606060006002836002612bb091906144d7565b612bba9190614531565b67ffffffffffffffff811115612bd357612bd2613542565b5b6040519080825280601f01601f191660200182016040528015612c055781602001600182028036833780820191505090505b5090507f300000000000000000000000000000000000000000000000000000000000000081600081518110612c3d57612c3c613e4f565b5b60200101907effffffffffffffffffffffffffffffffffffffffffffffffffffffffffffff1916908160001a9053507f780000000000000000000000000000000000000000000000000000000000000081600181518110612ca157612ca0613e4f565b5b60200101907effffffffffffffffffffffffffffffffffffffffffffffffffffffffffffff1916908160001a90535060006001846002612ce191906144d7565b612ceb9190614531565b90505b6001811115612d8b577f3031323334353637383961626364656600000000000000000000000000000000600f861660108110612d2d57612d2c613e4f565b5b1a60f81b828281518110612d4457612d43613e4f565b5b60200101907effffffffffffffffffffffffffffffffffffffffffffffffffffffffffffff1916908160001a905350600485901c945080612d8490614c4b565b9050612cee565b5060008414612dcf576040517f08c379a0000000000000000000000000000000000000000000000000000000008152600401612dc690614cc1565b60405180910390fd5b8091505092915050565b6000612e05827f01ffc9a700000000000000000000000000000000000000000000000000000000612e26565b8015612e1f5750612e1d8263ffffffff60e01b612e26565b155b9050919050565b6000806301ffc9a760e01b83604051602401612e429190614cf0565b604051602081830303815290604052907bffffffffffffffffffffffffffffffffffffffffffffffffffffffff19166020820180517bffffffffffffffffffffffffffffffffffffffffffffffffffffffff838183161783525050505090506000808573ffffffffffffffffffffffffffffffffffffffff1661753084604051612ecc9190614d47565b6000604051808303818686fa925050503d8060008114612f08576040519150601f19603f3d011682016040523d82523d6000602084013e612f0d565b606091505b5091509150602081511015612f285760009350505050612f4b565b818015612f45575080806020019051810190612f44919061393f565b5b93505050505b92915050565b6000808273ffffffffffffffffffffffffffffffffffffffff163b119050919050565b6040518060600160405280600073ffffffffffffffffffffffffffffffffffffffff168152602001600073ffffffffffffffffffffffffffffffffffffffff168152602001600073ffffffffffffffffffffffffffffffffffffffff1681525090565b604051806040016040528060008152602001600081525090565b6000604051905090565b600080fd5b600080fd5b60007fffffffff0000000000000000000000000000000000000000000000000000000082169050919050565b61303a81613005565b811461304557600080fd5b50565b60008135905061305781613031565b92915050565b60006020828403121561307357613072612ffb565b5b600061308184828501613048565b91505092915050565b60008115159050919050565b61309f8161308a565b82525050565b60006020820190506130ba6000830184613096565b92915050565b600073ffffffffffffffffffffffffffffffffffffffff82169050919050565b60006130eb826130c0565b9050919050565b6130fb816130e0565b811461310657600080fd5b50565b600081359050613118816130f2565b92915050565b6000819050919050565b6131318161311e565b811461313c57600080fd5b50565b60008135905061314e81613128565b92915050565b600080fd5b60006060828403121561316f5761316e613154565b5b81905092915050565b6000806000806000806000610120888a03121561319857613197612ffb565b5b60006131a68a828b01613109565b97505060206131b78a828b0161313f565b96505060406131c88a828b0161313f565b95505060606131d98a828b01613109565b94505060806131ea8a828b01613109565b93505060a06131fb8a828b0161313f565b92505060c061320c8a828b01613159565b91505092959891949750929550565b6000819050919050565b61322e8161321b565b811461323957600080fd5b50565b60008135905061324b81613225565b92915050565b60006020828403121561326757613266612ffb565b5b60006132758482850161323c565b91505092915050565b6132878161321b565b82525050565b60006020820190506132a2600083018461327e565b92915050565b600060ff82169050919050565b6132be816132a8565b82525050565b60006020820190506132d960008301846132b5565b92915050565b600080604083850312156132f6576132f5612ffb565b5b60006133048582860161323c565b925050602061331585828601613109565b9150509250929050565b600061332a826130e0565b9050919050565b61333a8161331f565b811461334557600080fd5b50565b60008135905061335781613331565b92915050565b60008060006060848603121561337657613375612ffb565b5b600061338486828701613348565b93505060206133958682870161313f565b92505060406133a686828701613109565b9150509250925092565b600080604083850312156133c7576133c6612ffb565b5b60006133d585828601613109565b92505060206133e68582860161313f565b9150509250929050565b6133f98161311e565b82525050565b600060208201905061341460008301846133f0565b92915050565b6000602082840312156134305761342f612ffb565b5b600061343e84828501613109565b91505092915050565b613450816130e0565b82525050565b600060208201905061346b6000830184613447565b92915050565b60006020828403121561348757613486612ffb565b5b60006134958482850161313f565b91505092915050565b60008060008060008061010087890312156134bc576134bb612ffb565b5b60006134ca89828a01613109565b96505060206134db89828a0161313f565b95505060406134ec89828a0161313f565b94505060606134fd89828a01613109565b935050608061350e89828a0161313f565b92505060a061351f89828a01613159565b9150509295509295509295565b600080fd5b6000601f19601f8301169050919050565b7f4e487b7100000000000000000000000000000000000000000000000000000000600052604160045260246000fd5b61357a82613531565b810181811067ffffffffffffffff8211171561359957613598613542565b5b80604052505050565b60006135ac612ff1565b90506135b88282613571565b919050565b600067ffffffffffffffff8211156135d8576135d7613542565b5b602082029050602081019050919050565b600080fd5b60006136016135fc846135bd565b6135a2565b90508083825260208201905060208402830185811115613624576136236135e9565b5b835b8181101561364d57806136398882613109565b845260208401935050602081019050613626565b5050509392505050565b600082601f83011261366c5761366b61352c565b5b813561367c8482602086016135ee565b91505092915050565b6000806040838503121561369c5761369b612ffb565b5b60006136aa85828601613109565b925050602083013567ffffffffffffffff8111156136cb576136ca613000565b5b6136d785828601613657565b9150509250929050565b600082825260208201905092915050565b7f4e46544d61726b6574706c6163653a20436f6e7472616374206973207061757360008201527f6564000000000000000000000000000000000000000000000000000000000000602082015250565b600061374e6022836136e1565b9150613759826136f2565b604082019050919050565b6000602082019050818103600083015261377d81613741565b9050919050565b7f4e46544d61726b6574706c6163653a20496e76616c6964207369676e6174757260008201527f6500000000000000000000000000000000000000000000000000000000000000602082015250565b60006137e06021836136e1565b91506137eb82613784565b604082019050919050565b6000602082019050818103600083015261380f816137d3565b9050919050565b7f416363657373436f6e74726f6c3a2063616e206f6e6c792072656e6f756e636560008201527f20726f6c657320666f722073656c660000000000000000000000000000000000602082015250565b6000613872602f836136e1565b915061387d82613816565b604082019050919050565b600060208201905081810360008301526138a181613865565b9050919050565b6000815190506138b7816130f2565b92915050565b6000602082840312156138d3576138d2612ffb565b5b60006138e1848285016138a8565b91505092915050565b60006040820190506138ff6000830185613447565b61390c6020830184613447565b9392505050565b61391c8161308a565b811461392757600080fd5b50565b60008151905061393981613913565b92915050565b60006020828403121561395557613954612ffb565b5b60006139638482850161392a565b91505092915050565b60008151905061397b81613128565b92915050565b60006020828403121561399757613996612ffb565b5b60006139a58482850161396c565b91505092915050565b7f4e46544d61726b6574706c6163653a204f6e6c792061646d696e732063616e2060008201527f756e706175736500000000000000000000000000000000000000000000000000602082015250565b6000613a0a6027836136e1565b9150613a15826139ae565b604082019050919050565b60006020820190508181036000830152613a39816139fd565b9050919050565b7f4e46544d61726b6574706c6163653a204f6e6c792061646d696e732063616e2060008201527f61646420616c6c6f77656420746f6b656e730000000000000000000000000000602082015250565b6000613a9c6032836136e1565b9150613aa782613a40565b604082019050919050565b60006020820190508181036000830152613acb81613a8f565b9050919050565b7f4e46544d61726b6574706c6163653a20546f6b656e206164647265737320697360008201527f20746865207a65726f2061646472657373000000000000000000000000000000602082015250565b6000613b2e6031836136e1565b9150613b3982613ad2565b604082019050919050565b60006020820190508181036000830152613b5d81613b21565b9050919050565b7f4e46544d61726b6574706c6163653a20546f6b656e206164647265737320697360008201527f20616c726561647920616c6c6f77656400000000000000000000000000000000602082015250565b6000613bc06030836136e1565b9150613bcb82613b64565b604082019050919050565b60006020820190508181036000830152613bef81613bb3565b9050919050565b7f5265656e7472616e637947756172643a207265656e7472616e742063616c6c00600082015250565b6000613c2c601f836136e1565b9150613c3782613bf6565b602082019050919050565b60006020820190508181036000830152613c5b81613c1f565b9050919050565b7f4e46544d61726b6574706c6163653a20546f6b656e206e6f7420616c6c6f776560008201527f6400000000000000000000000000000000000000000000000000000000000000602082015250565b6000613cbe6021836136e1565b9150613cc982613c62565b604082019050919050565b60006020820190508181036000830152613ced81613cb1565b9050919050565b6000606082019050613d096000830186613447565b613d166020830185613447565b613d2360408301846133f0565b949350505050565b7f4e46544d61726b6574706c6163653a204f6e6c792061646d696e732063616e2060008201527f6368616e67652074686973000000000000000000000000000000000000000000602082015250565b6000613d87602b836136e1565b9150613d9282613d2b565b604082019050919050565b60006020820190508181036000830152613db681613d7a565b9050919050565b7f4e46544d61726b6574706c6163653a20496e646578206f7574206f6620626f7560008201527f6e64730000000000000000000000000000000000000000000000000000000000602082015250565b6000613e196023836136e1565b9150613e2482613dbd565b604082019050919050565b60006020820190508181036000830152613e4881613e0c565b9050919050565b7f4e487b7100000000000000000000000000000000000000000000000000000000600052603260045260246000fd5b7f4e46544d61726b6574706c6163653a204f6e6c792061646d696e732063616e2060008201527f7061757365000000000000000000000000000000000000000000000000000000602082015250565b6000613eda6025836136e1565b9150613ee582613e7e565b604082019050919050565b60006020820190508181036000830152613f0981613ecd565b9050919050565b7f4e46544d61726b6574706c6163653a204e6f7420656e6f75676820636f696e7360008201527f2073656e74000000000000000000000000000000000000000000000000000000602082015250565b6000613f6c6025836136e1565b9150613f7782613f10565b604082019050919050565b60006020820190508181036000830152613f9b81613f5f565b9050919050565b6000819050919050565b6000819050919050565b6000613fd1613fcc613fc784613fa2565b613fac565b61311e565b9050919050565b613fe181613fb6565b82525050565b6000604082019050613ffc6000830185613447565b6140096020830184613fd8565b9392505050565b7f496e697469616c697a61626c653a20636f6e747261637420697320616c72656160008201527f647920696e697469616c697a6564000000000000000000000000000000000000602082015250565b600061406c602e836136e1565b915061407782614010565b604082019050919050565b6000602082019050818103600083015261409b8161405f565b9050919050565b7f4e487b7100000000000000000000000000000000000000000000000000000000600052601160045260246000fd5b60006140dc8261311e565b91507fffffffffffffffffffffffffffffffffffffffffffffffffffffffffffffffff82141561410f5761410e6140a2565b5b600182019050919050565b7f4e46544d61726b6574706c6163653a204f6e6c792061646d696e732063616e2060008201527f72656d6f766520616c6c6f77656420746f6b656e730000000000000000000000602082015250565b60006141766035836136e1565b91506141818261411a565b604082019050919050565b600060208201905081810360008301526141a581614169565b9050919050565b7f4e487b7100000000000000000000000000000000000000000000000000000000600052603160045260246000fd5b60006141e68261311e565b91506141f18361311e565b925082821015614204576142036140a2565b5b828203905092915050565b7f4e46544d61726b6574706c6163653a20436f6c6c656374696f6e20646f65732060008201527f6e6f7420737570706f727420746865204552432d37323120696e74657266616360208201527f6500000000000000000000000000000000000000000000000000000000000000604082015250565b60006142916041836136e1565b915061429c8261420f565b606082019050919050565b600060208201905081810360008301526142c081614284565b9050919050565b7f4e46544d61726b6574706c6163653a204f776e657220686173206e6f7420617060008201527f70726f76656420757320666f72206d616e6167696e6720697473204e46547300602082015250565b6000614323603f836136e1565b915061432e826142c7565b604082019050919050565b6000602082019050818103600083015261435281614316565b9050919050565b60008160011c9050919050565b6000808291508390505b60018511156143b05780860481111561438c5761438b6140a2565b5b600185161561439b5780820291505b80810290506143a985614359565b9450614370565b94509492505050565b6000826143c95760019050614485565b816143d75760009050614485565b81600181146143ed57600281146143f757614426565b6001915050614485565b60ff841115614409576144086140a2565b5b8360020a9150848211156144205761441f6140a2565b5b50614485565b5060208310610133831016604e8410600b841016171561445b5782820a905083811115614456576144556140a2565b5b614485565b6144688484846001614366565b9250905081840481111561447f5761447e6140a2565b5b81810290505b9392505050565b60006144978261311e565b91506144a2836132a8565b92506144cf7fffffffffffffffffffffffffffffffffffffffffffffffffffffffffffffffff84846143b9565b905092915050565b60006144e28261311e565b91506144ed8361311e565b9250817fffffffffffffffffffffffffffffffffffffffffffffffffffffffffffffffff0483118215151615614526576145256140a2565b5b828202905092915050565b600061453c8261311e565b91506145478361311e565b9250827fffffffffffffffffffffffffffffffffffffffffffffffffffffffffffffffff0382111561457c5761457b6140a2565b5b828201905092915050565b7f4e46544d61726b6574706c6163653a20546f74616c20666565732063616e6e6f60008201527f742062652067726561746572207468616e203130302500000000000000000000602082015250565b60006145e36036836136e1565b91506145ee82614587565b604082019050919050565b60006020820190508181036000830152614612816145d6565b9050919050565b60006101408201905061462f600083018d613447565b61463c602083018c613447565b614649604083018b6133f0565b614656606083018a613447565b6146636080830189613447565b61467060a08301886133f0565b61467d60c0830187613447565b61468a60e08301866133f0565b6146986101008301856133f0565b6146a66101208301846133f0565b9b9a5050505050505050505050565b600081905092915050565b7f19457468657265756d205369676e6564204d6573736167653a0a333200000000600082015250565b60006146f6601c836146b5565b9150614701826146c0565b601c82019050919050565b6000819050919050565b6147276147228261321b565b61470c565b82525050565b6000614738826146e9565b91506147448284614716565b60208201915081905092915050565b61475c816132a8565b811461476757600080fd5b50565b60008135905061477981614753565b92915050565b60006020828403121561479557614794612ffb565b5b60006147a38482850161476a565b91505092915050565b60006080820190506147c1600083018761327e565b6147ce60208301866132b5565b6147db604083018561327e565b6147e8606083018461327e565b95945050505050565b7f416363657373436f6e74726f6c3a206163636f756e7420000000000000000000600082015250565b60006148276017836146b5565b9150614832826147f1565b601782019050919050565b600081519050919050565b60005b8381101561486657808201518184015260208101905061484b565b83811115614875576000848401525b50505050565b60006148868261483d565b61489081856146b5565b93506148a0818560208601614848565b80840191505092915050565b7f206973206d697373696e6720726f6c6520000000000000000000000000000000600082015250565b60006148e26011836146b5565b91506148ed826148ac565b601182019050919050565b60006149038261481a565b915061490f828561487b565b915061491a826148d5565b9150614926828461487b565b91508190509392505050565b600061493d8261483d565b61494781856136e1565b9350614957818560208601614848565b61496081613531565b840191505092915050565b600060208201905081810360008301526149858184614932565b905092915050565b60008151905061499c81614753565b92915050565b6000602082840312156149b8576149b7612ffb565b5b60006149c68482850161498d565b91505092915050565b7f4e487b7100000000000000000000000000000000000000000000000000000000600052601260045260246000fd5b6000614a098261311e565b9150614a148361311e565b925082614a2457614a236149cf565b5b828204905092915050565b7f5061757361626c653a206e6f7420706175736564000000000000000000000000600082015250565b6000614a656014836136e1565b9150614a7082614a2f565b602082019050919050565b60006020820190508181036000830152614a9481614a58565b9050919050565b7f5061757361626c653a2070617573656400000000000000000000000000000000600082015250565b6000614ad16010836136e1565b9150614adc82614a9b565b602082019050919050565b60006020820190508181036000830152614b0081614ac4565b9050919050565b600081905092915050565b50565b6000614b22600083614b07565b9150614b2d82614b12565b600082019050919050565b6000614b4382614b15565b9150819050919050565b7f4661696c656420746f2073656e64204574686572000000000000000000000000600082015250565b6000614b836014836136e1565b9150614b8e82614b4d565b602082019050919050565b60006020820190508181036000830152614bb281614b76565b9050919050565b7f496e697469616c697a61626c653a20636f6e7472616374206973206e6f74206960008201527f6e697469616c697a696e67000000000000000000000000000000000000000000602082015250565b6000614c15602b836136e1565b9150614c2082614bb9565b604082019050919050565b60006020820190508181036000830152614c4481614c08565b9050919050565b6000614c568261311e565b91506000821415614c6a57614c696140a2565b5b600182039050919050565b7f537472696e67733a20686578206c656e67746820696e73756666696369656e74600082015250565b6000614cab6020836136e1565b9150614cb682614c75565b602082019050919050565b60006020820190508181036000830152614cda81614c9e565b9050919050565b614cea81613005565b82525050565b6000602082019050614d056000830184614ce1565b92915050565b600081519050919050565b6000614d2182614d0b565b614d2b8185614b07565b9350614d3b818560208601614848565b80840191505092915050565b6000614d538284614d16565b91508190509291505056fea26469706673582212200c0529f17ffbe71dae27f4c372ad95f28aa13d5dd95cf371c6f1aa9de95d00d064736f6c634300080c0033",
  "immutableReferences": {},
  "source": "// SPDX-License-Identifier: MIT\npragma solidity 0.8.12;\n\nimport \"@openzeppelin/contracts-upgradeable/access/AccessControlUpgradeable.sol\";\nimport \"@openzeppelin/contracts-upgradeable/security/ReentrancyGuardUpgradeable.sol\";\nimport \"@openzeppelin/contracts-upgradeable/security/PausableUpgradeable.sol\";\nimport \"@openzeppelin/contracts/token/ERC721/IERC721.sol\";\nimport \"@openzeppelin/contracts/token/ERC20/IERC20.sol\";\nimport \"@openzeppelin/contracts/utils/introspection/ERC165Checker.sol\";\n\nimport \"../IERC721Autentica.sol\";\n\n/// @title A copy of the `NFTMarketplace` smart contract used for testing purposes.\n/// @dev The only difference from this version and the one from `NFTMarketplace` is that\n/// `tradeForCoins` will emit an event with all the parameters set to `0` or `address(0x0)` \n/// in order to be different from the initial version and perform the upgrade succesfully.\ncontract NFTMarketplaceV2Mock is\n    AccessControlUpgradeable,\n    ReentrancyGuardUpgradeable,\n    PausableUpgradeable\n{\n    // Number of decimals used for fees.\n    uint8 public constant DECIMALS = 4;\n\n    // Create a new role identifier for the operator role.\n    bytes32 public constant OPERATOR_ROLE = keccak256(\"OPERATOR_ROLE\");\n\n    // Autentica wallet address.\n    address private _autentica;\n\n    // Allowed token addresses to be used with `tradeForTokens`.\n    address[] private _allowedTokens;\n\n    // NFT details.\n    struct NFT {\n        address owner;\n        address creator;\n        address investor;\n    }\n\n    // Percentages for each party that needs to be payed.\n    struct Percentages {\n        uint256 creator;\n        uint256 investor;\n    }\n\n    // Proceeds for each party that needs to be payed amounts expressed in coins or tokens, not in percentages\n    struct Proceeds {\n        uint256 creator;\n        uint256 investor;\n        uint256 marketplace;\n    }\n\n    // ECDSA signature.\n    struct Signature {\n        uint8 v;\n        bytes32 r;\n        bytes32 s;\n    }\n\n    /**\n     * @dev Emitted when the Autentica wallet address has been updated.\n     */\n    event ChangedAutentica(\n        address indexed oldAddress,\n        address indexed newAddress\n    );\n    /**\n     * @dev Emitted when a trade occured between the `seller` (the owner of the ERC-721 token\n     * represented by `tokenId` within the `collection` smart contract) and `buyer` which\n     * payed the specified `price` in coins (the native cryptocurrency of the platform, i.e.: ETH).\n     */\n    event TradedForCoins(\n        address indexed collection,\n        uint256 indexed tokenId,\n        address indexed seller,\n        address buyer,\n        uint256 price\n    );\n    /**\n     * @dev Emitted when a trade occured between the `seller` (the owner of the ERC-721 token\n     * represented by `tokenId` within the `collection` smart contract) and `buyer` which\n     * payed the specified `price` in tokens that are represented by the `token`\n     * ERC-20 smart contract address.\n     */\n    event TradedForTokens(\n        address indexed collection,\n        uint256 indexed tokenId,\n        address indexed seller,\n        address buyer,\n        address token,\n        uint256 price\n    );\n\n    /**\n     * @dev Emitted when a new token is allowed to be used for trading.\n     */\n    event AllowedTokenAdded(address indexed tokenAddress);\n    /**\n     * @dev Emitted when a token is not longer allowed to be used for trading.\n     */\n    event AllowedTokenRemoved(address indexed tokenAddress);\n\n    /**\n     * @dev The initializer (upgradeable constructor) sets the creator of the contract as the admin\n     * and operator of this smart contract, sets the wallet address for Autentica and sets the allowed tokens.\n     */\n    function initialize(address wallet, address[] memory allowedTokens)\n        public\n        initializer\n    {\n        // Initialize all the inherited abstract contracts.\n        __Context_init_unchained();\n        __ERC165_init_unchained();\n        __AccessControl_init_unchained();\n        __ReentrancyGuard_init_unchained();\n        __Pausable_init_unchained();\n\n        // Grant the admin role to the owner\n        _setupRole(DEFAULT_ADMIN_ROLE, _msgSender());\n        // Grant the operator role to the owner\n        _setupRole(OPERATOR_ROLE, _msgSender());\n\n        // Set the wallet address for Autentica\n        _autentica = wallet;\n\n        // Set the allowed tokens\n        for (uint256 i = 0; i < allowedTokens.length; i++) {\n            addAllowedToken(allowedTokens[i]);\n        }\n    }\n\n    /**\n     * Returns the Autentica wallet address.\n     */\n    function autentica() external view returns (address) {\n        return _autentica;\n    }\n\n    /**\n     * @dev Sets the Autentica wallet address.\n     *\n     * Requirements:\n     *\n     * - the caller must be admin.\n     */\n    function setAutentica(address wallet) external returns (address) {\n        require(\n            hasRole(DEFAULT_ADMIN_ROLE, _msgSender()),\n            \"NFTMarketplace: Only admins can change this\"\n        );\n\n        // Keep a reference to the old address\n        address oldAutentica = _autentica;\n\n        // Change the address\n        _autentica = wallet;\n\n        // Emit the event\n        emit ChangedAutentica(oldAutentica, _autentica);\n\n        return _autentica;\n    }\n\n    /**\n     * @dev Returns the number of decimals used for fees.\n     */\n    function decimals() external pure returns (uint8) {\n        return DECIMALS;\n    }\n\n    /**\n     * @dev Returns the number of allowed tokens.\n     */\n    function numberOfAllowedTokens() public view returns (uint256) {\n        return _allowedTokens.length;\n    }\n\n    /**\n     * @dev Returns the address of the allowed token at the specified index.\n     * @param index The index of the allowed token.\n     */\n    function allowedTokenAtIndex(uint256 index) public view returns (address) {\n        require(\n            index < numberOfAllowedTokens(),\n            \"NFTMarketplace: Index out of bounds\"\n        );\n        return _allowedTokens[index];\n    }\n\n    /**\n     * @dev Verifies if a token address has been allowed already.\n     */\n    function isTokenAllowed(address tokenAddress) public view returns (bool) {\n        for (uint256 i = 0; i < numberOfAllowedTokens(); i++) {\n            if (_allowedTokens[i] == tokenAddress) {\n                return true;\n            }\n        }\n\n        return false;\n    }\n\n    /**\n     * @dev Add a new allowed token to the contract.\n     * @param tokenAddress The address of the allowed token to add.\n     *\n     * Requirements:\n     *\n     * - the caller must be admin.\n     */\n    function addAllowedToken(address tokenAddress) public {\n        require(\n            hasRole(DEFAULT_ADMIN_ROLE, _msgSender()),\n            \"NFTMarketplace: Only admins can add allowed tokens\"\n        );\n\n        // Check if the token address is valid\n        require(\n            tokenAddress != address(0),\n            \"NFTMarketplace: Token address is the zero address\"\n        );\n\n        // Check if the token address is already allowed\n        require(\n            !isTokenAllowed(tokenAddress),\n            \"NFTMarketplace: Token address is already allowed\"\n        );\n\n        // Add the token address\n        _allowedTokens.push(tokenAddress);\n\n        // Emit the event\n        emit AllowedTokenAdded(tokenAddress);\n    }\n\n    /**\n     * @dev Remove the allowed token at the specified index.\n     * @param index The index of the allowed token.\n     *\n     * Requirements:\n     *\n     * - the caller must be admin.\n     */\n    function removeAllowedTokenAtIndex(uint256 index) public {\n        require(\n            hasRole(DEFAULT_ADMIN_ROLE, _msgSender()),\n            \"NFTMarketplace: Only admins can remove allowed tokens\"\n        );\n\n        // Check if the index is valid\n        require(\n            index < numberOfAllowedTokens(),\n            \"NFTMarketplace: Index out of bounds\"\n        );\n\n        // Keep a reference to the old address\n        address tokenAddress = _allowedTokens[index];\n\n        // Deleting an element from the array does not affect the array length, so we need to use the `pop()` method\n        if (numberOfAllowedTokens() == 1) {\n            _allowedTokens.pop();\n        } else {\n            // Instead of shifting all the elements from the right, we will just move the last element in place of the\n            // element that will be removed\n            _allowedTokens[index] = _allowedTokens[numberOfAllowedTokens() - 1];\n            // Remove the last element\n            _allowedTokens.pop();\n        }\n\n        // Emit the event\n        emit AllowedTokenRemoved(tokenAddress);\n    }\n\n    /**\n     * @notice Trades an NFT for a given amount of coins (the native cryptocurrency of the platform, i.e.: ETH).\n     *\n     * @param collection The ERC-721 smart contract.\n     * @param tokenId The unique identifier of the ERC-721 token within the `collection` smart contract.\n     * @param price The price of the NFT in coins.\n     * @param buyer Buyer address.\n     * @param marketplaceFee Marketplace fee.\n     * @param signature ECDSA signature.\n     *\n     * @dev Requirements\n     *\n     * - The `collection` smart contract must be an ERC-721 smart contract.\n     * - The owner of the NFT identified by `tokenId` within the `collection` smart contract must have approved\n     *   this smart contract to manage its NFTs.\n     * - The `price` and `msg.value` must be equal.\n     * - The sum of all the fees cannot be greater than 100%.\n     * - The ECDSA signature must be signed by someone with the admin or operator role.\n     */\n    function tradeForCoins(\n        address collection,\n        uint256 tokenId,\n        uint256 price,\n        address buyer,\n        uint256 marketplaceFee,\n        Signature calldata signature\n    ) external payable nonReentrant {\n        // Check if the user sent enough coins\n        require(msg.value == price, \"NFTMarketplace: Not enough coins sent\");\n\n        // Validate the trade\n        canPerformTrade(\n            collection,\n            tokenId,\n            price,\n            address(0x0),\n            buyer,\n            marketplaceFee,\n            signature\n        );\n\n        NFT memory nft = _nftDetails(collection, tokenId);\n\n        // Assemble the percentages\n        Percentages memory percentages = _percentagesDetails(\n            nft,\n            getRoyaltyFee(collection, tokenId),\n            getInvestorFee(collection, tokenId)\n        );\n\n        // Assemble the fees\n        Proceeds memory proceeds = Proceeds({\n            creator: _calculateProceedsForFee(percentages.creator, price),\n            investor: _calculateProceedsForFee(percentages.investor, price),\n            marketplace: _calculateProceedsForFee(marketplaceFee, price)\n        });\n\n        // Calculate the base owner proceeds\n        uint256 ownerProceeds = _calculateOwnerProceeds(\n            price,\n            proceeds\n        );\n\n        // Payments\n        _sendViaCall(payable(nft.owner), ownerProceeds);\n        if (proceeds.investor > 0) {\n            _sendViaCall(payable(nft.investor), proceeds.investor);\n        }\n        if (proceeds.creator > 0) {\n            _sendViaCall(payable(nft.creator), proceeds.creator);\n        }\n        if (proceeds.marketplace > 0) {\n            _sendViaCall(payable(_autentica), proceeds.marketplace);\n        }\n\n        // Finally transfer the NFT\n        IERC721(collection).safeTransferFrom(nft.owner, _msgSender(), tokenId);\n\n        // Emit the event\n        emit TradedForCoins(\n            address(0x0),\n            0,\n            address(0x0),\n            address(0x0),\n            0\n        );\n    }\n\n    /**\n     * @notice Trades an NFT for a given amount of ERC-20 tokens (i.e.: AUT/USDT/USDC).\n     *\n     * @param collection The ERC-721 smart contract.\n     * @param tokenId The unique identifier of the ERC-721 token within the `collection` smart contract.\n     * @param price The price of the NFT in `token` tokens.\n     * @param token The ERC-20 smart contract.\n     * @param buyer Buyer address.\n     * @param marketplaceFee Marketplace fee.\n     * @param signature ECDSA signature.\n     *\n     * Requirements:\n     *\n     * - The `collection` smart contract must be an ERC-721 smart contract.\n     * - The owner of the NFT identified by `tokenId` within the `collection` smart contract must have approved\n     *   this smart contract to manage its NFTs.\n     * - The sum of all the fees cannot be greater than 100%.\n     * - The ECDSA signature must be signed by someone with the admin or operator role.\n     */\n    function tradeForTokens(\n        address collection,\n        uint256 tokenId,\n        uint256 price,\n        address token,\n        address buyer,\n        uint256 marketplaceFee,\n        Signature calldata signature\n    ) external nonReentrant {\n        // Check if the token is allowed\n        require(isTokenAllowed(token), \"NFTMarketplace: Token not allowed\");\n\n        // Validate the trade\n        canPerformTrade(\n            collection,\n            tokenId,\n            price,\n            token,\n            buyer,\n            marketplaceFee,\n            signature\n        );\n\n        // Assemble the NFT details\n        NFT memory nft = _nftDetails(collection, tokenId);\n\n        // Assemble the percentages\n        Percentages memory percentages = _percentagesDetails(\n            nft,\n            getRoyaltyFee(collection, tokenId),\n            getInvestorFee(collection, tokenId)\n        );\n\n        // Assemble the fees\n        Proceeds memory proceeds = Proceeds({\n            creator: _calculateProceedsForFee(percentages.creator, price),\n            investor: _calculateProceedsForFee(percentages.investor, price),\n            marketplace: _calculateProceedsForFee(marketplaceFee, price)\n        });\n\n        // Calculate the base owner proceeds\n        uint256 ownerProceeds = _calculateOwnerProceeds(\n            price,\n            proceeds\n        );\n\n        // Payments\n        IERC20(token).transferFrom(buyer, nft.owner, ownerProceeds);\n        if (proceeds.investor > 0) {\n            IERC20(token).transferFrom(\n                buyer,\n                nft.investor,\n                proceeds.investor\n            );\n        }\n        if (proceeds.creator > 0) {\n            IERC20(token).transferFrom(buyer, nft.creator, proceeds.creator);\n        }\n        if (proceeds.marketplace > 0) {\n            IERC20(token).transferFrom(\n                buyer,\n                _autentica,\n                proceeds.marketplace\n            );\n        }\n        // Finally transfer the NFT\n        IERC721(collection).safeTransferFrom(nft.owner, _msgSender(), tokenId);\n\n        // Emit the event\n        emit TradedForTokens(\n            collection,\n            tokenId,\n            nft.owner,\n            _msgSender(),\n            token,\n            price\n        );\n    }\n\n    /**\n     * @notice Validate the trade\n     *\n     * @param collection The ERC-721 smart contract.\n     * @param tokenId The unique identifier of the ERC-721 token within the `collection` smart contract.\n     * @param price The price of the NFT in `token` tokens.\n     * @param currency The type of currency (erc20 or native currency)\n     * @param buyer Buyer address.\n     * @param marketplaceFee Marketplace fee.\n     * @param signature ECDSA signature.\n     *\n     */\n    function canPerformTrade(\n        address collection,\n        uint256 tokenId,\n        uint256 price,\n        address currency,\n        address buyer,\n        uint256 marketplaceFee,\n        Signature calldata signature\n    ) public view returns (bool) {\n        // Check if the contract is paused\n        require(!paused(), \"NFTMarketplace: Contract is paused\");\n\n        // Check if the collection is an ERC-721 smart contract\n        _validateERC721(collection);\n\n        // Assemble the NFT details\n        NFT memory nft = _nftDetails(collection, tokenId);\n\n        // Validate the approval\n        _validateNFTApproval(collection, tokenId, nft);\n\n        // Fees\n        uint256 royaltyFee = getRoyaltyFee(collection, tokenId);\n        uint256 investorFee = getInvestorFee(collection, tokenId);\n\n        // Make sure that all the fees sumed up do not exceed 100%\n        _validateFees(royaltyFee, investorFee, marketplaceFee);\n\n        // Make sure the parameters are valid\n        require(\n            _validateTrade(\n                collection,\n                tokenId,\n                nft.owner,\n                buyer,\n                price,\n                currency,\n                royaltyFee,\n                investorFee,\n                marketplaceFee,\n                signature\n            ),\n            \"NFTMarketplace: Invalid signature\"\n        );\n        return true;\n    }\n\n    /**\n     * @notice If the collection smart contract implements `IERC721Autentica` then the function \n     * returns the royalty fee from that smart contract, otherwise it will return 0.\n     *\n     * @param collection The ERC-721 smart contract.\n     * @param tokenId The unique identifier of the ERC-721 token within the `collection` smart contract.\n     *\n     */\n    function getRoyaltyFee(address collection, uint256 tokenId)\n        public\n        view\n        returns (uint256)\n    {\n        uint256 royaltyFee = 0;\n        if (supportsIERC721Autentica(collection)) {\n            royaltyFee = _normalizedFee(\n                IERC721Autentica(collection),\n                IERC721Autentica(collection).getRoyaltyFee(tokenId)\n            );\n        }\n        return royaltyFee;\n    }\n\n    /**\n     * @notice If the collection smart contract implements `IERC721Autentica` then the function \n     * returns the investor fee from that smart contract, otherwise it will return 0.\n     *\n     * @param collection The ERC-721 smart contract.\n     * @param tokenId The unique identifier of the ERC-721 token within the `collection` smart contract.\n     *\n     */\n    function getInvestorFee(address collection, uint256 tokenId)\n        public\n        view\n        returns (uint256)\n    {\n        uint256 investorFee = 0;\n        if (supportsIERC721Autentica(collection)) {\n            investorFee = _normalizedFee(\n                IERC721Autentica(collection),\n                IERC721Autentica(collection).getInvestorFee(tokenId)\n            );\n        }\n        return investorFee;\n    }\n\n    /**\n     * @dev Verifies if the smart contract supports the ERC-721 interface.\n     * @return Returns `true` if the `collection` smart contract supports \n     * the ERC-721 (Non-Fungible Token Standard) interface.\n     */\n    function supportsERC721(address collection) public view returns (bool) {\n        return\n            ERC165Checker.supportsInterface(\n                collection,\n                type(IERC721).interfaceId\n            );\n    }\n\n    /**\n     * @dev Verifies if the smart contract supports the ERC-721 Autentica interface.\n     * @return Returns `true` if the `collection` smart contract supports the \n     * `IERC721Autentica` (Non-Fungible Token Standard) interface.\n     */\n    function supportsIERC721Autentica(address collection)\n        public\n        view\n        returns (bool)\n    {\n        return\n            ERC165Checker.supportsInterface(\n                collection,\n                type(IERC721Autentica).interfaceId\n            );\n    }\n\n    /**\n     * @dev Verifies if the token owner has approved this smart contract to manage its \n     * NFTs from the specified collection.\n     * @return Returns `true` if this smart contract is approved by the `tokenOwner` in \n     * the `collection` smart contract or only if that specific NFT is approved for this smart contract.\n     */\n    function isMarketplaceApproved(\n        IERC721 collection,\n        uint256 tokenId,\n        address tokenOwner\n    ) public view returns (bool) {\n        return\n            collection.getApproved(tokenId) == address(this) ||\n            collection.isApprovedForAll(tokenOwner, address(this));\n    }\n\n    /**\n     * @notice Pause the contract.\n     *\n     * Requirements:\n     *\n     * - the caller must be admin.\n     */\n    function pause() public {\n        // Make sure that only admins can pause the contract\n        require(\n            hasRole(DEFAULT_ADMIN_ROLE, _msgSender()),\n            \"NFTMarketplace: Only admins can pause\"\n        );\n\n        // Do it\n        _pause();\n    }\n\n    /**\n     * @notice Unpause the contract.\n     *\n     * Requirements:\n     *\n     * - the caller must be admin.\n     */\n    function unpause() public {\n        // Make sure that only admins can unpause the contract\n        require(\n            hasRole(DEFAULT_ADMIN_ROLE, _msgSender()),\n            \"NFTMarketplace: Only admins can unpause\"\n        );\n\n        // Do it\n        _unpause();\n    }\n\n    /**\n     * @dev Function to transfer coins (the native cryptocurrency of the \n     * platform, i.e.: ETH) from this contract to the specified address.\n     *\n     * @param to - Address where to transfer the coins\n     * @param amount - Amount (in wei)\n     *\n     */\n    function _sendViaCall(address payable to, uint256 amount) private {\n        (bool sent, ) = to.call{value: amount}(\"\");\n        require(sent, \"Failed to send Ether\");\n    }\n\n    /**\n     * Returns `true` if the signer has the admin or the operator role.\n     *\n     * @param collection The ERC-721 smart contract.\n     * @param tokenId The unique identifier of the ERC-721 token within the `collection` smart contract.\n     * @param buyer Seller address.\n     * @param buyer Buyer address.\n     * @param price Price of the NFT expressed in coins or tokens.\n     * @param token The ERC-20 smart contract address.\n     * @param royaltyFee Royalty fee.\n     * @param investorFee Investor fee.\n     * @param marketplaceFee Marketplace fee.\n     * @param signature ECDSA signature.\n     */\n    function _validateTrade(\n        address collection,\n        uint256 tokenId,\n        address seller,\n        address buyer,\n        uint256 price,\n        address token,\n        uint256 royaltyFee,\n        uint256 investorFee,\n        uint256 marketplaceFee,\n        Signature calldata signature\n    ) private view returns (bool) {\n        bytes32 hash = keccak256(\n            abi.encode(\n                address(this),\n                collection,\n                tokenId,\n                seller,\n                buyer,\n                price,\n                token,\n                royaltyFee,\n                investorFee,\n                marketplaceFee\n            )\n        );\n\n        address signer = ecrecover(\n            keccak256(\n                abi.encodePacked(\"\\x19Ethereum Signed Message:\\n32\", hash)\n            ),\n            signature.v,\n            signature.r,\n            signature.s\n        );\n\n        return\n            hasRole(DEFAULT_ADMIN_ROLE, signer) ||\n            hasRole(OPERATOR_ROLE, signer);\n    }\n\n    /**\n     * @dev Returns the fee normalized to the number of decimals used in this smart contract.\n     *\n     * @param collection The Autentica ERC-721 smart contract.\n     * @param fee Value represented using the number of decimals used by the `collection` smart contract.\n     */\n    function _normalizedFee(IERC721Autentica collection, uint256 fee)\n        private\n        view\n        returns (uint256)\n    {\n        return (fee * (10**DECIMALS)) / (10**collection.decimals());\n    }\n\n    /**\n     * @dev Returns the number of coins/tokens for a given fee percentage.\n     */\n    function _calculateProceedsForFee(uint256 fee, uint256 price)\n        private\n        pure\n        returns (uint256)\n    {\n        if (fee == 0) {\n            return 0;\n        }\n\n        // Price * Fee (which is already multiplied by 10**DECIMALS) / 100% multiplied by 10**DECIMALS\n        return (price * fee) / (100 * 10**DECIMALS);\n    }\n\n    /**\n     * Returns the owner proceeds.\n     */\n    function _calculateOwnerProceeds(\n        uint256 price,\n        Proceeds memory proceeds\n    ) private pure returns (uint256) {\n        return\n            price -\n            proceeds.marketplace -\n            proceeds.creator -\n            proceeds.investor;\n    }\n\n    /**\n     * @dev Makes sure that the `collection` is a valid ERC-721 smart contract.\n     */\n    function _validateERC721(address collection) private view {\n        require(\n            supportsERC721(collection),\n            \"NFTMarketplace: Collection does not support the ERC-721 interface\"\n        );\n    }\n\n    /**\n     * @dev Makes sure that the owner approved this smart contract for the token.\n     */\n    function _validateNFTApproval(\n        address collection,\n        uint256 tokenId,\n        NFT memory nft\n    ) private view {\n        require(\n            isMarketplaceApproved(IERC721(collection), tokenId, nft.owner),\n            \"NFTMarketplace: Owner has not approved us for managing its NFTs\"\n        );\n    }\n\n    /**\n     * @dev Make sure that all the fees sumed up do not exceed 100%.\n     */\n    function _validateFees(\n        uint256 royaltyFee,\n        uint256 investorFee,\n        uint256 marketplaceFee\n    ) private pure {\n        require(\n            royaltyFee + investorFee + marketplaceFee <= 100 * 10**DECIMALS,\n            \"NFTMarketplace: Total fees cannot be greater than 100%\"\n        );\n    }\n\n    /**\n     * @dev Returns the NFT details.\n     *\n     * @param collection The ERC-721 smart contract.\n     * @param tokenId The unique identifier of the ERC-721 token within the `collection` smart contract.\n     */\n    function _nftDetails(address collection, uint256 tokenId)\n        private\n        view\n        returns (NFT memory)\n    {\n        // Assemble the NFT details\n        NFT memory nft = NFT({\n            owner: IERC721(collection).ownerOf(tokenId),\n            creator: address(0x0), // Will get overriden below if this is a Autentica ERC-721 collection\n            investor: address(0x0) // Will get overriden below if this is a Autentica ERC-721 collection\n        });\n\n        // Update the information about the creator and investor\n        if (supportsIERC721Autentica(collection)) {\n            nft.creator = IERC721Autentica(collection).getCreator(tokenId);\n            nft.investor = IERC721Autentica(collection).getInvestor(tokenId);\n        }\n\n        return nft;\n    }\n\n    /**\n     * @dev Returns the Percentages details.\n     *\n     * @param nft NFT details.\n     * @param royaltyFee Investor fee.\n     * @param investorFee Investor fee.\n     */\n    function _percentagesDetails(\n        NFT memory nft,\n        uint256 royaltyFee,\n        uint256 investorFee\n    ) private pure returns (Percentages memory) {\n        Percentages memory percentages = Percentages({creator: 0, investor: 0});\n\n        if (nft.owner == nft.creator) {\n            // CASE 1: The NFT is owned by the creator\n\n            if (nft.investor != address(0x0)) {\n                // CASE 1.1: The investor will get payed too\n                percentages.investor = investorFee;\n            }\n        } else {\n            // CASE 2: The NFT is owned by someone else\n            //\n            // NOTE: In this case the investor will not get any fees because\n            // the investor is payed only once, at the first trade (CASE 1).\n\n            if (nft.creator != address(0x0) && royaltyFee > 0) {\n                // CASE 2.1: The creator will get payed too\n                percentages.creator = royaltyFee;\n            }\n        }\n\n        return percentages;\n    }\n}\n",
  "sourcePath": "/Volumes/Storage/Workspace/Projects/Autentica/smart-contracts/contracts/mock/NFTMarketplaceV2Mock.sol",
  "compiler": {
    "name": "solc",
    "version": "0.8.12+commit.f00d7308.Emscripten.clang"
  },
  "schemaVersion": "3.4.5",
  "updatedAt": "2022-02-21T13:10:29.070Z",
  "devdoc": {
    "details": "The only difference from this version and the one from `NFTMarketplace` is that `tradeForCoins` will emit an event with all the parameters set to `0` or `address(0x0)`  in order to be different from the initial version and perform the upgrade succesfully.",
    "events": {
      "AllowedTokenAdded(address)": {
        "details": "Emitted when a new token is allowed to be used for trading."
      },
      "AllowedTokenRemoved(address)": {
        "details": "Emitted when a token is not longer allowed to be used for trading."
      },
      "ChangedAutentica(address,address)": {
        "details": "Emitted when the Autentica wallet address has been updated."
      },
      "TradedForCoins(address,uint256,address,address,uint256)": {
        "details": "Emitted when a trade occured between the `seller` (the owner of the ERC-721 token represented by `tokenId` within the `collection` smart contract) and `buyer` which payed the specified `price` in coins (the native cryptocurrency of the platform, i.e.: ETH)."
      },
      "TradedForTokens(address,uint256,address,address,address,uint256)": {
        "details": "Emitted when a trade occured between the `seller` (the owner of the ERC-721 token represented by `tokenId` within the `collection` smart contract) and `buyer` which payed the specified `price` in tokens that are represented by the `token` ERC-20 smart contract address."
      }
    },
    "kind": "dev",
    "methods": {
      "addAllowedToken(address)": {
        "details": "Add a new allowed token to the contract.",
        "params": {
          "tokenAddress": "The address of the allowed token to add. Requirements: - the caller must be admin."
        }
      },
      "allowedTokenAtIndex(uint256)": {
        "details": "Returns the address of the allowed token at the specified index.",
        "params": {
          "index": "The index of the allowed token."
        }
      },
      "canPerformTrade(address,uint256,uint256,address,address,uint256,(uint8,bytes32,bytes32))": {
        "params": {
          "buyer": "Buyer address.",
          "collection": "The ERC-721 smart contract.",
          "currency": "The type of currency (erc20 or native currency)",
          "marketplaceFee": "Marketplace fee.",
          "price": "The price of the NFT in `token` tokens.",
          "signature": "ECDSA signature.",
          "tokenId": "The unique identifier of the ERC-721 token within the `collection` smart contract."
        }
      },
      "decimals()": {
        "details": "Returns the number of decimals used for fees."
      },
      "getInvestorFee(address,uint256)": {
        "params": {
          "collection": "The ERC-721 smart contract.",
          "tokenId": "The unique identifier of the ERC-721 token within the `collection` smart contract."
        }
      },
      "getRoleAdmin(bytes32)": {
        "details": "Returns the admin role that controls `role`. See {grantRole} and {revokeRole}. To change a role's admin, use {_setRoleAdmin}."
      },
      "getRoyaltyFee(address,uint256)": {
        "params": {
          "collection": "The ERC-721 smart contract.",
          "tokenId": "The unique identifier of the ERC-721 token within the `collection` smart contract."
        }
      },
      "grantRole(bytes32,address)": {
        "details": "Grants `role` to `account`. If `account` had not been already granted `role`, emits a {RoleGranted} event. Requirements: - the caller must have ``role``'s admin role."
      },
      "hasRole(bytes32,address)": {
        "details": "Returns `true` if `account` has been granted `role`."
      },
      "initialize(address,address[])": {
        "details": "The initializer (upgradeable constructor) sets the creator of the contract as the admin and operator of this smart contract, sets the wallet address for Autentica and sets the allowed tokens."
      },
      "isMarketplaceApproved(address,uint256,address)": {
        "details": "Verifies if the token owner has approved this smart contract to manage its  NFTs from the specified collection.",
        "returns": {
          "_0": "Returns `true` if this smart contract is approved by the `tokenOwner` in  the `collection` smart contract or only if that specific NFT is approved for this smart contract."
        }
      },
      "isTokenAllowed(address)": {
        "details": "Verifies if a token address has been allowed already."
      },
      "numberOfAllowedTokens()": {
        "details": "Returns the number of allowed tokens."
      },
      "paused()": {
        "details": "Returns true if the contract is paused, and false otherwise."
      },
      "removeAllowedTokenAtIndex(uint256)": {
        "details": "Remove the allowed token at the specified index.",
        "params": {
          "index": "The index of the allowed token. Requirements: - the caller must be admin."
        }
      },
      "renounceRole(bytes32,address)": {
        "details": "Revokes `role` from the calling account. Roles are often managed via {grantRole} and {revokeRole}: this function's purpose is to provide a mechanism for accounts to lose their privileges if they are compromised (such as when a trusted device is misplaced). If the calling account had been revoked `role`, emits a {RoleRevoked} event. Requirements: - the caller must be `account`."
      },
      "revokeRole(bytes32,address)": {
        "details": "Revokes `role` from `account`. If `account` had been granted `role`, emits a {RoleRevoked} event. Requirements: - the caller must have ``role``'s admin role."
      },
      "setAutentica(address)": {
        "details": "Sets the Autentica wallet address. Requirements: - the caller must be admin."
      },
      "supportsERC721(address)": {
        "details": "Verifies if the smart contract supports the ERC-721 interface.",
        "returns": {
          "_0": "Returns `true` if the `collection` smart contract supports  the ERC-721 (Non-Fungible Token Standard) interface."
        }
      },
      "supportsIERC721Autentica(address)": {
        "details": "Verifies if the smart contract supports the ERC-721 Autentica interface.",
        "returns": {
          "_0": "Returns `true` if the `collection` smart contract supports the  `IERC721Autentica` (Non-Fungible Token Standard) interface."
        }
      },
      "supportsInterface(bytes4)": {
        "details": "See {IERC165-supportsInterface}."
      },
      "tradeForCoins(address,uint256,uint256,address,uint256,(uint8,bytes32,bytes32))": {
        "details": "Requirements - The `collection` smart contract must be an ERC-721 smart contract. - The owner of the NFT identified by `tokenId` within the `collection` smart contract must have approved   this smart contract to manage its NFTs. - The `price` and `msg.value` must be equal. - The sum of all the fees cannot be greater than 100%. - The ECDSA signature must be signed by someone with the admin or operator role.",
        "params": {
          "buyer": "Buyer address.",
          "collection": "The ERC-721 smart contract.",
          "marketplaceFee": "Marketplace fee.",
          "price": "The price of the NFT in coins.",
          "signature": "ECDSA signature.",
          "tokenId": "The unique identifier of the ERC-721 token within the `collection` smart contract."
        }
      },
      "tradeForTokens(address,uint256,uint256,address,address,uint256,(uint8,bytes32,bytes32))": {
        "params": {
          "buyer": "Buyer address.",
          "collection": "The ERC-721 smart contract.",
          "marketplaceFee": "Marketplace fee.",
          "price": "The price of the NFT in `token` tokens.",
          "signature": "ECDSA signature. Requirements: - The `collection` smart contract must be an ERC-721 smart contract. - The owner of the NFT identified by `tokenId` within the `collection` smart contract must have approved   this smart contract to manage its NFTs. - The sum of all the fees cannot be greater than 100%. - The ECDSA signature must be signed by someone with the admin or operator role.",
          "token": "The ERC-20 smart contract.",
          "tokenId": "The unique identifier of the ERC-721 token within the `collection` smart contract."
        }
      }
    },
    "title": "A copy of the `NFTMarketplace` smart contract used for testing purposes.",
    "version": 1
  },
  "userdoc": {
    "kind": "user",
    "methods": {
      "autentica()": {
        "notice": "Returns the Autentica wallet address."
      },
      "canPerformTrade(address,uint256,uint256,address,address,uint256,(uint8,bytes32,bytes32))": {
        "notice": "Validate the trade"
      },
      "getInvestorFee(address,uint256)": {
        "notice": "If the collection smart contract implements `IERC721Autentica` then the function  returns the investor fee from that smart contract, otherwise it will return 0."
      },
      "getRoyaltyFee(address,uint256)": {
        "notice": "If the collection smart contract implements `IERC721Autentica` then the function  returns the royalty fee from that smart contract, otherwise it will return 0."
      },
      "pause()": {
        "notice": "Pause the contract. Requirements: - the caller must be admin."
      },
      "tradeForCoins(address,uint256,uint256,address,uint256,(uint8,bytes32,bytes32))": {
        "notice": "Trades an NFT for a given amount of coins (the native cryptocurrency of the platform, i.e.: ETH)."
      },
      "tradeForTokens(address,uint256,uint256,address,address,uint256,(uint8,bytes32,bytes32))": {
        "notice": "Trades an NFT for a given amount of ERC-20 tokens (i.e.: AUT/USDT/USDC)."
      },
      "unpause()": {
        "notice": "Unpause the contract. Requirements: - the caller must be admin."
      }
    },
    "version": 1
  }
}