{
  "contractName": "NFTMarketplace",
  "abi": [
    {
      "anonymous": false,
      "inputs": [
        {
          "indexed": true,
          "internalType": "address",
          "name": "tokenAddress",
          "type": "address"
        }
      ],
      "name": "AllowedTokenAdded",
      "type": "event"
    },
    {
      "anonymous": false,
      "inputs": [
        {
          "indexed": true,
          "internalType": "address",
          "name": "tokenAddress",
          "type": "address"
        }
      ],
      "name": "AllowedTokenRemoved",
      "type": "event"
    },
    {
      "anonymous": false,
      "inputs": [
        {
          "indexed": true,
          "internalType": "address",
          "name": "oldAddress",
          "type": "address"
        },
        {
          "indexed": true,
          "internalType": "address",
          "name": "newAddress",
          "type": "address"
        }
      ],
      "name": "ChangedAutentica",
      "type": "event"
    },
    {
      "anonymous": false,
      "inputs": [
        {
          "indexed": false,
          "internalType": "address",
          "name": "account",
          "type": "address"
        }
      ],
      "name": "Paused",
      "type": "event"
    },
    {
      "anonymous": false,
      "inputs": [
        {
          "indexed": true,
          "internalType": "bytes32",
          "name": "role",
          "type": "bytes32"
        },
        {
          "indexed": true,
          "internalType": "bytes32",
          "name": "previousAdminRole",
          "type": "bytes32"
        },
        {
          "indexed": true,
          "internalType": "bytes32",
          "name": "newAdminRole",
          "type": "bytes32"
        }
      ],
      "name": "RoleAdminChanged",
      "type": "event"
    },
    {
      "anonymous": false,
      "inputs": [
        {
          "indexed": true,
          "internalType": "bytes32",
          "name": "role",
          "type": "bytes32"
        },
        {
          "indexed": true,
          "internalType": "address",
          "name": "account",
          "type": "address"
        },
        {
          "indexed": true,
          "internalType": "address",
          "name": "sender",
          "type": "address"
        }
      ],
      "name": "RoleGranted",
      "type": "event"
    },
    {
      "anonymous": false,
      "inputs": [
        {
          "indexed": true,
          "internalType": "bytes32",
          "name": "role",
          "type": "bytes32"
        },
        {
          "indexed": true,
          "internalType": "address",
          "name": "account",
          "type": "address"
        },
        {
          "indexed": true,
          "internalType": "address",
          "name": "sender",
          "type": "address"
        }
      ],
      "name": "RoleRevoked",
      "type": "event"
    },
    {
      "anonymous": false,
      "inputs": [
        {
          "indexed": true,
          "internalType": "address",
          "name": "collection",
          "type": "address"
        },
        {
          "indexed": true,
          "internalType": "uint256",
          "name": "tokenId",
          "type": "uint256"
        },
        {
          "indexed": true,
          "internalType": "address",
          "name": "seller",
          "type": "address"
        },
        {
          "indexed": false,
          "internalType": "address",
          "name": "buyer",
          "type": "address"
        },
        {
          "indexed": false,
          "internalType": "uint256",
          "name": "price",
          "type": "uint256"
        },
        {
          "indexed": false,
          "internalType": "uint256",
          "name": "ownerProceeds",
          "type": "uint256"
        },
        {
          "indexed": false,
          "internalType": "uint256",
          "name": "creatorProceeds",
          "type": "uint256"
        },
        {
          "indexed": false,
          "internalType": "uint256",
          "name": "investorProceeds",
          "type": "uint256"
        }
      ],
      "name": "TradedForCoins",
      "type": "event"
    },
    {
      "anonymous": false,
      "inputs": [
        {
          "indexed": true,
          "internalType": "address",
          "name": "collection",
          "type": "address"
        },
        {
          "indexed": true,
          "internalType": "uint256",
          "name": "tokenId",
          "type": "uint256"
        },
        {
          "indexed": true,
          "internalType": "address",
          "name": "seller",
          "type": "address"
        },
        {
          "indexed": false,
          "internalType": "address",
          "name": "buyer",
          "type": "address"
        },
        {
          "indexed": false,
          "internalType": "address",
          "name": "token",
          "type": "address"
        },
        {
          "indexed": false,
          "internalType": "uint256",
          "name": "price",
          "type": "uint256"
        },
        {
          "indexed": false,
          "internalType": "uint256",
          "name": "ownerProceeds",
          "type": "uint256"
        },
        {
          "indexed": false,
          "internalType": "uint256",
          "name": "creatorProceeds",
          "type": "uint256"
        },
        {
          "indexed": false,
          "internalType": "uint256",
          "name": "investorProceeds",
          "type": "uint256"
        }
      ],
      "name": "TradedForTokens",
      "type": "event"
    },
    {
      "anonymous": false,
      "inputs": [
        {
          "indexed": false,
          "internalType": "address",
          "name": "account",
          "type": "address"
        }
      ],
      "name": "Unpaused",
      "type": "event"
    },
    {
      "inputs": [],
      "name": "DECIMALS",
      "outputs": [
        {
          "internalType": "uint8",
          "name": "",
          "type": "uint8"
        }
      ],
      "stateMutability": "view",
      "type": "function",
      "constant": true
    },
    {
      "inputs": [],
      "name": "DEFAULT_ADMIN_ROLE",
      "outputs": [
        {
          "internalType": "bytes32",
          "name": "",
          "type": "bytes32"
        }
      ],
      "stateMutability": "view",
      "type": "function",
      "constant": true
    },
    {
      "inputs": [],
      "name": "OPERATOR_ROLE",
      "outputs": [
        {
          "internalType": "bytes32",
          "name": "",
          "type": "bytes32"
        }
      ],
      "stateMutability": "view",
      "type": "function",
      "constant": true
    },
    {
      "inputs": [
        {
          "internalType": "bytes32",
          "name": "role",
          "type": "bytes32"
        }
      ],
      "name": "getRoleAdmin",
      "outputs": [
        {
          "internalType": "bytes32",
          "name": "",
          "type": "bytes32"
        }
      ],
      "stateMutability": "view",
      "type": "function",
      "constant": true
    },
    {
      "inputs": [
        {
          "internalType": "bytes32",
          "name": "role",
          "type": "bytes32"
        },
        {
          "internalType": "address",
          "name": "account",
          "type": "address"
        }
      ],
      "name": "grantRole",
      "outputs": [],
      "stateMutability": "nonpayable",
      "type": "function"
    },
    {
      "inputs": [
        {
          "internalType": "bytes32",
          "name": "role",
          "type": "bytes32"
        },
        {
          "internalType": "address",
          "name": "account",
          "type": "address"
        }
      ],
      "name": "hasRole",
      "outputs": [
        {
          "internalType": "bool",
          "name": "",
          "type": "bool"
        }
      ],
      "stateMutability": "view",
      "type": "function",
      "constant": true
    },
    {
      "inputs": [],
      "name": "paused",
      "outputs": [
        {
          "internalType": "bool",
          "name": "",
          "type": "bool"
        }
      ],
      "stateMutability": "view",
      "type": "function",
      "constant": true
    },
    {
      "inputs": [
        {
          "internalType": "bytes32",
          "name": "role",
          "type": "bytes32"
        },
        {
          "internalType": "address",
          "name": "account",
          "type": "address"
        }
      ],
      "name": "renounceRole",
      "outputs": [],
      "stateMutability": "nonpayable",
      "type": "function"
    },
    {
      "inputs": [
        {
          "internalType": "bytes32",
          "name": "role",
          "type": "bytes32"
        },
        {
          "internalType": "address",
          "name": "account",
          "type": "address"
        }
      ],
      "name": "revokeRole",
      "outputs": [],
      "stateMutability": "nonpayable",
      "type": "function"
    },
    {
      "inputs": [
        {
          "internalType": "bytes4",
          "name": "interfaceId",
          "type": "bytes4"
        }
      ],
      "name": "supportsInterface",
      "outputs": [
        {
          "internalType": "bool",
          "name": "",
          "type": "bool"
        }
      ],
      "stateMutability": "view",
      "type": "function",
      "constant": true
    },
    {
      "inputs": [
        {
          "internalType": "address",
          "name": "wallet",
          "type": "address"
        },
        {
          "internalType": "address[]",
          "name": "allowedTokens",
          "type": "address[]"
        }
      ],
      "name": "initialize",
      "outputs": [],
      "stateMutability": "nonpayable",
      "type": "function"
    },
    {
      "inputs": [],
      "name": "autentica",
      "outputs": [
        {
          "internalType": "address",
          "name": "",
          "type": "address"
        }
      ],
      "stateMutability": "view",
      "type": "function",
      "constant": true
    },
    {
      "inputs": [
        {
          "internalType": "address",
          "name": "wallet",
          "type": "address"
        }
      ],
      "name": "setAutentica",
      "outputs": [
        {
          "internalType": "address",
          "name": "",
          "type": "address"
        }
      ],
      "stateMutability": "nonpayable",
      "type": "function"
    },
    {
      "inputs": [],
      "name": "decimals",
      "outputs": [
        {
          "internalType": "uint8",
          "name": "",
          "type": "uint8"
        }
      ],
      "stateMutability": "pure",
      "type": "function",
      "constant": true
    },
    {
      "inputs": [],
      "name": "numberOfAllowedTokens",
      "outputs": [
        {
          "internalType": "uint256",
          "name": "",
          "type": "uint256"
        }
      ],
      "stateMutability": "view",
      "type": "function",
      "constant": true
    },
    {
      "inputs": [
        {
          "internalType": "uint256",
          "name": "index",
          "type": "uint256"
        }
      ],
      "name": "allowedTokenAtIndex",
      "outputs": [
        {
          "internalType": "address",
          "name": "",
          "type": "address"
        }
      ],
      "stateMutability": "view",
      "type": "function",
      "constant": true
    },
    {
      "inputs": [
        {
          "internalType": "address",
          "name": "tokenAddress",
          "type": "address"
        }
      ],
      "name": "isTokenAllowed",
      "outputs": [
        {
          "internalType": "bool",
          "name": "",
          "type": "bool"
        }
      ],
      "stateMutability": "view",
      "type": "function",
      "constant": true
    },
    {
      "inputs": [
        {
          "internalType": "address",
          "name": "tokenAddress",
          "type": "address"
        }
      ],
      "name": "addAllowedToken",
      "outputs": [],
      "stateMutability": "nonpayable",
      "type": "function"
    },
    {
      "inputs": [
        {
          "internalType": "uint256",
          "name": "index",
          "type": "uint256"
        }
      ],
      "name": "removeAllowedTokenAtIndex",
      "outputs": [],
      "stateMutability": "nonpayable",
      "type": "function"
    },
    {
      "inputs": [
        {
          "internalType": "address",
          "name": "collection",
          "type": "address"
        },
        {
          "internalType": "uint256",
          "name": "tokenId",
          "type": "uint256"
        },
        {
          "internalType": "uint256",
          "name": "price",
          "type": "uint256"
        },
        {
          "internalType": "address",
          "name": "buyer",
          "type": "address"
        },
        {
          "internalType": "uint256",
          "name": "marketplaceFee",
          "type": "uint256"
        },
        {
          "components": [
            {
              "internalType": "uint8",
              "name": "v",
              "type": "uint8"
            },
            {
              "internalType": "bytes32",
              "name": "r",
              "type": "bytes32"
            },
            {
              "internalType": "bytes32",
              "name": "s",
              "type": "bytes32"
            }
          ],
          "internalType": "struct NFTMarketplace.Signature",
          "name": "signature",
          "type": "tuple"
        }
      ],
      "name": "tradeForCoins",
      "outputs": [],
      "stateMutability": "payable",
      "type": "function",
      "payable": true
    },
    {
      "inputs": [
        {
          "internalType": "address",
          "name": "collection",
          "type": "address"
        },
        {
          "internalType": "uint256",
          "name": "tokenId",
          "type": "uint256"
        },
        {
          "internalType": "uint256",
          "name": "price",
          "type": "uint256"
        },
        {
          "internalType": "address",
          "name": "token",
          "type": "address"
        },
        {
          "internalType": "address",
          "name": "buyer",
          "type": "address"
        },
        {
          "internalType": "uint256",
          "name": "marketplaceFee",
          "type": "uint256"
        },
        {
          "components": [
            {
              "internalType": "uint8",
              "name": "v",
              "type": "uint8"
            },
            {
              "internalType": "bytes32",
              "name": "r",
              "type": "bytes32"
            },
            {
              "internalType": "bytes32",
              "name": "s",
              "type": "bytes32"
            }
          ],
          "internalType": "struct NFTMarketplace.Signature",
          "name": "signature",
          "type": "tuple"
        }
      ],
      "name": "tradeForTokens",
      "outputs": [],
      "stateMutability": "nonpayable",
      "type": "function"
    },
    {
      "inputs": [
        {
          "internalType": "address",
          "name": "collection",
          "type": "address"
        },
        {
          "internalType": "uint256",
          "name": "tokenId",
          "type": "uint256"
        },
        {
          "internalType": "uint256",
          "name": "price",
          "type": "uint256"
        },
        {
          "internalType": "address",
          "name": "currency",
          "type": "address"
        },
        {
          "internalType": "address",
          "name": "buyer",
          "type": "address"
        },
        {
          "internalType": "uint256",
          "name": "marketplaceFee",
          "type": "uint256"
        },
        {
          "components": [
            {
              "internalType": "uint8",
              "name": "v",
              "type": "uint8"
            },
            {
              "internalType": "bytes32",
              "name": "r",
              "type": "bytes32"
            },
            {
              "internalType": "bytes32",
              "name": "s",
              "type": "bytes32"
            }
          ],
          "internalType": "struct NFTMarketplace.Signature",
          "name": "signature",
          "type": "tuple"
        }
      ],
      "name": "canPerformTrade",
      "outputs": [
        {
          "internalType": "bool",
          "name": "",
          "type": "bool"
        }
      ],
      "stateMutability": "view",
      "type": "function",
      "constant": true
    },
    {
      "inputs": [
        {
          "internalType": "address",
          "name": "collection",
          "type": "address"
        },
        {
          "internalType": "uint256",
          "name": "tokenId",
          "type": "uint256"
        }
      ],
      "name": "getRoyaltyFee",
      "outputs": [
        {
          "internalType": "uint256",
          "name": "",
          "type": "uint256"
        }
      ],
      "stateMutability": "view",
      "type": "function",
      "constant": true
    },
    {
      "inputs": [
        {
          "internalType": "address",
          "name": "collection",
          "type": "address"
        },
        {
          "internalType": "uint256",
          "name": "tokenId",
          "type": "uint256"
        }
      ],
      "name": "getInvestorFee",
      "outputs": [
        {
          "internalType": "uint256",
          "name": "",
          "type": "uint256"
        }
      ],
      "stateMutability": "view",
      "type": "function",
      "constant": true
    },
    {
      "inputs": [
        {
          "internalType": "contract IERC721",
          "name": "collection",
          "type": "address"
        },
        {
          "internalType": "uint256",
          "name": "tokenId",
          "type": "uint256"
        },
        {
          "internalType": "address",
          "name": "tokenOwner",
          "type": "address"
        }
      ],
      "name": "isMarketplaceApproved",
      "outputs": [
        {
          "internalType": "bool",
          "name": "",
          "type": "bool"
        }
      ],
      "stateMutability": "view",
      "type": "function",
      "constant": true
    },
    {
      "inputs": [],
      "name": "pause",
      "outputs": [],
      "stateMutability": "nonpayable",
      "type": "function"
    },
    {
      "inputs": [],
      "name": "unpause",
      "outputs": [],
      "stateMutability": "nonpayable",
      "type": "function"
    }
  ],
  "bytecode": "0x608060405234801561001057600080fd5b506150d1806100206000396000f3fe60806040526004361061019c5760003560e01c80635c975abb116100ec578063946d92041161008a578063d0f4adca11610064578063d0f4adca146105df578063d547741f14610608578063f5b541a614610631578063f9eaee0d1461065c5761019c565b8063946d920414610560578063a217fddf14610589578063b4c43869146105b45761019c565b806376ab4570116100c657806376ab4570146104b35780638456cb59146104f0578063862d32e21461050757806391d14854146105235761019c565b80635c975abb146104205780636aaa90571461044b5780636bc79a67146104765761019c565b806336568abe116101595780633f4ba83a116101335780633f4ba83a1461037a5780634178617f1461039157806342f7260e146103ba57806359d7a486146103e35761019c565b806336568abe146102d7578063369e4c2c146103005780633ab104091461033d5761019c565b806301ffc9a7146101a1578063243f5c87146101de578063248a9ca31461021b5780632e0f2625146102585780632f2ff15d14610283578063313ce567146102ac575b600080fd5b3480156101ad57600080fd5b506101c860048036038101906101c391906132c5565b610699565b6040516101d5919061330d565b60405180910390f35b3480156101ea57600080fd5b50610205600480360381019061020091906133e0565b610713565b604051610212919061330d565b60405180910390f35b34801561022757600080fd5b50610242600480360381019061023d91906134b9565b61080c565b60405161024f91906134f5565b60405180910390f35b34801561026457600080fd5b5061026d61082c565b60405161027a919061352c565b60405180910390f35b34801561028f57600080fd5b506102aa60048036038101906102a59190613547565b610831565b005b3480156102b857600080fd5b506102c161085a565b6040516102ce919061352c565b60405180910390f35b3480156102e357600080fd5b506102fe60048036038101906102f99190613547565b610863565b005b34801561030c57600080fd5b50610327600480360381019061032291906135c5565b6108e6565b604051610334919061330d565b60405180910390f35b34801561034957600080fd5b50610364600480360381019061035f9190613618565b610a1c565b6040516103719190613667565b60405180910390f35b34801561038657600080fd5b5061038f610ae2565b005b34801561039d57600080fd5b506103b860048036038101906103b39190613682565b610b3f565b005b3480156103c657600080fd5b506103e160048036038101906103dc91906133e0565b610cf4565b005b3480156103ef57600080fd5b5061040a60048036038101906104059190613682565b611194565b60405161041791906136be565b60405180910390f35b34801561042c57600080fd5b506104356112f8565b604051610442919061330d565b60405180910390f35b34801561045757600080fd5b5061046061130f565b60405161046d91906136be565b60405180910390f35b34801561048257600080fd5b5061049d600480360381019061049891906136d9565b611339565b6040516104aa91906136be565b60405180910390f35b3480156104bf57600080fd5b506104da60048036038101906104d59190613618565b6113ca565b6040516104e79190613667565b60405180910390f35b3480156104fc57600080fd5b5061050561155f565b005b610521600480360381019061051c9190613706565b6115bc565b005b34801561052f57600080fd5b5061054a60048036038101906105459190613547565b611878565b604051610557919061330d565b60405180910390f35b34801561056c57600080fd5b50610587600480360381019061058291906138ed565b6118e3565b005b34801561059557600080fd5b5061059e611aba565b6040516105ab91906134f5565b60405180910390f35b3480156105c057600080fd5b506105c9611ac1565b6040516105d69190613667565b60405180910390f35b3480156105eb57600080fd5b50610606600480360381019061060191906136d9565b611ace565b005b34801561061457600080fd5b5061062f600480360381019061062a9190613547565b611d46565b005b34801561063d57600080fd5b50610646611d6f565b60405161065391906134f5565b60405180910390f35b34801561066857600080fd5b50610683600480360381019061067e9190613682565b611d93565b604051610690919061330d565b60405180910390f35b60007f7965db0b000000000000000000000000000000000000000000000000000000007bffffffffffffffffffffffffffffffffffffffffffffffffffffffff1916827bffffffffffffffffffffffffffffffffffffffffffffffffffffffff1916148061070c575061070b82611e44565b5b9050919050565b600061071d6112f8565b1561075d576040517f08c379a0000000000000000000000000000000000000000000000000000000008152600401610754906139cc565b60405180910390fd5b61076688611eae565b60006107728989611f1a565b905061077f898983612299565b600061078b8a8a6113ca565b905060006107998b8b610a1c565b90506107a582876122ec565b6107bb8b8b85600001518a8d8d88888e8e612357565b6107fa576040517f08c379a00000000000000000000000000000000000000000000000000000000081526004016107f190613a5e565b60405180910390fd5b60019350505050979650505050505050565b600060656000838152602001908152602001600020600101549050919050565b600281565b61083a8261080c565b61084b81610846612478565b612480565b610855838361251d565b505050565b60006002905090565b61086b612478565b73ffffffffffffffffffffffffffffffffffffffff168173ffffffffffffffffffffffffffffffffffffffff16146108d8576040517f08c379a00000000000000000000000000000000000000000000000000000000081526004016108cf90613af0565b60405180910390fd5b6108e282826125fe565b5050565b60003073ffffffffffffffffffffffffffffffffffffffff168473ffffffffffffffffffffffffffffffffffffffff1663081812fc856040518263ffffffff1660e01b81526004016109389190613667565b602060405180830381865afa158015610955573d6000803e3d6000fd5b505050506040513d601f19601f820116820180604052508101906109799190613b25565b73ffffffffffffffffffffffffffffffffffffffff161480610a1357508373ffffffffffffffffffffffffffffffffffffffff1663e985e9c583306040518363ffffffff1660e01b81526004016109d1929190613b52565b602060405180830381865afa1580156109ee573d6000803e3d6000fd5b505050506040513d601f19601f82011682018060405250810190610a129190613ba7565b5b90509392505050565b60008060009050610a4d847f4b763d0e000000000000000000000000000000000000000000000000000000006126e0565b15610ad857610ad5848573ffffffffffffffffffffffffffffffffffffffff1663f915765b866040518263ffffffff1660e01b8152600401610a8f9190613667565b602060405180830381865afa158015610aac573d6000803e3d6000fd5b505050506040513d601f19601f82011682018060405250810190610ad09190613be9565b612705565b90505b8091505092915050565b610af66000801b610af1612478565b611878565b610b35576040517f08c379a0000000000000000000000000000000000000000000000000000000008152600401610b2c90613c88565b60405180910390fd5b610b3d6127ad565b565b610b536000801b610b4e612478565b611878565b610b92576040517f08c379a0000000000000000000000000000000000000000000000000000000008152600401610b8990613d1a565b60405180910390fd5b600073ffffffffffffffffffffffffffffffffffffffff168173ffffffffffffffffffffffffffffffffffffffff161415610c02576040517f08c379a0000000000000000000000000000000000000000000000000000000008152600401610bf990613dac565b60405180910390fd5b610c0b81611d93565b15610c4b576040517f08c379a0000000000000000000000000000000000000000000000000000000008152600401610c4290613e3e565b60405180910390fd5b60fc819080600181540180825580915050600190039060005260206000200160009091909190916101000a81548173ffffffffffffffffffffffffffffffffffffffff021916908373ffffffffffffffffffffffffffffffffffffffff1602179055508073ffffffffffffffffffffffffffffffffffffffff167ff849d00bc67e9e4bf072df9680646c59b8c5380160834c2e1d4896ce5ec81f7560405160405180910390a250565b60026097541415610d3a576040517f08c379a0000000000000000000000000000000000000000000000000000000008152600401610d3190613eaa565b60405180910390fd5b6002609781905550610d4b84611d93565b610d8a576040517f08c379a0000000000000000000000000000000000000000000000000000000008152600401610d8190613f3c565b60405180910390fd5b610d9987878787878787610713565b506000610da68888611f1a565b90506000610dc882610db88b8b6113ca565b610dc28c8c610a1c565b8761284f565b905060006040518060600160405280610de584600001518b612a56565b8152602001610df884602001518b612a56565b8152602001610e07878b612a56565b81525090506000610e188983612aa2565b90508773ffffffffffffffffffffffffffffffffffffffff166323b872dd888660000151846040518463ffffffff1660e01b8152600401610e5b93929190613f5c565b6020604051808303816000875af1158015610e7a573d6000803e3d6000fd5b505050506040513d601f19601f82011682018060405250810190610e9e9190613ba7565b50600082602001511115610f36578773ffffffffffffffffffffffffffffffffffffffff166323b872dd88866040015185602001516040518463ffffffff1660e01b8152600401610ef193929190613f5c565b6020604051808303816000875af1158015610f10573d6000803e3d6000fd5b505050506040513d601f19601f82011682018060405250810190610f349190613ba7565b505b600082600001511115610fcd578773ffffffffffffffffffffffffffffffffffffffff166323b872dd88866020015185600001516040518463ffffffff1660e01b8152600401610f8893929190613f5c565b6020604051808303816000875af1158015610fa7573d6000803e3d6000fd5b505050506040513d601f19601f82011682018060405250810190610fcb9190613ba7565b505b600082604001511115611082578773ffffffffffffffffffffffffffffffffffffffff166323b872dd8860fb60009054906101000a900473ffffffffffffffffffffffffffffffffffffffff1685604001516040518463ffffffff1660e01b815260040161103d93929190613f5c565b6020604051808303816000875af115801561105c573d6000803e3d6000fd5b505050506040513d601f19601f820116820180604052508101906110809190613ba7565b505b8a73ffffffffffffffffffffffffffffffffffffffff166342842e0e85600001516110ab612478565b8d6040518463ffffffff1660e01b81526004016110ca93929190613f5c565b600060405180830381600087803b1580156110e457600080fd5b505af11580156110f8573d6000803e3d6000fd5b50505050836000015173ffffffffffffffffffffffffffffffffffffffff168a8c73ffffffffffffffffffffffffffffffffffffffff167f69d820f7af9ba1109e1ff47df37b0819b3ed419d6e5361abcd8574d4f836be1b611158612478565b8c8e8789600001518a6020015160405161117796959493929190613f93565b60405180910390a450505050600160978190555050505050505050565b60006111aa6000801b6111a5612478565b611878565b6111e9576040517f08c379a00000000000000000000000000000000000000000000000000000000081526004016111e090614066565b60405180910390fd5b600060fb60009054906101000a900473ffffffffffffffffffffffffffffffffffffffff1690508260fb60006101000a81548173ffffffffffffffffffffffffffffffffffffffff021916908373ffffffffffffffffffffffffffffffffffffffff16021790555060fb60009054906101000a900473ffffffffffffffffffffffffffffffffffffffff1673ffffffffffffffffffffffffffffffffffffffff168173ffffffffffffffffffffffffffffffffffffffff167fa2c04199617341beb18c0052b61ae8aa35006743d43ca44891ca000f56e9065560405160405180910390a360fb60009054906101000a900473ffffffffffffffffffffffffffffffffffffffff16915050919050565b600060c960009054906101000a900460ff16905090565b600060fb60009054906101000a900473ffffffffffffffffffffffffffffffffffffffff16905090565b6000611343611ac1565b8210611384576040517f08c379a000000000000000000000000000000000000000000000000000000000815260040161137b906140f8565b60405180910390fd5b60fc828154811061139857611397614118565b5b9060005260206000200160009054906101000a900473ffffffffffffffffffffffffffffffffffffffff169050919050565b600080600090506113fb847f4b763d0e000000000000000000000000000000000000000000000000000000006126e0565b1561148a57611483848573ffffffffffffffffffffffffffffffffffffffff16639e4c0141866040518263ffffffff1660e01b815260040161143d9190613667565b602060405180830381865afa15801561145a573d6000803e3d6000fd5b505050506040513d601f19601f8201168201806040525081019061147e9190613be9565b612705565b9050611555565b6114b4847f2a55205a000000000000000000000000000000000000000000000000000000006126e0565b15611554578373ffffffffffffffffffffffffffffffffffffffff16632a55205a846002600a6114e491906142a9565b60646114f091906142f4565b6040518363ffffffff1660e01b815260040161150d92919061434e565b6040805180830381865afa158015611529573d6000803e3d6000fd5b505050506040513d601f19601f8201168201806040525081019061154d9190614377565b9050809150505b5b8091505092915050565b6115736000801b61156e612478565b611878565b6115b2576040517f08c379a00000000000000000000000000000000000000000000000000000000081526004016115a990614429565b60405180910390fd5b6115ba612ada565b565b60026097541415611602576040517f08c379a00000000000000000000000000000000000000000000000000000000081526004016115f990613eaa565b60405180910390fd5b600260978190555083341461164c576040517f08c379a0000000000000000000000000000000000000000000000000000000008152600401611643906144bb565b60405180910390fd5b61165c8686866000878787610713565b5060006116698787611f1a565b9050600061168b8261167b8a8a6113ca565b6116858b8b610a1c565b8761284f565b9050600060405180606001604052806116a884600001518a612a56565b81526020016116bb84602001518a612a56565b81526020016116ca878a612a56565b815250905060006116db8883612aa2565b90506116eb846000015182612b7d565b60008260200151111561170b5761170a84604001518360200151612b7d565b5b60008260000151111561172b5761172a84602001518360000151612b7d565b5b6000826040015111156117695761176860fb60009054906101000a900473ffffffffffffffffffffffffffffffffffffffff168360400151612b7d565b5b8973ffffffffffffffffffffffffffffffffffffffff166342842e0e8560000151611792612478565b8c6040518463ffffffff1660e01b81526004016117b193929190613f5c565b600060405180830381600087803b1580156117cb57600080fd5b505af11580156117df573d6000803e3d6000fd5b50505050836000015173ffffffffffffffffffffffffffffffffffffffff16898b73ffffffffffffffffffffffffffffffffffffffff167f0208fc5be027d6de8ccfba986c6e00e8fe20decd43de203db40d4024616c233361183f612478565b8c868860000151896020015160405161185c9594939291906144db565b60405180910390a4505050506001609781905550505050505050565b60006065600084815260200190815260200160002060000160008373ffffffffffffffffffffffffffffffffffffffff1673ffffffffffffffffffffffffffffffffffffffff16815260200190815260200160002060009054906101000a900460ff16905092915050565b600060019054906101000a900460ff1661190b5760008054906101000a900460ff1615611914565b611913612c2e565b5b611953576040517f08c379a000000000000000000000000000000000000000000000000000000000815260040161194a906145a0565b60405180910390fd5b60008060019054906101000a900460ff1615905080156119a3576001600060016101000a81548160ff02191690831515021790555060016000806101000a81548160ff0219169083151502179055505b6119ab612c3f565b6119b3612c90565b6119bb612ce1565b6119c3612d32565b6119cb612d8b565b6119df6000801b6119da612478565b612df7565b611a107f97667070c54ef182b0f5858b034beac1b6f3089aa2d3188bb1e8929f4fa9b929611a0b612478565b612df7565b8260fb60006101000a81548173ffffffffffffffffffffffffffffffffffffffff021916908373ffffffffffffffffffffffffffffffffffffffff16021790555060005b8251811015611a9357611a80838281518110611a7357611a72614118565b5b6020026020010151610b3f565b8080611a8b906145c0565b915050611a54565b508015611ab55760008060016101000a81548160ff0219169083151502179055505b505050565b6000801b81565b600060fc80549050905090565b611ae26000801b611add612478565b611878565b611b21576040517f08c379a0000000000000000000000000000000000000000000000000000000008152600401611b189061467b565b60405180910390fd5b611b29611ac1565b8110611b6a576040517f08c379a0000000000000000000000000000000000000000000000000000000008152600401611b61906140f8565b60405180910390fd5b600060fc8281548110611b8057611b7f614118565b5b9060005260206000200160009054906101000a900473ffffffffffffffffffffffffffffffffffffffff1690506001611bb7611ac1565b1415611c095760fc805480611bcf57611bce61469b565b5b6001900381819060005260206000200160006101000a81549073ffffffffffffffffffffffffffffffffffffffff02191690559055611cff565b60fc6001611c15611ac1565b611c1f91906146ca565b81548110611c3057611c2f614118565b5b9060005260206000200160009054906101000a900473ffffffffffffffffffffffffffffffffffffffff1660fc8381548110611c6f57611c6e614118565b5b9060005260206000200160006101000a81548173ffffffffffffffffffffffffffffffffffffffff021916908373ffffffffffffffffffffffffffffffffffffffff16021790555060fc805480611cc957611cc861469b565b5b6001900381819060005260206000200160006101000a81549073ffffffffffffffffffffffffffffffffffffffff021916905590555b8073ffffffffffffffffffffffffffffffffffffffff167fbf996b4fd74f0c7159bb017b1db415b0d9a6f13129f46d0b93309d170b78df3160405160405180910390a25050565b611d4f8261080c565b611d6081611d5b612478565b612480565b611d6a83836125fe565b505050565b7f97667070c54ef182b0f5858b034beac1b6f3089aa2d3188bb1e8929f4fa9b92981565b600080600090505b611da3611ac1565b811015611e39578273ffffffffffffffffffffffffffffffffffffffff1660fc8281548110611dd557611dd4614118565b5b9060005260206000200160009054906101000a900473ffffffffffffffffffffffffffffffffffffffff1673ffffffffffffffffffffffffffffffffffffffff161415611e26576001915050611e3f565b8080611e31906145c0565b915050611d9b565b50600090505b919050565b60007f01ffc9a7000000000000000000000000000000000000000000000000000000007bffffffffffffffffffffffffffffffffffffffffffffffffffffffff1916827bffffffffffffffffffffffffffffffffffffffffffffffffffffffff1916149050919050565b611ed8817f80ac58cd000000000000000000000000000000000000000000000000000000006126e0565b611f17576040517f08c379a0000000000000000000000000000000000000000000000000000000008152600401611f0e90614796565b60405180910390fd5b50565b611f226131dc565b600060405180606001604052808573ffffffffffffffffffffffffffffffffffffffff16636352211e866040518263ffffffff1660e01b8152600401611f689190613667565b602060405180830381865afa158015611f85573d6000803e3d6000fd5b505050506040513d601f19601f82011682018060405250810190611fa99190613b25565b73ffffffffffffffffffffffffffffffffffffffff168152602001600073ffffffffffffffffffffffffffffffffffffffff168152602001600073ffffffffffffffffffffffffffffffffffffffff168152509050612028847f4b763d0e000000000000000000000000000000000000000000000000000000006126e0565b15612194578373ffffffffffffffffffffffffffffffffffffffff1663d48e638a846040518263ffffffff1660e01b81526004016120669190613667565b602060405180830381865afa158015612083573d6000803e3d6000fd5b505050506040513d601f19601f820116820180604052508101906120a79190613b25565b816020019073ffffffffffffffffffffffffffffffffffffffff16908173ffffffffffffffffffffffffffffffffffffffff16815250508373ffffffffffffffffffffffffffffffffffffffff1663c99dccf9846040518263ffffffff1660e01b81526004016121179190613667565b602060405180830381865afa158015612134573d6000803e3d6000fd5b505050506040513d601f19601f820116820180604052508101906121589190613b25565b816040019073ffffffffffffffffffffffffffffffffffffffff16908173ffffffffffffffffffffffffffffffffffffffff168152505061228f565b6121be847f2a55205a000000000000000000000000000000000000000000000000000000006126e0565b1561228e578373ffffffffffffffffffffffffffffffffffffffff16632a55205a846002600a6121ee91906142a9565b60646121fa91906142f4565b6040518363ffffffff1660e01b815260040161221792919061434e565b6040805180830381865afa158015612233573d6000803e3d6000fd5b505050506040513d601f19601f820116820180604052508101906122579190614377565b50816020018173ffffffffffffffffffffffffffffffffffffffff1673ffffffffffffffffffffffffffffffffffffffff16815250505b5b8091505092915050565b6122a8838383600001516108e6565b6122e7576040517f08c379a00000000000000000000000000000000000000000000000000000000081526004016122de90614828565b60405180910390fd5b505050565b6002600a6122fa91906142a9565b606461230691906142f4565b81836123129190614848565b1115612353576040517f08c379a000000000000000000000000000000000000000000000000000000000815260040161234a90614910565b60405180910390fd5b5050565b600080308c8c8c8c8c8c8c8c8c60405160200161237d9a99989796959493929190614930565b60405160208183030381529060405280519060200120905060006001826040516020016123aa9190614a44565b604051602081830303815290604052805190602001208560000160208101906123d39190614a96565b86602001358760400135604051600081526020016040526040516123fa9493929190614ac3565b6020604051602081039080840390855afa15801561241c573d6000803e3d6000fd5b5050506020604051035190506124356000801b82611878565b8061246657506124657f97667070c54ef182b0f5858b034beac1b6f3089aa2d3188bb1e8929f4fa9b92982611878565b5b925050509a9950505050505050505050565b600033905090565b61248a8282611878565b612519576124af8173ffffffffffffffffffffffffffffffffffffffff166014612e05565b6124bd8360001c6020612e05565b6040516020016124ce929190614c0f565b6040516020818303038152906040526040517f08c379a00000000000000000000000000000000000000000000000000000000081526004016125109190614c82565b60405180910390fd5b5050565b6125278282611878565b6125fa5760016065600084815260200190815260200160002060000160008373ffffffffffffffffffffffffffffffffffffffff1673ffffffffffffffffffffffffffffffffffffffff16815260200190815260200160002060006101000a81548160ff02191690831515021790555061259f612478565b73ffffffffffffffffffffffffffffffffffffffff168173ffffffffffffffffffffffffffffffffffffffff16837f2f8788117e7eff1d82e926ec794901d17c78024a50270940304540a733656f0d60405160405180910390a45b5050565b6126088282611878565b156126dc5760006065600084815260200190815260200160002060000160008373ffffffffffffffffffffffffffffffffffffffff1673ffffffffffffffffffffffffffffffffffffffff16815260200190815260200160002060006101000a81548160ff021916908315150217905550612681612478565b73ffffffffffffffffffffffffffffffffffffffff168173ffffffffffffffffffffffffffffffffffffffff16837ff6391f5c32d9c69d2a47ea670b442974b53935d1edc7fd64eb21e047a839171b60405160405180910390a45b5050565b60006126eb83613041565b80156126fd57506126fc838361308e565b5b905092915050565b60008273ffffffffffffffffffffffffffffffffffffffff1663313ce5676040518163ffffffff1660e01b8152600401602060405180830381865afa158015612752573d6000803e3d6000fd5b505050506040513d601f19601f820116820180604052508101906127769190614cb9565b600a61278291906142a9565b6002600a61279091906142a9565b8361279b91906142f4565b6127a59190614d15565b905092915050565b6127b56112f8565b6127f4576040517f08c379a00000000000000000000000000000000000000000000000000000000081526004016127eb90614d92565b60405180910390fd5b600060c960006101000a81548160ff0219169083151502179055507f5db9ee0a495bf2e6ff9c91a7834c1ba4fdd244a5e8aa4e537bd38aeae4b073aa612838612478565b60405161284591906136be565b60405180910390a1565b61285761323f565b600060405180604001604052806000815260200160008152509050856020015173ffffffffffffffffffffffffffffffffffffffff16866000015173ffffffffffffffffffffffffffffffffffffffff16141561295757600073ffffffffffffffffffffffffffffffffffffffff16866040015173ffffffffffffffffffffffffffffffffffffffff16141580156128ef5750600084115b15612952576002600a61290291906142a9565b606461290e91906142f4565b836002600a61291d91906142a9565b606461292991906142f4565b61293391906146ca565b8561293e91906142f4565b6129489190614d15565b8160200181815250505b612a4a565b600073ffffffffffffffffffffffffffffffffffffffff16866020015173ffffffffffffffffffffffffffffffffffffffff16141580156129985750600085115b15612a495784816000018181525050600073ffffffffffffffffffffffffffffffffffffffff16866040015173ffffffffffffffffffffffffffffffffffffffff16141580156129e85750600084115b15612a48576002600a6129fb91906142a9565b6064612a0791906142f4565b816000015185612a1791906142f4565b612a219190614d15565b81602001818152505080602001518160000151612a3e91906146ca565b8160000181815250505b5b5b80915050949350505050565b600080831415612a695760009050612a9c565b6002600a612a7791906142a9565b6064612a8391906142f4565b8383612a8f91906142f4565b612a999190614d15565b90505b92915050565b600081602001518260000151836040015185612abe91906146ca565b612ac891906146ca565b612ad291906146ca565b905092915050565b612ae26112f8565b15612b22576040517f08c379a0000000000000000000000000000000000000000000000000000000008152600401612b1990614dfe565b60405180910390fd5b600160c960006101000a81548160ff0219169083151502179055507f62e78cea01bee320cd4e420270b5ea74000d11b0c9f74754ebdbfc544b05a258612b66612478565b604051612b7391906136be565b60405180910390a1565b60008273ffffffffffffffffffffffffffffffffffffffff1682604051612ba390614e4f565b60006040518083038185875af1925050503d8060008114612be0576040519150601f19603f3d011682016040523d82523d6000602084013e612be5565b606091505b5050905080612c29576040517f08c379a0000000000000000000000000000000000000000000000000000000008152600401612c2090614ed6565b60405180910390fd5b505050565b6000612c39306131b9565b15905090565b600060019054906101000a900460ff16612c8e576040517f08c379a0000000000000000000000000000000000000000000000000000000008152600401612c8590614f68565b60405180910390fd5b565b600060019054906101000a900460ff16612cdf576040517f08c379a0000000000000000000000000000000000000000000000000000000008152600401612cd690614f68565b60405180910390fd5b565b600060019054906101000a900460ff16612d30576040517f08c379a0000000000000000000000000000000000000000000000000000000008152600401612d2790614f68565b60405180910390fd5b565b600060019054906101000a900460ff16612d81576040517f08c379a0000000000000000000000000000000000000000000000000000000008152600401612d7890614f68565b60405180910390fd5b6001609781905550565b600060019054906101000a900460ff16612dda576040517f08c379a0000000000000000000000000000000000000000000000000000000008152600401612dd190614f68565b60405180910390fd5b600060c960006101000a81548160ff021916908315150217905550565b612e01828261251d565b5050565b606060006002836002612e1891906142f4565b612e229190614848565b67ffffffffffffffff811115612e3b57612e3a6137aa565b5b6040519080825280601f01601f191660200182016040528015612e6d5781602001600182028036833780820191505090505b5090507f300000000000000000000000000000000000000000000000000000000000000081600081518110612ea557612ea4614118565b5b60200101907effffffffffffffffffffffffffffffffffffffffffffffffffffffffffffff1916908160001a9053507f780000000000000000000000000000000000000000000000000000000000000081600181518110612f0957612f08614118565b5b60200101907effffffffffffffffffffffffffffffffffffffffffffffffffffffffffffff1916908160001a90535060006001846002612f4991906142f4565b612f539190614848565b90505b6001811115612ff3577f3031323334353637383961626364656600000000000000000000000000000000600f861660108110612f9557612f94614118565b5b1a60f81b828281518110612fac57612fab614118565b5b60200101907effffffffffffffffffffffffffffffffffffffffffffffffffffffffffffff1916908160001a905350600485901c945080612fec90614f88565b9050612f56565b5060008414613037576040517f08c379a000000000000000000000000000000000000000000000000000000000815260040161302e90614ffe565b60405180910390fd5b8091505092915050565b600061306d827f01ffc9a70000000000000000000000000000000000000000000000000000000061308e565b801561308757506130858263ffffffff60e01b61308e565b155b9050919050565b6000806301ffc9a760e01b836040516024016130aa919061502d565b604051602081830303815290604052907bffffffffffffffffffffffffffffffffffffffffffffffffffffffff19166020820180517bffffffffffffffffffffffffffffffffffffffffffffffffffffffff838183161783525050505090506000808573ffffffffffffffffffffffffffffffffffffffff16617530846040516131349190615084565b6000604051808303818686fa925050503d8060008114613170576040519150601f19603f3d011682016040523d82523d6000602084013e613175565b606091505b509150915060208151101561319057600093505050506131b3565b8180156131ad5750808060200190518101906131ac9190613ba7565b5b93505050505b92915050565b6000808273ffffffffffffffffffffffffffffffffffffffff163b119050919050565b6040518060600160405280600073ffffffffffffffffffffffffffffffffffffffff168152602001600073ffffffffffffffffffffffffffffffffffffffff168152602001600073ffffffffffffffffffffffffffffffffffffffff1681525090565b604051806040016040528060008152602001600081525090565b6000604051905090565b600080fd5b600080fd5b60007fffffffff0000000000000000000000000000000000000000000000000000000082169050919050565b6132a28161326d565b81146132ad57600080fd5b50565b6000813590506132bf81613299565b92915050565b6000602082840312156132db576132da613263565b5b60006132e9848285016132b0565b91505092915050565b60008115159050919050565b613307816132f2565b82525050565b600060208201905061332260008301846132fe565b92915050565b600073ffffffffffffffffffffffffffffffffffffffff82169050919050565b600061335382613328565b9050919050565b61336381613348565b811461336e57600080fd5b50565b6000813590506133808161335a565b92915050565b6000819050919050565b61339981613386565b81146133a457600080fd5b50565b6000813590506133b681613390565b92915050565b600080fd5b6000606082840312156133d7576133d66133bc565b5b81905092915050565b6000806000806000806000610120888a031215613400576133ff613263565b5b600061340e8a828b01613371565b975050602061341f8a828b016133a7565b96505060406134308a828b016133a7565b95505060606134418a828b01613371565b94505060806134528a828b01613371565b93505060a06134638a828b016133a7565b92505060c06134748a828b016133c1565b91505092959891949750929550565b6000819050919050565b61349681613483565b81146134a157600080fd5b50565b6000813590506134b38161348d565b92915050565b6000602082840312156134cf576134ce613263565b5b60006134dd848285016134a4565b91505092915050565b6134ef81613483565b82525050565b600060208201905061350a60008301846134e6565b92915050565b600060ff82169050919050565b61352681613510565b82525050565b6000602082019050613541600083018461351d565b92915050565b6000806040838503121561355e5761355d613263565b5b600061356c858286016134a4565b925050602061357d85828601613371565b9150509250929050565b600061359282613348565b9050919050565b6135a281613587565b81146135ad57600080fd5b50565b6000813590506135bf81613599565b92915050565b6000806000606084860312156135de576135dd613263565b5b60006135ec868287016135b0565b93505060206135fd868287016133a7565b925050604061360e86828701613371565b9150509250925092565b6000806040838503121561362f5761362e613263565b5b600061363d85828601613371565b925050602061364e858286016133a7565b9150509250929050565b61366181613386565b82525050565b600060208201905061367c6000830184613658565b92915050565b60006020828403121561369857613697613263565b5b60006136a684828501613371565b91505092915050565b6136b881613348565b82525050565b60006020820190506136d360008301846136af565b92915050565b6000602082840312156136ef576136ee613263565b5b60006136fd848285016133a7565b91505092915050565b600080600080600080610100878903121561372457613723613263565b5b600061373289828a01613371565b965050602061374389828a016133a7565b955050604061375489828a016133a7565b945050606061376589828a01613371565b935050608061377689828a016133a7565b92505060a061378789828a016133c1565b9150509295509295509295565b600080fd5b6000601f19601f8301169050919050565b7f4e487b7100000000000000000000000000000000000000000000000000000000600052604160045260246000fd5b6137e282613799565b810181811067ffffffffffffffff82111715613801576138006137aa565b5b80604052505050565b6000613814613259565b905061382082826137d9565b919050565b600067ffffffffffffffff8211156138405761383f6137aa565b5b602082029050602081019050919050565b600080fd5b600061386961386484613825565b61380a565b9050808382526020820190506020840283018581111561388c5761388b613851565b5b835b818110156138b557806138a18882613371565b84526020840193505060208101905061388e565b5050509392505050565b600082601f8301126138d4576138d3613794565b5b81356138e4848260208601613856565b91505092915050565b6000806040838503121561390457613903613263565b5b600061391285828601613371565b925050602083013567ffffffffffffffff81111561393357613932613268565b5b61393f858286016138bf565b9150509250929050565b600082825260208201905092915050565b7f4e46544d61726b6574706c6163653a20436f6e7472616374206973207061757360008201527f6564000000000000000000000000000000000000000000000000000000000000602082015250565b60006139b6602283613949565b91506139c18261395a565b604082019050919050565b600060208201905081810360008301526139e5816139a9565b9050919050565b7f4e46544d61726b6574706c6163653a20496e76616c6964207369676e6174757260008201527f6500000000000000000000000000000000000000000000000000000000000000602082015250565b6000613a48602183613949565b9150613a53826139ec565b604082019050919050565b60006020820190508181036000830152613a7781613a3b565b9050919050565b7f416363657373436f6e74726f6c3a2063616e206f6e6c792072656e6f756e636560008201527f20726f6c657320666f722073656c660000000000000000000000000000000000602082015250565b6000613ada602f83613949565b9150613ae582613a7e565b604082019050919050565b60006020820190508181036000830152613b0981613acd565b9050919050565b600081519050613b1f8161335a565b92915050565b600060208284031215613b3b57613b3a613263565b5b6000613b4984828501613b10565b91505092915050565b6000604082019050613b6760008301856136af565b613b7460208301846136af565b9392505050565b613b84816132f2565b8114613b8f57600080fd5b50565b600081519050613ba181613b7b565b92915050565b600060208284031215613bbd57613bbc613263565b5b6000613bcb84828501613b92565b91505092915050565b600081519050613be381613390565b92915050565b600060208284031215613bff57613bfe613263565b5b6000613c0d84828501613bd4565b91505092915050565b7f4e46544d61726b6574706c6163653a204f6e6c792061646d696e732063616e2060008201527f756e706175736500000000000000000000000000000000000000000000000000602082015250565b6000613c72602783613949565b9150613c7d82613c16565b604082019050919050565b60006020820190508181036000830152613ca181613c65565b9050919050565b7f4e46544d61726b6574706c6163653a204f6e6c792061646d696e732063616e2060008201527f61646420616c6c6f77656420746f6b656e730000000000000000000000000000602082015250565b6000613d04603283613949565b9150613d0f82613ca8565b604082019050919050565b60006020820190508181036000830152613d3381613cf7565b9050919050565b7f4e46544d61726b6574706c6163653a20546f6b656e206164647265737320697360008201527f20746865207a65726f2061646472657373000000000000000000000000000000602082015250565b6000613d96603183613949565b9150613da182613d3a565b604082019050919050565b60006020820190508181036000830152613dc581613d89565b9050919050565b7f4e46544d61726b6574706c6163653a20546f6b656e206164647265737320697360008201527f20616c726561647920616c6c6f77656400000000000000000000000000000000602082015250565b6000613e28603083613949565b9150613e3382613dcc565b604082019050919050565b60006020820190508181036000830152613e5781613e1b565b9050919050565b7f5265656e7472616e637947756172643a207265656e7472616e742063616c6c00600082015250565b6000613e94601f83613949565b9150613e9f82613e5e565b602082019050919050565b60006020820190508181036000830152613ec381613e87565b9050919050565b7f4e46544d61726b6574706c6163653a20546f6b656e206e6f7420616c6c6f776560008201527f6400000000000000000000000000000000000000000000000000000000000000602082015250565b6000613f26602183613949565b9150613f3182613eca565b604082019050919050565b60006020820190508181036000830152613f5581613f19565b9050919050565b6000606082019050613f7160008301866136af565b613f7e60208301856136af565b613f8b6040830184613658565b949350505050565b600060c082019050613fa860008301896136af565b613fb560208301886136af565b613fc26040830187613658565b613fcf6060830186613658565b613fdc6080830185613658565b613fe960a0830184613658565b979650505050505050565b7f4e46544d61726b6574706c6163653a204f6e6c792061646d696e732063616e2060008201527f6368616e67652074686973000000000000000000000000000000000000000000602082015250565b6000614050602b83613949565b915061405b82613ff4565b604082019050919050565b6000602082019050818103600083015261407f81614043565b9050919050565b7f4e46544d61726b6574706c6163653a20496e646578206f7574206f6620626f7560008201527f6e64730000000000000000000000000000000000000000000000000000000000602082015250565b60006140e2602383613949565b91506140ed82614086565b604082019050919050565b60006020820190508181036000830152614111816140d5565b9050919050565b7f4e487b7100000000000000000000000000000000000000000000000000000000600052603260045260246000fd5b7f4e487b7100000000000000000000000000000000000000000000000000000000600052601160045260246000fd5b60008160011c9050919050565b6000808291508390505b60018511156141cd578086048111156141a9576141a8614147565b5b60018516156141b85780820291505b80810290506141c685614176565b945061418d565b94509492505050565b6000826141e657600190506142a2565b816141f457600090506142a2565b816001811461420a576002811461421457614243565b60019150506142a2565b60ff84111561422657614225614147565b5b8360020a91508482111561423d5761423c614147565b5b506142a2565b5060208310610133831016604e8410600b84101617156142785782820a90508381111561427357614272614147565b5b6142a2565b6142858484846001614183565b9250905081840481111561429c5761429b614147565b5b81810290505b9392505050565b60006142b482613386565b91506142bf83613510565b92506142ec7fffffffffffffffffffffffffffffffffffffffffffffffffffffffffffffffff84846141d6565b905092915050565b60006142ff82613386565b915061430a83613386565b9250817fffffffffffffffffffffffffffffffffffffffffffffffffffffffffffffffff048311821515161561434357614342614147565b5b828202905092915050565b60006040820190506143636000830185613658565b6143706020830184613658565b9392505050565b6000806040838503121561438e5761438d613263565b5b600061439c85828601613b10565b92505060206143ad85828601613bd4565b9150509250929050565b7f4e46544d61726b6574706c6163653a204f6e6c792061646d696e732063616e2060008201527f7061757365000000000000000000000000000000000000000000000000000000602082015250565b6000614413602583613949565b915061441e826143b7565b604082019050919050565b6000602082019050818103600083015261444281614406565b9050919050565b7f4e46544d61726b6574706c6163653a204e6f7420656e6f75676820636f696e7360008201527f2073656e74000000000000000000000000000000000000000000000000000000602082015250565b60006144a5602583613949565b91506144b082614449565b604082019050919050565b600060208201905081810360008301526144d481614498565b9050919050565b600060a0820190506144f060008301886136af565b6144fd6020830187613658565b61450a6040830186613658565b6145176060830185613658565b6145246080830184613658565b9695505050505050565b7f496e697469616c697a61626c653a20636f6e747261637420697320616c72656160008201527f647920696e697469616c697a6564000000000000000000000000000000000000602082015250565b600061458a602e83613949565b91506145958261452e565b604082019050919050565b600060208201905081810360008301526145b98161457d565b9050919050565b60006145cb82613386565b91507fffffffffffffffffffffffffffffffffffffffffffffffffffffffffffffffff8214156145fe576145fd614147565b5b600182019050919050565b7f4e46544d61726b6574706c6163653a204f6e6c792061646d696e732063616e2060008201527f72656d6f766520616c6c6f77656420746f6b656e730000000000000000000000602082015250565b6000614665603583613949565b915061467082614609565b604082019050919050565b6000602082019050818103600083015261469481614658565b9050919050565b7f4e487b7100000000000000000000000000000000000000000000000000000000600052603160045260246000fd5b60006146d582613386565b91506146e083613386565b9250828210156146f3576146f2614147565b5b828203905092915050565b7f4e46544d61726b6574706c6163653a20436f6c6c656374696f6e20646f65732060008201527f6e6f7420737570706f727420746865204552432d37323120696e74657266616360208201527f6500000000000000000000000000000000000000000000000000000000000000604082015250565b6000614780604183613949565b915061478b826146fe565b606082019050919050565b600060208201905081810360008301526147af81614773565b9050919050565b7f4e46544d61726b6574706c6163653a204f776e657220686173206e6f7420617060008201527f70726f76656420757320666f72206d616e6167696e6720697473204e46547300602082015250565b6000614812603f83613949565b915061481d826147b6565b604082019050919050565b6000602082019050818103600083015261484181614805565b9050919050565b600061485382613386565b915061485e83613386565b9250827fffffffffffffffffffffffffffffffffffffffffffffffffffffffffffffffff0382111561489357614892614147565b5b828201905092915050565b7f4e46544d61726b6574706c6163653a20546f74616c20666565732063616e6e6f60008201527f742062652067726561746572207468616e203130302500000000000000000000602082015250565b60006148fa603683613949565b91506149058261489e565b604082019050919050565b60006020820190508181036000830152614929816148ed565b9050919050565b600061014082019050614946600083018d6136af565b614953602083018c6136af565b614960604083018b613658565b61496d606083018a6136af565b61497a60808301896136af565b61498760a0830188613658565b61499460c08301876136af565b6149a160e0830186613658565b6149af610100830185613658565b6149bd610120830184613658565b9b9a5050505050505050505050565b600081905092915050565b7f19457468657265756d205369676e6564204d6573736167653a0a333200000000600082015250565b6000614a0d601c836149cc565b9150614a18826149d7565b601c82019050919050565b6000819050919050565b614a3e614a3982613483565b614a23565b82525050565b6000614a4f82614a00565b9150614a5b8284614a2d565b60208201915081905092915050565b614a7381613510565b8114614a7e57600080fd5b50565b600081359050614a9081614a6a565b92915050565b600060208284031215614aac57614aab613263565b5b6000614aba84828501614a81565b91505092915050565b6000608082019050614ad860008301876134e6565b614ae5602083018661351d565b614af260408301856134e6565b614aff60608301846134e6565b95945050505050565b7f416363657373436f6e74726f6c3a206163636f756e7420000000000000000000600082015250565b6000614b3e6017836149cc565b9150614b4982614b08565b601782019050919050565b600081519050919050565b60005b83811015614b7d578082015181840152602081019050614b62565b83811115614b8c576000848401525b50505050565b6000614b9d82614b54565b614ba781856149cc565b9350614bb7818560208601614b5f565b80840191505092915050565b7f206973206d697373696e6720726f6c6520000000000000000000000000000000600082015250565b6000614bf96011836149cc565b9150614c0482614bc3565b601182019050919050565b6000614c1a82614b31565b9150614c268285614b92565b9150614c3182614bec565b9150614c3d8284614b92565b91508190509392505050565b6000614c5482614b54565b614c5e8185613949565b9350614c6e818560208601614b5f565b614c7781613799565b840191505092915050565b60006020820190508181036000830152614c9c8184614c49565b905092915050565b600081519050614cb381614a6a565b92915050565b600060208284031215614ccf57614cce613263565b5b6000614cdd84828501614ca4565b91505092915050565b7f4e487b7100000000000000000000000000000000000000000000000000000000600052601260045260246000fd5b6000614d2082613386565b9150614d2b83613386565b925082614d3b57614d3a614ce6565b5b828204905092915050565b7f5061757361626c653a206e6f7420706175736564000000000000000000000000600082015250565b6000614d7c601483613949565b9150614d8782614d46565b602082019050919050565b60006020820190508181036000830152614dab81614d6f565b9050919050565b7f5061757361626c653a2070617573656400000000000000000000000000000000600082015250565b6000614de8601083613949565b9150614df382614db2565b602082019050919050565b60006020820190508181036000830152614e1781614ddb565b9050919050565b600081905092915050565b50565b6000614e39600083614e1e565b9150614e4482614e29565b600082019050919050565b6000614e5a82614e2c565b9150819050919050565b7f4e46544d61726b6574706c6163653a204661696c656420746f2073656e64206360008201527f6f696e7300000000000000000000000000000000000000000000000000000000602082015250565b6000614ec0602483613949565b9150614ecb82614e64565b604082019050919050565b60006020820190508181036000830152614eef81614eb3565b9050919050565b7f496e697469616c697a61626c653a20636f6e7472616374206973206e6f74206960008201527f6e697469616c697a696e67000000000000000000000000000000000000000000602082015250565b6000614f52602b83613949565b9150614f5d82614ef6565b604082019050919050565b60006020820190508181036000830152614f8181614f45565b9050919050565b6000614f9382613386565b91506000821415614fa757614fa6614147565b5b600182039050919050565b7f537472696e67733a20686578206c656e67746820696e73756666696369656e74600082015250565b6000614fe8602083613949565b9150614ff382614fb2565b602082019050919050565b6000602082019050818103600083015261501781614fdb565b9050919050565b6150278161326d565b82525050565b6000602082019050615042600083018461501e565b92915050565b600081519050919050565b600061505e82615048565b6150688185614e1e565b9350615078818560208601614b5f565b80840191505092915050565b60006150908284615053565b91508190509291505056fea2646970667358221220e5dbad7174b0208a9657acef83d49614c8fb223c15a54bc3a4208a9a523bade464736f6c634300080c0033",
  "immutableReferences": {},
  "source": "// SPDX-License-Identifier: MIT\npragma solidity 0.8.12;\n\nimport \"@openzeppelin/contracts-upgradeable/access/AccessControlUpgradeable.sol\";\nimport \"@openzeppelin/contracts-upgradeable/security/ReentrancyGuardUpgradeable.sol\";\nimport \"@openzeppelin/contracts-upgradeable/security/PausableUpgradeable.sol\";\nimport \"@openzeppelin/contracts/token/ERC721/IERC721.sol\";\nimport \"@openzeppelin/contracts/token/ERC20/IERC20.sol\";\nimport \"@openzeppelin/contracts/utils/introspection/ERC165Checker.sol\";\nimport \"@openzeppelin/contracts/interfaces/IERC2981.sol\";\n\nimport \"./IERC721Autentica.sol\";\n\ncontract NFTMarketplace is\n    AccessControlUpgradeable,\n    ReentrancyGuardUpgradeable,\n    PausableUpgradeable\n{\n    // Number of decimals used for fees.\n    uint8 public constant DECIMALS = 2;\n\n    // Create a new role identifier for the operator role.\n    bytes32 public constant OPERATOR_ROLE = keccak256(\"OPERATOR_ROLE\");\n\n    // Autentica wallet address.\n    address private _autentica;\n\n    // Allowed token addresses to be used with `tradeForTokens`.\n    address[] private _allowedTokens;\n\n    // NFT details.\n    struct NFT {\n        address owner;\n        address creator;\n        address investor;\n    }\n\n    // Percentages for each party that needs to be payed.\n    struct Percentages {\n        uint256 creator;\n        uint256 investor;\n    }\n\n    // Proceeds for each party that needs to be payed amounts expressed in coins or tokens, not in percentages\n    struct Proceeds {\n        uint256 creator;\n        uint256 investor;\n        uint256 marketplace;\n    }\n\n    // ECDSA signature.\n    struct Signature {\n        uint8 v;\n        bytes32 r;\n        bytes32 s;\n    }\n\n    /**\n     * @dev Emitted when the Autentica wallet address has been updated.\n     */\n    event ChangedAutentica(\n        address indexed oldAddress,\n        address indexed newAddress\n    );\n    /**\n     * @dev Emitted when a trade occured between the `seller` (the owner of the ERC-721 token\n     * represented by `tokenId` within the `collection` smart contract) and `buyer` which\n     * payed the specified `price` in coins (the native cryptocurrency of the platform, i.e.: ETH).\n     */\n    event TradedForCoins(\n        address indexed collection,\n        uint256 indexed tokenId,\n        address indexed seller,\n        address buyer,\n        uint256 price,\n        uint256 ownerProceeds,\n        uint256 creatorProceeds,\n        uint256 investorProceeds\n    );\n    /**\n     * @dev Emitted when a trade occured between the `seller` (the owner of the ERC-721 token\n     * represented by `tokenId` within the `collection` smart contract) and `buyer` which\n     * payed the specified `price` in tokens that are represented by the `token`\n     * ERC-20 smart contract address.\n     */\n    event TradedForTokens(\n        address indexed collection,\n        uint256 indexed tokenId,\n        address indexed seller,\n        address buyer,\n        address token,\n        uint256 price,\n        uint256 ownerProceeds,\n        uint256 creatorProceeds,\n        uint256 investorProceeds\n    );\n\n    /**\n     * @dev Emitted when a new token is allowed to be used for trading.\n     */\n    event AllowedTokenAdded(address indexed tokenAddress);\n    /**\n     * @dev Emitted when a token is not longer allowed to be used for trading.\n     */\n    event AllowedTokenRemoved(address indexed tokenAddress);\n\n    /**\n     * @dev The initializer (upgradeable constructor) sets the creator of the contract as the admin\n     * and operator of this smart contract, sets the wallet address for Autentica and sets the allowed tokens.\n     */\n    function initialize(address wallet, address[] memory allowedTokens)\n        public\n        initializer\n    {\n        // Initialize all the inherited abstract contracts.\n        __Context_init_unchained();\n        __ERC165_init_unchained();\n        __AccessControl_init_unchained();\n        __ReentrancyGuard_init_unchained();\n        __Pausable_init_unchained();\n\n        // Grant the admin role to the owner\n        _setupRole(DEFAULT_ADMIN_ROLE, _msgSender());\n        // Grant the operator role to the owner\n        _setupRole(OPERATOR_ROLE, _msgSender());\n\n        // Set the wallet address for Autentica\n        _autentica = wallet;\n\n        // Set the allowed tokens\n        for (uint256 i = 0; i < allowedTokens.length; i++) {\n            addAllowedToken(allowedTokens[i]);\n        }\n    }\n\n    /**\n     * Returns the Autentica wallet address.\n     */\n    function autentica() external view returns (address) {\n        return _autentica;\n    }\n\n    /**\n     * @dev Sets the Autentica wallet address.\n     *\n     * Requirements:\n     *\n     * - the caller must be admin.\n     */\n    function setAutentica(address wallet) external returns (address) {\n        require(\n            hasRole(DEFAULT_ADMIN_ROLE, _msgSender()),\n            \"NFTMarketplace: Only admins can change this\"\n        );\n\n        // Keep a reference to the old address\n        address oldAutentica = _autentica;\n\n        // Change the address\n        _autentica = wallet;\n\n        // Emit the event\n        emit ChangedAutentica(oldAutentica, _autentica);\n\n        return _autentica;\n    }\n\n    /**\n     * @dev Returns the number of decimals used for fees.\n     */\n    function decimals() external pure returns (uint8) {\n        return DECIMALS;\n    }\n\n    /**\n     * @dev Returns the number of allowed tokens.\n     */\n    function numberOfAllowedTokens() public view returns (uint256) {\n        return _allowedTokens.length;\n    }\n\n    /**\n     * @dev Returns the address of the allowed token at the specified index.\n     * @param index The index of the allowed token.\n     */\n    function allowedTokenAtIndex(uint256 index) public view returns (address) {\n        require(\n            index < numberOfAllowedTokens(),\n            \"NFTMarketplace: Index out of bounds\"\n        );\n        return _allowedTokens[index];\n    }\n\n    /**\n     * @dev Verifies if a token address has been allowed already.\n     */\n    function isTokenAllowed(address tokenAddress) public view returns (bool) {\n        for (uint256 i = 0; i < numberOfAllowedTokens(); i++) {\n            if (_allowedTokens[i] == tokenAddress) {\n                return true;\n            }\n        }\n\n        return false;\n    }\n\n    /**\n     * @dev Add a new allowed token to the contract.\n     * @param tokenAddress The address of the allowed token to add.\n     *\n     * Requirements:\n     *\n     * - the caller must be admin.\n     */\n    function addAllowedToken(address tokenAddress) public {\n        require(\n            hasRole(DEFAULT_ADMIN_ROLE, _msgSender()),\n            \"NFTMarketplace: Only admins can add allowed tokens\"\n        );\n\n        // Check if the token address is valid\n        require(\n            tokenAddress != address(0),\n            \"NFTMarketplace: Token address is the zero address\"\n        );\n\n        // Check if the token address is already allowed\n        require(\n            !isTokenAllowed(tokenAddress),\n            \"NFTMarketplace: Token address is already allowed\"\n        );\n\n        // Add the token address\n        _allowedTokens.push(tokenAddress);\n\n        // Emit the event\n        emit AllowedTokenAdded(tokenAddress);\n    }\n\n    /**\n     * @dev Remove the allowed token at the specified index.\n     * @param index The index of the allowed token.\n     *\n     * Requirements:\n     *\n     * - the caller must be admin.\n     */\n    function removeAllowedTokenAtIndex(uint256 index) public {\n        require(\n            hasRole(DEFAULT_ADMIN_ROLE, _msgSender()),\n            \"NFTMarketplace: Only admins can remove allowed tokens\"\n        );\n\n        // Check if the index is valid\n        require(\n            index < numberOfAllowedTokens(),\n            \"NFTMarketplace: Index out of bounds\"\n        );\n\n        // Keep a reference to the old address\n        address tokenAddress = _allowedTokens[index];\n\n        // Deleting an element from the array does not affect the array length, so we need to use the `pop()` method\n        if (numberOfAllowedTokens() == 1) {\n            _allowedTokens.pop();\n        } else {\n            // Instead of shifting all the elements from the right, we will just move the last element in place of the\n            // element that will be removed\n            _allowedTokens[index] = _allowedTokens[numberOfAllowedTokens() - 1];\n            // Remove the last element\n            _allowedTokens.pop();\n        }\n\n        // Emit the event\n        emit AllowedTokenRemoved(tokenAddress);\n    }\n\n    /**\n     * @notice Trades an NFT for a given amount of coins (the native cryptocurrency of the platform, i.e.: ETH).\n     *\n     * @param collection The ERC-721 smart contract.\n     * @param tokenId The unique identifier of the ERC-721 token within the `collection` smart contract.\n     * @param price The price of the NFT in coins.\n     * @param buyer Buyer address.\n     * @param marketplaceFee Marketplace fee.\n     * @param signature ECDSA signature.\n     *\n     * @dev Requirements\n     *\n     * - The `collection` smart contract must be an ERC-721 smart contract.\n     * - The owner of the NFT identified by `tokenId` within the `collection` smart contract must have approved\n     *   this smart contract to manage its NFTs.\n     * - The `price` and `msg.value` must be equal.\n     * - The sum of all the fees cannot be greater than 100%.\n     * - The ECDSA signature must be signed by someone with the admin or operator role.\n     */\n    function tradeForCoins(\n        address collection,\n        uint256 tokenId,\n        uint256 price,\n        address buyer,\n        uint256 marketplaceFee,\n        Signature calldata signature\n    ) external payable nonReentrant {\n        // Check if the user sent enough coins\n        require(msg.value == price, \"NFTMarketplace: Not enough coins sent\");\n\n        // Validate the trade\n        canPerformTrade(\n            collection,\n            tokenId,\n            price,\n            address(0x0),\n            buyer,\n            marketplaceFee,\n            signature\n        );\n\n        NFT memory nft = _nftDetails(collection, tokenId);\n\n        // Assemble the percentages\n        Percentages memory percentages = _percentagesDetails(\n            nft,\n            getRoyaltyFee(collection, tokenId),\n            getInvestorFee(collection, tokenId),\n            marketplaceFee\n        );\n\n        // Assemble the fees\n        Proceeds memory proceeds = Proceeds({\n            creator: _calculateProceedsForFee(percentages.creator, price),\n            investor: _calculateProceedsForFee(percentages.investor, price),\n            marketplace: _calculateProceedsForFee(marketplaceFee, price)\n        });\n\n        // Calculate the base owner proceeds\n        uint256 ownerProceeds = _calculateOwnerProceeds(\n            price,\n            proceeds\n        );\n\n        // Payments\n        _sendViaCall(payable(nft.owner), ownerProceeds);\n        if (proceeds.investor > 0) {\n            _sendViaCall(payable(nft.investor), proceeds.investor);\n        }\n        if (proceeds.creator > 0) {\n            _sendViaCall(payable(nft.creator), proceeds.creator);\n        }\n        if (proceeds.marketplace > 0) {\n            _sendViaCall(payable(_autentica), proceeds.marketplace);\n        }\n\n        // Finally transfer the NFT\n        IERC721(collection).safeTransferFrom(nft.owner, _msgSender(), tokenId);\n\n        // Emit the event\n        emit TradedForCoins(\n            collection,\n            tokenId,\n            nft.owner,\n            _msgSender(),\n            price,\n            ownerProceeds,\n            proceeds.creator,\n            proceeds.investor\n        );\n    }\n\n    /**\n     * @notice Trades an NFT for a given amount of ERC-20 tokens (i.e.: AUT/USDT/USDC).\n     *\n     * @param collection The ERC-721 smart contract.\n     * @param tokenId The unique identifier of the ERC-721 token within the `collection` smart contract.\n     * @param price The price of the NFT in `token` tokens.\n     * @param token The ERC-20 smart contract.\n     * @param buyer Buyer address.\n     * @param marketplaceFee Marketplace fee.\n     * @param signature ECDSA signature.\n     *\n     * Requirements:\n     *\n     * - The `collection` smart contract must be an ERC-721 smart contract.\n     * - The owner of the NFT identified by `tokenId` within the `collection` smart contract must have approved\n     *   this smart contract to manage its NFTs.\n     * - The sum of all the fees cannot be greater than 100%.\n     * - The ECDSA signature must be signed by someone with the admin or operator role.\n     */\n    function tradeForTokens(\n        address collection,\n        uint256 tokenId,\n        uint256 price,\n        address token,\n        address buyer,\n        uint256 marketplaceFee,\n        Signature calldata signature\n    ) external nonReentrant {\n        // Check if the token is allowed\n        require(isTokenAllowed(token), \"NFTMarketplace: Token not allowed\");\n\n        // Validate the trade\n        canPerformTrade(\n            collection,\n            tokenId,\n            price,\n            token,\n            buyer,\n            marketplaceFee,\n            signature\n        );\n\n        // Assemble the NFT details\n        NFT memory nft = _nftDetails(collection, tokenId);\n\n        // Assemble the percentages\n        Percentages memory percentages = _percentagesDetails(\n            nft,\n            getRoyaltyFee(collection, tokenId),\n            getInvestorFee(collection, tokenId),\n            marketplaceFee\n        );\n\n        // Assemble the fees\n        Proceeds memory proceeds = Proceeds({\n            creator: _calculateProceedsForFee(percentages.creator, price),\n            investor: _calculateProceedsForFee(percentages.investor, price),\n            marketplace: _calculateProceedsForFee(marketplaceFee, price)\n        });\n\n        // Calculate the base owner proceeds\n        uint256 ownerProceeds = _calculateOwnerProceeds(\n            price,\n            proceeds\n        );\n\n        // Payments\n        IERC20(token).transferFrom(buyer, nft.owner, ownerProceeds);\n        if (proceeds.investor > 0) {\n            IERC20(token).transferFrom(\n                buyer,\n                nft.investor,\n                proceeds.investor\n            );\n        }\n        if (proceeds.creator > 0) {\n            IERC20(token).transferFrom(buyer, nft.creator, proceeds.creator);\n        }\n        if (proceeds.marketplace > 0) {\n            IERC20(token).transferFrom(\n                buyer,\n                _autentica,\n                proceeds.marketplace\n            );\n        }\n        // Finally transfer the NFT\n        IERC721(collection).safeTransferFrom(nft.owner, _msgSender(), tokenId);\n\n        // Emit the event\n        emit TradedForTokens(\n            collection,\n            tokenId,\n            nft.owner,\n            _msgSender(),\n            token,\n            price,\n            ownerProceeds,\n            proceeds.creator,\n            proceeds.investor\n        );\n    }\n\n    /**\n     * @notice Validate the trade.\n     *\n     * @param collection The ERC-721 smart contract.\n     * @param tokenId The unique identifier of the ERC-721 token within the `collection` smart contract.\n     * @param price The price of the NFT in `token` tokens.\n     * @param currency The type of currency (erc20 or native currency)\n     * @param buyer Buyer address.\n     * @param marketplaceFee Marketplace fee.\n     * @param signature ECDSA signature.\n     *\n     */\n    function canPerformTrade(\n        address collection,\n        uint256 tokenId,\n        uint256 price,\n        address currency,\n        address buyer,\n        uint256 marketplaceFee,\n        Signature calldata signature\n    ) public view returns (bool) {\n        // Check if the contract is paused\n        require(!paused(), \"NFTMarketplace: Contract is paused\");\n\n        // Check if the collection is an ERC-721 smart contract\n        _validateERC721(collection);\n\n        // Assemble the NFT details\n        NFT memory nft = _nftDetails(collection, tokenId);\n\n        // Validate the approval\n        _validateNFTApproval(collection, tokenId, nft);\n\n        // Fees\n        uint256 royaltyFee = getRoyaltyFee(collection, tokenId);\n        uint256 investorFee = getInvestorFee(collection, tokenId);\n\n        // Make sure that all the fees sumed up do not exceed 100%\n        // \n        // Note: The investor fee is ignored from the validation\n        // because that fee represents a percetange of the\n        // royalty fee.\n        _validateFees(royaltyFee, marketplaceFee);\n\n        // Make sure the parameters are valid\n        require(\n            _validateTrade(\n                collection,\n                tokenId,\n                nft.owner,\n                buyer,\n                price,\n                currency,\n                royaltyFee,\n                investorFee,\n                marketplaceFee,\n                signature\n            ),\n            \"NFTMarketplace: Invalid signature\"\n        );\n        return true;\n    }\n\n    /**\n     * @notice If the collection smart contract implements `IERC721Autentica` or `IERC2981` then \n     * the function returns the royalty fee from that smart contract, otherwise it will return 0.\n     *\n     * @param collection The ERC-721 smart contract.\n     * @param tokenId The unique identifier of the ERC-721 token within the `collection` smart contract.\n     *\n     */\n    function getRoyaltyFee(address collection, uint256 tokenId)\n        public\n        view\n        returns (uint256)\n    {\n        uint256 royaltyFee = 0;\n\n        if (ERC165Checker.supportsInterface(collection, type(IERC721Autentica).interfaceId)) {\n            // This is a smart contract implementing `IERC721Autentica`\n            royaltyFee = _normalizedFee(\n                IERC721Autentica(collection),\n                IERC721Autentica(collection).getRoyaltyFee(tokenId)\n            );\n        } else if (ERC165Checker.supportsInterface(collection, type(IERC2981).interfaceId)) {\n            // This is a smart contract implementing `IERC2981`\n            (, royaltyFee) = IERC2981(collection).royaltyInfo(tokenId, 100 * (10 ** DECIMALS));\n            // The reason for why we use `100 * (10 ** DECIMALS)` as the sale price is because other\n            // we don't want to lose precision when calculating the fee.\n        }\n        return royaltyFee;\n    }\n\n    /**\n     * @notice If the collection smart contract implements `IERC721Autentica` then the function \n     * returns the investor fee from that smart contract, otherwise it will return 0.\n     *\n     * @param collection The ERC-721 smart contract.\n     * @param tokenId The unique identifier of the ERC-721 token within the `collection` smart contract.\n     *\n     */\n    function getInvestorFee(address collection, uint256 tokenId)\n        public\n        view\n        returns (uint256)\n    {\n        uint256 investorFee = 0;\n        if (ERC165Checker.supportsInterface(collection, type(IERC721Autentica).interfaceId)) {\n            // This is a smart contract implementing `IERC721Autentica`\n            investorFee = _normalizedFee(\n                IERC721Autentica(collection),\n                IERC721Autentica(collection).getInvestorFee(tokenId)\n            );\n        }\n        return investorFee;\n    }\n\n    /**\n     * @dev Verifies if the token owner has approved this smart contract to manage its \n     * NFTs from the specified collection.\n     * @return Returns `true` if this smart contract is approved by the `tokenOwner` in \n     * the `collection` smart contract or only if that specific NFT is approved for this smart contract.\n     */\n    function isMarketplaceApproved(\n        IERC721 collection,\n        uint256 tokenId,\n        address tokenOwner\n    ) public view returns (bool) {\n        return\n            collection.getApproved(tokenId) == address(this) ||\n            collection.isApprovedForAll(tokenOwner, address(this));\n    }\n\n    /**\n     * @notice Pause the contract.\n     *\n     * Requirements:\n     *\n     * - the caller must be admin.\n     */\n    function pause() public {\n        // Make sure that only admins can pause the contract\n        require(\n            hasRole(DEFAULT_ADMIN_ROLE, _msgSender()),\n            \"NFTMarketplace: Only admins can pause\"\n        );\n\n        // Do it\n        _pause();\n    }\n\n    /**\n     * @notice Unpause the contract.\n     *\n     * Requirements:\n     *\n     * - the caller must be admin.\n     */\n    function unpause() public {\n        // Make sure that only admins can unpause the contract\n        require(\n            hasRole(DEFAULT_ADMIN_ROLE, _msgSender()),\n            \"NFTMarketplace: Only admins can unpause\"\n        );\n\n        // Do it\n        _unpause();\n    }\n\n    /**\n     * @dev Function to transfer coins (the native cryptocurrency of the \n     * platform, i.e.: ETH) from this contract to the specified address.\n     *\n     * @param to - Address where to transfer the coins\n     * @param amount - Amount (in wei)\n     *\n     */\n    function _sendViaCall(address payable to, uint256 amount) private {\n        (bool sent, ) = to.call{value: amount}(\"\");\n        require(sent, \"NFTMarketplace: Failed to send coins\");\n    }\n\n    /**\n     * Returns `true` if the signer has the admin or the operator role.\n     *\n     * @param collection The ERC-721 smart contract.\n     * @param tokenId The unique identifier of the ERC-721 token within the `collection` smart contract.\n     * @param buyer Seller address.\n     * @param buyer Buyer address.\n     * @param price Price of the NFT expressed in coins or tokens.\n     * @param token The ERC-20 smart contract address.\n     * @param royaltyFee Royalty fee.\n     * @param investorFee Investor fee.\n     * @param marketplaceFee Marketplace fee.\n     * @param signature ECDSA signature.\n     */\n    function _validateTrade(\n        address collection,\n        uint256 tokenId,\n        address seller,\n        address buyer,\n        uint256 price,\n        address token,\n        uint256 royaltyFee,\n        uint256 investorFee,\n        uint256 marketplaceFee,\n        Signature calldata signature\n    ) private view returns (bool) {\n        bytes32 hash = keccak256(\n            abi.encode(\n                address(this),\n                collection,\n                tokenId,\n                seller,\n                buyer,\n                price,\n                token,\n                royaltyFee,\n                investorFee,\n                marketplaceFee\n            )\n        );\n\n        address signer = ecrecover(\n            keccak256(\n                abi.encodePacked(\"\\x19Ethereum Signed Message:\\n32\", hash)\n            ),\n            signature.v,\n            signature.r,\n            signature.s\n        );\n\n        return\n            hasRole(DEFAULT_ADMIN_ROLE, signer) ||\n            hasRole(OPERATOR_ROLE, signer);\n    }\n\n    /**\n     * @dev Returns the fee normalized to the number of decimals used in this smart contract.\n     *\n     * @param collection The Autentica ERC-721 smart contract.\n     * @param fee Value represented using the number of decimals used by the `collection` smart contract.\n     */\n    function _normalizedFee(IERC721Autentica collection, uint256 fee)\n        private\n        view\n        returns (uint256)\n    {\n        return (fee * (10**DECIMALS)) / (10**collection.decimals());\n    }\n\n    /**\n     * @dev Returns the number of coins/tokens for a given fee percentage.\n     */\n    function _calculateProceedsForFee(uint256 fee, uint256 price)\n        private\n        pure\n        returns (uint256)\n    {\n        if (fee == 0) {\n            return 0;\n        }\n\n        // Price * Fee (which is already multiplied by 10**DECIMALS) / 100% multiplied by 10**DECIMALS\n        return (price * fee) / (100 * 10**DECIMALS);\n    }\n\n    /**\n     * Returns the owner proceeds.\n     */\n    function _calculateOwnerProceeds(\n        uint256 price,\n        Proceeds memory proceeds\n    ) private pure returns (uint256) {\n        return\n            price -\n            proceeds.marketplace -\n            proceeds.creator -\n            proceeds.investor;\n    }\n\n    /**\n     * @dev Makes sure that the `collection` is a valid ERC-721 smart contract.\n     */\n    function _validateERC721(address collection) private view {\n        require(\n            ERC165Checker.supportsInterface(\n                collection,\n                type(IERC721).interfaceId\n            ),\n            \"NFTMarketplace: Collection does not support the ERC-721 interface\"\n        );\n    }\n\n    /**\n     * @dev Makes sure that the owner approved this smart contract for the token.\n     */\n    function _validateNFTApproval(\n        address collection,\n        uint256 tokenId,\n        NFT memory nft\n    ) private view {\n        require(\n            isMarketplaceApproved(IERC721(collection), tokenId, nft.owner),\n            \"NFTMarketplace: Owner has not approved us for managing its NFTs\"\n        );\n    }\n\n    /**\n     * @dev Make sure that all the fees sumed up do not exceed 100%.\n     */\n    function _validateFees(\n        uint256 royaltyFee,\n        uint256 marketplaceFee\n    ) private pure {\n        require(\n            royaltyFee + marketplaceFee <= 100 * 10**DECIMALS,\n            \"NFTMarketplace: Total fees cannot be greater than 100%\"\n        );\n    }\n\n    /**\n     * @dev Returns the NFT details.\n     *\n     * @param collection The ERC-721 smart contract.\n     * @param tokenId The unique identifier of the ERC-721 token within the `collection` smart contract.\n     */\n    function _nftDetails(address collection, uint256 tokenId)\n        private\n        view\n        returns (NFT memory)\n    {\n        // Assemble the NFT details\n        NFT memory nft = NFT({\n            owner: IERC721(collection).ownerOf(tokenId),\n            creator: address(0x0), // Will get overriden below if this is a Autentica ERC-721 collection\n            investor: address(0x0) // Will get overriden below if this is a Autentica ERC-721 collection\n        });\n\n        // Update the information about the creator and investor\n        if (ERC165Checker.supportsInterface(collection, type(IERC721Autentica).interfaceId)) {\n            // This is a smart contract implementing `IERC721Autentica`\n            nft.creator = IERC721Autentica(collection).getCreator(tokenId);\n            nft.investor = IERC721Autentica(collection).getInvestor(tokenId);\n        } else if (ERC165Checker.supportsInterface(collection, type(IERC2981).interfaceId)) {\n            // This is a smart contract implementing `IERC2981`\n            (nft.creator, ) = IERC2981(collection).royaltyInfo(tokenId, 100 * (10 ** DECIMALS));\n            // The reason for why we use `100 * (10 ** DECIMALS)` as the sale price is because other\n            // implementations of `ERC-2981` may return `address(0x0)` for the \n            // `receiver` if the values are too low or zero.\n        }\n\n        return nft;\n    }\n\n    /**\n     * @dev Returns the Percentages details.\n     *\n     * @param nft NFT details.\n     * @param royaltyFee Royalty fee.\n     * @param investorFee Investor fee.\n     * @param marketplaceFee Marketplace fee.\n     */\n    function _percentagesDetails(\n        NFT memory nft,\n        uint256 royaltyFee,\n        uint256 investorFee,\n        uint256 marketplaceFee\n    ) private pure returns (Percentages memory) {\n        Percentages memory percentages = Percentages({creator: 0, investor: 0});\n\n        if (nft.owner == nft.creator) {\n            // CASE 1: The NFT is owned by the creator\n\n            if (nft.investor != address(0x0) && investorFee > 0) {\n                // CASE 1.1: The investor will receive X% from the creator/owner's end\n                percentages.investor = (investorFee * ((100 * 10**DECIMALS) - marketplaceFee)) / (100 * 10**DECIMALS);\n            }\n        } else {\n            // CASE 2: The NFT is owned by someone else\n\n            if (nft.creator != address(0x0) && royaltyFee > 0) {\n                // CASE 2.1: The creator will get payed too\n                percentages.creator = royaltyFee;\n\n                if (nft.investor != address(0x0) && investorFee > 0) {\n                    // CASE 1.1: The investor will receive X% from the creator's end\n                    \n                    // Calculate the investor fee\n                    percentages.investor = (investorFee * percentages.creator) / (100 * 10**DECIMALS);\n                    // Shrink the creator fee\n                    percentages.creator = percentages.creator - percentages.investor;\n                }\n            }\n        }\n\n        return percentages;\n    }\n}\n",
  "sourcePath": "/Volumes/Storage/Workspace/Projects/Autentica/smart-contracts/contracts/NFTMarketplace.sol",
  "compiler": {
    "name": "solc",
    "version": "0.8.12+commit.f00d7308.Emscripten.clang"
  },
  "schemaVersion": "3.4.5",
  "updatedAt": "2022-02-21T15:16:40.766Z",
  "networkType": "ethereum",
  "devdoc": {
    "events": {
      "AllowedTokenAdded(address)": {
        "details": "Emitted when a new token is allowed to be used for trading."
      },
      "AllowedTokenRemoved(address)": {
        "details": "Emitted when a token is not longer allowed to be used for trading."
      },
      "ChangedAutentica(address,address)": {
        "details": "Emitted when the Autentica wallet address has been updated."
      },
      "TradedForCoins(address,uint256,address,address,uint256,uint256,uint256,uint256)": {
        "details": "Emitted when a trade occured between the `seller` (the owner of the ERC-721 token represented by `tokenId` within the `collection` smart contract) and `buyer` which payed the specified `price` in coins (the native cryptocurrency of the platform, i.e.: ETH)."
      },
      "TradedForTokens(address,uint256,address,address,address,uint256,uint256,uint256,uint256)": {
        "details": "Emitted when a trade occured between the `seller` (the owner of the ERC-721 token represented by `tokenId` within the `collection` smart contract) and `buyer` which payed the specified `price` in tokens that are represented by the `token` ERC-20 smart contract address."
      }
    },
    "kind": "dev",
    "methods": {
      "addAllowedToken(address)": {
        "details": "Add a new allowed token to the contract.",
        "params": {
          "tokenAddress": "The address of the allowed token to add. Requirements: - the caller must be admin."
        }
      },
      "allowedTokenAtIndex(uint256)": {
        "details": "Returns the address of the allowed token at the specified index.",
        "params": {
          "index": "The index of the allowed token."
        }
      },
      "canPerformTrade(address,uint256,uint256,address,address,uint256,(uint8,bytes32,bytes32))": {
        "params": {
          "buyer": "Buyer address.",
          "collection": "The ERC-721 smart contract.",
          "currency": "The type of currency (erc20 or native currency)",
          "marketplaceFee": "Marketplace fee.",
          "price": "The price of the NFT in `token` tokens.",
          "signature": "ECDSA signature.",
          "tokenId": "The unique identifier of the ERC-721 token within the `collection` smart contract."
        }
      },
      "decimals()": {
        "details": "Returns the number of decimals used for fees."
      },
      "getInvestorFee(address,uint256)": {
        "params": {
          "collection": "The ERC-721 smart contract.",
          "tokenId": "The unique identifier of the ERC-721 token within the `collection` smart contract."
        }
      },
      "getRoleAdmin(bytes32)": {
        "details": "Returns the admin role that controls `role`. See {grantRole} and {revokeRole}. To change a role's admin, use {_setRoleAdmin}."
      },
      "getRoyaltyFee(address,uint256)": {
        "params": {
          "collection": "The ERC-721 smart contract.",
          "tokenId": "The unique identifier of the ERC-721 token within the `collection` smart contract."
        }
      },
      "grantRole(bytes32,address)": {
        "details": "Grants `role` to `account`. If `account` had not been already granted `role`, emits a {RoleGranted} event. Requirements: - the caller must have ``role``'s admin role."
      },
      "hasRole(bytes32,address)": {
        "details": "Returns `true` if `account` has been granted `role`."
      },
      "initialize(address,address[])": {
        "details": "The initializer (upgradeable constructor) sets the creator of the contract as the admin and operator of this smart contract, sets the wallet address for Autentica and sets the allowed tokens."
      },
      "isMarketplaceApproved(address,uint256,address)": {
        "details": "Verifies if the token owner has approved this smart contract to manage its  NFTs from the specified collection.",
        "returns": {
          "_0": "Returns `true` if this smart contract is approved by the `tokenOwner` in  the `collection` smart contract or only if that specific NFT is approved for this smart contract."
        }
      },
      "isTokenAllowed(address)": {
        "details": "Verifies if a token address has been allowed already."
      },
      "numberOfAllowedTokens()": {
        "details": "Returns the number of allowed tokens."
      },
      "paused()": {
        "details": "Returns true if the contract is paused, and false otherwise."
      },
      "removeAllowedTokenAtIndex(uint256)": {
        "details": "Remove the allowed token at the specified index.",
        "params": {
          "index": "The index of the allowed token. Requirements: - the caller must be admin."
        }
      },
      "renounceRole(bytes32,address)": {
        "details": "Revokes `role` from the calling account. Roles are often managed via {grantRole} and {revokeRole}: this function's purpose is to provide a mechanism for accounts to lose their privileges if they are compromised (such as when a trusted device is misplaced). If the calling account had been revoked `role`, emits a {RoleRevoked} event. Requirements: - the caller must be `account`."
      },
      "revokeRole(bytes32,address)": {
        "details": "Revokes `role` from `account`. If `account` had been granted `role`, emits a {RoleRevoked} event. Requirements: - the caller must have ``role``'s admin role."
      },
      "setAutentica(address)": {
        "details": "Sets the Autentica wallet address. Requirements: - the caller must be admin."
      },
      "supportsInterface(bytes4)": {
        "details": "See {IERC165-supportsInterface}."
      },
      "tradeForCoins(address,uint256,uint256,address,uint256,(uint8,bytes32,bytes32))": {
        "details": "Requirements - The `collection` smart contract must be an ERC-721 smart contract. - The owner of the NFT identified by `tokenId` within the `collection` smart contract must have approved   this smart contract to manage its NFTs. - The `price` and `msg.value` must be equal. - The sum of all the fees cannot be greater than 100%. - The ECDSA signature must be signed by someone with the admin or operator role.",
        "params": {
          "buyer": "Buyer address.",
          "collection": "The ERC-721 smart contract.",
          "marketplaceFee": "Marketplace fee.",
          "price": "The price of the NFT in coins.",
          "signature": "ECDSA signature.",
          "tokenId": "The unique identifier of the ERC-721 token within the `collection` smart contract."
        }
      },
      "tradeForTokens(address,uint256,uint256,address,address,uint256,(uint8,bytes32,bytes32))": {
        "params": {
          "buyer": "Buyer address.",
          "collection": "The ERC-721 smart contract.",
          "marketplaceFee": "Marketplace fee.",
          "price": "The price of the NFT in `token` tokens.",
          "signature": "ECDSA signature. Requirements: - The `collection` smart contract must be an ERC-721 smart contract. - The owner of the NFT identified by `tokenId` within the `collection` smart contract must have approved   this smart contract to manage its NFTs. - The sum of all the fees cannot be greater than 100%. - The ECDSA signature must be signed by someone with the admin or operator role.",
          "token": "The ERC-20 smart contract.",
          "tokenId": "The unique identifier of the ERC-721 token within the `collection` smart contract."
        }
      }
    },
    "version": 1
  },
  "userdoc": {
    "kind": "user",
    "methods": {
      "autentica()": {
        "notice": "Returns the Autentica wallet address."
      },
      "canPerformTrade(address,uint256,uint256,address,address,uint256,(uint8,bytes32,bytes32))": {
        "notice": "Validate the trade."
      },
      "getInvestorFee(address,uint256)": {
        "notice": "If the collection smart contract implements `IERC721Autentica` then the function  returns the investor fee from that smart contract, otherwise it will return 0."
      },
      "getRoyaltyFee(address,uint256)": {
        "notice": "If the collection smart contract implements `IERC721Autentica` or `IERC2981` then  the function returns the royalty fee from that smart contract, otherwise it will return 0."
      },
      "pause()": {
        "notice": "Pause the contract. Requirements: - the caller must be admin."
      },
      "tradeForCoins(address,uint256,uint256,address,uint256,(uint8,bytes32,bytes32))": {
        "notice": "Trades an NFT for a given amount of coins (the native cryptocurrency of the platform, i.e.: ETH)."
      },
      "tradeForTokens(address,uint256,uint256,address,address,uint256,(uint8,bytes32,bytes32))": {
        "notice": "Trades an NFT for a given amount of ERC-20 tokens (i.e.: AUT/USDT/USDC)."
      },
      "unpause()": {
        "notice": "Unpause the contract. Requirements: - the caller must be admin."
      }
    },
    "version": 1
  }
}